:020000040800F2
:105000000000012045760008E55D0008E95D000824
:10501000ED5D0008F15D0008F55D0008000000008E
:10502000000000000000000000000000F95D000822
:10503000FD5D000800000000015E0008055E00083C
:105040008D7600088D7600088D7600088D76000834
:105050008D7600088D7600088D7600088D76000824
:105060008D7600088D7600088D7600088D76000814
:105070008D7600088D7600088D7600088D76000804
:105080008D7600088D7600088D7600088D760008F4
:105090008D7600088D7600088D7600088D760008E4
:1050A0008D760008095E00088D7600088D76000870
:1050B0008D7600088D7600088D7600088D760008C4
:1050C0008D7600088D7600088D7600088D760008B4
:1050D0008D7600088D7600088D7600088D760008A4
:1050E0008D7600088D7600088D7600088D76000894
:1050F0008D7600088D7600088D7600088D76000884
:105100008D7600088D7600088D7600088D76000873
:105110008D7600088D7600088D7600088D76000863
:105120008D7600088D7600088D7600088D76000853
:10513000000000000000000000000000000000006F
:10514000000000000000000000000000000000005F
:10515000000000000000000000000000000000004F
:10516000000000000000000000000000000000003F
:10517000000000000000000000000000000000002F
:10518000000000000000000000000000000000001F
:10519000000000000000000000000000000000000F
:1051A00000000000000000000000000000000000FF
:1051B00000000000000000000000000000000000EF
:1051C00000000000000000000000000000000000DF
:1051D00000000000000000000000000000000000CF
:0451E0005FF8E0F1A3
:1051E40010B5054C237833B9044B13B10448AFF31D
:1051F40000800123237010BD9400002000000000F3
:105204004C7F0008084B10B51BB108480849AFF3A0
:1052140000800848036803B910BD074B002BFBD07E
:10522400BDE81040184700BF000000004C7F000894
:1052340098000020940000200000000030B591B0D8
:105244000024089409940B940C94019402940394FC
:1052540004940594012206924FF4803307930A9232
:1052640002250D950E934FF4E0130F9306A801F059
:10527400F5FC0F230193029503944FF48063049388
:10528400059401A8294601F021FF11B030BD00BFEB
:1052940008B501F095FCFFF7D1FF00F019F800F014
:1052A40075FA00F025FC00F013FE00F0F3F800F0AE
:1052B40075FC00F0C7FAFEE708B50268024B9A4293
:1052C40001D101F08FFC08BD002C0140704700BFE4
:1052D4002DE9F0478AB000240694079408940994B1
:1052E4004D4B9A6942F040029A619A6902F0400279
:1052F4000192019A9A6942F010029A619A6902F045
:1053040010020292029A9A6942F004029A619A691E
:1053140002F004020392039A9A6942F008029A6125
:105324009A6902F008020492049A9A6942F02002EF
:105334009A619B6903F020030593059BDFF8E4A0C1
:1053440050464FF40051224602F0D2F8DFF8D890CC
:1053540048462021224602F0CBF8DFF8D0804046B0
:105364000221224602F0C4F82C4F3846102122466E
:1053740002F0BEF87D23069303250795404606A94F
:1053840001F0BCFF43F6FF7306930795244806A972
:1053940001F0B4FF4FF60F1306930795384606A99C
:1053A40001F0ACFF4FF6DF7306930795484606A954
:1053B40001F0A4FF41F24C0306930795504606A959
:1053C40001F09CFF4FF400530693012607960894BE
:1053D4000995504606A901F091FF202306930796EC
:1053E400089402250995484606A901F087FF069509
:1053F400079608940995404606A901F07FFF1023FB
:105404000693079608940995384606A901F076FF95
:105414000AB0BDE8F08700BF001002400008014058
:105424000010014000140140000C0140001801402C
:10543400144B1B6823BB30B587B00122114B1A6093
:10544400114B5A6942F480725A615B6903F48073A8
:105454000193019B4FF68073029302250395032465
:1054640005940A4802A901F049FF4CF6B37302936C
:1054740003950594064802A901F040FF07B030BD2A
:10548400704700BFB0000020001002400018014027
:105494000014014000B589B017484FF02043036061
:1054A40003F58273436000228260C26002611023AC
:1054B40043618261C261026242624FF4805383623B
:1054C400C262026342638263022301930292052350
:1054D4000393049205920692079201A900F0B0FD8D
:1054E40008B1FFF7F3FE054AD36943F48063D3613F
:1054F40009B05DF804FB00BF140100200000014066
:1055040008B5FFF795FF08BD00B583B08DF8070017
:10551400084801F0C3F80128FAD106480DF1070143
:1055240001224FF6FF7300F015FE002003B05DF872
:1055340004FB00BF5801002010B5074C2046102181
:10554400002201F0D5FF0620FFF7DEFF20461021E0
:10555400012201F0CDFF10BD0008014000B583B069
:10556400084801F09BF80128FAD106480DF107011B
:1055740001224FF6FF7300F0DDFF9DF8070003B032
:105584005DF804FB5801002038B5094C2046102171
:10559400002201F0ADFF0520FFF7B6FFFFF7DEFFA5
:1055A400054620461021012201F0A2FF284638BDFD
:1055B4000008014008B5012001E0FFF7E5FF10F005
:1055C400010FFAD108BD00BF10B5104C20461021C0
:1055D400002201F08DFF5020FFF796FF2046102196
:1055E400012201F085FF20461021002201F080FFF6
:1055F4000120FFF789FF0020FFF786FF20461021D6
:10560400012201F075FFFFF7D5FF10BD000801402E
:1056140038B50446FFF7D8FFFFF78EFF0D4D284637
:105624001021002201F064FF2020FFF76DFFC4F376
:105634000740FFF769FFC4F30720FFF765FFE0B2F7
:10564400FFF762FF28461021012201F051FFFFF706
:10565400B1FF38BD0008014010B5084C20461021A8
:10566400002201F045FF0420FFF74EFF20461021E1
:10567400012201F03DFFFFF79DFF10BD000801402E
:105684002DE9F04104460F469046FFF7C1FFFFF7AE
:105694009BFFFFF751FF274D28461021002201F000
:1056A40027FFAD20FFF730FFC4F30740FFF72CFFBF
:1056B400C4F30720FFF728FFE0B2FFF725FF38788F
:1056C400FFF722FF7878FFF71FFF284610210122F9
:1056D40001F00EFF02241AE0013B00E07823002BC6
:1056E400FAD1144D28461021002201F001FFAD200B
:1056F400FFF70AFF661C385DFFF706FF0234B85D4A
:10570400FFF702FF28461021012201F0F1FEA04517
:10571400E4D8642300E0013B002BFCD1FFF79CFF9D
:1057240004481021002201F0E3FEFFF743FFBDE827
:10573400F08100BF0008014070B504460E461546CE
:1057440011481021002201F0D3FE0B20FFF7DCFEEC
:10575400C4F30740FFF7D8FEC4F30720FFF7D4FED5
:10576400E0B2FFF7D1FE0020FFF7CEFE002403E0F5
:10577400FFF7F4FE30550134AC42F9D3024810214E
:10578400012201F0B5FE70BD0008014008B50E48C5
:105794000E4B03604FF48273436000238360C36045
:1057A40002220261012242614FF4007282611022DE
:1057B400C2610362436283620723C36200F072FF23
:1057C40008B1FFF783FD08BD5801002000300140F7
:1057D40010B586B0002302930393049305930268E3
:1057E400164B9A4227D103F560439A6942F48052DA
:1057F4009A619A6902F480520092009A9A6942F07E
:1058040004029A619B6903F004030193019BA023A2
:1058140002930223039303230593094C204602A910
:1058240001F06CFD4023029300230393049320466C
:1058340002A901F063FD06B010BD00BF00300140B5
:10584400000801402DE9F041424801F077FF85B29C
:10585400002305E03F4AD15C3F4AD15401339BB257
:10586400AB42F7D3DFF8F080002408F803403B4F45
:10587400384628213A4A374B01F02EFF384600F0CB
:1058840093FA3E4646F8044B7C6046F8044F46F8CB
:10589400044F46F8044F46F8044F46F8044F46F8C0
:1058A400044F46F8044F46F8044F384628212D4A41
:1058B400434601F011FF384600F076FA3B4643F8C0
:1058C400044B7C60043343F8044B43F8044B43F823
:1058D400044B43F8044B43F8044B43F8044B1C605B
:1058E4003460204641461422FFF7CAFE4FF47A7012
:1058F40001F08AF9204641461422FFF71DFF38467D
:105904002821194A434601F0E7FE384600F04CFAD4
:10591400234620460BE0104B1A5C0E4B1B5C9A424C
:1059240001D1012301E028460023013080B2A842BE
:10593400F1D34BB10D482021012201F0D9FD0648D5
:1059440000F032FABDE8F081094800F02DFABDE814
:10595400F08100BF00000020B4000020C800002037
:10596400787F0008847F0008947F0008000C0140C1
:10597400A47F000880B24FF0C043188089B203F5B9
:1059840000331980704700BF80B2014B1880704704
:105994000000026080B24FF0C0431880704700BF1F
:1059A4002DE9F0410C46E2295CD806461546022052
:1059B4000021FFF7DFFF03203146FFF7DBFF042060
:1059C4000021FFF7D7FF05203118FFF7D3FF4FEA77
:1059D400142806204146FFF7CDFFE7B207203946D9
:1059E400FFF7C8FF04F10B0108200141FFF7C2FFD4
:1059F40007F10B010920C9B2FFF7BCFF0220002107
:105A0400FFF7B8FF03203146FFF7B4FF06204146F5
:105A1400FFF7B0FF07203946FFF7ACFF2220FFF75E
:105A2400B9FF203DEFB200261AE007EB47039B00C5
:105A340033440D4AD55C00240EE015F0010F04D068
:105A44000A4B1888FFF7A0FF03E04FF6FF70FFF73B
:105A54009BFF6D080134E4B2052CEED90136F6B291
:105A64000B2EE2D9BDE8F081B47F0008F0000020DD
:105A740070B504460E46154606E020463146FFF74B
:105A84008FFF0634E4B201352A78002AF5D170BDBF
:105A940010B5002409E004EB4403990089B2002006
:105AA400034AFFF7E5FF0134A4B2142CF3D910BD67
:105AB4002884000810B50C4C20460221002201F075
:105AC40017FD0A2001F0A0F820460221012201F06E
:105AD4000FFD0A2001F098F804484FF40051012208
:105AE40001F006FD10BD00BF001801400014014084
:105AF40008B50A480A4B03604FF4E13343600023BE
:105B04008360C36003610C2242618361C36101F05D
:105B140025F808B1FFF7DAFB08BD00BFB00100208B
:105B24000038014010B586B0002302930393049318
:105B340005930268174B9A4229D103F558439A6991
:105B440042F480429A619A6902F480420092009A77
:105B54009A6942F004029A619B6903F00403019379
:105B6400019B4FF4007302930223039303230593D1
:105B7400094C204602A901F0C1FB4FF48063029353
:105B8400002303930493204602A901F0B7FB06B057
:105B940010BD00BF003801400008014008B5FFF700
:105BA40089FFEA200021FFF7E5FEEB202021FFF723
:105BB400E1FEEC203C21FFF7DDFEED20C421FFF7E0
:105BC400D9FEE8204821FFF7D5FEE9203821FFF768
:105BD400D1FEF1200121FFF7CDFEF2200821FFF7CD
:105BE400C9FE40200121FFF7C5FE41200721FFF730
:105BF400C1FE42200921FFF7BDFE43201921FFF712
:105C0400B9FE44201721FFF7B5FE45202021FFF7F8
:105C1400B1FE46201821FFF7ADFE47206121FFF7B2
:105C2400A9FE48200021FFF7A5FE49201021FFF717
:105C3400A1FE4A201721FFF79DFE4B201921FFF7F3
:105C440099FE4C201421FFF795FE50201F21FFF7E9
:105C540091FE51202821FFF78DFE52202621FFF7C7
:105C640089FE53203621FFF785FE54203821FFF7A3
:105C740081FE55203E21FFF77DFE56201E21FFF7B1
:105C840079FE57206721FFF775FE58200B21FFF797
:105C940071FE59200621FFF76DFE5A200821FFF7F7
:105CA40069FE5B200F21FFF765FE5C201F21FFF7D3
:105CB40061FE5D20CC21FFF75DFE1B200146FFF74E
:105CC40059FE1A200121FFF755FE24207021FFF709
:105CD40051FE25205821FFF74DFE23206E21FFF7AA
:105CE40049FE18203621FFF745FE19200121FFF750
:105CF40041FE01200021FFF73DFE1F20D021FFF7C8
:105D040039FE17200521FFF735FE36200921FFF75C
:105D140031FE28203F21FFF72DFE16205021FFF7EA
:105D240029FE1620E021FFF725FE02200021FFF7BF
:105D340021FE03200021FFF71DFE04200021FFF7B0
:105D440019FE0520EF21FFF715FE06200021FFF7BD
:105D540011FE07200021FFF70DFE08200121FFF7A7
:105D640009FE09203F21FFF705FE00220C4B1A60B3
:105D740007E04FF6FF70FFF707FE094A1368013387
:105D84001360074B1B68B3F5963FF2D30022044B14
:105D94001A60FFF77DFE4FF47842024B1A8008BD6B
:105DA400F4000020F000002038B505460B4B1B889A
:105DB400102B04D90022094B1A80FFF769FE074C07
:105DC4002388C3EBC3035900023189B202202A4657
:105DD400FFF74EFE23880133238038BDF8000020EE
:105DE400704700BFFEE700BFFEE700BFFEE700BF4D
:105DF400FEE700BF704700BF704700BF704700BF99
:105E0400704700BF08B5024800F0A4FC08BD00BFFD
:105E1400F001002082B00E4B9A6942F001029A61AF
:105E24009A6902F001020092009ADA6942F0805203
:105E3400DA61DB6903F080530193019B054A5368DF
:105E440023F0E06343F08063536002B0704700BF07
:105E5400001002400000014000B589B0014619203D
:105E6400002201F05DFB192001F08CFB144B9A69B0
:105E740042F400629A619B6903F400630193019BFD
:105E840003A802A901F01CFA01F00AFA0D4BA3FBC6
:105E940000239B0C013B0C480C4A026040F2E732A1
:105EA400C260436000230361836000F059FD18B9A8
:105EB400054800F03BFC00E0012009B05DF804FB5C
:105EC4000010024083DE1B43F0010020002C01403F
:105ED40008B50348034901F0ADFB034B187008BD36
:105EE400140000203002002034020020024B012262
:105EF4001A701878704700BF28000020024B012256
:105F04001A701878704700BF2800002000207047DE
:105F1400002070470120704770B40A6850F822309E
:105F240023F0010340F822308A68082A20D10D6842
:105F340050F825301F4C1C404E683243CE68324323
:105F44000E6932434B691A438B691A43CB691A436E
:105F54000B6A1A434B6A1A438B6A1A43CB6A13437C
:105F64000A6B1343234343F0400340F825301DE0FC
:105F74000D6850F825300F4C1C404B681A43CB6811
:105F84001A430B691A434B691A438B691A43CB6949
:105F94001A430B6A1A434B6A1A438B6A1A43CB6A35
:105FA40013430A6B1343234340F82530002070BC8D
:105FB400704700BF8100F7FF70B4013250F82230FF
:105FC40003F040460B684D6843EA05138D6843EAC5
:105FD4000523CC6843EA04450B69013B45EA0354B5
:105FE4004B69023B44EA036389690B43334340F83A
:105FF4002230002070BC7047B3F5804F14D130B408
:1060040050F822300D4D1D400C684B6844EA0314CF
:106014008B6844EA03248B691C43CB6844EA03433A
:106024002B4340F8223005E06FF0704340F82230F3
:1060340000207047002030BC704700BF0000F0CF44
:1060440038B370B5044615460E4690F83D3013F04B
:10605400FF0F04D1002380F83C30FFF751FA2146AA
:1060640051F8080BFFF758FF20683146A268FFF784
:10607400A3FF60682946A268236BFFF7BDFF22686F
:10608400A16852F8213043F0010342F82130002086
:1060940070BD0120704700BFF8B506460C46174690
:1060A4001D4636E0B5F1FF3F33D02DB100F0A6FD1B
:1060B400069BC01AA8422CD33268536823F0E0032D
:1060C40053607368B3F5827F0BD1B368B3F5004FA7
:1060D40002D0B3F5806F04D13268136823F0400313
:1060E4001360B36AB3F5005F0BD13268136823F40D
:1060F40000531B041B0C13603268136843F40053F1
:106104001360012386F85130002386F850300320B1
:10611400F8BD33689B682340A34201D1012300E00A
:106124000023BB42BED10020F8BD00BF10B582B031
:1061340004460B46009280210022FFF7ADFF034680
:1061440020B1636D43F0200363650323184602B056
:1061540010BD00BF2DE9F04184B004461D4690F8FF
:106164005030012B00F0C6800E469046012380F883
:10617400503000F043FD074694F85130DBB2012B58
:1061840040F0A080002E00F09F80B8F1000F00F0D6
:106194009D80032384F85130002363652663A4F8AB
:1061A4003480A4F83680A363A387E38763642364FD
:1061B400A368B3F5004F04D12268136843F4804305
:1061C400136023681A6812F0400F03D11A6842F072
:1061D40040021A60E368B3F5006F2AD163681BB10B
:1061E400E38E9BB2012B1FD1236836F8022BDA60B1
:1061F400E38E013B9BB2E38616E023689A6812F0B3
:10620400020F07D036F8022BDA60E38E013B9BB213
:10621400E38609E0002D5BD0B5F1FF3F04D000F028
:10622400EDFCC01BA84255D2E38E9BB2002BE4D1F7
:1062340029E063681BB1E38E9BB2012B1FD1236855
:1062440016F8012B1A73E38E013B9BB2E38616E02A
:1062540023689A6812F0020F07D016F8012B1A73FC
:10626400E38E013B9BB2E38609E0002D34D0B5F107
:10627400FF3F04D000F0C2FCC01BA8422ED2E38E24
:106284009BB2002BE4D100972046022101222B4629
:10629400FFF702FF20BB204629463A46FFF746FF98
:1062A40018B12023636501201DE0A36833B903936B
:1062B4002368DA6803929B680393039B636D8BB92D
:1062C400002010E002200EE001200CE001200AE092
:1062D400032008E0032006E0032004E0032002E09A
:1062E400032000E00120012384F85130002384F8C6
:1062F400503000E0022004B0BDE8F0812DE9F04305
:1063040085B0044698460C9D90F85030012B00F05F
:106314000D810F461646012380F8503000F06EFCC4
:10632400814694F85130DBB26268012B0AD0B2F591
:10633400827F40F0E180A268002A40F0DF80042BD5
:1063440040F0DE80002F00F0DD80002E00F0DC80C5
:10635400B8F1000F00F0DA8094F85130DBB2012B71
:1063640002D1052384F8513000236365A663A4F8A1
:106374003E80A4F83C802763A4F83680A4F83480D7
:106384002364636423681A6812F0400F03D11A6807
:1063940042F040021A60E368B3F5006F47D16368C6
:1063A4001BB1E38E9BB2012B07D1236837F8022B74
:1063B400DA60E38E013B9BB2E3864FF001082DE0E7
:1063C400B8F1000F10D0E38E9BB26BB123689A68CA
:1063D40012F0020F08D037F8022BDA60E38E013B8B
:1063E4009BB2E3864FF00008E38F9BB26BB1236846
:1063F4009A6812F0010F08D0DB6826F8023BE38F9D
:10640400013B9BB2E3874FF00108B5F1FF3F05D094
:1064140000F0F4FBC9EB0000A84279D2E38E9BB2F2
:10642400002BCDD1E38F9BB2002BC9D146E063682A
:106434001BB1E38E9BB2012B07D1236817F8012B04
:106444001A73E38E013B9BB2E3864FF001082DE003
:10645400B8F1000F10D0E38E9BB26BB123689A6839
:1064640012F0020F08D03A781A73E38E013B9BB204
:10647400E38601374FF00008E38F9BB26BB12368CA
:106484009A6812F0010F08D0DB683370E38F013B88
:106494009BB2E38701364FF00108B5F1FF3F05D009
:1064A40000F0ACFBC9EB0000A84233D2E38E9BB2F0
:1064B400002BCDD1E38F9BB2002BC9D1CDF8009036
:1064C4002046022101222B46FFF7E6FD20BB204691
:1064D40029464A46FFF72AFE18B1202363650120A6
:1064E4001DE0A368D3B9002003902368DA680392FF
:1064F4009B680393039B12E0022010E002200EE04D
:1065040002200CE001200AE0012008E0012006E05E
:10651400032004E0032002E0032000E00020012324
:1065240084F85130002384F8503000E0022005B094
:10653400BDE8F0832DE9F04182B004460D46904653
:106544001E464368B3F5827F0AD1836843B90423A6
:1065540080F8513000962A464346FFF7CFFE99E073
:1065640094F85030012B00F09480012384F85030CB
:1065740000F044FB074694F85130DBB2012B72D192
:10658400002D72D0B8F1000F71D0042384F851307B
:1065940000236365A563A4F83C80A4F83E802363CC
:1065A400A386E38623646364A368B3F5004F04D130
:1065B4002268136823F48043136023681A6812F076
:1065C400400F03D11A6842F040021A60E368BBB17D
:1065D40031E023689A6812F0010F07D01B7B05F89D
:1065E400013BE38F013B9BB2E38709E0002E40D0DF
:1065F400B6F1FF3F04D000F001FBC01BB0423AD219
:10660400E38F9BB2002BE4D119E023689A6812F05F
:10661400010F07D0DB6825F8023BE38F013B9BB2F7
:10662400E38708E04EB3B6F1FF3F04D000F0E6FA8A
:10663400C01BB04223D2E38F9BB2002BE5D1636829
:10664400B3F5827F0BD1A368B3F5004F02D0B3F545
:10665400806F04D12268136823F040031360636DD4
:106664007BB900200EE002200CE001200AE00120AA
:1066740008E0032006E0032004E0032002E00320F6
:1066840000E00120012384F85130002384F85030C5
:1066940000E0022002B0BDE8F08100BF90F8510094
:1066A400704700BF00283CD010B504460023836225
:1066B40090F8513013F0FF0F01D1FFF789F802234E
:1066C40084F851302268136823F040031360216872
:1066D4006268A3681A43E3681A4323691A43636927
:1066E4001A43A36903F400731343E2691343226A50
:1066F4001343A26A1A430A602168638B03F00402FD
:10670400636A13434B602368E26A1A612268D3699F
:1067140023F40063D36100206065012384F85130C1
:1067240010BD0120704700BF704700BF0268D368E6
:1067340043F00103D3600268136843F0010313605C
:1067440000207047704700BF704700BF704700BF0C
:10675400704700BF10B5044603681A6912F0020FAF
:1067640017D0DA6812F0020F13D06FF002021A6128
:106774000123037703689B6913F0030F02D0FFF72B
:10678400E3FF04E0FFF7DEFF2046FFF7DFFF00230F
:10679400237723681A6912F0040F19D0DA6812F00B
:1067A400040F15D06FF004021A61022323772368C3
:1067B4009B6913F4407F03D02046FFF7C5FF05E033
:1067C4002046FFF7BFFF2046FFF7C0FF00232377D3
:1067D40023681A6912F0080F19D0DA6812F0080F4A
:1067E40015D06FF008021A61042323772368DB694C
:1067F40013F0030F03D02046FFF7A6FF05E0204661
:10680400FFF7A0FF2046FFF7A1FF002323772368AB
:106814001A6912F0100F19D0DA6812F0100F15D09F
:106824006FF010021A61082323772368DB6913F4DD
:10683400407F03D02046FFF787FF05E02046FFF79F
:1068440081FF2046FFF782FF0023237723681A691C
:1068540012F0010F09D0DA6812F0010F05D06FF0C1
:1068640001021A612046FEF727FD23681A6912F017
:10687400800F09D0DA6812F0800F05D06FF0800223
:106884001A61204600F08AF823681A6912F0400F52
:1068940009D0DA6812F0400F05D06FF040021A6197
:1068A4002046FFF755FF23681A6912F0200F09D01C
:1068B400DA6812F0200F05D06FF020021A6120462A
:1068C40000F06AF810BD00BF0368244A904212D059
:1068D40002F5006290420ED0B0F1804F0BD0A2F5C9
:1068E4009832904207D002F58062904203D002F5BC
:1068F4008062904203D123F070034A681343174A1D
:10690400904212D002F5006290420ED0B0F1804F56
:106914000BD0A2F59832904207D002F580629042E3
:1069240003D002F58062904203D123F44073CA6815
:10693400134323F080034A69134303608B68C362E3
:106944000B688362054B984203D003F500639842B9
:1069540001D10B690363012343617047002C01409B
:10696400C0B110B5044690F83D3013F0FF0F04D1C8
:10697400002380F83C30FFF7D7FE022384F83D3033
:10698400214651F8040BFFF79FFF012384F83D30A3
:10699400002010BD01207047704700BF704700BF42
:1069A4002DE9F843814601680B6923F44052C3681A
:1069B40013430B61816803691943436919430068F0
:1069C400C26822F4B05323F00C030B43C360D9F81C
:1069D40000104B6923F44072D9F8183013434B610B
:1069E400D9F800505B4B9D4259D100F059FC00EBA3
:1069F400800000EB8000D9F80440A400B0FBF4F45C
:106A0400554EA6FB04346409240100F049FC00EB54
:106A1400800000EB8000D9F804309B00B0FBF3F752
:106A240000F03EFC00EB800000EB8000D9F804305D
:106A34009B00B0FBF3F3A6FB03235B094FF0640850
:106A440008FB13731B013233A6FB03235B0903F01A
:106A5400F0031C4400F024FC00EB800000EB8000F9
:106A6400D9F804309B00B0FBF3F700F019FC00EBFD
:106A7400800000EB8000D9F804309B00B0FBF3F3F6
:106A8400A6FB03235B0908FB13731B013233A6FB2C
:106A94000323C3F343131C44AC60BDE8F88300F044
:106AA400EFFB00EB800000EB8000D9F80440A40069
:106AB400B0FBF4F4284EA6FB04346409240100F06E
:106AC400DFFB00EB800000EB8000D9F804309B0072
:106AD400B0FBF3F700F0D4FB00EB800000EB800088
:106AE400D9F804309B00B0FBF3F3A6FB03235B0946
:106AF4004FF0640808FB13731B013233A6FB032316
:106B04005B0903F0F0031C4400F0BAFB00EB8000C7
:106B140000EB8000D9F804309B00B0FBF3F700F0E1
:106B2400AFFB00EB800000EB8000D9F804309B0041
:106B3400B0FBF3F3A6FB03235B0908FB13731B01F0
:106B44003233A6FB0323C3F343131C44AC60BDE8F8
:106B5400F88300BF003801401F85EB5168B310B5BE
:106B6400044690F8393013F0FF0F04D1002380F865
:106B74003830FEF7D7FF242384F839302268D368ED
:106B840023F40053D3602046FFF70AFF22681369F9
:106B940023F4904313612268536923F02A03536159
:106BA4002268D36843F40053D3600020E0632023B9
:106BB40084F8393084F83A3010BD0120704700BFA2
:106BC40008B5074A136843F010031360032000F06C
:106BD40095FC0020FFF740F9FFF71CF9002008BDE1
:106BE40000200240034A1368034909780B441360E8
:106BF400704700BF9406002029000020014B18684C
:106C0400704700BF9406002038B50446FFF7F6FF2E
:106C14000546B4F1FF3F02D0044B1B781C44FFF738
:106C2400EDFF401B8442FAD838BD00BF2900002084
:106C340082B0084B1B68084AA2FB03235B0A00FBD3
:106C440003F0019000BF019B5A1E0192002BF9D161
:106C540002B070472C000020D34D621070B582B092
:106C64000446036813F0010F6BD0A84B5B6803F074
:106C74000C03042B0AD0A54B5B6803F00C03082B10
:106C84000DD1A24B5B6813F4803F08D09F4B1B6867
:106C940013F4003F55D06368002B52D1B8E1636808
:106CA400B3F5803F05D1994A136843F480331360E8
:106CB40026E063B903F1804303F504331A6822F430
:106CC40080321A601A6822F480221A6018E0B3F540
:106CD400A02F0CD103F18043A3F53C331A6842F48E
:106CE40080221A601A6842F480321A6008E0874BE6
:106CF4001A6822F480321A601A6822F480221A6018
:106D040063687BB1FFF77AFF054605E0FFF776FF7E
:106D1400401B642800F27E817C4B1B6813F4003F07
:106D2400F4D00EE0FFF76AFF054605E0FFF766FFC3
:106D3400401B642800F27081744B1B6813F4003FFD
:106D4400F4D1236813F0020F50D0704B5B6813F03A
:106D54000C0F0AD06D4B5B6803F00C03082B16D1A3
:106D64006A4B5B6813F4803F11D1684B1B6813F0C6
:106D7400020F03D02369012B40F05081634A13684A
:106D840023F0F803616943EAC10313602EE0236929
:106D9400D3B101225E4B1A60FFF730FF054605E0D0
:106DA400FFF72CFF401B022800F23A81574B1B6867
:106DB40013F0020FF4D0554A136823F0F803616905
:106DC40043EAC103136011E00022514B1A60FFF73C
:106DD40015FF054605E0FFF711FF401B022800F2EE
:106DE40021814A4B1B6813F0020FF4D1236813F07E
:106DF400080F29D0A369ABB10122464B1A60FFF7F3
:106E0400FDFE054605E0FFF7F9FE401B022800F2EF
:106E14000B813E4B5B6A13F0020FF4D00120FFF7A5
:106E240007FF11E000223B4B1A60FFF7E7FE05461F
:106E340005E0FFF7E3FE401B022800F2F780334B26
:106E44005B6A13F0020FF4D1236813F0040F00F00F
:106E540089802E4BDB6913F0805F0BD12B4BDA69F1
:106E640042F08052DA61DB6903F080530193019BA5
:106E7400012500E00025284B1B6813F4807F13D103
:106E8400254A136843F480731360FFF7B7FE064680
:106E940005E0FFF7B3FE801B642800F2C9801E4B97
:106EA4001B6813F4807FF4D0E368012B05D1174AE3
:106EB400136A43F00103136222E063B903F18043D0
:106EC40003F504331A6A22F001021A621A6A22F0E4
:106ED40004021A6214E0052B09D10C4B1A6A42F021
:106EE40004021A621A6A42F001021A6208E0074BAD
:106EF4001A6A22F001021A621A6A22F004021A6261
:106F0400E368CBB1FFF77AFE06460FE000100240BB
:106F1400000042428004424200700040FFF76EFECF
:106F2400801B41F28833984200F28480494B1B6AEB
:106F340013F0020FF2D00FE0FFF760FE064606E002
:106F4400FFF75CFE801B41F28833984274D8414BB2
:106F54001B6A13F0020FF3D125B13E4AD36923F023
:106F64008053D361E369002B68D03A4A526802F037
:106F74000C02082A64D0022B37D10022364B1A6047
:106F8400FFF73CFE054604E0FFF738FE401B0228ED
:106F940058D8304B1B6813F0007FF5D1236AB3F542
:106FA400803F06D12B494B6823F40032A368134376
:106FB4004B602848436823F47411236A626A1343BC
:106FC4000B4343600122244B1A60FFF717FE04466B
:106FD40004E0FFF713FE001B022835D81D4B1B6885
:106FE40013F0007FF5D0002031E000221A4B1A6024
:106FF400FFF704FE044604E0FFF700FE001B02282E
:1070040024D8144B1B6813F0007FF5D100201EE038
:1070140001201CE003201AE0032018E0012016E000
:10702400032014E0032012E0032010E003200EE00C
:1070340003200CE003200AE0032008E0002006E01F
:10704400012004E0032002E0032000E0032002B05A
:1070540070BD00BF001002406000424230B486B0F0
:10706400164D02AC28686968AA68EB680FC42B8ABD
:10707400ADF80430124B5B6803F00C02082A19D1F6
:10708400C3F3834206A90A4412F8100C13F4803F98
:107094000CD00B4B5B68C3F340430B4413F8142C24
:1070A400084B03FB00F0B0FBF2F004E0064B03FBDB
:1070B40000F000E0034806B030BC7047647F00086D
:1070C4000010024000127A0000093D0070B5654BC3
:1070D4001B6803F007038B420BD2624A136823F048
:1070E40007030B431360136803F007038B4240F05C
:1070F400A880036813F0020F17D013F0040F04D014
:10710400594A536843F4E0635360036813F0080F6B
:1071140004D0554A536843F460535360524C636837
:1071240023F0F0028368134363600D46044603684A
:1071340013F0010F4DD04268012A05D14A4B1B6858
:1071440013F4003F0DD17EE0022A05D1464B1B68A3
:1071540013F0007F05D178E0434B1B6813F0020F56
:1071640075D041494B6823F0030313434B60FFF789
:1071740045FD06466368012B0ED106E0FFF73EFD90
:10718400801B41F28833984263D8374B5B6803F025
:107194000C03042BF2D11CE0022B15D106E0FFF7FF
:1071A4002DFD801B41F28833984254D82E4B5B68E6
:1071B40003F00C03082BF2D10BE0FFF71FFD801B3B
:1071C40041F28833984248D8274B5B6813F00C0F80
:1071D400F3D1244B1B6803F00703AB420AD9214ABD
:1071E400136823F007032B431360136803F00703AA
:1071F400AB4234D1236813F0040F06D01A494B680C
:1072040023F4E062E36813434B60236813F0080F30
:1072140007D0154A536823F46053216943EAC10334
:107224005360FFF71BFF104B5B68C3F303130F4A54
:10723400D35CD8400E4B18600020FEF70DFE0020F2
:1072440070BD012070BD012070BD012070BD012002
:1072540070BD032070BD032070BD032070BD0120EC
:1072640070BD00BF0020024000100240608400088E
:107274002C000020014B1868704700BF2C00002030
:1072840008B5FFF7F7FF044B5B68C3F30223034A17
:10729400D35CD84008BD00BF0010024070840008D1
:1072A40008B5FFF7E7FF044B5B68C3F3C223034A47
:1072B400D35CD84008BD00BF0010024070840008B1
:1072C4000F2303600B4B5A6802F0030242605A68B2
:1072D40002F0F00282605A6802F4E062C2605B6805
:1072E40003F46053DB080361034B1B6803F00703DB
:1072F4000B6070470010024000200240F0B583B0DC
:1073040000273C46E2E00122A2400B68134093426E
:1073140040F0DB804D68122D2DD00BD8022D27D0E4
:1073240003D85DB3012D1ED035E0032D30D0112DCF
:107334001BD030E0684EB54220D008D8A6F58016A0
:10734400B5421BD006F58036B54224D116E0634E13
:10735400B54213D006F58036B5420FD0A6F5801697
:10736400B54218D10AE0CF6815E0CF68043712E0BF
:10737400CF6808370FE0CF680C370CE08D684DB14B
:10738400012D02D10261082705E04261082702E0CD
:10739400002700E00427FF2B01D8844601E000F118
:1073A400040CFF2B02D84FEA840E03E0A4F1080E6C
:1073B4004FEA8E0EDCF800600F2202FA0EF226EA83
:1073C400020507FA0EF22A43CCF800204A6812F0AC
:1073D400805F7AD0424A956945F0010595619269CA
:1073E40002F001020192019AA208961C3D4D55F843
:1073F400266004F0030E4FEA8E0E0F2505FA0EF5F3
:1074040026EA0506384DA8421FD005F58065A84236
:1074140019D005F58065A84213D005F58065A8420A
:107424000DD005F58065A84207D005F58065A84212
:1074340001D105250AE0062508E0042506E0032518
:1074440004E0022502E0012500E0002505FA0EF51E
:1074540035430232234E46F822504A6812F4803FE4
:1074640004D0224D2A681A432A6004E01F4D2A687A
:1074740022EA03022A604A6812F4003F04D01B4D3A
:107484006A681A436A6004E0184D6A6822EA0302D3
:107494006A604A6812F4801F04D0144DAA681A4323
:1074A400AA6004E0114DAA6822EA0302AA604A68AD
:1074B40012F4001F04D00D4DEA681343EB6004E09E
:1074C4000A4DEA6822EA0303EB6001340F2C7FF6CD
:1074D4001AAF03B0F0BD00BF00002110000031104E
:1074E4000010024000000140000801400004014077
:1074F4000AB10161704709040161704700F0070097
:10750400064AD36823F4E0631B041B0C43EA0020FF
:1075140040F0BF6040F40030D060704700ED00E000
:1075240030B4164BDC68C4F30224C4F10705042DFF
:1075340028BF0425231D062B01D9033C00E00024A9
:10754400012303FA05F5013D2940A140A340013B75
:107554001A400A43002806DA00F00F001201D2B2E2
:10756400074B1A5407E01201D2B200F1604000F553
:10757400614080F8002330BC704700BF00ED00E09C
:1075840014ED00E0410900F01F0001238340024A8A
:1075940042F82130704700BF00E100E00E4B1A684A
:1075A40042F001021A6059680C4A0A405A601A688B
:1075B40022F0847222F480321A601A6822F4802243
:1075C4001A605A6822F4FE025A604FF41F029A604D
:1075D400034A044B9A607047001002400000FFF811
:1075E4000050000800ED00E0114B5B7ADBB2012B88
:1075F4001AD830B40E4C657AEDB200236355657A1F
:1076040004EB85056860607A20440272627AD2B223
:10761400501CC0B2607230320A703A224A702F2273
:107624008A70CB70184601E00120704730BC704767
:10763400FC00002008B50022FFF7D6FF08BD00BFFC
:10764400002103E00B4B5B58435004310A480B4BB9
:1076540042189A42F6D30A4A02E0002342F8043B55
:10766400084B9A42F9D3FFF799FF00F00FF8FDF7A2
:107674000FFE7047B884000800000020940000202A
:10768400940000209C060020FEE700000E4B70B51D
:107694001E460E4C0025E41AA410A54204D056F848
:1076A400253098470135F8E700F04EFC084B094CAB
:1076B4001E46E41AA4100025A54204D056F825302D
:1076C40098470135F8E770BDB0840008B08400081D
:1076D400B0840008B48400080CB430B5164B0C1EFA
:1076E4009DB01D6804DA8B232B604FF0FF301EE041
:1076F4004FF40273ADF814300CBF234604F1FF338A
:10770400049307934FF6FF7302900690ADF816307A
:10771400284621AB02A9209A019300F071F8431C7A
:10772400BCBF8B232B6014B1029B00221A701DB0C6
:10773400BDE8304002B0704790000020034613F8C3
:10774400012B002AFBD1181A013870472DE9F047A4
:107754008E688246B3420C469046994640D38A8945
:1077640012F4906F3AD02568096902236F1A65698B
:1077740005EB450595FBF3F57B1C4B449D4238BF57
:107784001D4653050FD5294600F03AFB064698B12D
:1077940021693A4600F0CAFAA38923F4906343F0BE
:1077A4008003A38113E02A4600F080FB064670B9EB
:1077B4005046216900F0E0FA0C23CAF80030A3898E
:1077C4004FF0FF3043F04003A381BDE8F08726610A
:1077D4003E4426604E466561ED1BA560B14500D26E
:1077E4004E4632462068414600F0ABFAA3680020BA
:1077F4009B1BA36023681E442660BDE8F08700003D
:107804002DE9F0439DB003938B8906461C060D4673
:1078140090460CD50B6953B9402100F0F1FA286069
:10782400286110B90C233360CCE040236B61002342
:10783400099320238DF8293030238DF82A304346CC
:107844001C4613F8012B1AB9B4EB08090FD002E057
:10785400252AF5D1F8E73046294642464B46FFF73C
:1078640075FF013000F0A980099B4B4409932378EC
:10787400002B00F0A28000234FF0FF320493079303
:10788400059206938DF853301A9304F10108444687
:10789400DFF8489121784846052200F039FA08F1CA
:1078A4000108049B30B1C9EB00000122824013435C
:1078B4000493ECE7D80644BF20228DF8532019071F
:1078C40044BF2B228DF8532022782A2A02D007990C
:1078D40023460EE0039A0134111D12680391002A15
:1078E400BBBF524243F0020307920792B8BF04930E
:1078F4000AE01C4622780133303A092A03D80A20C8
:1079040000FB0121F5E7079123782E2B1AD1637828
:107914002A2B0AD1039B02341A1D1B680392002BE5
:10792400B8BF4FF0FF3305930CE0611C00220C46F6
:1079340023780131303B092B03D80A2000FB0232A3
:10794400F5E70592DFF8988021784046032200F09D
:10795400DFF938B1049AC8EB000040238340134395
:107964000493013421781A48062204F101088DF8A1
:10797400281000F0CDF988B1164B33B9039B0733B7
:1079840023F007030833039313E003AB009330465B
:1079940004A92A46104BAFF3008007E003AB009321
:1079A400304604A92A460C4B00F092F8421C0746C4
:1079B40003D0099B3B44099341E7AB895B0601D49F
:1079C400099801E04FF0FF301DB0BDE8F08300BF1F
:1079D4008484000800000000517700087A840008BD
:1079E400808400082DE9F84391461F468A680B6994
:1079F40006469342B8BF1346C9F8003091F84320B5
:107A04000C46DDF8208012B10133C9F80030236838
:107A1400990642BFD9F800300233C9F8003025680E
:107A240015F006051CD094F843302268003318BFC3
:107A3400012392061FD5E118302081F843005A1C17
:107A440094F845102244023382F8431013E0304680
:107A5400394604F119020123C047013007D001352A
:107A6400E368D9F800209B1A9D42F0DBDBE74FF076
:107A7400FF30BDE8F8833046394604F14302C0477D
:107A84000130F4D02268D9F80050E36802F006020D
:107A9400042A08BF5D1B2269A3680CBF25EAE575AB
:107AA40000259342C4BF9B1AED184FF00009A94565
:107AB4000ADA3046394604F11A020123C04701307C
:107AC400D5D009F10109F2E70020BDE8F8830000F0
:107AD4002DE9FF410C461746227E98466E2A06463B
:107AE4000A9B01F1430100F0B08012D8632A23D02D
:107AF4000AD8002A00F0BD80582A40F0CC8084F8CF
:107B04004520DFF804E257E0642A1ED0692A1CD01D
:107B1400C1E0732A00F0B18009D86F2A2ED0702AF0
:107B240040F0B980226842F0200222603FE0752ACA
:107B340024D0782A3BD0AEE01A6804F14205111D26
:107B44001960136884F84230A9E020681A6810F0BC
:107B5400800F02D0101D186008E010F0400F02F1F1
:107B64000400186002D0B2F9003000E01368002B62
:107B74003EDA2D225B4284F8432039E020681A68FB
:107B840010F0800F02D0101D186007E010F0400FB5
:107B940002F10400186001D0138800E01368227E0B
:107BA400DFF864E16F2A0CBF08220A221CE0782265
:107BB400DFF858E184F845202268186812F0800F35
:107BC40000F104051D6003D1550601D5038800E0CA
:107BD4000368D00744BF42F0200222601BB9226828
:107BE40022F0200222601022002084F8430002E0E8
:107BF400DFF814E10A226568002DA8BF2068A5609B
:107C0400A4BF20F00400206003B965B10D46B3FBA6
:107C1400F2F002FB10331EF8033005F8013D034671
:107C24000028F4D100E00D46082A0BD12368DA07B6
:107C340008D5236962689A42DEBF302305F8013C07
:107C440005F1FF35491B21612EE025681A6815F0FE
:107C5400800F606903D0151D1D60136808E015F0DE
:107C6400400F02F104051D60136801D0188000E084
:107C74001860002323610D4616E01A68111D19606F
:107C8400156800212846626800F042F808B1401BDC
:107C94006060636804E004F1420584F84220012333
:107CA4002361002384F84330CDF800803046214618
:107CB40003AA3B46FFF796FE013002D14FF0FF3096
:107CC4001FE0304639462A462369C0470130F5D0C3
:107CD40023689B0705D4E068039B9842B8BF184605
:107CE4000FE00025E368039A9B1A9D42F3DA3046BD
:107CF400394604F119020123C0470130DED00135B1
:107D0400F0E704B0BDE8F0818B8400089C8400088F
:107D140010B5C9B202449042034605D01C78013024
:107D24008C42F8D1184610BD002010BD10B5431E7A
:107D34000A44914204D011F8014B03F8014FF8E7CB
:107D440010BD814210B501EB020301D3421E0BE0CA
:107D54009842FBD28118D21AD34204D013F8014DB1
:107D640001F8014DF8E710BD994204D011F8014B18
:107D740002F8014FF8E710BD30B500293CD051F8A6
:107D8400042C0B1F1D49002AB8BF9B180A680C4617
:107D940012B95A600B6030BD93420DD2196858185D
:107DA400904201BF5A5852181A60426823605A60C0
:107DB40030BD994203D80A4651680029F9D11468A4
:107DC40015199D420AD11B682344D01888421360B8
:107DD40012D10868034413604B680CE002D90C23E9
:107DE400036030BD1C681819884201BF08684968DF
:107DF400001918605960536030BD00BF0C010020A9
:107E040070B5CC1C24F0030408340C2C38BF0C24AB
:107E1400002C064603DA0C233360002070BD8C422C
:107E2400F9D3204A136810461946A1B10A68121BF7
:107E34000ED40B2A03D90A608B188C501FE08B4296
:107E44000BBF5A684A6802605A6018BF0B4616E0B6
:107E54000B464968E9E7144D2B681BB9304600F01E
:107E64004BF828603046214600F046F8421C034691
:107E7400D1D0C51C25F0030585420AD11C6003F14D
:107E84000B001A1D20F00700821A0AD051429950A3
:107E940070BD3046E91A00F02FF80130BBD02B46F4
:107EA400ECE770BD0C01002008010020F8B507467E
:107EB40015460E4621B91146BDE8F840FFF7A0BFAC
:107EC4001AB9FFF759FF2846F8BD00F025F8A84273
:107ED4000ED238462946FFF793FF044650B1314687
:107EE4002A46FFF723FF38463146FFF745FF01E0F6
:107EF4003046F8BD2046F8BD38B5064C002305468B
:107F04000846236000F012F8431C02D1236803B131
:107F14002B6038BD9806002051F8040C0028BEBF21
:107F2400091851F8043CC01804387047044A05493C
:107F34001368002B08BF0B4618441060184670479E
:107F440010010020A0060020F8B500BFF8BC08BC52
:107F54009E467047F8B500BFF8BC08BC9E46704703
:107F640002030405060708090A0B0C0D0E0F101076
:107F7400010200007478427566206973202573003D
:107F84007373744275662070206973202573000032
:107F94007373744275662061206973202573000031
:107FA4007373742074657374206661696C6564000E
:107FB40000000000000000000000000000000404B5
:107FC400040404040004000000140A0A0000000071
:107FD40000000000000014143F140A3F0A0A0000C5
:107FE40000041E1505060C14150F040000001215DC
:107FF4000D0A142C2A1200000000040A0A1E15158A
:108004000936000000020201000000000000000028
:1080140000201008080808080810200000020408BE
:10802400080808080804020000000004150E0E15D4
:108034000400000000000404041F04040400000001
:108044000000000000000000000202010000000027
:10805400001F0000000000000000000000000000FD
:1080640000020000001008080804040202020100D3
:1080740000000E1111111111110E00000000040670
:1080840004040404040E000000000E11110804028C
:10809400011F000000000E11100C1010110E000042
:1080A4000000080C0A0A091E0818000000001F013D
:1080B400010F1010110E000000000E09010F111124
:1080C400110E000000001F09080404040404000049
:1080D40000000E11110E1111110E000000000E11FE
:1080E40011111E10120E0000000000000400000018
:1080F400000400000000000000040000000404006C
:1081040000201008040204081020000000000000F1
:108114001F00001F000000000002040810201008C7
:108124000402000000000E11110804040004000001
:1081340000000E111915151D011E00000000040495
:108144000C0A0A1E1233000000000F12120E121243
:10815400120F000000001E1101010101110E0000A8
:1081640000000F1212121212120F000000001F1250
:108174000A0E0A02121F000000001F120A0E0A0251
:108184000207000000001C1201013911120C00004A
:1081940000003312121E12121233000000001F04DA
:1081A40004040404041F000000003E080808080832
:1081B40008090700000037120A060A0A12370000ED
:1081C4000000070202020202223F000000001B1B03
:1081D4001B1B15151515000000003B1216161A1A64
:1081E4001217000000000E1111111111110E0000E0
:1081F40000000F12120E02020207000000000E110E
:1082040011111117190E180000000F12120E0A1284
:108214001237000000001E1101060810110F0000A3
:1082240000001F1504040404040E000000003312AF
:1082340012121212120C000000003312120A0A0C5D
:108244000404000000001515150E0A0A0A0A0000AD
:1082540000001B0A0A04040A0A1B000000001B0A8F
:108264000A040404040E000000001F0908040402A8
:10827400121F0000001C04040404040404041C0071
:10828400000202020404080808100000000E080896
:108294000808080808080E0000040A00000000008E
:1082A4000000000000000000000000000000003F8B
:1082B40000040000000000000000000000000000B6
:1082C400000C121C123C000000000302020E1212E9
:1082D400120E000000000000001C1202021C00002C
:1082E40000001810101C1212123C000000000000C4
:1082F400000C121E021C000000003804041E0404BA
:10830400041E000000000000003C120C021E221C8F
:1083140000000302020E12121237000000000400D3
:1083240000060404040E000000000800000C080805
:108334000808080700000302023A0A0E1237000078
:108344000000070404040404041F000000000000EB
:10835400000F15151515000000000000000F121283
:108364001237000000000000000C1212120C000072
:1083740000000000000F1212120E0207000000009D
:10838400001C1212121C103800000000001B060210
:108394000207000000000000001E020C101E000076
:1083A40000000004040E040404180000000000008F
:1083B400001B1212123C0000000000000037120AD9
:1083C4000C040000000000000015150E0A0A00004D
:1083D40000000000001B0A040A1B0000000000004B
:1083E4000037120A0C04040300000000001E0804F5
:1083F400041E0000001808080804080808081800EB
:1084040008080808080808080808080800060404FA
:1084140004080404040406000225180000000000F7
:1084240000000000202020202020202020202020C8
:108434002020202020202020202020202020202038
:108444002020202020202020202020202020202028
:108454002020202020202020000000000000000018
:1084640000000000010203040607080900000000E0
:10847400010203044300232D302B2000686C4C00C0
:108484006566674546470030313233343536373810
:10849400394142434445460030313233343536376E
:0C84A40038396162636465660000000006
:0484B0000952000865
:0484B400E551000886
:1084B8005350492053535432352044656D6F0000A2
:1084C80000000000F15E0008015F0008115F00086D
:1084D800155F0008195F00080101000000A24A04A6
:1084E8000000000000000000000000000000000084
:1084F8000000000000000000000000000000000074
:10850800788400080000000000000000000000005F
:108518000000000000000000000000000000000053
:108528000000000000000000000000000000000043
:108538000000000000000000000000000000000033
:0485480030000020DF
:040000050800764534
:00000001FF
