:020000040800F2
:1000000018120020DD010008071000083B0F00084F
:100010000510000871020008A1130008000000008C
:100020000000000000000000000000004501000882
:100030007302000800000000890100082910000870
:10004000F7010008F7010008F7010008F7010008B0
:10005000F7010008F7010008F7010008F7010008A0
:10006000F7010008F7010008F7010008F701000890
:10007000F7010008F7010008F7010008F701000880
:10008000F7010008F7010008F7010008F701000870
:10009000F7010008F7010008F7010008F701000860
:1000A000F7010008DD100008F7010008F70100085B
:1000B000F7010008F7010008F7010008F701000840
:1000C000F7010008F7010008F7010008F701000830
:1000D000F7010008F7010008F7010008F701000820
:1000E000F7010008F7010008F7010008F701000810
:1000F000F7010008F7010008F7010008F701000800
:10010000F7010008F7010008F7010008F7010008EF
:10011000F7010008F7010008F7010008F7010008DF
:10012000F7010008F7010008F7010008F7010008CF
:10013000DFF80CD000F08AF800480047C51300082B
:1001400018120020224B19680868B0E8F00F80F3FD
:100150000988BFF36F8F4FF0000080F311884EF0D5
:100160000D0E70470000000006480068006880F32C
:10017000088862B661B6BFF34F8FBFF36F8F00DFA1
:1001800000BF00BF08ED00E0EFF30980BFF36F8F01
:100190000F4B1A6820E9F00F106008B54FF0BF0050
:1001A00080F31188BFF34F8FBFF36F8F01F078FB9F
:1001B0004FF0000080F31188BDE808401968086816
:1001C000B0E8F00F80F30988BFF36F8F704700BF6E
:1001D00050000020EFF3058070470000064880477C
:1001E00006480047FEE7FEE7FEE7FEE7FEE7FEE71C
:1001F000FEE7FEE7FEE7FEE7951000083101000884
:10020000D2B201E000F8012B491EFBD27047002258
:10021000F6E710B513460A4604461946FFF7F0FF05
:10022000204610BD10B5044604E00B7800F8013BF1
:1002300003B1491C521EF8D2204610BD421C10F8D2
:10024000011B0029FBD1801A70470000064C074DA6
:1002500006E0E06840F0010394E807009847103496
:10026000AC42F6D3FFF768FFEC1A00080C1B00083D
:10027000FEE7704770B5044600F00CF90546601CB7
:1002800002D004480078044400F004F9401BA04266
:10029000FAD370BD400000202DE9F84FDFF8B8A177
:1002A00000220AF1040B144601274FF00F090BF14D
:1002B000040E00BF0B6807FA04F52B40AB4274D163
:1002C000DFF898C14E68A6EB0C0866452BD00DDC14
:1002D000032E34D005DC36B3012E19D0022E2FD1D7
:1002E0001BE0112E16D0122E2AD119E0B8F5881F66
:1002F00019D006DCB8F5803F15D0B8F5801F1FD1A6
:1003000011E0B8F5001F0ED0B8F5041F18D10AE0AF
:10031000CA6815E0CA68121D12E0CA6808320FE008
:10032000CA680C320CE08A682AB1012A4FF0080230
:1003300003D0456104E0042202E0056100E00022F0
:10034000FF2B01D8064601E000F104064FEA8405C0
:1003500001D9A5F12005D6F800C009FA05F82CEA64
:10036000080C02FA05F54CEA050CC6F800C04D6809
:10037000ED006AD53A4DAE6946F00106AE61AD6951
:1003800024F0030605F001050095364D06EB050C3B
:10039000DCF80850A6074FEA167809FA08F6B543C4
:1003A000314EB04202D100261AE04EE02F4EB0424C
:1003B00001D1012614E02E4EB04201D102260FE0F9
:1003C0002C4EB04201D103260AE02B4EB04201D19F
:1003D000042605E0294EB04201D1052600E006269C
:1003E00006FA08F62E43CCF808604D68DAF800608B
:1003F000ED03554601D51E4300E09E432E604D6837
:10040000AD0305D5DBF800601E43CBF8006004E0C7
:10041000DBF800509D43CBF800504D68DEF80060DB
:10042000ED02754601D51E4300E09E432E604D68E7
:10043000AD0205D5084D0C352E681E432E6004E034
:10044000054E0C3635689D433560641C102CFFF456
:1004500031AFBDE8F88F000000040140000011102A
:10046000001002400000014000080140000C014063
:10047000001001400014014000180140001C014020
:10048000C2684A40C26070470AB1016170470904FE
:10049000FBE7000001488068704700004000002032
:1004A0000248816802781144816070474000002052
:1004B000074810B5016841F010010160032000F009
:1004C000B7F8002000F006F800F03EF8002010BD5C
:1004D0000020024000B5014687B00022192000F03C
:1004E00087F8192000F078F81348816941F4006119
:1004F0008161806905A900F400600690684600F0FB
:1005000053F900F087F90D490D4AB0FBF1F10D48A0
:10051000491E0260416040F2E7320021C0E9032138
:10052000816000F066FB10B1012007B000BD0548F6
:1005300000F07BFBF9E700000010024040420F0092
:10054000002C0140E8000020214808B5816941F0F5
:1005500001018161816901F001010091C16941F0EE
:100560008051C161C06900F080500090032000F00C
:100570005FF8002211466FF00B0000F039F80022FE
:1005800011466FF00A0000F033F8002211466FF0B8
:10059000090000F02DF800221146501F00F028F845
:1005A00000221146101F00F023F800221146901E71
:1005B00000F01EF800221146501E00F019F8054800
:1005C000416821F0E06141F08061416008BD0000B8
:1005D000001002400000014000F01F020121914084
:1005E0004009800000F1E020C0F8001170470000D1
:1005F000F0B40E4B1B680C46C3F30223C3F107058E
:10060000042D00D90425191D072901D2002300E07B
:10061000DB1E012606FA05F1491E214099409E4045
:10062000761E16403143F0BC00F0EEBC0CED00E04D
:10063000064900F0070208684FF6FF03184040EA39
:100640000220034A10430860704700000CED00E0F0
:100650000000FA052DE9F047DFF83C8105460E461B
:10066000D8F8000000F00700B0420CD2D8F8001013
:1006700021F007013143C8F80010D8F8000000F05D
:100680000700B04263D12878444C800705D56068E4
:10069000A96820F0F000084360602878C00745D0C2
:1006A0006868012816D02168022816D08907002919
:1006B0004DDA616821F0030101436160FFF7EAFE52
:1006C0006968074641F2883001290FD00229814626
:1006D00019D027E021688903E9E78901E7E700BF2E
:1006E000FFF7D8FEC11B494501D918E08146606873
:1006F000C0F381000128F3D118E000BFFFF7CAFE64
:10070000C11B49450BD86068C0F381000228F5D1B0
:100710000CE000BFFFF7BEFEC11B494502D9032014
:10072000BDE8F087606810F00C0FF3D1D8F8001026
:10073000404601F00701B1420BD9016821F00701E1
:1007400031430160006800F00700B04201D0012091
:10075000E6E72878400705D56068E96820F4E0609E
:10076000084360602878000706D56068296920F48E
:10077000605040EAC100606000F05CF86168084ABF
:10078000C1F30311515CC840064908600020FFF71F
:10079000A1FE0020C4E7000000200240001002403B
:1007A000D41A00084C0000200F2202600C4A536843
:1007B00003F003034360536803F0F003836053685E
:1007C00003F4E063C36052684FF4E06303EAD202CB
:1007D00002610448006800F00700086070470000EC
:1007E00000100240002002400148006870470000ED
:1007F0004C0000200448054900684968044AC1F3D8
:100800000221515CC84070474C000020001002409B
:10081000E41A00080448054900684968044AC1F31D
:10082000C221515CC84070474C00002000100240BB
:10083000E41A000812A185B00FC98DE80F0014A0BA
:10084000144A006804905168134801F00C03042B0B
:1008500010D0082B0ED1C1F38343C9031DF8030048
:100860000AD5516804AAC1F34041515C0A4A504379
:10087000B0FBF1F005B0704708494843FAE70000C3
:1008800002030405060708090A0B0C0D0E0F1010D1
:10089000010200000010024000127A0000093D0031
:1008A0002DE9F84F04460078B94DC00748D0686874
:1008B000C0F38100012807D06868C0F381000228D6
:1008C00009D16868C00306D52868800338D56068F8
:1008D00000286FD034E06068B0F5803F0BD010B1D5
:1008E000B0F5A02F11D0286820F480302860286847
:1008F00020F4802002E0286840F48030286060689E
:1009000088B1FFF7C7FD064609E0286840F480205B
:100910002860F0E7FFF7BEFD801B642875D82868C3
:100920008003F7D50CE0FFF7B5FD064605E000BFF4
:10093000FFF7B0FD801B6428F0D828688003F7D447
:100940002078944E80074FF001094FF000083BD506
:10095000686810F00C0F07D06868C0F381000228A7
:1009600009D16868C00306D42868800714D52069B7
:1009700001281FD110E02069B0B1C6F80090FFF740
:1009800089FD074605E000BFFFF784FDC01B022874
:10099000C4D828688007F7D52868616920F0F80076
:1009A00040EAC10028600FE0C6F80080FFF772FD42
:1009B000074606E0E9E000BFFFF76CFDC01B022818
:1009C00023D828688007F7D4207800072CD57248F0
:1009D000A169D9B1C0F80090FFF75CFD074604E0BB
:1009E000FFF758FDC01B02280FD8686A8007F7D5AB
:1009F0006A484FF4FA510068B0FBF1F0009000BF74
:100A00000098411E0091FAD20EE080E0C0F800800C
:100A1000FFF740FD074604E0FFF73CFDC01B02283E
:100A200075D8686A8007F7D42078400760D5E869F0
:100A30000027C00008D4E86940F08050E861E86908
:100A4000012700F08050009055480168C90513D473
:100A50000168834641F480710160FFF71BFD824607
:100A600006E000BFFFF716FDA0EB0A0064284ED891
:100A7000DBF80000C005F5D5E06801280AD008B110
:100A8000052813D0286A20F001002862286A20F087
:100A9000040002E0286A40F001002862E06841F2A8
:100AA000883B98B1FFF7F6FC82460BE0286A40F0DD
:100AB00004002862EEE700BFFFF7ECFCA0EB0A01A0
:100AC00059455AD8286A8007F6D50CE0FFF7E2FCB2
:100AD000824605E0FFF7DEFCA0EB0A0159454CD841
:100AE000286A8007F6D41FB1E86920F08050E861D9
:100AF000E06988B36968C1F38101022945D0022801
:100B0000C6F8608004D0FFF7C5FC044638E034E046
:100B1000FFF7C0FC074604E0FFF7BCFCC01B02283F
:100B20002BD828688001F7D4206AB0F5803F05D122
:100B30006868A16820F4003008436860D4E90801BF
:100B40000843696821F4741108436860C6F860902E
:100B5000FFF7A0FC044606E015E000BFFFF79AFC93
:100B6000001B022809D828688001F7D50BE000BFD8
:100B7000FFF790FC001B022802D90320BDE8F88F84
:100B800028688001F4D40020F8E70120F6E700008F
:100B90000010024000004242800442424C0000200B
:100BA000007000404FF0E0210428086903D020F0D5
:100BB00004000861704740F00400FAE7704710B580
:100BC000401EB0F1807F01D3012010BD4FF0E02422
:100BD00060610F21601700F017FA0020A061072064
:100BE0002061002010BD10B5FFF7E8FF10BD704771
:100BF000704710B5040003D094F83D0010B107E031
:100C0000012010BD002084F83C00204600F00CF8C4
:100C1000022084F83D00211D206800F065FA0120C3
:100C200084F83D00002010BD70470168CA6842F09A
:100C30000102CA600068016841F001010160002002
:100C40007047704770B50446006801694FF00005B1
:100C5000C943890715D4C168C943890711D4E91E5E
:100C6000016101202077206880698007204602D03A
:100C7000FFF7E7FF04E000F098F8204600F096F850
:100C8000257720680169C943490717D4C168C9435A
:100C9000490713D46FF00401016102202077206816
:100CA000806910F4407F204602D0FFF7CAFF04E0BD
:100CB00000F07BF8204600F079F82577206801697C
:100CC000C943090716D4C168C943090712D46FF094
:100CD00008010161042020772068C0698007204650
:100CE00002D0FFF7AEFF04E000F05FF8204600F00E
:100CF0005DF8257720680169C943C90617D4C16822
:100D0000C943C90613D46FF0100101610820207790
:100D10002068C06910F4407F204602D0FFF791FFA1
:100D200004E000F042F8204600F040F82577206803
:100D30000169C943C90708D1C168C943C90704D1BA
:100D4000891E0161204600F033F820680169C9431B
:100D5000090609D4C168C943090605D46FF08001AA
:100D600001612046FFF743FF20680169C943490636
:100D700009D4C168C943490605D46FF04001016137
:100D8000204600F01FF820680169C94389060BD48A
:100D9000C168C943890607D46FF02001016120466C
:100DA000BDE87040FFF724BF70BD7047704700007A
:100DB00000680349884201D1FFF772BB7047000009
:100DC000002C0140704770B5040004D094F839003D
:100DD000002510B106E0012070BD84F8385020468F
:100DE00000F022F8242084F839002068C16821F43A
:100DF0000051C160204600F0E9F92068016921F442
:100E0000904101612068416921F02A014161206817
:100E1000C16841F40051C160E563202084F83900C5
:100E200084F83A00002070BD10B50068114986B002
:100E300088421DD11048816941F4804181618069F7
:100E40000E4C00F4804004904FF40070009002209B
:100E500001900320039069462046FFF71DFA002108
:100E60002015CDE90001029169462046FFF714FAEA
:100E700006B010BD003801400010024000080140DB
:100E80002DE9F843044690F839001F4616460D46F2
:100E9000202850D1A5B19EB194F8380001284AD03D
:100EA000012084F838004FF00008C4F83C8021206D
:100EB00084F83900FFF7EEFAA6848146E68426E03E
:100EC0000120BDE8F883E08C401EE084A0684B461A
:100ED000B0F5805F4FF000024FF080012046009790
:100EE00003D000F02BFAE8B90DE000F027FAC8B9FA
:100EF00028882168C0F308004860206908B16D1C8B
:100F000005E0AD1C03E0216815F8010B4860E08C9A
:100F10000028D8D14B46002240212046009700F0FF
:100F20000DFA08B10320CCE7202084F8390084F8BA
:100F300038800020C5E70220C3E7FEE7174810B558
:100F4000816986B041F010018161816901F0100171
:100F50000491816941F004018161816901F004011A
:100F60000491816941F00801816180690C4C00F0B5
:100F700008000490002220212046FFF785FA202057
:100F80000090012001900020029002200390694609
:100F90002046FFF781F906B010BD000000100240A6
:100FA000000C01400D4810B50B4901604FF4E131D0
:100FB0004160002181600C22C160C0E9041281619E
:100FC000C161FFF700FF002805D0BDE810404221B5
:100FD00003A000F0E6B910BD00380140A8000020D1
:100FE0002E2E2F5372632F75736172742E6300005F
:100FF0008AB201464FF0FF330148FFF741BF0000BE
:10100000A8000020FEE770470907090E002806DA4D
:1010100000F00F0000F1E02080F8141D704700F18F
:10102000E02080F800147047FFF7DDBD30B58FB0C9
:1010300001210804CDE90010002402940225049146
:10104000CDE907504FF4E01009906846FFF728FCFF
:1010500000B1FEE70F20CDE90A054FF48060CDE92D
:101060000C4002210AA80E94FFF7F4FA00B1FEE743
:10107000FFF7BAFB4FF47A71B0FBF1F0FFF79FFD79
:101080000420FFF78FFD00221146501EFFF7B0FA33
:101090000FB030BD0D48016841F0010101604168A9
:1010A0000B4A1140416001680A4A11400160016821
:1010B00021F480210160416821F4FE0141604FF478
:1010C0001F0181600449C00308607047001002409E
:1010D0000000FFF8FFFFF6FE08ED00E00148FFF713
:1010E000B1BD0000E8000020F0B502681C4B1D4DAA
:1010F0001D4E1E4F1E4C4FF0804C984209D0A0420E
:1011000007D0604505D0A84203D0B04201D0B84214
:1011100004D122F0700E4A6842EA0E02984209D0C9
:10112000A04207D0604505D0A84203D0B04201D00C
:10113000B84203D122F44075CA682A4322F08005E0
:101140004A692A4302608A68C2620A6882629842D7
:1011500001D0A04201D10969016301214161F0BDC3
:10116000002C01400004004000080040000C00403A
:101170000034014094B050216846FFF748F8114808
:10118000FFF75CF8044602460E496846FFF74AF846
:101190000C4A0DEB0403083A002011780DF80410F6
:1011A0005870491C117021466846FFF721FF064C14
:1011B0004FF47A7520212046FFF762F92846FFF7A1
:1011C00059F8F7E708000020000C01402DE9F04134
:1011D000044600680169E26821F44051114301614D
:1011E0002169A0680843616908432168CA6841F21F
:1011F0000C639A430243CA6020684169A26921F4E2
:101200004071114341614C4920686425322688426F
:101210003CD1FFF7FFFA00EBC00101EB0010616861
:101220008900B0FBF1F7FFF7F5FA00EBC00101EB25
:1012300000106168B0468900B0FBF1F0B0FBF5F03A
:101240006FF01801484307EB800106EB0110B0FB7B
:10125000F5F000F0F006FFF7DDFA00EBC00101EB5E
:10126000001061688900B0FBF1F0B0FBF5F006EB0F
:101270000016FFF7CFFA00EBC00101EB0010616828
:101280008900B0FBF1F7FFF7C5FA3BE0FFF7B2FAD0
:1012900000EBC00101EB001061688900B0FBF1F7C1
:1012A000FFF7A8FA00EBC00101EB00106168B0463F
:1012B0008900B0FBF1F0B0FBF5F06FF01801484386
:1012C00007EB800106EB0110B0FBF5F000F0F00633
:1012D000FFF790FA00EBC00101EB00106168890094
:1012E000B0FBF1F0B0FBF5F006EB0016FFF782FA69
:1012F00000EBC00101EB001061688900B0FBF1F761
:10130000FFF778FA00EBC00101EB0010616889007B
:10131000B0FBF1F0B0FBF5F06FF01801484307EBBC
:10132000800108EB0110B0FBF5F0216800F00F0020
:1013300030448860BDE8F081003801402DE9F0417B
:10134000984617460E460446069D1DE0681C1BD0B5
:101350002DB1FFF79FF8A0EB0800A84214D9206830
:10136000C16821F4D071C1602068416921F0010198
:101370004161202084F8390084F83A00002084F884
:1013800038000320BDE8F0812068006836EA0000DC
:1013900004D00020B842D9D00020F3E70120F9E7BB
:1013A000FEE7FEE702E008C8121F08C1002AFAD1D2
:1013B00070477047002001E001C1121F002AFBD1D5
:1013C000704700001CB5FFF773F8FFF72FFEFFF71B
:1013D000B5FDFFF7E7FD09490320CDE90001002332
:1013E000802207A1084800F095FA012802D04FF0AA
:1013F000FF301CBD00F022FAFEE7000004000020D0
:1014000054736B4C65640000751100082DE9F041C0
:10141000054600F0C9F92E4CA068401CA060206869
:101420002C4F10B1606940B32DE02560A068012801
:1014300029D1002606EB860007EB800000F099F921
:10144000761C072EF6D32348283800F092F921485D
:10145000143800F08EF91F488C3000F08AF91D48CE
:10146000A03000F086F91B48B43000F082F919482A
:10147000283860631430A06305E02068E96AC06A18
:10148000884200D82560606A401C6062E96A0120D9
:10149000226988401043206101EB810007EB800046
:1014A000291D00F074F900F08DF9606900280CD056
:1014B0002068E96AC06A884207D207494FF0805025
:1014C0000860BFF34F8FBFF36F8FBDE8F08100005E
:1014D000500000205001002004ED00E010B504464B
:1014E000006B00F079F92046BDE8104000F074B9B7
:1014F00010484FF44061420706D0C01D0D4920F04E
:101500000700411AC1F540610B4A00230144C2E9BA
:1015100000030839103A21F0070111604B600B609D
:101520000B1AC0E9001393604FF000405360D06085
:1015300070470000180200209C000020144E154C3B
:10154000A6F1A0074FF08058DFF84C9012E000BFE2
:1015500000F02AF9F068C568281D00F0F7F8A068C7
:10156000401EA0606068401E606000F02BF92846B5
:10157000FFF7B4FF60680028EAD138680128F9D97C
:10158000C9F80080BFF34F8FBFF36F8FF2E7000001
:10159000F00100205000002004ED00E02DE9F047AC
:1015A0009A46DDE9096481466FF00303206B03EB83
:1015B00082021044089D20F00707002023180A5CCF
:1015C00083F834200A5C12B1401C1028F6D34FF087
:1015D000000884F84380072D00D30625201DE5620E
:1015E00000F0D2F804F1180000F0CEF82461C5F143
:1015F00007006462A061C4F8448084F848805246C1
:101600004946384600F090F82060002E00D0346043
:10161000BDE8F08730B5114900E011460A68824202
:10162000FBD34B685C18844203D14068184448607F
:10163000084643681C18944209D1084C103C2468A1
:10164000A24209D052681A4442600A6812680260D5
:10165000814200D0086030BD0460F9E79C000020A2
:101660000648416B096829B1416BC968C968496876
:10167000816270474FF0FF31FAE700005000002010
:10168000BF2080F31188BFF34F8FBFF36F8FFEE74A
:101690002DE9F0410546002700F0FAF8214E3068A8
:1016A00008B9FFF725FFF068054236D1ADB308351C
:1016B000680704D005F00700C0F10800054465B3D1
:1016C0007068854229D81748103001460C6801E03F
:1016D00020460C466168A94202D221680029F7D150
:1016E00031688C4219D0076821680160606808374A
:1016F000411B102904D9601941606560FFF78AFF1A
:1017000061687068401A7060B268904200D2B06040
:10171000F06801430020C4E9000100F081F9384677
:10172000BDE8F0818C00002010B5031F4FF08074DD
:101730001C601B1F21F001011960191F024B0B6077
:10174000143940380A6010BD81160008D0E9013212
:1017500001699A60D0E901235A604A68824201D146
:1017600082684A60002202610868401E08600868BA
:10177000704700F108014FF0FF32C0E90112C1606B
:1017800001610021016070470021016170474268DA
:101790004A6093688B609368596091600861016842
:1017A000491C016070470000BF2080F31188BFF31F
:1017B0004F8FBFF36F8F02480168491C016070476B
:1017C000A400002003490868401E086001D180F38E
:1017D00011887047A400002070B5002818D00D4D66
:1017E000A0F108046068E968084211D02268002A64
:1017F0000ED18843606000F04BF860686968084467
:1018000068602046FFF706FFBDE8704000F008B9A9
:1018100070BD00008C0000204FF0E020002101612D
:10182000816105494FF47A720968B1FBF2F1491EF2
:1018300041610721016170474C0000201CB5104830
:101840000024CDE90040234680220EA10F4800F07D
:1018500061F8012812D1BF2080F31188BFF34F8FA8
:10186000BFF36F8F06484FF0FF312C3881620121A2
:101870004161C460BDE81C4000F034B81CBD0000EC
:101880007C00002049444C45000000003D15000844
:101890000248016B491C01637047000050000020A2
:1018A0000E48016B11B10121C16170470021C16176
:1018B00001690B4AB1FA81F1C1F11F0101EB81010C
:1018C00002EB810101F108034A6852684A609A42BA
:1018D00001D152684A60D168016070475000002011
:1018E00050010020094810B5016841F47F010160F2
:1018F000016841F07F410160FFF78EFF044900203D
:101900000860FEF731FC002010BD000020ED00E073
:10191000A40000202DE9FF5F8346DDE90E8799468C
:1019200016468A469000FFF7B3FE05001AD04C20F9
:10193000FFF7AEFE040012D025630021CDE902417D
:10194000CDE900874B46324651465846FFF726FE02
:101950002046FFF75BFD012004B0BDE8F09F28465C
:10196000FFF73AFF4FF0FF30F6E700002DE9F041B6
:10197000294C0027206B40B1A069401CA061E069A0
:1019800000B101273846BDE8F081E668761CE660C4
:1019900008D1606BA16B6163A063206A401C206268
:1019A000FFF75EFEA06ADFF87480864209D3606BA1
:1019B000006880B1606BC068C568686886420DD2F7
:1019C000A0622068C06A00EB800158F8210001285D
:1019D000D5D90127D3E74FF0FF30F1E7281DFFF7F6
:1019E000B5FEA86A18B105F11800FFF7AFFEE86A66
:1019F0000121226981401143216100EB800108EB44
:101A00008100291DFFF7C3FEE86A2168C96A884280
:101A1000CDD30127CBE7000050000020500100206B
:101A20002DE9F04700242646FFF7BEFE264D286B21
:101A3000401E2863286BE0BBA968244F0120C1B376
:101A4000A7F18C0980463868E8B1F868C46804F1E9
:101A50001800FFF77BFE201DFFF778FEE06A2A6979
:101A600008FA00F11143296100EB800109EB8100C4
:101A7000211DFFF78CFEE06A2968C96A8842E2D31B
:101A8000C5F81C80DFE70CB1FFF7EAFDAC694CB18B
:101A90004FEA0807FFF76AFF00B1EF61641EF9D152
:101AA0000020A861E86920B10949012630070860D3
:101AB00000E003E0BFF34F8FBFF36F8FFFF782FEAD
:101AC0003046BDE8F087000050000020DC01002017
:101AD00004ED00E00000000000000000010203042B
:101AE0000607080900000000010203040C1B00089F
:101AF00000000020A8000000A4130008B41B000888
:101B0000A800002070110000B4130008300000008D
:101B1000000000002A2A2A2A28432920434F50592E
:101B20005249474854203230313020202020202094
:101B300020202020202020202020202020202020A5
:101B40002A2A2A2A2A2A2A0D0A0000000100000057
:101B5000100000000000000000A24A040000000085
:101B60000000000000000000000000000000000075
:101B70000000000000000000000000000000000065
:101B80000000000000000000000000000000000055
:101B90000000000000000000000000000000000045
:101BA0000000000000000000000000000000000035
:041BB000AAAAAAAA89
:0400000508000131BD
:00000001FF
