:020000040800F2
:1040000000000120897000087D46000881460008F4
:1040100085460008894600088D460008000000001B
:104020000000000000000000000000009166000891
:10403000914600080000000031670008954600081E
:10404000D1700008D1700008D1700008D17000084C
:10405000D1700008D1700008D1700008D17000083C
:10406000D1700008D1700008D1700008D17000082C
:10407000D1700008D1700008D1700008D17000081C
:10408000D1700008D1700008D1700008D17000080C
:10409000D1700008D1700008D1700008D1700008FC
:1040A000D17000089D460008D1700008D17000084A
:1040B000D1700008D1700008D1700008D1700008DC
:1040C000D1700008D1700008D1700008D1700008CC
:1040D000D1700008D1700008D1700008D1700008BC
:1040E000D1700008D1700008D1700008D1700008AC
:1040F000D1700008D1700008D1700008D17000089C
:10410000D1700008D1700008D1700008D17000088B
:10411000D1700008D1700008D1700008D17000087B
:10412000D1700008D1700008D1700008D17000086B
:10413000000000000000000000000000000000007F
:10414000000000000000000000000000000000006F
:10415000000000000000000000000000000000005F
:10416000000000000000000000000000000000004F
:10417000000000000000000000000000000000003F
:10418000000000000000000000000000000000002F
:10419000000000000000000000000000000000001F
:1041A000000000000000000000000000000000000F
:1041B00000000000000000000000000000000000FF
:1041C00000000000000000000000000000000000EF
:1041D00000000000000000000000000000000000DF
:0441E0005FF8E0F1B3
:1041F000044B05481B1A062B02D9044B03B1184780
:10420000704700BF0F0000200C00002000000000DD
:1042100005490648091A891001EBD171491002D0ED
:10422000034B03B1184770470C0000200C0000201E
:104230000000000010B5064C237843B9FFF7D8FF03
:10424000044B13B10448AFF300800123237010BD69
:104250000C000020000000002071000808B5084B89
:104260001BB108480849AFF300800848036813B938
:10427000BDE80840CCE7064B002BF9D09847F7E79C
:104280000000000020710008100000200C00002039
:104290000000000008B50268024B9A4201D101F00B
:1042A00087FB08BD002C0140FEE700BF00B591B0C0
:1042B000012206924FF480330793002108910A925D
:1042C00002220D920E934FF4E0130F9306A801F013
:1042D000ABFB18B11448A121FFF7E6FF0F230193B0
:1042E00002210291002303934FF48062049205930C
:1042F00001A801F0D1FD18B10B48AF21FFF7D4FFA1
:1043000001F08CFE094BA3FB0030800902F01EF87F
:10431000042002F031F84FF0FF300F21002201F0AD
:10432000D7FF11B05DF804FB60710008D34D621037
:1043300008B501F02BFBFFF7B9FF00F00BF800F018
:1043400051F900F0FFF800F0ABF800F095F802F03A
:104350006BFEFEE770B58AB0394B9A6942F04002B5
:104360009A619A6902F040020192019A9A6942F0B8
:1043700010029A619A6902F010020292029A9A69F6
:1043800042F004029A619A6902F004020392039ACD
:104390009A6942F008029A619A6902F0080204924E
:1043A000049A9A6942F020029A619B6903F0200303
:1043B0000593059B234D28462021002201F06CFF28
:1043C0004FF6FF730693032407941F4806A901F0D4
:1043D00069FE42F2FF03069307941C4806A901F008
:1043E00061FE4FF60F1306930794194806A901F0D2
:1043F00059FE47F6DF7306930794284606A901F095
:1044000051FE4FF40043069300260796089628466F
:1044100006A901F047FE4FF6FB73069307940D487B
:1044200006A901F03FFE2023069301230793089677
:1044300002230993284606A901F034FE0AB070BD94
:1044400000100240000C0140001801400010014023
:10445000000801400014014008B50248202101F085
:1044600021FF08BD000C014008B54FF4FA7002F0BE
:10447000FBFDFFF7F1FFF8E730B587B001AC064D63
:104480000FCD0FC42B68236001A8002102F0D2FDDC
:10449000024B186007B030BD38710008740D002061
:1044A00008B50E480E4B0360002343608360C36071
:1044B00003614361836100F06FFF18B109484B212C
:1044C000FFF7F2FE05484FF4006100F081FF18B1DC
:1044D00004485021FFF7E8FE08BD00BF780D00201A
:1044E000008001407C7100080268134B9A4221D180
:1044F00030B587B003F510435A6942F480625A61BF
:104500005B6903F480630193019B4FF4F8530293BA
:104510000225039503240594084802A901F0C2FD71
:104520000423029303950594054802A901F0BAFDFE
:1045300007B030BD704700BF00800140001001404F
:104540000014014008B50E480E4B03604FF482730F
:10455000436000238360C360036143614FF48022A2
:1045600082613822C2610362436283620A23C362AA
:1045700000F07EFF18B104484F21FFF795FE08BDFB
:10458000FC0D0020003001408C7100080268134BC4
:104590009A4222D110B586B003F560439A6942F47D
:1045A00080529A619B6903F480530193019BB0236D
:1045B00002930223039303230593094C204602A987
:1045C00001F070FD402302930023039304932046DF
:1045D00002A901F067FD06B010BD70470030014030
:1045E0000008014008B50B480B4B03604FF4E13362
:1045F000436000238360C36003610C2242618361D6
:10460000C36101F091F918B104484C21FFF74CFE49
:1046100008BD00BF540E0020003801409C71000806
:104620000268144B9A4224D110B586B003F5584362
:104630009A6942F480429A619B6903F48043019332
:10464000019B4FF40073029302230393032305930A
:10465000094C204602A901F025FD4FF48063029326
:10466000002303930493204602A901F01BFD06B02A
:1046700010BD70470038014000080140704700BF7E
:10468000FEE700BFFEE700BFFEE700BFFEE700BF9A
:10469000704700BF08B502F0EFFC08BD08B502483E
:1046A00000F03EFF08BD00BF940E002000B583B0AF
:1046B000244B9A6942F001029A619A6902F0010260
:1046C0000092009ADA6942F08052DA61DB6903F005
:1046D00080530193019B032001F0E8FD6FF00B0074
:1046E00000210A4601F0F4FD6FF00A0000210A469D
:1046F00001F0EEFD6FF0090000210A4601F0E8FD2F
:104700006FF0040000210A4601F0E2FD6FF00300A3
:1047100000210A4601F0DCFD6FF001000F210022AC
:1047200001F0D6FD4FF0FF300F21002201F0D0FD47
:10473000054A536823F0E06343F08063536003B09D
:104740005DF804FB001002400000014000B589B094
:1047500001461920002201F0BBFD192001F0EAFDFD
:10476000144B9A6942F400629A619B6903F40063F6
:104770000193019B03A802A901F076FC01F064FCFF
:104780000D4BA3FB00239B0C013B0C480C4A026021
:1047900040F2E732C260436000230361836000F0AF
:1047A000C5FF18B9054800F0A7FE00E0012009B0D8
:1047B0005DF804FB0010024083DE1B43940E0020D2
:1047C000002C01400C4B1B680C4AA2FB03235A0A25
:1047D00041F2883303FB02F35A1E4BB1416B13467F
:1047E00011F0800FF8D040F2FF5383630020704730
:1047F0004FF00040704700BF04000020D34D62100E
:1048000010B40446134B1B68134AA2FB03235A0A35
:1048100041F2883303FB02F35A1EB3B1616B1346B6
:1048200011F0450FF8D0636B13F0040F02D0042091
:10483000A0630CE0606B10F0010002D00120A063C7
:1048400005E040F2FF53A36301E04FF000405DF844
:10485000044B704704000020D34D621010B404468E
:10486000104B1B68104AA2FB03235A0A41F28833FB
:1048700003FB02F35A1E7BB1616B134611F0450F27
:10488000F8D0606B10F0040002D00420A06305E0B3
:1048900040F2FF53A36301E04FF000405DF8044B8A
:1048A000704700BF04000020D34D6210124B1B68FC
:1048B000124AA2FB03235A0A41F2883303FB02F394
:1048C0005A1EA3B1416B134611F0450FF8D0436B4C
:1048D00013F0040203D040238363042309E0436BF5
:1048E00013F0400305D040238363134601E04FF0EB
:1048F00000431846704700BF04000020D34D6210EB
:1049000084B010B402AC84E80E00039B1943049BEE
:104910001943059B1943069B1943079B194342689A
:1049200022F4FD4323F07F030B43436000205DF836
:10493000044B04B0704700BFD0F88000704700BF40
:104940000323036000207047006800F003007047F5
:104950000B6883604A688B681A43CB6813430A6903
:1049600043EA0201C26822F47F6323F00F030B4382
:10497000C3600020704700BF0069C0B2704700BF2D
:1049800082B000230193143001440191019B186807
:1049900002B0704738B5514B1B68514CA4FB034320
:1049A0005B0A02FB03F2531E002A5ED0446B1A46D8
:1049B00014F0450FF7D0436B13F0040F03D004231A
:1049C0008363184638BD436B13F0010F03D00123F6
:1049D0008363184638BD0D460446FFF7CDFFA84255
:1049E00046D140F2FF53A36320460021FFF7C8FFE2
:1049F00003463C48184000286FD0002B3ADB13F0E8
:104A0000804F3AD113F0005F39D113F0805F38D175
:104A100013F0006F38D113F0806F38D113F0807F1E
:104A200038D113F4000F38D113F4800F38D113F4B8
:104A3000001F38D113F4801F38D113F4802F38D1E0
:104A400013F4003F38D113F4803F38D113F4004FF2
:104A500038D113F4804F38D113F4005F38D113F0FC
:104A6000080F38D04FF4000038BD4FF0004038BD7B
:104A7000012038BD4FF0007038BD402038BD802087
:104A800038BD4FF4807038BD4FF4007038BD4FF41E
:104A9000806038BD4FF4006038BD4FF4805038BDA1
:104AA0004FF4005038BD4FF4804038BD4FF4004003
:104AB00038BD4FF4003038BD4FF4802038BD4FF47E
:104AC000002038BD4FF4801038BD4FF4001038BDC1
:104AD0004FF4800038BD4FF4803038BD0400002012
:104AE000D34D621008E0FFFD70B5254B1B68254CC7
:104AF000A4FB03435C0A41F2883303FB04F35C1E0E
:104B000093B3456B234615F0450FF8D0436B13F074
:104B1000040F03D004238363184670BD436B13F066
:104B2000010F03D001238363184670BD16460D465E
:104B30000446FFF721FFA84219D140F2FF53A363B7
:104B400020460021FFF71CFF034610F4604002D10D
:104B50001B0C338070BD13F4804F0AD113F4004F47
:104B60000AD04FF4805070BD4FF0004070BD01205E
:104B700070BD4FF4005070BD4FF4803070BD00BF69
:104B800004000020D34D62100B6843624B688362BF
:104B90008A68CB681A430B6913434A691A43C36A8C
:104BA00023F0F7031343C3620020704730B587B08A
:104BB000054601911024029440230393002304939B
:104BC0004FF48063059301A9FFF7C2FE28462146F2
:104BD00041F28832FFF7DEFE07B030BD30B587B056
:104BE0000546019207240294402303930023049373
:104BF0004FF48063059301A9FFF7AAFE28462146DA
:104C000041F28832FFF7C6FE07B030BD10B586B05E
:104C10000446002301930293039304934FF48063AB
:104C2000059301A9FFF794FE2046FFF7CBFD06B0E0
:104C300010BD00BF10B586B004464FF4D573019384
:104C40000823029340230393002304934FF48063CB
:104C5000059301A9FFF77CFE2046FFF727FE06B06B
:104C600010BD00BF30B587B00546019137240294CE
:104C700040230393002304934FF48063059301A919
:104C8000FFF766FE2846214641F28832FFF782FE92
:104C900007B030BD10B586B0044641F0004141F484
:104CA000801101912923029340230393002304934D
:104CB0004FF48063059301A9FFF74AFE2046FFF7F2
:104CC000CDFD06B010BD00BF30B587B005460191DF
:104CD0000624029440230393002304934FF480633B
:104CE000059301A9FFF734FE2846214641F2883298
:104CF000FFF750FE07B030BD30B587B00546002342
:104D00000193332402944022039204934FF480636E
:104D1000059301A9FFF71CFE2846214641F288327F
:104D2000FFF738FE07B030BD10B586B0044600234B
:104D3000019302220292C022039204934FF48063F3
:104D4000059301A9FFF704FE2046FFF759FD06B0C1
:104D500010BD00BF10B586B004460191092302932F
:104D6000C0230393002304934FF48063059301A9A8
:104D7000FFF7EEFD2046FFF743FD06B010BD00BF74
:104D800070B586B006460D460023019303240294B5
:104D90004022039204934FF48063059301A9FFF727
:104DA000D7FD304621462A46FFF79EFE06B070BD6D
:104DB00030B583B00446002301930068FFF726FF57
:104DC000002851D12068FFF735FF08B30025A564FE
:104DD00019E0019B5A1C01924FF6FF72934244D096
:104DE00020680021FFF73EFF002841D12068002104
:104DF000FFF750FF00283ED120680021FFF7C0FDDB
:104E0000002800DA0125002DE3D00020606437E09F
:104E10000123A364002528461AE0019B5A1C019235
:104E20004FF6FF72934229D020680021FFF71AFF46
:104E300000B125E020684FF08041FFF72BFF00B163
:104E40001EE020680021FFF79BFD002800DA012505
:104E5000002DE2D010F0804003D0012363640020D5
:104E60000EE0002363640BE00AE04FF0807007E07F
:104E70004FF0805004E04FF0805001E04FF0807020
:104E800003B030BDF0B589B004460D4600F09CFD7E
:104E9000064600230093019320680821FFF786FE51
:104EA000002869D1216D20680904FFF7DBFE002886
:104EB00063D14FF0FF33029308230393302304930D
:104EC000022305930023069301230793206802A978
:104ED000FFF75AFE2068FFF70FFF00284ED100278A
:104EE0000FE04B6B13F4001F05D00846FFF724FDBD
:104EF0004DF82700013700F067FD801BB0F1FF3F40
:104F00003DD021684A6B40F22A431A42E9D04B6BEC
:104F100013F0080F03D008238B63184631E04B6B66
:104F200013F0020F03D002238B63184629E04B6B6A
:104F300013F0200002D02020886322E040F2FF53CB
:104F40008B63009901F47F42120242EA016201F48C
:104F50007F0342EA132343EA11636B60019901F472
:104F60007F42120242EA016201F47F0342EA132304
:104F700043EA11632B6004E003E002E001E04FF03C
:104F8000004009B0F0BD00BF30B583B00546002138
:104F9000009101910068FFF7F3FC10F0007414D148
:104FA00028466946FFF76EFF90B9019B13F4802FE6
:104FB00010D0296D28680904FFF754FE68B92868E5
:104FC0000221FFF781FE50B90AE04FF4006407E0C8
:104FD000044605E04FF0806402E0044600E0044629
:104FE000204603B030BD00BF30B583B00546002178
:104FF000009101910068FFF7C3FC10F0007414D118
:1050000028466946FFF73EFF90B9019B13F4803FA5
:1050100010D0296D28680904FFF724FE68B92868B4
:105020000021FFF751FE50B90AE04FF4006407E099
:10503000044605E04FF0806402E0044600E00446C8
:10504000204603B030BD00BF30B490F867309A09F5
:105050000A70C3F383024A7003F003038B7090F865
:105060006630CB7090F865300B7190F864304B71FE
:1050700090F86B301B01CB8090F86A20CB889BB2F4
:1050800043EA1213CB8002F00F020A7290F86930E3
:10509000DA094A72C3F380128A72C3F34012CA72E9
:1050A000C3F300120A7300224A73426C002A3ED1F5
:1050B00003F003039B020B6190F868200B6943EA3D
:1050C00082030B6190F86F300A6942EA93120A6119
:1050D000C3F3C2020A7503F007034B7590F86E30F4
:1050E0005A098A75C3F38202CA7503F003035B0091
:1050F0000B7690F86D40E2B20B7E43EAD4130B7648
:105100000C69651C45650C7E0234012303FA04F426
:1051100004FB05F444650D7AEDB2AB4083655B0A90
:1051200003FB04F3C3654FF4007303662BE0012A0D
:105130001CD1836E03F03F031B040B6190F86F20BA
:105140000B6943EA02230B6190F86E300A6913433E
:105150000B6190F86D200B699B0203F5806343653A
:10516000C3654FF40073836503660CE0036840F287
:10517000FF529A63836B43F080538363012280F86C
:105180003420104650E0C2F380134B7602F03F0209
:1051900052008A76C36E8C7EC3F3C01222438A7695
:1051A00003F07F03CB7690F87330DA090A77C3F304
:1051B00041124A77C3F382028A7703F003039B000C
:1051C000CB7790F87230CA7F42EA9312CA77C3F362
:1051D000401281F82020002281F8212003F00103F1
:1051E00081F8223090F87130DC0981F82340C3F354
:1051F000801481F82440C3F3401481F82540C3F3A0
:10520000001481F82640C3F3810481F8274003F09D
:10521000030381F82830036FC3F3460381F8293074
:10522000012381F82A30104630BC704730B591B068
:1052300004460123ADF812300068FFF785FB002813
:1052400066D0636C032B19D02068FFF76DFD002832
:1052500061D120680021FFF793FB6067206804217B
:10526000FFF78EFBA06720680821FFF789FBE06746
:1052700020680C21FFF784FBC4F88000636C032BCB
:1052800006D020680DF11201FFF77AFD002843D106
:10529000636C032B1CD0BDF8121021652068090433
:1052A000FFF758FD002838D120680021FFF768FB80
:1052B000606620680421FFF763FBA0662068082170
:1052C000FFF75EFBE06620680C21FFF759FB2067C3
:1052D00020680421FFF754FB000DE064204605A977
:1052E000FFF7B2FE226D206812040023FFF776FC60
:1052F000A0B9234653F8105B93E807008DE8070038
:10530000043494E80E002846FFF7FAFA002005E07E
:105310004FF0806002E001E000E0FFE711B030BD37
:1053200070B58AB005460024049405940694079449
:105330000894C32309930AAB13E907008DE807001B
:1053400004AB0ECB2868FFF7DBFA124E34602868F6
:10535000FFF7F6FA01233360022000F03BFB2846FA
:10536000FFF726FD38B10346012085F83400AA6B0B
:105370001343AB630CE02846FFF758FF034630B1F8
:10538000012085F83400AA6B1343AB6300E00020D2
:105390000AB070BDA0003042B8B110B5044690F814
:1053A000343013F0FF0F03D100230377FFF79CF88D
:1053B000032384F834302046FFF7B2FF0020A063B7
:1053C0002063012384F8343010BD0120704700BFF2
:1053D00030B58BB004460D46032380F83430436C5F
:1053E000032B1CD0B1F5805F04D1836B43F0805355
:1053F000836318E0B1F5006F05D1FFF7C5FDA36B1E
:105400001843A0630FE029B9FFF7EEFDA36B184323
:10541000A06308E0836B43F00063836303E0836B66
:1054200043F080538363A36B3BB1236840F2FF5288
:105430009A63012084F8340018E063680493A36839
:105440000593E3680693079563690893A369099335
:105450000AAB13E907008DE8070004AB0ECB206808
:10546000FFF74EFA012384F8343000200BB030BD32
:1054700000283CD010B504460023836290F85130D8
:1054800013F0FF0F01D1FFF781F8022384F85130A8
:105490002268136823F04003136021686268A368E0
:1054A0001A43E3681A4323691A4363691A43A369D9
:1054B00003F400731343E2691343226A1343A26A9D
:1054C0001A430A602168638B03F00402636A134382
:1054D0004B602368E26A1A612268D36923F400638F
:1054E000D36100206065012384F8513010BD012094
:1054F000704700BF704700BF0268D36843F00103E4
:10550000D3600268136843F0010313600020704702
:10551000704700BF704700BF704700BF704700BFB3
:1055200010B5044603681A6912F0020F17D0DA6842
:1055300012F0020F13D06FF002021A6101230377F9
:1055400003689B6913F0030F02D0FFF7E3FF04E049
:10555000FFF7DEFF2046FFF7DFFF002323772368F6
:105560001A6912F0040F19D0DA6812F0040F15D07E
:105570006FF004021A610223237723689B6913F4F6
:10558000407F03D02046FFF7C5FF05E02046FFF728
:10559000BFFF2046FFF7C0FF0023237723681A6967
:1055A00012F0080F19D0DA6812F0080F15D06FF05A
:1055B00008021A61042323772368DB6913F0030FC1
:1055C00003D02046FFF7A6FF05E02046FFF7A0FF27
:1055D0002046FFF7A1FF0023237723681A6912F002
:1055E000100F19D0DA6812F0100F15D06FF01002FA
:1055F0001A61082323772368DB6913F4407F03D003
:105600002046FFF787FF05E02046FFF781FF204691
:10561000FFF782FF0023237723681A6912F0010F36
:1056200009D0DA6812F0010F05D06FF001021A619B
:105630002046FEF72FFE23681A6912F0800F09D06A
:10564000DA6812F0800F05D06FF080021A612046F0
:1056500000F08AF823681A6912F0400F09D0DA685E
:1056600012F0400F05D06FF040021A612046FFF79C
:1056700055FF23681A6912F0200F09D0DA6812F07A
:10568000200F05D06FF020021A61204600F06AF862
:1056900010BD00BF0368244A904212D002F5006298
:1056A00090420ED0B0F1804F0BD0A2F598329042CC
:1056B00007D002F58062904203D002F580629042EA
:1056C00003D123F070034A681343174A904212D063
:1056D00002F5006290420ED0B0F1804F0BD0A2F5DF
:1056E0009832904207D002F58062904203D002F5D2
:1056F0008062904203D123F44073CA68134323F0BD
:1057000080034A69134303608B68C3620B6883623A
:10571000054B984203D003F50063984201D10B6911
:105720000363012343617047002C0140C0B110B5F1
:10573000044690F83D3013F0FF0F04D1002380F8A9
:105740003C30FFF7D7FE022384F83D30214651F864
:10575000040BFFF79FFF012384F83D30002010BDAC
:1057600001207047704700BF704700BF2DE9F84324
:10577000814601680B6923F44052C36813430B61EF
:10578000816803691943436919430068C26822F4B8
:10579000B05323F00C030B43C360D9F800104B69DE
:1057A00023F44072D9F8183013434B61D9F80050F4
:1057B0005B4B9D4259D100F047FC00EB800000EBB1
:1057C0008000D9F80440A400B0FBF4F4554EA6FBC9
:1057D00004346409240100F037FC00EB800000EB86
:1057E0008000D9F804309B00B0FBF3F700F02CFCEC
:1057F00000EB800000EB8000D9F804309B00B0FB88
:10580000F3F3A6FB03235B094FF0640808FB137353
:105810001B013233A6FB03235B0903F0F0031C4496
:1058200000F012FC00EB800000EB8000D9F804309F
:105830009B00B0FBF3F700F007FC00EB800000EBEF
:105840008000D9F804309B00B0FBF3F3A6FB0323E0
:105850005B0908FB13731B013233A6FB0323C3F35D
:1058600043131C44AC60BDE8F88300F0DDFB00EBA3
:10587000800000EB8000D9F80440A400B0FBF4F4F1
:10588000284EA6FB04346409240100F0CDFB00EB94
:10589000800000EB8000D9F804309B00B0FBF3F7E8
:1058A00000F0C2FB00EB800000EB8000D9F8043070
:1058B0009B00B0FBF3F3A6FB03235B094FF06408E6
:1058C00008FB13731B013233A6FB03235B0903F0B0
:1058D000F0031C4400F0A8FB00EB800000EB80000C
:1058E000D9F804309B00B0FBF3F700F09DFB00EB10
:1058F000800000EB8000D9F804309B00B0FBF3F38C
:10590000A6FB03235B0908FB13731B013233A6FBC1
:105910000323C3F343131C44AC60BDE8F88300BF0A
:10592000003801401F85EB5168B310B5044690F86C
:10593000393013F0FF0F04D1002380F83830FEF720
:105940006FFE242384F839302268D36823F400538F
:10595000D3602046FFF70AFF2268136923F49043BF
:1059600013612268536923F02A0353612268D368C4
:1059700043F40053D3600020E063202384F83930DF
:1059800084F83A3010BD0120704700BF08B5074ABF
:10599000136843F010031360032000F087FC00201D
:1059A000FEF7D4FEFEF782FE002008BD0020024074
:1059B000034A1368034909780B441360704700BF1A
:1059C000D40E002000000020014B1868704700BF73
:1059D000D40E002038B50446FFF7F6FF0546B4F1B3
:1059E000FF3F02D0044B1B781C44FFF7EDFF401B28
:1059F0008442FAD838BD00BF0000002082B0084BB6
:105A00001B68084AA2FB03235B0A00FB03F001901A
:105A100000BF019B5A1E0192002BF9D102B07047C2
:105A200004000020D34D621070B582B004460368B4
:105A300013F0010F6BD0A84B5B6803F00C03042B31
:105A40000AD0A54B5B6803F00C03082B0DD1A24BC9
:105A50005B6813F4803F08D09F4B1B6813F4003F32
:105A600055D06368002B52D1B8E16368B3F5803F2D
:105A700005D1994A136843F48033136026E063B973
:105A800003F1804303F504331A6822F480321A606C
:105A90001A6822F480221A6018E0B3F5A02F0CD106
:105AA00003F18043A3F53C331A6842F480221A6064
:105AB0001A6842F480321A6008E0874B1A6822F4B0
:105AC00080321A601A6822F480221A6063687BB1FF
:105AD000FFF77AFF054605E0FFF776FF401B6428D5
:105AE00000F27E817C4B1B6813F4003FF4D00EE083
:105AF000FFF76AFF054605E0FFF766FF401B6428D5
:105B000000F27081744B1B6813F4003FF4D12368DA
:105B100013F0020F50D0704B5B6813F00C0F0AD0DB
:105B20006D4B5B6803F00C03082B16D16A4B5B6866
:105B300013F4803F11D1684B1B6813F0020F03D0A0
:105B40002369012B40F05081634A136823F0F80366
:105B5000616943EAC10313602EE02369D3B10122D6
:105B60005E4B1A60FFF730FF054605E0FFF72CFF9C
:105B7000401B022800F23A81574B1B6813F0020FBA
:105B8000F4D0554A136823F0F803616943EAC1036E
:105B9000136011E00022514B1A60FFF715FF054614
:105BA00005E0FFF711FF401B022800F221814A4B5C
:105BB0001B6813F0020FF4D1236813F0080F29D0EB
:105BC000A369ABB10122464B1A60FFF7FDFE054603
:105BD00005E0FFF7F9FE401B022800F20B813E4B67
:105BE0005B6A13F0020FF4D00120FFF707FF11E00A
:105BF00000223B4B1A60FFF7E7FE054605E0FFF782
:105C0000E3FE401B022800F2F780334B5B6A13F07F
:105C1000020FF4D1236813F0040F00F089802E4B9B
:105C2000DB6913F0805F0BD12B4BDA6942F08052B5
:105C3000DA61DB6903F080530193019B012500E0E9
:105C40000025284B1B6813F4807F13D1254A136865
:105C500043F480731360FFF7B7FE064605E0FFF7D5
:105C6000B3FE801B642800F2C9801E4B1B6813F42E
:105C7000807FF4D0E368012B05D1174A136A43F003
:105C80000103136222E063B903F1804303F5043397
:105C90001A6A22F001021A621A6A22F004021A62D7
:105CA00014E0052B09D10C4B1A6A42F004021A6267
:105CB0001A6A42F001021A6208E0074B1A6A22F0DF
:105CC00001021A621A6A22F004021A62E368CBB176
:105CD000FFF77AFE06460FE0001002400000424245
:105CE0008004424200700040FFF76EFE801B41F2CC
:105CF0008833984200F28480494B1B6A13F0020FEC
:105D0000F2D00FE0FFF760FE064606E0FFF75CFE0C
:105D1000801B41F28833984274D8414B1B6A13F0C0
:105D2000020FF3D125B13E4AD36923F08053D361EA
:105D3000E369002B68D03A4A526802F00C02082A44
:105D400064D0022B37D10022364B1A60FFF73CFE9D
:105D5000054604E0FFF738FE401B022858D8304BB8
:105D60001B6813F0007FF5D1236AB3F5803F06D19D
:105D70002B494B6823F40032A36813434B60284837
:105D8000436823F47411236A626A13430B4343602C
:105D90000122244B1A60FFF717FE044604E0FFF7C8
:105DA00013FE001B022835D81D4B1B6813F0007F23
:105DB000F5D0002031E000221A4B1A60FFF704FEF4
:105DC000044604E0FFF700FE001B022824D8144B11
:105DD0001B6813F0007FF5D100201EE001201CE0BD
:105DE00003201AE0032018E0012016E0032014E04D
:105DF000032012E0032010E003200EE003200CE05B
:105E000003200AE0032008E0002006E0012004E06F
:105E1000032002E0032000E0032002B070BD00BFB9
:105E2000001002406000424230B486B0164D02AC11
:105E300028686968AA68EB680FC42B8AADF804303B
:105E4000124B5B6803F00C02082A19D1C3F383429A
:105E500006A90A4412F8100C13F4803F0CD00B4B27
:105E60005B68C3F340430B4413F8142C084B03FB4B
:105E700000F0B0FBF2F004E0064B03FB00F000E0A2
:105E8000034806B030BC70474C7100080010024057
:105E900000127A0000093D0070B55C4B1B6803F0EE
:105EA00007038B420BD2594A136823F007030B43B5
:105EB0001360136803F007038B4240F09780036878
:105EC00013F0020F06D0524C636823F0F00283688F
:105ED000134363600D460446036813F0010F4DD071
:105EE0004268012A05D14A4B1B6813F4003F0DD1CB
:105EF0007EE0022A05D1464B1B6813F0007F05D1D6
:105F000078E0434B1B6813F0020F75D040494B6893
:105F100023F0030313434B60FFF756FD0646636807
:105F2000012B0ED106E0FFF74FFD801B41F28833B5
:105F3000984263D8364B5B6803F00C03042BF2D114
:105F40001CE0022B15D106E0FFF73EFD801B41F25D
:105F50008833984254D82E4B5B6803F00C03082B0F
:105F6000F2D10BE0FFF730FD801B41F288339842FD
:105F700048D8274B5B6813F00C0FF3D1234B1B68F9
:105F800003F00703AB420AD9204A136823F0070342
:105F90002B431360136803F00703AB4234D123682B
:105FA00013F0040F06D01A494B6823F4E062E3684B
:105FB00013434B60236813F0080F07D0144A53684B
:105FC00023F46053216943EAC1035360FFF72CFFB8
:105FD0000F4B5B68C3F303130E4AD35CD8400E4BE0
:105FE00018600020FEF7B2FB002070BD012070BDDC
:105FF000012070BD012070BD012070BD032070BD67
:10600000032070BD032070BD012070BD0020024040
:1060100000100240B071000804000020014B186815
:10602000704700BF0400002008B5FFF7F7FF044BDE
:106030005B68C3F30223034AD35CD84008BD00BFAA
:1060400000100240C071000808B5FFF7E7FF044BDD
:106050005B68C3F3C223034AD35CD84008BD00BFCA
:1060600000100240C07100080F2303600B4B5A68F8
:1060700002F0030242605A6802F0F00282605A683D
:1060800002F4E062C2605B6803F46053DB08036102
:10609000034B1B6803F007030B60704700100240BE
:1060A00000200240F0B583B000273C46E2E0012228
:1060B000A2400B681340934240F0DB804D68122DE4
:1060C0002DD00BD8022D27D003D85DB3012D1ED0C3
:1060D00035E0032D30D0112D1BD030E0684EB54295
:1060E00020D008D8A6F58016B5421BD006F580361C
:1060F000B54224D116E0634EB54213D006F5803682
:10610000B5420FD0A6F58016B54218D10AE0CF6887
:1061100015E0CF68043712E0CF6808370FE0CF688A
:106120000C370CE08D684DB1012D02D102610827BA
:1061300005E04261082702E0002700E00427FF2B6A
:1061400001D8844601E000F1040CFF2B02D84FEA8D
:10615000840E03E0A4F1080E4FEA8E0EDCF8006016
:106160000F2202FA0EF226EA020507FA0EF22A437D
:10617000CCF800204A6812F0805F7AD0424A9569D4
:1061800045F001059561926902F001020192019AC0
:10619000A208961C3D4D55F8266004F0030E4FEA08
:1061A0008E0E0F2505FA0EF526EA0506384DA84293
:1061B0001FD005F58065A84219D005F58065A84275
:1061C00013D005F58065A8420DD005F58065A8427D
:1061D00007D005F58065A84201D105250AE006250E
:1061E00008E0042506E0032504E0022502E001257D
:1061F00000E0002505FA0EF535430232234E46F83D
:1062000022504A6812F4803F04D0224D2A681A4373
:106210002A6004E01F4D2A6822EA03022A604A68C5
:1062200012F4003F04D01B4D6A681A436A6004E010
:10623000184D6A6822EA03026A604A6812F4801FF5
:1062400004D0144DAA681A43AA6004E0114DAA684C
:1062500022EA0302AA604A6812F4001F04D00D4D1E
:10626000EA681343EB6004E00A4DEA6822EA03039C
:10627000EB6001340F2C7FF61AAF03B0F0BD00BF06
:106280000000211000003110001002400000014009
:1062900000080140000401400AB10161704709048F
:1062A00001617047C3685940C160704700F0070042
:1062B000064AD36823F4E0631B041B0C43EA002066
:1062C00040F0BF6040F40030D060704700ED00E067
:1062D00030B4164BDC68C4F30224C4F10705042D66
:1062E00028BF0425231D062B01D9033C00E0002410
:1062F000012303FA05F5013D2940A140A340013BDC
:106300001A400A43002806DA00F00F001201D2B248
:10631000074B1A5407E01201D2B200F1604000F5B9
:10632000614080F8002330BC704700BF00ED00E002
:1063300014ED00E0410900F01F0001238340024AF0
:1063400042F82130704700BF00E100E00138B0F1B1
:10635000807F0AD2064B5860F021064A82F823104B
:106360000020986007221A6070470120704700BF24
:1063700010E000E000ED00E0042805D1054A1368B4
:1063800043F0040313607047024A136823F00403C8
:106390001360704710E000E00E4B1A6842F00102F3
:1063A0001A6059680C4A0A405A601A6822F08472CE
:1063B00022F480321A601A6822F480221A605A6825
:1063C00022F4FE025A604FF41F029A60034A044B03
:1063D0009A607047001002400000FFF8004000087B
:1063E00000ED00E0124A12F0070F07D0D11D21F096
:1063F0000701C1F5406313440A4601E04FF44063CE
:106400000C480260002141601344083B23F007035D
:106410000948036059601960991A51601360074B6D
:106420001960074B19604FF00042064B1A60704725
:1064300038000020300000202C0000203C0C002000
:1064400028000020380C0020134A00E01A46136888
:106450008342FBD310B451685418844203D140687E
:10646000014451601046416844189C420CD10B4CC9
:106470002468A34206D05B681944416013681B6816
:10648000036002E0046000E00360824200D010601C
:106490005DF8044B704700BF300000202C00002046
:1064A00070B5044600F024FC334B1B680BB9FFF7B2
:1064B00099FF324B1B681C4247D134B1083414F0A9
:1064C000070F02D024F007040834002C3FD02C4BD7
:1064D0001B689C423DD82B4B1D6801E02B4615469E
:1064E0006A68A24202D22A68002AF7D1224A1268B8
:1064F000954230D01E6808362A681A606B681B1BEC
:10650000102B10D9281910F0070F08D04FF05003A6
:1065100083F31188BFF36F8FBFF34F8FFEE74360A4
:106520006C60FFF791FF6A6815490B689B1A0B6056
:10653000154909688B4201D213490B600F4B1B6848
:1065400013436B6000232B6006E0002604E0002666
:1065500002E0002600E0002600F060FC16F0070FC5
:1065600008D04FF0500383F31188BFF36F8FBFF350
:106570004F8FFEE7304670BD2C000020380C002005
:1065800028000020300000203C0C0020A0B338B5CB
:106590000346A0F1080550F8042C1849096812EACE
:1065A000010408D14FF0500383F31188BFF36F8FBC
:1065B000BFF34F8FFEE750F8080C40B14FF0500387
:1065C00083F31188BFF36F8FBFF34F8FFEE794B152
:1065D00088B91C4622EA010243F8042C00F088FB2B
:1065E00054F8041C064A13680B4413602846FFF74E
:1065F0002BFF00F013FC38BD704700BF380C0020A3
:106600002800002082B0002301930D4B1B68B3F1DA
:10661000FF3F08D04FF0500383F31188BFF36F8F13
:10662000BFF34F8FFEE74FF0500383F31188BFF3A2
:106630006F8FBFF34F8F019B002BFCD002B07047D0
:106640000800002006480068006880F3088862B6E9
:1066500061B6BFF34F8FBFF36F8F00DF00BF000045
:1066600008ED00E04FF0807340F8043C21F0010198
:1066700040F8081C034B40F80C3C40F8202C4038F4
:10668000704700BF05660008000000000000000021
:10669000074B19680868B0E8F00F80F30988BFF36A
:1066A0006F8F4FF0000080F311884EF00D0E704791
:1066B000140D00204FF0500383F31188BFF36F8F48
:1066C000BFF34F8F0A4A136801331360012B0DD1BA
:1066D000084B1B6813F0FF0F08D04FF0500383F3F3
:1066E0001188BFF36F8FBFF34F8FFEE7704700BF76
:1066F0000800002004ED00E0094B1B6843B94FF08F
:10670000500383F31188BFF36F8FBFF34F8FFEE702
:10671000013B034A13600BB983F31188704700BF34
:106720000800002000000000000000000000000041
:10673000EFF30980BFF36F8F0D4B1A6820E9F00F5C
:1067400010602DE908404FF0500080F3118800F0F0
:1067500009FC4FF0000080F31188BDE8084019687B
:106760000868B0E8F00F80F30988BFF36F8F7047B7
:10677000140D002008B54FF0500383F31188BFF3C8
:106780006F8FBFF34F8F00F0BBFA18B14FF08052FC
:10679000024B1A60002383F3118808BD04ED00E06A
:1067A000084A0023136008490B60084B1B6808491E
:1067B000A1FB03139B09013B06490B6007231360F0
:1067C000704700BF10E000E018E000E00400002087
:1067D000D34D621014E000E010B582B0274B1A7858
:1067E000D2B20192FF221A701B78DBB28DF803300F
:1067F0009DF8033003F05003214A13700722214B08
:106800001A6009E01F4A1368013B13609DF80330CA
:106810005B00DBB28DF803309DF8033013F0800F7E
:10682000F0D1184B1B68032B08D04FF0500383F3B3
:106830001188BFF36F8FBFF34F8FFEE71B0203F486
:10684000E063104A1360019BDBB20C4A13700E4BDD
:106850001A6842F470021A601A6842F070421A60B4
:10686000FFF79EFF0024094B1C60FFF7EBFE00F0D2
:1068700079FBFFF7C7FE204602B010BD00E400E040
:10688000400C0020440C002020ED00E00800002017
:1068900000F1080343604FF0FF328260C360036180
:1068A00000230360704700BF00230361704700BFEF
:1068B00043684B609A688A609A6851609960086181
:1068C000036801330360704730B40D68B5F1FF3FD2
:1068D00001D1026907E000F1080200E01A4653689E
:1068E0001C68AC42FAD953684B6099608A60516069
:1068F000086103680133036030BC70470369426874
:10690000816891608268416851605A68824201D111
:1069100082685A60002202611A68013A1A60186897
:10692000704700BF084B1B681B6823B94FF0FF324C
:10693000064B1A607047044B1B68DB68DB685A68BB
:10694000024B1A60704700BF4C0C0020340D002031
:1069500010B50446006BFFF719FE2046FFF716FE40
:1069600010BD00BF2DE9F047089EDDF824800A9C89
:1069700041B94FF0500383F31188BFF36F8FBFF31A
:106980004F8FFEE70D46216B02F18042013A01EB89
:10699000820222F00707002207E015F802E0A118A2
:1069A00081F834E0A95C11B101320F2AF5D9002237
:1069B00084F84320062E00D9062699468246E662D0
:1069C00066640025A564201DFFF76EFF04F1180022
:1069D000FFF76AFF2461C6F10706A6616462E564F9
:1069E00084F85050384651464A46FFF73BFE206037
:1069F000B8F1000F01D0C8F80040BDE8F08700BF33
:106A000038B5002407E004EB84039B000E481844CB
:106A1000FFF73EFF0134062CF5D90C4D2846FFF751
:106A200037FF0B4C2046FFF733FF0A48FFF730FFD4
:106A30000948FFF72DFF0948FFF72AFF084B1D60A3
:106A4000084B1C6038BD00BF700C0020000D0020FA
:106A5000380D0020180D0020540C0020580D002087
:106A60004C0C0020680C002010B50446FFF722FEF5
:106A7000204A1368013313601F4B1B683BB91E4B40
:106A80001C601368012B0DD1FFF7BAFF0AE01B4B06
:106A90001B683BB9184B1B68DA6AE36A9A4201D853
:106AA000154B1C60164A136801331360E06A01231A
:106AB000834014490A6813430B6000EB8000800098
:106AC000114B1844211DFFF7F3FEFFF715FE0B4B8A
:106AD0001B686BB1084B1B68DA6AE36A9A4207D2FB
:106AE0004FF08052094B1A60BFF34F8FBFF36F8F87
:106AF00010BD00BF500D0020140D0020500C0020D0
:106B00004C0D00206C0D0020700C002004ED00E006
:106B100010B514E0FFF7CEFD0B4BDB68DC68201DE1
:106B2000FFF7ECFE094A1368013B1360084A13683B
:106B3000013B1360FFF7E0FD2046FFF709FF044B20
:106B40001B68002BE6D110BD540C0020500D002016
:106B5000540D002008B5FFF7DBFF064B1B68012B27
:106B6000F9D94FF08052044B1A60BFF34F8FBFF337
:106B70006F8FF0E7700C002004ED00E070B5044664
:106B80000E461C4B1D681C4B18680430FFF7B6FE00
:106B900048B9194B1B68DA6A0123934017490A6800
:106BA00022EA03030B60B4F1FF3F07D136B1124B69
:106BB000196813480431FFF77BFE70BD2C440E4B5F
:106BC0001B685C60AC4207D20E4B18680A4B196810
:106BD0000431FFF779FE70BD0B4B1868064B19683E
:106BE0000431FFF771FE094B1B689C4201D2074B31
:106BF0001C6070BD300D0020140D00206C0D0020B5
:106C0000580D0020680C00204C0C0020340D002092
:106C10002DE9F04385B080460F4615461E4690008C
:106C2000FFF73EFC60B181465420FFF739FC044673
:106C300010B1C0F8309004E04846FFF7A7FC00E030
:106C400000248CB10C9B00930D9B019302940023B4
:106C50000393404639462A463346FFF783FE2046D3
:106C6000FFF702FF012001E04FF0FF3005B0BDE863
:106C7000F08300BF00B583B000230093164A019251
:106C8000164817498022FFF7C3FF012814D14FF09F
:106C9000500383F31188BFF36F8FBFF34F8F4FF013
:106CA000FF32104B1A6001220F4B1A6000220F4B6B
:106CB0001A60FFF791FD0BE0B0F1FF3F08D14FF0F4
:106CC000500383F31188BFF36F8FBFF34F8FFEE73D
:106CD00003B05DF804FB00BF2C0D0020556B0008CD
:106CE000C8710008340D0020500C0020300D002029
:106CF000024A136801331360704700BFFC0C002088
:106D0000F8B53B4B1B68002B65D13A4B1D6801352C
:106D10001D60C5B9384B1B681B6843B14FF0500369
:106D200083F31188BFF36F8FBFF34F8FFEE7324AB3
:106D30001168324B186810601960314A13680133CA
:106D40001360FFF7EFFD2F4B1B689D4203D2002419
:106D500036E0012400E00024274B1B681B6823B9A0
:106D60004FF0FF32274B1A602AE0234B1B68DB6889
:106D7000DE6873689D4202D2224A136020E0371D0C
:106D80003846FFF7BBFDB36A1BB106F11800FFF7E9
:106D9000B5FDF36A012202FA03F11B4802680A43B7
:106DA000026003EB83039B00184818443946FFF741
:106DB0007FFDF26A164B1B68DB6A9A42C9D2CBE7A9
:106DC000134B1B68DB6A03EB83039B000F4AD3580A
:106DD000012B06D806E00F4A136801331360002424
:106DE00000E001240C4B1B6803B101242046F8BDD0
:106DF000FC0C0020300D00204C0C0020680C002002
:106E0000480C0020340D00206C0D0020700C002078
:106E1000140D00206C0C0020700D002038B5344B90
:106E20001B6843B94FF0500383F31188BFF36F8F92
:106E3000BFF34F8FFEE7FFF73DFC2D4B1A68013A79
:106E40001A601B68002B4CD12A4B1B6833BB0024F3
:106E50004AE0294BDB68DC6804F11800FFF74EFDBF
:106E6000251D2846FFF74AFDE36A012202FA03F1D5
:106E7000224802680A43026003EB83039B00204818
:106E800018442946FFF714FDE26A1E4B1B68DB6AB3
:106E90009A4204D301221C4B1A6000E00024164BD6
:106EA0001B68002BD5D10CB1FFF73CFD174B1C68BC
:106EB00054B1FFF725FF10B10122134B1A60013CBA
:106EC000F7D10022114B1A600F4B1B685BB14FF0DA
:106ED00080520F4B1A60BFF34F8FBFF36F8F0124A7
:106EE00002E0002400E00024FFF706FC204638BD45
:106EF000FC0C0020500D0020180D00206C0D00200F
:106F0000700C0020140D0020700D00206C0C00206F
:106F100004ED00E010B5A8B10446104B1B6843B166
:106F20004FF0500383F31188BFF36F8FBFF34F8F80
:106F3000FEE7FFF7DDFE20460021FFF71FFEFFF70B
:106F40006DFF00E0002038B94FF08052044B1A600A
:106F5000BFF34F8FBFF36F8F10BD00BFFC0C00203D
:106F600004ED00E0204B1B681BB101221F4B1A608F
:106F7000704700221D4B1A601D4B1B68B3FA83F348
:106F8000DBB2C3F11F0303EB8302920019498A5855
:106F900042B94FF0500383F31188BFF36F8FBFF3F3
:106FA0004F8FFEE710B4134C9A00D118890021448A
:106FB0004868406848601A4492000832224490426F
:106FC00005D1416803EB830292002244516003EB38
:106FD00083039B00074A13445B68DA68064B1A6018
:106FE0005DF8044B704700BFFC0C0020700D0020C2
:106FF0006C0D0020700C0020140D0020054B1B6848
:1070000023B1054B1B681BB9022070470120704754
:1070100000207047500C0020FC0C0020842801D078
:10702000033070470020704708B5FFF723FE0020AB
:1070300008BD00BFF0B585B00C4647680668056915
:10704000B0F90800FFF7EAFF009003AB0193384660
:107050003146AAB22346FFF7DBFD012801D1039890
:1070600000E0002005B0F0BD08B508B90120FFE739
:10707000FFF750FF002008BD08B5FFF7BFFF01284C
:1070800001D0FFF777FB08BD002103E00B4B5B58F5
:10709000435004310A480B4B42189A42F6D30A4A2D
:1070A00002E0002342F8043B084B9A42F9D3FFF771
:1070B00073F900F00FF8FDF73BF97047D87100083D
:1070C000000000200C0000200C000020D80E002042
:1070D000FEE700000E4B70B51E460E4C0025E41A6C
:1070E000A410A54204D056F8253098470135F8E79A
:1070F00000F016F8084B094C1E46E41AA4100025AF
:10710000A54204D056F8253098470135F8E770BD00
:10711000D0710008D0710008D0710008D471000847
:10712000F8B500BFF8BC08BC9E467047F8B500BF74
:08713000F8BC08BC9E46704744
:1071380070710008694400080000000000000000A9
:107148008000000002030405060708090A0B0C0D5D
:107158000E0F101001020000436F72652F53726307
:107168002F6D61696E2E630064656661756C745479
:1071780061736B00436F72652F5372632F73646979
:107188006F2E6300436F72652F5372632F7370699C
:107198002E630000436F72652F5372632F757361FE
:1071A80072742E6300000000000000000000000060
:1071B8000102030406070809000000000102030495
:0871C80049444C4500000000A1
:0471D0005D42000814
:0471D4003542000838
:0C71D8000100000000A24A04AAAAAAAA12
:0400000508007089F6
:00000001FF
