:020000040800F2
:1040000000000120BD700008094700080B470008A8
:104010000D4700080F470008114700080000000086
:10402000000000000000000000000000C166000861
:1040300013470008000000006167000815470008EA
:104040000571000805710008057100080571000878
:104050000571000805710008057100080571000868
:104060000571000805710008057100080571000858
:104070000571000805710008057100080571000848
:104080000571000805710008057100080571000838
:104090000571000805710008057100080571000828
:1040A000057100081D47000805710008057100082A
:1040B0000571000805710008057100080571000808
:1040C00005710008057100080571000805710008F8
:1040D00005710008057100080571000805710008E8
:1040E00005710008057100080571000805710008D8
:1040F00005710008057100080571000805710008C8
:1041000005710008057100080571000805710008B7
:1041100005710008057100080571000805710008A7
:104120000571000805710008057100080571000897
:10413000000000000000000000000000000000007F
:10414000000000000000000000000000000000006F
:10415000000000000000000000000000000000005F
:10416000000000000000000000000000000000004F
:10417000000000000000000000000000000000003F
:10418000000000000000000000000000000000002F
:10419000000000000000000000000000000000001F
:1041A000000000000000000000000000000000000F
:1041B00000000000000000000000000000000000FF
:1041C00000000000000000000000000000000000EF
:1041D00000000000000000000000000000000000DF
:0441E0005FF8E0F1B3
:1041F000044B05481B1A062B02D9044B03B1184780
:10420000704700BF0F0000200C00002000000000DD
:1042100005490648091A891001EBD171491002D0ED
:10422000034B03B1184770470C0000200C0000201E
:104230000000000010B5064C237843B9FFF7D8FF03
:10424000044B13B10448AFF300800123237010BD69
:104250000C000020000000000871000808B5084BA1
:104260001BB108490848AFF300800848036813B938
:10427000BDE80840CCE7064B002BF9D09847F7E79C
:104280000000000010000020087100080C00002051
:104290000000000070402DE964609FE564509FE5D8
:1042A000066065E04661B0E10040A0130500000A29
:1042B000014084E2043095E40FE0A0E113FF2FE118
:1042C000040056E1F9FFFF1A3C609FE53C509FE572
:1042D000066065E08B0B00FA4661B0E10040A01378
:1042E0000500000A014084E2043095E40FE0A0E1FB
:1042F00013FF2FE1040056E1F9FFFF1A7040BDE8FB
:104300001EFF2FE1B8710008B8710008BC710008E9
:10431000B871000808B50268034B9A4200D008BD86
:1043200001F06CFBFBE700BF002C0140FEE7000042
:1043300000B591B0012206924FF48033079300211B
:1043400008910A9202220D920E934FF4E0130F93FC
:1043500006A801F08FFB08BB0F23019302210291F5
:10436000002303934FF480620492059301A801F0A7
:10437000A7FDB8B901F060FE0C4BA3FB003080092B
:1043800001F0F6FF042002F009F800220F214FF09F
:10439000FF3001F0AFFF11B05DF804FBA12104482C
:1043A000FFF7C4FFAF210248FFF7C0FFD34D6210F3
:1043B0004871000808B501F00FFBFFF7B9FF00F0E6
:1043C0000BF800F055F900F001F900F0ABF800F03F
:1043D00095F802F043FEFEE770B58AB0394B9A6952
:1043E00042F040029A619A6902F040020192019AF9
:1043F0009A6942F010029A619A6902F010020292E0
:10440000029A9A6942F004029A619A6902F00402DF
:104410000392039A9A6942F008029A619A6902F03B
:1044200008020492049A9A6942F020029A619B69F8
:1044300003F020030593059B234D002220212846ED
:1044400001F03CFF4FF6FF7306930324079406A97F
:104450001E4801F035FE42F2FF030693079406A9B9
:104460001B4801F02DFE4FF60F130693079406A983
:10447000184801F025FE47F6DF730693079406A956
:10448000284601F01DFE4FF40043069300260796D0
:10449000089606A9284601F013FE4FF6FB73069313
:1044A000079406A90C4801F00BFE20230693012374
:1044B000079308960223099306A9284601F000FEF7
:1044C0000AB070BD00100240000C0140001801400D
:1044D00000100140000801400014014008B52021EF
:1044E000014801F0F1FE08BD000C014008B54FF491
:1044F000FA7002F0D2FDFFF7F1FFF8E730B587B0B0
:1045000001AC064D0FCD0FC42B682360002101A81C
:1045100002F0A9FD024B186007B030BD2071000801
:10452000740D002008B50F480F4B03600023436053
:104530008360C36003614361836100F063FF30B94E
:104540004FF40061074800F076FF28B908BD4B2101
:104550000648FFF7EBFEF3E750210448FFF7E6FEBD
:10456000F4E700BF780D002000800140647100086E
:104570000268134B9A4200D0704730B587B003F5FC
:1045800010435A6942F480625A615B6903F48063A4
:104590000193019B4FF4F8530293022503950324E2
:1045A000059402A9074801F08BFD042302930395AB
:1045B000059402A9044801F083FD07B030BD00BF97
:1045C00000800140001001400014014008B50F4870
:1045D0000F4B03604FF48273436000238360C3601A
:1045E000036143614FF4802282613822C261036219
:1045F000436283620A23C36200F06DFF00B908BD05
:104600004F210448FFF792FEF9E700BFFC0D0020A0
:1046100000300140747100080268134B9A4200D0C8
:10462000704710B586B003F560439A6942F4805232
:104630009A619B6903F480530193019BB023029319
:104640000223039303230593084C02A9204601F09B
:1046500037FD4023029300230393049302A92046CD
:1046600001F02EFD06B010BD0030014000080140F1
:1046700008B50B480B4B03604FF4E1334360002354
:104680008360C36003610C2242618361C36101F0F6
:1046900073F900B908BD4C210348FFF747FEF9E75D
:1046A000540E002000380140847100080268144B49
:1046B0009A4200D0704710B586B003F558439A6906
:1046C00042F480429A619B6903F480430193019B09
:1046D0004FF4007302930223039303230593094CC1
:1046E00002A9204601F0ECFC4FF480630293002302
:1046F0000393049302A9204601F0E2FC06B010BD2A
:1047000000380140000801407047FEE7FEE7FEE781
:10471000FEE7704708B502F0C9FC08BD08B50248BD
:1047200000F02BFF08BD00BF940E002000B583B041
:10473000244B9A6942F001029A619A6902F00102DF
:104740000092009ADA6942F08052DA61DB6903F084
:1047500080530193019B032001F0BAFD0022114612
:104760006FF00B0001F0C6FD002211466FF00A0049
:1047700001F0C0FD002211466FF0090001F0BAFD02
:10478000002211466FF0040001F0B4FD0022114632
:104790006FF0030001F0AEFD00220F216FF0010069
:1047A00001F0A8FD00220F214FF0FF3001F0A2FD23
:1047B000054A536823F0E06343F08063536003B01D
:1047C0005DF804FB001002400000014000B589B014
:1047D00000220146192001F08DFD192001F0BCFDD9
:1047E000144B9A6942F400629A619B6903F4006376
:1047F0000193019B02A903A801F044FC01F032FCE3
:104800000D4BA3FB00239B0C013B0C480C4A0260A0
:1048100040F2E732C260436000230361836000F02E
:10482000B7FF18B1012009B05DF804FB034800F0A0
:1048300094FEF8E70010024083DE1B43940E002034
:10484000002C01400C4B1B680C4AA2FB03235A0AA4
:1048500041F2883303FB02F35A1E4BB1416B1346FE
:1048600011F0800FF8D040F2FF53836300207047AF
:104870004FF00040704700BF04000020D34D62108D
:10488000144B1B68144AA2FB03235A0A41F28833D3
:1048900003FB02F35A1ECBB1416B134611F0450FD7
:1048A000F8D0436B13F0040F03D00423836318463E
:1048B0007047436B13F0010F04D140F2FF53836341
:1048C0000020704701238363184670474FF0004073
:1048D000704700BF04000020D34D6210104B1B68CE
:1048E000104AA2FB03235A0A41F2883303FB02F366
:1048F0005A1E8BB1416B134611F0450FF8D0436B34
:1049000013F0040F03D0042383631846704740F26A
:10491000FF538363002070474FF00040704700BF93
:1049200004000020D34D6210124B1B68124AA2FBF8
:1049300003235A0A41F2883303FB02F35A1EA3B140
:10494000416B134611F0450FF8D0436B13F0040F81
:1049500003D04023836304207047436B13F0400F60
:1049600006D040238363002070474FF0004070471B
:104970000020704704000020D34D621084B010B4B2
:1049800002AC84E80E00039A0B461343049A1343C7
:10499000059A1343069A1343079A1343426822F475
:1049A000FD4222F07F0213434360002010BC04B09C
:1049B0007047D0F8800070470323036000207047E1
:1049C000006800F0030070470B6883604B688A68DA
:1049D0001343CA6813430A691343C26822F47F620F
:1049E00022F00F021343C360002070470069C0B279
:1049F000704782B000230193143001440191019B60
:104A0000186802B07047000038B5524B1B68524C12
:104A1000A4FB03435B0A02FB03F2531E002A63D08C
:104A2000446B1A4614F0450FF7D0436B13F0040F94
:104A300003D004238363184638BD436B13F0010F82
:104A400003D001238363184638BD0D460446FFF7A3
:104A5000CDFFA84201D0012038BD40F2FF53A3632F
:104A600000212046FFF7C5FF3C4B0340002B3ED002
:104A700000283EDB10F0804F01D0402038BD10F000
:104A8000005F01D0802038BD10F0805F34D110F07D
:104A9000006F34D110F0806F34D110F0807F34D1AA
:104AA00010F4000F34D110F4800F34D110F4001F33
:104AB00034D110F4801F34D110F4802F34D110F48D
:104AC000003F34D110F4803F34D110F4004F34D182
:104AD00010F4804F34D110F4005F34D110F0080F7F
:104AE00034D04FF4000038BD4FF0004038BD0020F6
:104AF00038BD4FF0007038BD4FF4807038BD4FF4B2
:104B0000007038BD4FF4806038BD4FF4006038BD90
:104B10004FF4805038BD4FF4005038BD4FF4804002
:104B200038BD4FF4004038BD4FF4003038BD4FF46D
:104B3000802038BD4FF4002038BD4FF4801038BDC0
:104B40004FF4001038BD4FF4800038BD4FF4803072
:104B500038BD00BF04000020D34D621008E0FFFD07
:104B600070B5254B1B68254CA4FB03435C0A41F23E
:104B7000883303FB04F35C1E002B37D0456B2346C0
:104B800015F0450FF7D0436B13F0040F03D0042347
:104B90008363184670BD436B13F0010F03D00123EC
:104BA0008363184670BD16460D460446FFF71EFF88
:104BB000A84201D0012070BD40F2FF53A363002141
:104BC0002046FFF716FF10F4604F05D010F4804F19
:104BD00006D04FF4005070BD000C3080002070BD36
:104BE00010F4004F05D04FF4805070BD4FF00040DE
:104BF00070BD4FF4803070BD04000020D34D6210B2
:104C00000B6843624B6883628B68CA6813430A6906
:104C100013434A691343C26A22F0F7021343C36283
:104C20000020704730B587B00546019110240294EA
:104C300040230393002304934FF48063059301A959
:104C4000FFF7C2FE41F2883221462846FFF7DCFE1C
:104C500007B030BD30B587B00546019207240294F5
:104C600040230393002304934FF48063059301A929
:104C7000FFF7AAFE41F2883221462846FFF7C4FE1C
:104C800007B030BD10B586B00446002301930293EF
:104C9000039304934FF48063059301A9FFF794FEF7
:104CA0002046FFF7CFFD06B010BD10B586B0044614
:104CB0004FF4D573019308230293402303930023F9
:104CC00004934FF48063059301A9FFF77DFE20460E
:104CD000FFF72AFE06B010BD30B587B0054601913A
:104CE0003724029440230393002304934FF48063FA
:104CF000059301A9FFF768FE41F288322146284654
:104D0000FFF782FE07B030BD10B586B0044641F013
:104D1000004141F480110191292302934023039320
:104D2000002304934FF48063059301A9FFF74CFE21
:104D30002046FFF7D3FD06B010BD30B587B005465D
:104D400001910624029440230393002304934FF41B
:104D50008063059301A9FFF737FE41F288322146AF
:104D60002846FFF751FE07B030BD30B587B0054685
:104D700000230193332402944022039204934FF4BE
:104D80008063059301A9FFF71FFE41F28832214697
:104D90002846FFF739FE07B030BD10B586B004468F
:104DA0000023019302220292C022039204934FF443
:104DB0008063059301A9FFF707FE2046FFF760FD1A
:104DC00006B010BD10B586B00446019109230293C8
:104DD000C0230393002304934FF48063059301A938
:104DE000FFF7F2FD2046FFF74BFD06B010BD70B592
:104DF00086B005460E460023019303240294402208
:104E0000039204934FF48063059301A9FFF7DCFD3F
:104E1000324621462846FFF7A3FE06B070BD70B5A6
:104E200082B00446002301930068FFF72BFF05467C
:104E300010B1284602B070BD2068FFF736FF064665
:104E400010B30023A3642E46DEB9019B5A1C0192C5
:104E50004FF6FF72934244D000212068FFF73CFFD9
:104E6000002841D100212068FFF74EFF06460028A8
:104E70003DD100212068FFF7BCFDC00FE4D00646FD
:104E8000E2E700236364D4E70123A3640546EDB998
:104E9000019B5A1C01924FF6FF7293422AD00021C7
:104EA0002068FFF719FF05460028C2D14FF0804166
:104EB0002068FFF729FF05460028BAD100212068A5
:104EC000FFF797FDC30FE2D01D46E0E710F0804FDB
:104ED00003D1002363643546ABE7012363643546A1
:104EE000A7E74FF08075A4E74FF08055A1E74FF09A
:104EF00080559EE74FF080759BE72DE9F04188B023
:104F000004460F4600F086FD0646002300930193F9
:104F100008212068FFF786FE054618B1284608B02C
:104F2000BDE8F081216D09042068FFF7D5FE054634
:104F30000028F3D14FF0FF3302930823039330236B
:104F4000049302230593002306930123079302A9E8
:104F50002068FFF755FE2068FFF707FF0546002889
:104F6000DCD1804605E000F055FD801BB0F1FF3F2D
:104F700043D02068426B40F22A431A420AD1436B65
:104F800013F4001FEFD0FFF714FD4DF8280008F1CF
:104F90000108E8E7436B13F0080F02D0082585638A
:104FA000BCE7436B13F0020F02D002258563B5E71F
:104FB000436B13F0200F02D020258563AEE740F24B
:104FC000FF538363009A130203F47F0343EA0263EF
:104FD000110A01F47F410B4343EA12637B60019A9B
:104FE000130203F47F0343EA0263110A01F47F41D1
:104FF0000B4343EA12633B6090E74FF000458DE7B7
:1050000010B582B004460021009101910068FFF7BD
:10501000F0FC10F0007F04D04FF40063184602B09B
:1050200010BD69462046FFF768FF03460028F5D10A
:10503000019B13F4802F02D14FF08063EEE7216DC6
:1050400009042068FFF748FE03460028E6D1022144
:105050002068FFF772FE0346E0E710B582B0044611
:105060000021009101910068FFF7C3FC10F0007F60
:1050700004D04FF40063184602B010BD69462046C4
:10508000FFF73BFF03460028F5D1019B13F4803F57
:1050900002D14FF08063EEE7216D09042068FFF72D
:1050A0001BFE03460028E6D100212068FFF745FEDD
:1050B0000346E0E730B4436E9A0F0A70C3F383628D
:1050C0004A70C3F301638B7090F86630CB7090F830
:1050D00065300B7190F864304B7190F86B301B01A8
:1050E000CB80B0F86A20CB889BB2C2F30314234371
:1050F000CB8002F00F020A7290F86930DA094A7226
:10510000C3F380128A72C3F34012CA72C3F300124F
:105110000A7300224A73426C002A40F092809B027C
:1051200003F440630B61836E0A699B0003F47F7391
:1051300013430B61C36E0A6942EA93720A61C3F3B7
:10514000C2620A75C3F302634B75C26EC2F30743B2
:10515000C2F342548C75C2F38242CA755B0003F0FD
:1051600006030B76C26EC2F307230C7EC2F3C03275
:1051700022430A760A69013242650C7E023402FA41
:1051800004F444650A7AD5B20122AA408265520A23
:1051900002FB04F2C2654FF400720266C3F3801290
:1051A0004A765B0003F07E038B76C36E8A7EC3F380
:1051B000C01422438A7603F07F03CB76036F1A0E66
:1051C000DC0F0C77C3F341744C77C3F382638B77A6
:1051D000930003F00C03CB77036FCA7FC3F38154B2
:1051E0002243CA77C3F3405281F82020002281F87D
:1051F0002120C3F3004381F82230036FC3F3C0348E
:1052000081F82340C3F3803481F82440C3F3403451
:1052100081F82540C3F3003481F82640C3F381248C
:1052200081F82740C3F3012381F82830036FC3F3CB
:10523000460381F82930012381F82A30104630BC1A
:105240007047012A0CD0036840F2FF529A63836BC7
:1052500043F080538363012280F834201046EEE748
:10526000836E1B0403F47C130B6190F86F200B69B1
:1052700043EA02230B610A6990F86E3013430B6115
:1052800090F86D300C690134A4024465C4654FF494
:1052900000728265026681E770B590B00446012312
:1052A000ADF812300068FFF78BFB20B94FF0806536
:1052B000284610B070BD636C032B1AD02068FFF72E
:1052C0006CFD05460028F3D100212068FFF791FB13
:1052D000606704212068FFF78CFBA0670821206825
:1052E000FFF787FBE0670C212068FFF782FBC4F81B
:1052F0008000636C032B07D00DF112012068FFF7CB
:1053000076FD05460028D3D1636C032B1DD0BDF874
:105310001210216509042068FFF754FD0546002896
:10532000C6D100212068FFF764FB60660421206875
:10533000FFF75FFBA06608212068FFF75AFBE066D5
:105340000C212068FFF755FB206704212068FFF738
:1053500050FB000DE06405A92046FFF7ABFE226D6F
:10536000120400232068FFF775FC054600289FD132
:10537000234653F8106B93E807008DE807000434C8
:1053800094E80E003046FFF7F9FA91E770B58AB05D
:105390000546002404940594069407940894C323B6
:1053A00009930AAB13E907008DE8070004AB0ECBA5
:1053B0002868FFF7E3FA124E34602868FFF7FCFA1A
:1053C00001233360022000F02BFB2846FFF727FD66
:1053D00040B10346012085F83400AA6B1343AB6348
:1053E0000AB070BD2846FFF757FF034630B10120D1
:1053F00085F83400AA6B1343AB63F1E70020EFE7B5
:10540000A0003042A8B110B5044690F8343063B122
:10541000032384F834302046FFF7B8FF0020A06350
:105420002063012384F8343010BD0377FFF7A0F820
:10543000EEE70120704730B58BB004460D460323DC
:1054400080F83430436C032B26D0B1F5805F12D046
:10545000B1F5006F14D0C9B1836B43F0006383636F
:10546000A36BF3B1236840F2FF529A63012084F8E2
:1054700034000BB030BD836B43F080538363EFE7A0
:10548000FFF7BEFDA36B1843A063E9E7FFF7E5FD57
:10549000A36B1843A063E3E7836B43F080538363FC
:1054A000DEE763680493A3680593E36806930795B2
:1054B00063690893A36909930AAB13E907008DE8B0
:1054C000070004AB0ECB2068FFF758FA012384F8DD
:1054D00034300020CDE700283CD010B5044600232E
:1054E000836290F85130002B31D0022384F8513080
:1054F0002268136823F04003136022686368A16880
:105500000B43E1680B4321690B4361690B43A169BC
:1055100001F400710B43E1690B43216A0B43A16A5B
:105520000B4313602268638B03F00403616A0B432F
:1055300053602368E26A1A612268D36923F4006326
:10554000D36100206065012384F8513010BDFFF75E
:1055500063F8CAE70120704770470268D36843F0D8
:105560000103D3600268136843F001031360002055
:105570007047704770477047704710B5044603681E
:105580001A6912F0020F11D0DA6812F0020F0DD072
:105590006FF002021A610123037703689B6913F01D
:1055A000030F70D0FFF7E6FF0023237723681A6903
:1055B00012F0040F12D0DA6812F0040F0ED06FF060
:1055C00004021A610223237723689B6913F4407F46
:1055D0005FD02046FFF7CEFF0023237723681A69A8
:1055E00012F0080F12D0DA6812F0080F0ED06FF028
:1055F00008021A61042323772368DB6913F0030F81
:105600004ED02046FFF7B6FF0023237723681A69A0
:1056100012F0100F12D0DA6812F0100F0ED06FF0E7
:1056200010021A61082323772368DB6913F4407F93
:105630003DD02046FFF79EFF0023237723681A6999
:1056400012F0010F03D0DA6812F0010F36D123688F
:105650001A6912F0800F03D0DA6812F0800F34D18B
:1056600023681A6912F0400F03D0DA6812F0400F75
:1056700032D123681A6912F0200F03D0DA6812F0D1
:10568000200F30D110BDFFF774FF2046FFF773FFE6
:105690008AE72046FFF76DFF2046FFF76CFF9BE788
:1056A0002046FFF766FF2046FFF765FFACE7204680
:1056B000FFF75FFF2046FFF75EFFBDE76FF00102D7
:1056C0001A612046FEF726FEC1E76FF080021A61DC
:1056D000204600F077F8C3E76FF040021A612046D9
:1056E000FFF74AFFC5E76FF020021A61204600F07D
:1056F00068F8C7E70368254A904212D002F50062B5
:1057000090420ED0B0F1804F0BD0A2F5983290426B
:1057100007D002F58062904203D002F58062904289
:1057200003D123F070034A681343184A904212D001
:1057300002F5006290420ED0B0F1804F0BD0A2F57E
:105740009832904207D002F58062904203D002F571
:105750008062904203D123F44073CA68134323F05C
:1057600080034A69134303608B68C3620B688362DA
:10577000064B984206D003F50063984202D00123FD
:10578000436170470B690363F9E700BF002C0140D8
:10579000A8B110B5044690F83D305BB1022384F8FF
:1057A0003D30211D2068FFF7A5FF012384F83D301F
:1057B000002010BD80F83C30FFF7CEFEEEE7012060
:1057C00070477047704700002DE9F04705460268B2
:1057D000136923F44053C1680B4313618368026962
:1057E0001343426913430168CA6822F4B05222F09D
:1057F0000C021343CB600268536923F44073816940
:105800000B435361D0F80080594B984557D000F0B6
:1058100019FC00EB800000EB80006C68A400B0FB7A
:10582000F4F4544FA7FB04346409260100F00AFC89
:1058300000EB800000EB80006C68A400B0FBF4FA81
:1058400000F000FC00EB800000EB80006C68A4001E
:10585000B0FBF4F4A7FB043464094FF0640909FBBE
:1058600014A424013234A7FB0434640904F0F004C6
:10587000344400F0E7FB00EB800000EB80006E6832
:10588000B600B0FBF6F600F0DDFB00EB800000EBAD
:1058900080006B689B00B0FBF3F0A7FB0030400971
:1058A00009FB10694FEA091909F13209A7FB093709
:1058B000C7F343172744C8F80870BDE8F08700F025
:1058C000D1FB00EB800000EB80006C68A400B0FB13
:1058D000F4F4284FA7FB04346409260100F0C2FB4E
:1058E00000EB800000EB80006C68A400B0FBF4FAD1
:1058F00000F0B8FB00EB800000EB80006C68A400B7
:10590000B0FBF4F4A7FB043464094FF0640909FB0D
:1059100014A424013234A7FB0434640904F0F00415
:10592000344400F09FFB00EB800000EB80006E68C9
:10593000B600B0FBF6F600F095FB00EB800000EB44
:1059400080006B689B00B0FBF3F3A7FB03235B09AC
:1059500009FB13694FEA091909F13209A7FB093755
:10596000C7F343172744C8F80870BDE8F08700BFA5
:10597000003801401F85EB5158B310B5044690F82C
:1059800039300BB3242384F839302268D36823F4E8
:105990000053D3602046FFF717FF2268136923F4F2
:1059A000904313612268536923F02A0353612268EC
:1059B000D36843F40053D3600020E063202384F8CD
:1059C000393084F83A3010BD80F83830FEF76EFE7A
:1059D000D8E701207047000008B5074A136843F074
:1059E00010031360032000F073FC0020FEF7EEFEAE
:1059F000FEF79CFE002008BD00200240034A11680B
:105A0000034B1B780B441360704700BFD40E00207B
:105A100000000020014B1868704700BFD40E002022
:105A200038B50446FFF7F6FF0546B4F1FF3F02D054
:105A3000044B1B781C44FFF7EDFF401B8442FAD84F
:105A400038BD00BF0000002082B0084B1B68084A28
:105A5000A2FB03235B0A00FB03F0019000BF019B44
:105A60005A1E0192002BF9D102B0704704000020A9
:105A7000D34D621070B582B00446036813F0010F75
:105A80003DD0AC4B5B6803F00C03042B2ED0A94B2C
:105A90005B6803F00C03082B23D06368B3F5803FE9
:105AA00051D0002B55D103F1804303F504331A681C
:105AB00022F480321A601A6822F480221A60636825
:105AC000002B60D0FFF7A6FF05469A4B1B6813F426
:105AD000003F14D1FFF79EFF401B6428F5D9032037
:105AE000AFE1944B5B6813F4803FD6D0914B1B68B9
:105AF00013F4003F03D06368002B00F09F812368FC
:105B000013F0020F65D08B4B5B6813F00C0F4ED077
:105B1000884B5B6803F00C03082B43D02369002BF0
:105B200079D00122844B1A60FFF774FF0546814B40
:105B30001B6813F0020F65D1FFF76CFF401B0228B2
:105B4000F5D903207DE17B4A136843F48033136069
:105B5000B5E7B3F5A02F09D0764B1A6822F480324E
:105B60001A601A6822F480221A60A8E703F18043C1
:105B7000A3F53C331A6842F480221A601A6842F492
:105B800080321A609BE7FFF745FF0546694B1B68AB
:105B900013F4003FB3D0FFF73DFF401B6428F5D955
:105BA00003204EE1634B5B6813F4803FB6D1614B39
:105BB0001B6813F0020F04D02369012B01D00120D0
:105BC0003FE15C4A136823F0F803616943EAC103CB
:105BD0001360236813F0080F32D0A369002B6ED036
:105BE0000122564B1A60FFF715FF0546514B5B6AC1
:105BF00013F0020F21D1FFF70DFF401B0228F5D94A
:105C000003201EE14B4A136823F0F803616943EA5D
:105C1000C1031360DDE70022474B1A60FFF7FAFE6D
:105C20000546444B1B6813F0020FD2D0FFF7F2FE7B
:105C3000401B0228F5D9032003E10120FFF704FFF0
:105C4000236813F0040F00F099803A4BDB6913F0DE
:105C5000805F46D1374BDA6942F08052DA61DB6906
:105C600003F080530193019B0125354B1B6813F40E
:105C7000807F38D0E368012B49D0002B4DD103F150
:105C8000804303F504331A6A22F001021A621A6A89
:105C900022F004021A62E368002B5DD0FFF7BAFE1F
:105CA0000646244B1B6A13F0020F66D1FFF7B2FEC3
:105CB000801B41F288339842F3D90320C1E00022CF
:105CC0001E4B1A60FFF7A6FE05461A4B5B6A13F0DF
:105CD000020FB5D0FFF79EFE401B0228F5D9032026
:105CE000AFE00025C1E7164A136843F480731360E0
:105CF000FFF790FE0646124B1B6813F4807FB9D164
:105D0000FFF788FE801B6428F5D9032099E0094A33
:105D1000136A43F001031362BDE7052B12D0054B54
:105D20001A6A22F001021A621A6A22F004021A6246
:105D3000B1E700BF0010024000004242800442422E
:105D400000700040414B1A6A42F004021A621A6A5B
:105D500042F001021A629EE7FFF75CFE06463B4BEB
:105D60001B6A13F0020F08D0FFF754FE801B41F2AC
:105D700088339842F3D9032063E0E5B9E369002B47
:105D80005ED0324A526802F00C02082A5BD0022B25
:105D900017D000222E4B1A60FFF73CFE04462B4B17
:105DA0001B6813F0007F47D0FFF734FE001B02286A
:105DB000F5D9032045E0254AD36923F08053D36108
:105DC000DCE70022224B1A60FFF724FE05461F4B3A
:105DD0001B6813F0007F06D0FFF71CFE401B022853
:105DE000F5D903202DE0236AB3F5803F1AD0174977
:105DF0004B6823F47413226A606A024313434B60B6
:105E00000122134B1A60FFF705FE04460F4B1B6877
:105E100013F0007F0ED1FFF7FDFD001B0228F5D91E
:105E200003200EE0094A536823F40033A1680B43B2
:105E30005360DCE7002004E0002002E0012000E0E5
:105E4000002002B070BD0120FBE700BF001002403F
:105E50006000424210B586B0154C94E80F000DF179
:105E6000180E0EE90F00238AADF80430114B5B6861
:105E700003F00C02082A18D1C3F38342724412F8CB
:105E8000102C13F4803F03D10B4800FB02F00DE00F
:105E9000084B5B68C3F34043734413F8143C074852
:105EA00000FB02F0B0FBF3F000E0044806B010BDC8
:105EB000347100080010024000093D0000127A0011
:105EC000594B1B6803F007038B420CD2564A1368E8
:105ED00023F007030B431360136803F00703994291
:105EE00001D00120704770B5036813F0020F06D08F
:105EF0004E4A536823F0F0038468234353600D46F1
:105F00000446036813F0010F52D04368012B23D0DD
:105F1000022B28D0454A126812F0020F00F082804E
:105F200042494A6822F0030213434B60FFF772FDB7
:105F300006466368012B1DD0022B2AD03B4B5B68C1
:105F400013F00C0F34D0FFF765FD801B41F288334E
:105F50009842F3D9032070BD344A126812F4003F0E
:105F6000DED1012070BD314A126812F0007FD7D116
:105F7000012070BD2D4B5B6803F00C03042B17D080
:105F8000FFF748FD801B41F288339842F2D9032085
:105F900070BD264B5B6803F00C03082B08D0FFF79D
:105FA00039FD801B41F288339842F2D9032070BD3D
:105FB0001D4B1B6803F007039D420CD21A4A13685D
:105FC00023F007032B431360136803F007039D427C
:105FD00001D0012070BD236813F0040F06D0134ACE
:105FE000536823F4E063E1680B435360236813F0C4
:105FF000080F07D00D4A536823F46053216943EA20
:10600000C1035360FFF726FF084B5B68C3F303131C
:10601000074AD35CD840074B18600020FEF7D6FB38
:10602000002070BD012070BD002002400010024021
:106030009871000804000020014B1868704700BFE9
:106040000400002008B5FFF7F7FF044B5B68C3F3BB
:106050000223034AD35CD84008BD00BF00100240B1
:10606000A871000808B5FFF7E7FF044B5B68C3F3AE
:10607000C223034AD35CD84008BD00BF00100240D1
:10608000A87100080F2303600B4B5A6802F003024B
:1060900042605A6802F0F00282605A6802F4E062DC
:1060A000C2605B68DB0803F4E0630361034B1B68B9
:1060B00003F007030B60704700100240002002400D
:1060C000F0B583B00026344679E0002D00F0A980B9
:1060D000012D00D1CE68FF2B00F2B7808646FF2B42
:1060E00000F2B680A500DEF800200F27AF4022EABC
:1060F000070206FA05F52A43CEF800204A6812F096
:10610000805F5BD0674A956945F0010595619269AA
:1061100002F001020192019AA208971C624D55F803
:10612000275004F003074FEA870E0F2707FA0EF7F0
:1061300025EA07055D4FB84200F0908007F58067BB
:10614000B84200F08D8007F58067B84200F08A8081
:1061500007F58067B84200F0878007F58067B8428E
:1061600000F0848007F58067B84275D0062707FAEB
:106170000EF73D4302324C4F47F822504A6812F462
:10618000803F75D04A4D2A681A432A604A6812F443
:10619000003F73D0464D6A681A436A604A6812F439
:1061A000801F71D0424DAA681A43AA604A6812F44F
:1061B000001F6FD03E4DEA681343EB6001340F2C93
:1061C0006ED80122A2400B6813409A42F6D14D6866
:1061D000122D30D00BD8022D2AD07FF676AF032DAA
:1061E0002FD0112D7FF477AFCE68043673E7314F8F
:1061F000BD4216D00CD9304FBD4212D007F58037C2
:10620000BD420ED0A7F58017BD427FF464AF08E011
:10621000A7F58017BD4204D007F58037BD427FF453
:106220005AAF8D687DB1012D08D04261082652E732
:10623000CE6808364FE7CE680C364CE70261082678
:1062400049E7002647E7042645E700F1040E46E744
:10625000A4F10805AD0046E7052788E7002786E793
:10626000012784E7022782E7032780E704277EE7E8
:106270000F4D2A6822EA03022A6087E70C4D6A68FC
:1062800022EA03026A6089E7094DAA6822EA03024A
:10629000AA608BE7064DEA6822EA0303EB608DE70C
:1062A00003B0F0BD001002400000014000080140B2
:1062B00000040140000021100000311012B909044F
:1062C0000161704701617047C3685940C160704700
:1062D000074AD36823F4E0631B041B0C000200F49C
:1062E000E060184340F0BF6040F40030D060704779
:1062F00000ED00E030B4164BDB68C3F30223C3F1BA
:106300000704042C28BF04241D1D062D17D9033BA8
:10631000012505FA04F4013C2140994005FA03F3F4
:10632000013B1340194300280BDB0901C9B200F1FE
:10633000604000F5614080F8001330BC70470023D6
:10634000E6E700F00F000901C9B2024B1954F4E767
:1063500000ED00E014ED00E0420900F01F00012311
:1063600003FA00F0014B43F82200704700E100E01F
:106370000138B0F1807F0AD2064B5860F021064AFE
:1063800082F823100020986007221A6070470120CD
:10639000704700BF10E000E000ED00E0042805D0E9
:1063A000054A136823F0040313607047024A136818
:1063B00043F004031360704710E000E00E4B1A68CE
:1063C00042F001021A6059680C4A0A405A601A6881
:1063D00022F0847222F480321A601A6822F4802239
:1063E0001A605A6822F4FE025A604FF41F029A6043
:1063F000034A044B9A607047001002400000FFF807
:106400000040000800ED00E0124A12F0070F1ED015
:10641000D11D21F00701C1F5406313440A460E481F
:106420000260002141601344083B23F007030B483E
:10643000036059601960991A51601360084B196024
:10644000084B19604FF00042074B1A6070474FF439
:106450004063E4E72C000020380C002028000020D6
:10646000340C0020300C00202C0C002010B4124BF7
:106470001A6882421AD359685C18A04203D1406856
:1064800001445960184641684418A24212D10B4C8D
:106490002468A2420CD05268114441601A68126804
:1064A0000260984200D0186010BC70471346DFE7C6
:1064B0000460F6E70260F4E7380C002028000020B2
:1064C00070B5044600F02EFC3A4B1B68BBB13A4B4A
:1064D0001B681C4263D1ACB1083414F0070F11D013
:1064E00024F00704083404F007035BB14FF05003B5
:1064F00083F31188BFF36F8FBFF34F8FFEE7FFF772
:1065000083FFE4E7002C4CD02C4B1B689C424AD8FC
:106510002B4B1D6801E02B4615466A68944202D950
:106520002A68002AF7D1234A126895423DD01E6896
:1065300008362A681A606B681B1B102B10D92819A3
:1065400010F0070F08D04FF0500383F31188BFF30A
:106550006F8FBFF34F8FFEE743606C60FFF786FFDE
:106560006A6816490B689B1A0B60164909688B42CA
:1065700001D214490B60104B1B6813436B6000235E
:106580002B6000F063FC16F0070F10D04FF05003A3
:1065900083F31188BFF36F8FBFF34F8FFEE70026A1
:1065A000EFE70026EDE70026EBE70026E9E73046B7
:1065B00070BD00BF280000202C0C0020300C0020F3
:1065C000380C0020340C002080B338B50446A0F10C
:1065D000080550F8042C164909680A4208D14FF002
:1065E000500383F31188BFF36F8FBFF34F8FFEE724
:1065F00050F8080C40B14FF0500383F31188BFF3FB
:106600006F8FBFF34F8FFEE722EA010244F8042C9C
:1066100000F088FB54F8041C064A13680B4413600E
:106620002846FFF723FF00F011FC38BD704700BF7C
:106630002C0C0020300C002082B0002301930D4B65
:106640001B68B3F1FF3F08D04FF0500383F311886C
:10665000BFF36F8FBFF34F8FFEE74FF0500383F30D
:106660001188BFF36F8FBFF34F8F019B002BFCD0BE
:1066700002B070470800002006480068006880F3F8
:10668000088862B661B6BFF34F8FBFF36F8F00DF2C
:1066900000BF000008ED00E04FF0807340F8043CBC
:1066A00021F0010140F8081C034B40F80C3C40F875
:1066B000202C4038704700BF3966000800000000F9
:1066C000074B19680868B0E8F00F80F30988BFF33A
:1066D0006F8F4FF0000080F311884EF00D0E704761
:1066E000480C00204FF0500383F31188BFF36F8FE5
:1066F000BFF34F8F0A4A136801331360012B0DD18A
:10670000084B1B6813F0FF0F08D04FF0500383F3C2
:106710001188BFF36F8FBFF34F8FFEE7704700BF45
:106720000800002004ED00E0094B1B6843B94FF05E
:10673000500383F31188BFF36F8FBFF34F8FFEE7D2
:10674000013B034A13600BB983F31188704700BF04
:106750000800002000000000000000000000000011
:10676000EFF30980BFF36F8F0D4B1A6820E9F00F2C
:1067700010602DE908404FF0500080F3118800F0C0
:106780000BFC4FF0000080F31188BDE80840196849
:106790000868B0E8F00F80F30988BFF36F8F704787
:1067A000480C002008B54FF0500383F31188BFF365
:1067B0006F8FBFF34F8F00F0BDFA18B14FF08052CA
:1067C000024B1A60002383F3118808BD04ED00E03A
:1067D000084A0023136008490B60084B1B680849EE
:1067E000A1FB03139B09013B06490B6007231360C0
:1067F000704700BF10E000E018E000E00400002057
:10680000D34D621014E000E010B582B0274B1A7827
:10681000D2B20192FF221A701B78DBB28DF80330DE
:106820009DF8033003F05003214A13700722214BD7
:106830001A6009E01F4A1368013B13609DF803309A
:106840005B00DBB28DF803309DF8033013F0800F4E
:10685000F0D1184B1B68032B08D04FF0500383F383
:106860001188BFF36F8FBFF34F8FFEE71B0203F456
:10687000E063104A1360019BDBB20C4A13700E4BAD
:106880001A6842F470021A601A6842F070421A6084
:10689000FFF79EFF0024094B1C60FFF7EDFE00F0A0
:1068A0007BFBFFF7C9FE204602B010BD00E400E00C
:1068B000400C0020440C002020ED00E008000020E7
:1068C00000F1080343604FF0FF328260C360036150
:1068D00000230360704700230361704743684B60E7
:1068E0009A688A609A685160996008610368013308
:1068F0000360704730B40D68B5F1FF3F02D000F17E
:10690000080202E0026904E01A4653681C68A542C6
:10691000FAD253684B6099608A60516008610368DD
:106920000133036030BC704703694268816891603D
:106930008268416851605A68904206D00022026124
:106940001A68013A1A601868704782685A60F5E759
:10695000084B1B681B683BB1064B1B68DB68DB6898
:106960005A68054B1A6070474FF0FF32024B1A60AD
:10697000704700BF4C0C0020240D002010B50446C9
:10698000006BFFF721FE2046FFF71EFE10BD2DE92C
:10699000F047089EDDF824800A9CA1B10D46216BCA
:1069A00002F18042013A01EB820222F00707002245
:1069B0000F2A11D815F802E0A11881F834E0A95C7B
:1069C00051B10132F4E74FF0500383F31188BFF364
:1069D0006F8FBFF34F8FFEE7002284F84320062E0F
:1069E00000D9062699468246E66266640025A564BB
:1069F000201DFFF770FF04F11800FFF76CFF246102
:106A0000C6F10706A6616462E56484F850504A4600
:106A100051463846FFF740FE2060B8F1000F01D024
:106A2000C8F80040BDE8F08738B5002407E004EB63
:106A3000840293000E481844FFF742FF0134062CED
:106A4000F5D90C4D2846FFF73BFF0B4C2046FFF7CE
:106A500037FF0A48FFF734FF0948FFF731FF0948BD
:106A6000FFF72EFF084B1D60084B1C6038BD00BFB0
:106A7000540C0020F80C00200C0D00202C0D0020E0
:106A8000580D0020440D00204C0C0020500C00201C
:106A900010B50446FFF726FE204A13680133136041
:106AA0001F4B1B68002B31D01E4B1B683BB91C4B86
:106AB0001B68DA6AE36A9A4201D8194B1C601A4AC9
:106AC000136801331360E36A01229A40174908688A
:106AD00002430A6003EB83039A00211D144810440B
:106AE000FFF7FCFEFFF720FE0E4B1B686BB10C4B53
:106AF0001B68DA6AE36A9A4207D24FF080520D4B64
:106B00001A60BFF34F8FBFF36F8F10BD044B1C6033
:106B10001368012BD3D1FFF787FFD0E7E00C0020EB
:106B2000480C0020400D0020F00C0020F40C002048
:106B3000540C002004ED00E00F4B1B68D3B110B5DE
:106B4000FFF7D0FD0D4BDB68DC68201DFFF7ECFE86
:106B50000B4A1368013B1360074A1368013B13603B
:106B6000FFF7E2FD2046FFF709FF034B1B68002BF0
:106B7000E6D110BD704700BFE40C0020580D002086
:106B8000E00C002008B5FFF7D7FF064B1B68012B70
:106B9000F9D94FF08052044B1A60BFF34F8FBFF307
:106BA0006F8FF0E7540C002004ED00E070B5044650
:106BB0000E461D4B1D681D4B18680430FFF7B4FED0
:106BC00050B91A4B1B68DA6A012303FA02F218491A
:106BD0000B6823EA02030B60B4F1FF3F13D02C448F
:106BE000124B1B685C60A54216D8124B18680F4BFD
:106BF00019680431FFF77EFE0F4B1B689C4201D2DF
:106C00000D4B1C6070BD002EE9D0084B1968043193
:106C10000A48FFF763FE70BD094B1868034B1968FB
:106C20000431FFF767FE70BD6C0D0020480C00209A
:106C3000F40C00204C0C0020240D0020440D0020FA
:106C4000500C00202DE9F04385B006460F4615464E
:106C500098469000FFF734FC00B381465420FFF7BC
:106C60002FFC0446B0B1C0F83090CCB100230393A0
:106C700002940D9B01930C9B009343462A46394690
:106C80003046FFF784FE2046FFF702FF012005B0E3
:106C9000BDE8F0834846FFF797FCE6E70024E4E709
:106CA0004FF0FF30F3E7000000B583B0174B0193BE
:106CB00000230093802216491648FFF7C3FF0128DE
:106CC00005D0B0F1FF3F17D003B05DF804FB4FF0E3
:106CD000500383F31188BFF36F8FBFF34F8F4FF0D3
:106CE000FF320D4B1A6001220C4B1A6000220C4B34
:106CF0001A60FFF789FDE7E74FF0500383F311882F
:106D0000BFF36F8FBFF34F8FFEE700BF200D002052
:106D1000B0710008856B0008240D0020400D002094
:106D20006C0D0020024A136801331360704700BFE6
:106D3000EC0C0020F8B53A4B1B68002B64D1394BA2
:106D40001D6801351D60C5B9374B1B681B6843B111
:106D50004FF0500383F31188BFF36F8FBFF34F8F52
:106D6000FEE7314A1168314B186810601960304AEB
:106D7000136801331360FFF7EBFD2E4B1B689D4238
:106D800038D200242C4B1B68DB6A03EB83039A0088
:106D90002A4B9B58012B3CD901243AE00124224B79
:106DA0001B681B6843B3204B1B68DB68DE68736895
:106DB0009D4226D3371D3846FFF7B6FDB36A1BB197
:106DC00006F11800FFF7B0FDF36A01229A401C4952
:106DD000086802430A6003EB83039A0039461748A8
:106DE0001044FFF77BFDF26A134B1B68DB6A9A4283
:106DF000D4D2D4E70024D2E74FF0FF320D4B1A6013
:106E0000C0E70C4A1360BDE70E4A136801331360F4
:106E100000240D4B1B6803B101242046F8BD00BFC0
:106E2000EC0C00206C0D00204C0C0020500C0020BD
:106E3000280D0020240D0020480C0020540C0020B8
:106E4000F40C0020E80C0020700D002038B5354B04
:106E50001B6843B94FF0500383F31188BFF36F8F62
:106E6000BFF34F8FFEE7FFF73DFC2E4B1A68013A48
:106E70001A601B68002B50D12B4B1B6823B90024D0
:106E8000FFF752FC204638BD0024284B1B681BB37B
:106E9000264BDB68DC6804F11800FFF745FD251D73
:106EA0002846FFF741FDE36A01229A40204908681D
:106EB00002430A6003EB83039A0029461D481044ED
:106EC000FFF70CFDE26A1C4B1B68DB6A9A42DCD3BD
:106ED00001221A4B1A60D8E70CB1FFF739FD184BA5
:106EE0001C6874B9154B1B68CBB14FF08052154B21
:106EF0001A60BFF34F8FBFF36F8F0124C0E7013CCF
:106F000007D0FFF717FF0028F9D001220B4B1A60BA
:106F1000F5E700220A4B1A60E4E70024B0E70024FA
:106F2000AEE700BFEC0C0020E00C00202C0D002090
:106F3000F40C0020540C0020480C0020700D0020A0
:106F4000E80C002004ED00E010B5A8B10446104B99
:106F50001B6843B14FF0500383F31188BFF36F8F69
:106F6000BFF34F8FFEE7FFF7DDFE00212046FFF75E
:106F70001DFEFFF76BFF00E0002038B94FF0805294
:106F8000044B1A60BFF34F8FBFF36F8F10BD00BF6C
:106F9000EC0C002004ED00E0204B1B68C3B900227C
:106FA0001F4B1A601F4B1B68B3FA83F3DBB2C3F1AC
:106FB0001F0303EB83018A001B498A5862B94FF013
:106FC000500383F31188BFF36F8FBFF34F8FFEE73A
:106FD0000122134B1A60704710B413489A00D4185A
:106FE000A10001444C6864684C601A449100083167
:106FF000084484420AD003EB83039A000A4B1344EB
:107000005B68DA68094B1A6010BC7047606803EB74
:1070100083029100044A0A445060ECE7EC0C002023
:10702000700D0020F40C0020540C0020480C0020AF
:10703000054B1B6823B1054B1B681BB90220704729
:107040000120704700207047400D0020EC0C00200C
:10705000842801D0033070470020704708B5FFF73F
:1070600023FE002008BDF0B585B00F4644680568D2
:107070000669B0F90800FFF7EBFF03AB019300903E
:107080003B46B2B229462046FFF7DCFD012802D17B
:10709000039805B0F0BD0020FBE708B5034600B932
:1070A00001231846FFF750FF002008BD08B5FFF781
:1070B000BFFF012801D0FFF775FB08BD002103E0E9
:1070C0000B4B5B58435004310A480B4B42189A4211
:1070D000F6D30A4A02E0002342F8043B084B9A42E6
:1070E000F9D3FFF76BF9FDF7D5F8FDF763F97047B2
:1070F000C0710008000000200C0000200C000020DF
:10710000D80E0020FEE70000F8B500BFF8BC08BCB0
:107110009E467047F8B500BFF8BC08BC9E46704755
:1071200058710008ED440008000000000000000055
:107130008000000002030405060708090A0B0C0D75
:107140000E0F101001020000436F72652F5372631F
:107150002F6D61696E2E630064656661756C745491
:1071600061736B00436F72652F5372632F73646991
:107170006F2E6300436F72652F5372632F737069B4
:107180002E630000436F72652F5372632F75736116
:1071900072742E6300000000000000000000000078
:1071A00001020304060708090000000001020304AD
:0871B00049444C4500000000B9
:0471B8005D4200082C
:0471BC003542000850
:0C71C0000100000000A24A04AAAAAAAA2A
:04000005080070BDC2
:00000001FF
