:020000040800F2
:1000000098040020450100087F110008370F000800
:100010007D1100088D010008C514000800000000D3
:10002000000000000000000000000000A311000814
:100030008F01000800000000A1110008A5110008B0
:100040005F0100085F0100085F0100085F01000810
:100050005F0100085F0100085F0100085F01000800
:100060005F0100085F0100085F0100085F010008F0
:100070005F0100085F0100085F0100085F010008E0
:100080005F0100085F0100085F0100085F010008D0
:100090005F0100085F0100085F0100085F010008C0
:1000A0005F010008591200085F0100085F010008A5
:1000B0005F0100085F0100085F0100085F010008A0
:1000C0005F0100085F0100085F0100085F01000890
:1000D0005F0100085F0100085F0100085F01000880
:1000E0005F0100085F0100085F0100085F01000870
:1000F0005F0100085F0100085F0100085F01000860
:100100005F0100085F0100085F0100085F0100084F
:100110005F0100085F0100085F0100085F0100083F
:100120005F0100085F0100085F0100085F0100082F
:10013000DFF80CD000F018F800480047E71400087A
:10014000980400200648804706480047FEE7FEE77F
:10015000FEE7FEE7FEE7FEE7FEE7FEE7FEE7FEE777
:100160001112000831010008064C074D06E0E06856
:1001700040F0010394E8070098471034AC42F6D3EE
:10018000FFF7DAFF1415000834150008FEE7704782
:1001900070B5044600F020F90546601C02D0044802
:1001A0000078044400F018F9401BA042FAD370BD57
:1001B00004000020064900200A69120607D5054AF6
:1001C0004A60054A4A600969090600D5012070475E
:1001D0000020024023016745AB89EFCD2DE9F84FA0
:1001E000DFF8B8A100220AF1040B144601274FF0F2
:1001F0000F090BF1040E00BF0B6807FA04F52B4042
:10020000AB4274D1DFF898C14E68A6EB0C08664586
:100210002BD00DDC032E34D005DC36B3012E19D0E3
:10022000022E2FD11BE0112E16D0122E2AD119E04A
:10023000B8F5881F19D006DCB8F5803F15D0B8F5A1
:10024000801F1FD111E0B8F5001F0ED0B8F5041FB4
:1002500018D10AE0CA6815E0CA68121D12E0CA681F
:1002600008320FE0CA680C320CE08A682AB1012A11
:100270004FF0080203D0456104E0042202E005616A
:1002800000E00022FF2B01D8064601E000F1040641
:100290004FEA840501D9A5F12005D6F800C009FA76
:1002A00005F82CEA080C02FA05F54CEA050CC6F82C
:1002B00000C04D68ED006AD53A4DAE6946F00106C2
:1002C000AE61AD6924F0030605F001050095364DD9
:1002D00006EB050CDCF80850A6074FEA167809FA79
:1002E00008F6B543314EB04202D100261AE04EE086
:1002F0002F4EB04201D1012614E02E4EB04201D162
:1003000002260FE02C4EB04201D103260AE02B4E0C
:10031000B04201D1042605E0294EB04201D10526A4
:1003200000E0062606FA08F62E43CCF808604D6871
:10033000DAF80060ED03554601D51E4300E09E4308
:100340002E604D68AD0305D5DBF800601E43CBF889
:10035000006004E0DBF800509D43CBF800504D688E
:10036000DEF80060ED02754601D51E4300E09E43B5
:100370002E604D68AD0205D5084D0C352E681E4324
:100380002E6004E0054E0C3635689D433560641CD4
:10039000102CFFF431AFBDE8F88F000000040140DD
:1003A0000000111000100240000001400008014050
:1003B000000C0140001001400014014000180140F1
:1003C000001C01408068084000D0012070470AB13D
:1003D000016170470904FBE701488068704700002D
:1003E000040000200248816802781144816070474F
:1003F00004000020074810B5016841F010010160B9
:10040000032000F0B7F8002000F006F800F03EF8F6
:10041000002010BD0020024000B5014687B0002238
:10042000192000F087F8192000F078F81348816946
:1004300041F400618161806905A900F400600690C3
:10044000684600F053F900F087F90D490D4AB0FBFA
:10045000F1F10D48491E0260416040F2E73200218F
:10046000C0E90321816000F066FB10B1012007B0F4
:1004700000BD054800F07BFBF9E7000000100240DA
:1004800040420F00002C014054000020214808B5D4
:10049000816941F001018161816901F001010091EF
:1004A000C16941F08051C161C06900F08050009085
:1004B000032000F05FF8002211466FF00B0000F0FF
:1004C00039F8002211466FF00A0000F033F80022DC
:1004D00011466FF0090000F02DF800221146501F60
:1004E00000F028F800221146101F00F023F8002227
:1004F0001146901E00F01EF800221146501E00F01A
:1005000019F80548416821F0E06141F080614160DF
:1005100008BD0000001002400000014000F01F0272
:10052000012191404009800000F1E020C0F8001155
:1005300070470000F0B40E4B1B680C46C3F3022357
:10054000C3F10705042D00D90425191D072901D27F
:10055000002300E0DB1E012606FA05F1491E2140BA
:1005600099409E40761E16403143F0BC00F008BE14
:100570000CED00E0064900F0070208684FF6FF03A3
:10058000184040EA0220034A104308607047000008
:100590000CED00E00000FA052DE9F047DFF83C81A2
:1005A00005460E46D8F8000000F00700B0420CD215
:1005B000D8F8001021F007013143C8F80010D8F82E
:1005C000000000F00700B04263D12878444C800757
:1005D00005D56068A96820F0F000084360602878BD
:1005E000C00745D06868012816D02168022816D0B7
:1005F000890700294DDA616821F003010143616038
:10060000FFF7EAFE6968074641F2883001290FD0FA
:100610000229814619D027E021688903E9E7890189
:10062000E7E700BFFFF7D8FEC11B494501D918E035
:1006300081466068C0F381000128F3D118E000BF53
:10064000FFF7CAFEC11B49450BD86068C0F38100A3
:100650000228F5D10CE000BFFFF7BEFEC11B4945E3
:1006600002D90320BDE8F087606810F00C0FF3D1C9
:10067000D8F80010404601F00701B1420BD90168DB
:1006800021F0070131430160006800F00700B0422B
:1006900001D00120E6E72878400705D56068E968C1
:1006A00020F4E060084360602878000706D56068A1
:1006B000296920F4605040EAC100606000F05CF8F5
:1006C0006168084AC1F30311515CC84006490860DB
:1006D0000020FFF7A1FE0020C4E700000020024038
:1006E00000100240FC140008100000200F220260DD
:1006F0000C4A536803F003034360536803F0F003AC
:100700008360536803F4E063C36052684FF4E063AE
:1007100003EAD20202610448006800F007000860A2
:1007200070470000001002400020024001480068AD
:10073000704700001000002004480549006849681F
:10074000044AC1F30221515CC840704710000020E8
:10075000001002400C15000804480549006849686B
:10076000044AC1F3C221515CC84070471000002008
:10077000001002400C15000812A185B00FC98DE8C9
:100780000F0014A0144A006804905168134801F047
:100790000C03042B10D0082B0ED1C1F38343C903E3
:1007A0001DF803000AD5516804AAC1F34041515C09
:1007B0000A4A5043B0FBF1F005B07047084948437E
:1007C000FAE7000002030405060708090A0B0C0DEE
:1007D0000E0F1010010200000010024000127A00FB
:1007E00000093D002DE9F84F04460078B94DC007D7
:1007F00048D06868C0F38100012807D06868C0F35A
:100800008100022809D16868C00306D528688003E2
:1008100038D5606800286FD034E06068B0F5803F5C
:100820000BD010B1B0F5A02F11D0286820F4803083
:100830002860286820F4802002E0286840F4803096
:100840002860606888B1FFF7C7FD064609E02868A0
:1008500040F480202860F0E7FFF7BEFD801B64288D
:1008600075D828688003F7D50CE0FFF7B5FD06467C
:1008700005E000BFFFF7B0FD801B6428F0D82868B2
:100880008003F7D42078944E80074FF001094FF091
:1008900000083BD5686810F00C0F07D06868C0F3FB
:1008A0008100022809D16868C00306D4286880073F
:1008B00014D5206901281FD110E02069B0B1C6F815
:1008C0000090FFF789FD074605E000BFFFF784FDB4
:1008D000C01B0228C4D828688007F7D5286861693A
:1008E00020F0F80040EAC10028600FE0C6F8008060
:1008F000FFF772FD074606E0E9E000BFFFF76CFD79
:10090000C01B022823D828688007F7D42078000766
:100910002CD57248A169D9B1C0F80090FFF75CFDF1
:10092000074604E0FFF758FDC01B02280FD8686A8D
:100930008007F7D56A484FF4FA510068B0FBF1F030
:10094000009000BF0098411E0091FAD20EE080E0B6
:10095000C0F80080FFF740FD074604E0FFF73CFDCC
:10096000C01B022875D8686A8007F7D42078400732
:1009700060D5E8690027C00008D4E86940F08050DD
:10098000E861E869012700F080500090554801684F
:10099000C90513D40168834641F480710160FFF7F3
:1009A0001BFD824606E000BFFFF716FDA0EB0A0024
:1009B00064284ED8DBF80000C005F5D5E0680128B2
:1009C0000AD008B1052813D0286A20F00100286257
:1009D000286A20F0040002E0286A40F00100286242
:1009E000E06841F2883B98B1FFF7F6FC82460BE0E5
:1009F000286A40F004002862EEE700BFFFF7ECFC35
:100A0000A0EB0A0159455AD8286A8007F6D50CE0B0
:100A1000FFF7E2FC824605E0FFF7DEFCA0EB0A01EF
:100A200059454CD8286A8007F6D41FB1E86920F0F0
:100A30008050E861E06988B36968C1F381010229E7
:100A400045D00228C6F8608004D0FFF7C5FC0446F4
:100A500038E034E0FFF7C0FC074604E0FFF7BCFCD9
:100A6000C01B02282BD828688001F7D4206AB0F573
:100A7000803F05D16868A16820F4003008436860B1
:100A8000D4E908010843696821F4741108436860D7
:100A9000C6F86090FFF7A0FC044606E015E000BF32
:100AA000FFF79AFC001B022809D828688001F7D5B7
:100AB0000BE000BFFFF790FC001B022802D90320C7
:100AC000BDE8F88F28688001F4D40020F8E7012001
:100AD000F6E700000010024000004242800442425B
:100AE00010000020007000404FF0E0210428086949
:100AF00003D020F004000861704740F00400FAE7DA
:100B0000704710B5401EB0F1807F01D3012010BDA9
:100B10004FF0E02460610F21601700F031FB0020EE
:100B2000A06107202061002010BD10B5FFF7E8FF8D
:100B300010BD7047704710B5040003D094F83D0015
:100B400010B107E0012010BD002084F83C002046D1
:100B500000F00CF8022084F83D00211D206800F010
:100B600081FB012084F83D00002010BD7047016822
:100B7000CA6842F00102CA600068016841F00101E0
:100B8000016000207047704770B504460068016935
:100B90004FF00005C943890715D4C168C9438907C7
:100BA00011D4E91E01610120207720688069800747
:100BB000204602D0FFF7E7FF04E000F098F8204657
:100BC00000F096F8257720680169C943490717D4D2
:100BD000C168C943490713D46FF0040101610220C1
:100BE00020772068806910F4407F204602D0FFF70C
:100BF000CAFF04E000F07BF8204600F079F8257782
:100C000020680169C943090716D4C168C9430907A7
:100C100012D46FF008010161042020772068C069B8
:100C20008007204602D0FFF7AEFF04E000F05FF837
:100C3000204600F05DF8257720680169C943C906A0
:100C400017D4C168C943C90613D46FF010010161FC
:100C5000082020772068C06910F4407F204602D029
:100C6000FFF791FF04E000F042F8204600F040F862
:100C7000257720680169C943C90708D1C168C943FC
:100C8000C90704D1891E0161204600F033F82068AD
:100C90000169C943090609D4C168C943090605D4D5
:100CA0006FF0800101612046FFF743FF2068016972
:100CB000C943490609D4C168C943490605D46FF040
:100CC00040010161204600F01FF820680169C94316
:100CD00089060BD4C168C943890607D46FF0200187
:100CE00001612046BDE87040FFF724BF70BD70472A
:100CF0007047000000680349884201D1FFF772BBCA
:100D000070470000002C0140704770B5040004D00B
:100D100094F83900002510B106E0012070BD84F878
:100D20003850204600F022F8242084F8390020684A
:100D3000C16821F40051C160204600F0D9FA206852
:100D4000016921F4904101612068416921F02A0183
:100D500041612068C16841F40051C160E563202011
:100D600084F8390084F83A00002070BD10B500689E
:100D7000114986B088421DD11048816941F48041F3
:100D8000816180690E4C00F4804004904FF4007043
:100D90000090022001900320039069462046FFF74F
:100DA0001DFA00212015CDE9000102916946204677
:100DB000FFF714FA06B010BD0038014000100240E1
:100DC000000801402DE9F843044690F83A0099469E
:100DD00016460D4620284FD195B18EB194F83800B3
:100DE000012849D0012084F838000027E763222039
:100DF00084F83A00FFF7F0FAA6858046E68531E0F0
:100E00000120BDE8F883E08D401EE085A0684346E0
:100E1000B0F5805F4FF000024FF020012046CDF882
:100E2000009004D000F01CFB98B10320E9E700F02B
:100E300017FB0028F9D1206900282068406803D0FA
:100E4000C1B225F8011B0DE0C0F3080125F8021B13
:100E500008E0206900282068406801D000F07F0089
:100E600005F8010BE08D0028CDD1202084F83A0050
:100E700084F838700020C4E70220C2E72DE9F84367
:100E8000044690F839001F4616460D46202850D1DA
:100E9000A5B19EB194F8380001284AD0012084F809
:100EA00038004FF00008C4F83C80212084F8390055
:100EB000FFF792FAA6848146E68426E00120BDE889
:100EC000F883E08C401EE084A0684B46B0F5805F5C
:100ED0004FF000024FF080012046009703D000F051
:100EE000BFFAE8B90DE000F0BBFAC8B9288821685C
:100EF000C0F308004860206908B16D1C05E0AD1C16
:100F000003E0216815F8010B4860E08C0028D8D177
:100F10004B46002240212046009700F0A1FA08B17C
:100F20000320CCE7202084F8390084F838800020A2
:100F3000C5E70220C3E7FEE7F8B500F0DFF8FFF7EA
:100F400039F900F0D3F8012801D029480068294C6C
:100F500064222046022100F009F94FF4FA75284670
:100F6000FFF716F90020009064220221684600F085
:100F7000F5F89DF80000222838D19DF801003228AC
:100F800034D12846FFF704F9A01C6422022100F0A6
:100F9000EDF82846FFF7FCF864220221684600F0CD
:100FA000DDF89DF80000232820D19DF801003328AA
:100FB0001CD12846FFF7ECF864220221684600F0B5
:100FC000CDF89DF800009DF8011040EA014086B27E
:100FD0002846FFF7DDF8002406E064220221684677
:100FE00000F0BCF8641CA4B2B442F6D3F8BD000013
:100FF00000F8070800000020F0B5364885B0816988
:1010000041F040018161816901F0400104918169F1
:1010100041F010018161816901F010010491816941
:1010200041F004018161816901F004010491816949
:1010300041F008018161816901F008010491816931
:1010400041F0200181618069234F00F0200004906D
:10105000002220213846FFF7BAF94FF6FF76032425
:10106000CDE9006469461D48FFF7B8F8B010CDE936
:10107000000469461A48FFF7B1F84FF6FF10CDE9B2
:10108000000469461748FFF7A9F847F6DF70CDE975
:10109000000469463846FFF7A1F800254FF40040E8
:1010A000CDE90005694638460295FFF797F8CDE986
:1010B000006469460C48FFF791F820200090012059
:1010C000CDE901050220039069463846FFF786F80E
:1010D00005B0F0BD00100240000C014000180140B6
:1010E0000010014000080140001401404FF400418D
:1010F0000148FFF767B90000000C014001222021E0
:101100000148FFF764B90000000C01400D4810B51C
:101110000B4901604FF4E1314160002181600C22F4
:10112000C160C0E904128161C161FFF7EEFD0028D2
:1011300005D0BDE81040422103A000F0C4B910BDA5
:1011400000380140140000202E2E2F436F72652FAF
:101150005372632F75736172742E630013460A46CF
:1011600001460148FFF72EBE1400002013460A4630
:1011700001460148FFF782BE14000020FEE77047D9
:101180000907090E002806DA00F00F0000F1E02040
:1011900080F8141D704700F1E02080F800147047BB
:1011A00070477047FFF7C1BC30B58FB0012108040C
:1011B000CDE900100024029402250491CDE90750E6
:1011C0004FF4E01009906846FFF70CFB00B1FEE712
:1011D0000F20CDE90A054FF48060CDE90C400221D3
:1011E0000AA80E94FFF7D8F900B1FEE7FFF79EFAC0
:1011F0004FF47A71B0FBF1F0FFF783FC0420FFF7A6
:1012000073FC00221146501EFFF794F90FB030BD59
:101210000D48016841F00101016041680B4A11402D
:10122000416001680A4A11400160016821F480218F
:101230000160416821F4FE0141604FF41F018160AB
:101240000449C00308607047001002400000FFF826
:10125000FFFFF6FE08ED00E00148FFF795BC000037
:1012600054000020F0B502681C4B1D4D1D4E1E4F52
:101270001E4C4FF0804C984209D0A04207D06045E8
:1012800005D0A84203D0B04201D0B84204D122F028
:10129000700E4A6842EA0E02984209D0A04207D076
:1012A000604505D0A84203D0B04201D0B84203D176
:1012B00022F44075CA682A4322F080054A692A430D
:1012C00002608A68C2620A688262984201D0A042C3
:1012D00001D10969016301214161F0BD002C014088
:1012E0000004004000080040000C004000340140B1
:1012F0002DE9F041044600680169E26821F440519B
:10130000114301612169A0680843616908432168AC
:10131000CA6841F20C639A430243CA60206841697B
:10132000A26921F44071114341614C492068642550
:10133000322688423CD1FFF70FFA00EBC00101EBE7
:10134000001061688900B0FBF1F7FFF705FA00EBC8
:10135000C00101EB00106168B0468900B0FBF1F0FC
:10136000B0FBF5F06FF01801484307EB800106EB86
:101370000110B0FBF5F000F0F006FFF7EDF900EB1F
:10138000C00101EB001061688900B0FBF1F0B0FB17
:10139000F5F006EB0016FFF7DFF900EBC00101EBFB
:1013A000001061688900B0FBF1F7FFF7D5F93BE069
:1013B000FFF7C2F900EBC00101EB00106168890082
:1013C000B0FBF1F7FFF7B8F900EBC00101EB00103B
:1013D0006168B0468900B0FBF1F0B0FBF5F06FF04A
:1013E0001801484307EB800106EB0110B0FBF5F054
:1013F00000F0F006FFF7A0F900EBC00101EB0010D0
:1014000061688900B0FBF1F0B0FBF5F006EB001667
:10141000FFF792F900EBC00101EB00106168890051
:10142000B0FBF1F7FFF788F900EBC00101EB00100A
:1014300061688900B0FBF1F0B0FBF5F06FF01801C6
:10144000484307EB800108EB0110B0FBF5F0216881
:1014500000F00F0030448860BDE8F08100380140A2
:101460002DE9F041984617460E460446069D1DE0BC
:10147000681C1BD02DB1FEF7AFFFA0EB0800A842FF
:1014800014D92068C16821F4D071C1602068416915
:1014900021F001014161202084F8390084F83A00EC
:1014A000002084F838000320BDE8F081206800683F
:1014B00036EA000004D00020B842D9D00020F3E77B
:1014C0000120F9E7FEE7FEE702E008C8121F08C1A5
:1014D000002AFAD170477047002001E001C1121FB5
:1014E000002AFBD17047FEF785FFFFF75DFEFFF78F
:1014F00083FDFFF70BFEFFF71FFDFEE70000000076
:1015000000000000010203040607080900000000B3
:10151000010203043415000800000020140000003C
:10152000C8140008481500081400002084040000B6
:10153000D814000821312232010000001000000000
:081540000000000000A24A04B3
:0400000508000131BD
:00000001FF
