:020000040800F2
:10000000705200209D01000825100008C90F00084B
:1000100021100008870200085D2A00080000000087
:100020000000000000000000000000008F27000812
:10003000AD07000800000000B5100008B501000879
:10004000B7010008B7010008B7010008B7010008B0
:10005000B7010008B7010008B7010008B7010008A0
:10006000B7010008B7010008B7010008B701000890
:10007000B7010008B7010008B7010008B701000880
:10008000B7010008B7010008B7010008B701000870
:10009000B7010008B7010008B7010008B701000860
:1000A000B7010008B7010008B7010008B701000850
:1000B000B7010008B7010008B7010008B701000840
:1000C000B7010008B7010008B7010008B701000830
:1000D000B7010008B7010008B7010008B701000820
:1000E000B7010008B7010008B7010008B701000810
:1000F000B7010008B7010008B7010008B701000800
:10010000B701000889160008B7010008B701000808
:10011000B7010008B7010008B7010008B7010008DF
:10012000B7010008B7010008B70100085905000829
:10013000B7010008B7010008B7010008B7010008BF
:10014000B7010008B7010008B7010008B7010008AF
:10015000B7010008B7010008B7010008B70100089F
:10016000B7010008B7010008B7010008B70100088F
:10017000B7010008B7010008B7010008B70100087F
:10018000B7010008B7010008DFF80CD000F04AF80A
:100190000048004779400008705200200648804718
:1001A00006480047FEE7FEE7FEE7FEE7FEE7FEE75C
:1001B000FEE7FEE7FEE7FEE7D52800088901000814
:1001C0002DE9F05F0546002092469B46884606468C
:1001D000814640241BE0284641464746224600F01F
:1001E00042F853465A46C01A914110D31146184658
:1001F000224600F029F82D1A67EB01084F462246E7
:100200000120002100F020F817EB00094E41201ECC
:10021000A4F10104DFDC484631462A464346BDE8E6
:10022000F09F0000064C074D06E0E06840F0010337
:1002300094E8070098471034AC42F6D3FFF7A8FFC4
:100240001045000830450008202A04DB203A00FA57
:1002500002F1002070479140C2F1200320FA03F31D
:10026000194390407047202A04DB203A21FA02F01B
:100270000021704721FA02F3D040C2F120029140E0
:1002800008431946704700BFFEE770B500254FF4DC
:10029000803400E0641E24B1802001F0C9F90028F8
:1002A000F8D014B90325284670BD40F2FF5001F084
:1002B0007BF92846F8E700002DE9F04106460027C3
:1002C0004848056801E04748056805F045000028F2
:1002D000F9D005F0040030B10327042001F064F9DF
:1002E0003846BDE8F08105F0010028B10127012062
:1002F00001F05AF93846F4E701F094F9B04202D01F
:1003000010273846EDE740F2FF5001F04DF900208C
:1003100001F0AEF904463448204008B93846E0E719
:1003200004F0004008B11C20DBE704F0804008B175
:100330000920D6E704F0005008B10A20D1E704F004
:10034000805008B10B20CCE704F0006008B10C200D
:10035000C7E704F0806008B10D20C2E704F08070A8
:1003600008B10E20BDE704F4000008B10F20B8E783
:1003700004F4800008B11020B3E704F4001008B1C1
:100380001120AEE704F4801008B11220A9E704F4AC
:10039000002008B11320A4E704F4802008B1142041
:1003A0009FE704F4003008B115209AE704F4803088
:1003B00008B1162095E704F4004008B1172090E733
:1003C00004F4804008B118208BE704F4005008B111
:1003D000192086E704F0080008B11A2081E73846A2
:1003E0007FE70000342C014008E0FFFD70B50025D8
:1003F0001048046801E00F48046804F04500002834
:10040000F9D004F0040028B10325042001F0CCF851
:10041000284670BD04F0010028B10125012001F03B
:10042000C3F82846F5E740F2FF5001F0BDF8284632
:10043000EFE70000342C014070B500250B4804683C
:1004400001E00A48046804F045000028F9D004F0EF
:10045000040028B10325042001F0A6F8284670BD49
:1004600040F2FF5001F0A0F82846F8E7342C014094
:100470002DE9F04106460F464FF000082248056876
:1004800001E02148056805F045000028F9D005F095
:10049000040038B14FF00308042001F085F840460D
:1004A000BDE8F08105F0010030B14FF001080120F6
:1004B00001F07AF84046F3E701F0B4F8B04203D017
:1004C0004FF010084046EBE740F2FF5001F06CF8A7
:1004D000002001F0CDF8044604F4604018B9200C67
:1004E00038804046DCE704F4005008B11320D7E719
:1004F00004F4804008B11020D2E704F4004008B1B1
:100500000F20CDE74046CBE7342C014070B50026E4
:100510004FF480350F48046802E06D1E0D480468F2
:1005200004F0450008B9002DF7D115B104F004001E
:1005300028B10326042001F037F8304670BD04F0DE
:10054000400028B10026402001F02EF83046F5E7A3
:100550003046F3E7342C014010B501F0A3FD10BD87
:100560000246094B9A4201D2084801E00648103879
:1005700001F000531BB1064B0B40C36002E0044B7B
:100580000B4083607047000010640240006002402E
:100590007D0F7D0F21B1026842F00102026003E08D
:1005A000026822F00102026070470000016821F039
:1005B000010101600021016041608160C160016151
:1005C000212141614A49884204D13D21484A103ADB
:1005D00091608CE046491831884205D14FF474612E
:1005E000434A103A916082E041493031884205D156
:1005F0004FF474113E4A103A916078E03C4948311A
:10060000884205D14FF07461394A103A91606EE02A
:1006100037496031884204D13649354A103AD160B1
:1006200065E033497831884204D13349304A103A81
:10063000D1605CE02E499031884204D12F492C4A88
:10064000103AD16053E02A49A831884205D14FF0D1
:100650003D51274A103AD16049E02949884204D1E6
:100660003D21274A083A116041E025491831884266
:1006700005D14FF47461224A083A116037E02049ED
:100680003031884205D14FF474111D4A083A116087
:100690002DE01B494831884205D14FF07461184A5A
:1006A000083A116023E016496031884204D11149AB
:1006B000134A121F11601AE011497831884204D19F
:1006C0000D490F4A121F116011E00D499031884207
:1006D00004D10A490A4A121F116008E00849A831EA
:1006E000884204D14FF03D51054A121F11607047F6
:1006F000106002403D000020400F002000003D201F
:100700001064024021B1026842F02002026003E05E
:10071000026822F020020260704710B501F08003E9
:100720004BB122B1436943F08003436103E0436965
:1007300023F08003436180290BD02AB1036801F0C4
:100740001E042343036004E0036801F01E04A34376
:10075000036010BD10B500220268134B1A40CC682C
:100760000B6823434C6923438C692343CC6923439F
:100770000C6A23434C6A23438C6A23434C6B234308
:100780008C6B23431A430260426922F00702D1E9CD
:100790000B3423431A4342610B6943604B68836007
:1007A0008B68C36010BD00003F801CF070470000E4
:1007B00001490860704700000C3C024030B1074915
:1007C000096841F48061054A116005E00349096840
:1007D00021F48061014A116070470000003C024032
:1007E00070B504460A460026092502B909E0012A27
:1007F00001D1160205E0022A01D1160201E04FF4F0
:10080000407600F021F90546092D28D115480068E9
:1008100020F44070134908600846006830430860BF
:100820000846006820F0F80008600846006844F0B8
:10083000020108430B4908600846006840F4803014
:10084000086000F001F905460648006820F0020043
:10085000044908600846006820F0F800086028464F
:1008600070BD0000103C024009201349096801F4E2
:100870008031B1F5803F01D101201CE00E490968AB
:1008800001F0100109B1062015E00B49096801F4D7
:10089000807109B102200EE00749096801F0EF01FB
:1008A00009B1072007E00449096801F0020109B114
:1008B000082000E0092070470C3C02401CB50820CD
:1008C0000190022000900D4800F00CFB019001986F
:1008D000C10801208840401E40F6FF71081A0090B0
:1008E00000F04CF80021009800F05AF800F036F8BB
:1008F000092801D002201CBD0120FCE700000108EE
:1009000010B50824084800F0EDFA044600F020F87D
:10091000E1080841E20840F6FF711141884201D127
:10092000012010BD0020FCE70000010810B500F018
:1009300079F8F320FFF73CFF10BD00000348006882
:1009400040F000400149086070470000103C024040
:100950000148008870470000163C024000B509229B
:100960000548007840F002000349087000F06CF878
:100970000246104600BD0000143C024005480068D5
:1009800000F0010028B1044802490C39086003480E
:1009900008607047143C02403B2A19087F6E5D4C8A
:1009A00030B502460C46092500F04EF80546092DE3
:1009B0000CD12CB10648008890430549088005E019
:1009C0000348008891B208430149088030BD000007
:1009D000163C024030B502460C46092500F034F8BA
:1009E0000546092D19D10E48006820F440700C49C5
:1009F00008600846006840F4007008600846006817
:100A000040F001000860146000F01EF8054604483C
:100A1000006820F0010002490860284630BD00004F
:100A2000103C02400548006800F0004028B104482E
:100A300002490C390860034808607047103C0240C6
:100A400023016745AB89EFCD08B509200090FFF77A
:100A50000BFF009002E0FFF707FF00909DF80000F9
:100A60000128F8D09DF8000008BD00002DE9FC41E8
:100A700007460D4600260024002000900190082023
:100A80005B49086010204860402088600020C860F2
:100A90004FF480600861084600F046FE1020FFF722
:100AA0000BFC044614B12046BDE8FC815148008887
:100AB00000044F49086037204860402088600020CB
:100AC000C8604FF480600861084600F02DFE3720B2
:100AD000FFF7F2FB04460CB12046E5E74FF0FF308C
:100AE0004549086008204860302088600220C860BE
:100AF0000020086101204861084600F06DFD0020DB
:100B00003B49086033204860402088600020C8606E
:100B10004FF480600861084600F006FE3320FFF7BE
:100B2000CBFB04460CB12046BEE709E04FF40010B1
:100B300000F07EFD20B100F0F1FD4DF82600761C9E
:100B40002E48006840F22A6108400028EED00820B4
:100B500000F06EFD28B1082000F026FD0424204698
:100B6000A2E7022000F064FD28B1022000F01CFD85
:100B70000224204698E7202000F05AFD28B12020CA
:100B800000F012FD062420468EE74FF4007000F0BE
:100B90004FFD30B14FF4007000F006FD07242046F1
:100BA00082E740F2FF5000F0FFFC00980006009939
:100BB00001F47F4140EA0120009901F47F0140EAFD
:100BC0001120009940EA11606860019800060199BF
:100BD00001F47F4140EA0120019901F47F0140EADC
:100BE0001120019940EA1160286020465CE700006E
:100BF00038120020180000204C120020342C014034
:100C00002DE9F0414FF0090800F0AAFF08B1BDE856
:100C1000F08101223FA1404802F04EFD002877D12B
:100C200001223EA1404802F075FD40490870084687
:100C30000078B0B13E4840683E4908600846006808
:100C40003D4908603A49086880F3088800BF3BA026
:100C500001F006FF3848006880473FA001F000FF20
:100C6000D5E745A001F0FCFEFFF7DCFE0020FFF712
:100C7000A5FD47A001F0F4FE2D4C2B48C0680519D6
:100C80002946204601F00CFD8046B8F1090F2DD110
:100C900027E0454B4FF400624449234802F0EBFD46
:100CA000224908700846007810B93F48006800B92A
:100CB00018E03E4F002609E020463968FFF78AFE1B
:100CC000092800D009E0241D3F1D361DB6F5006F30
:100CD000F2D3354800688642EED300BFAC4200D361
:100CE00000E0D6E700BF104802F0D6FC002209A1C0
:100CF000094802F0E1FC2EA001F0B2FE0120FFF74E
:100D00005DFDFFF71BFE00E002E02FA001F0A8FE52
:100D100000BF7CE7303A0000440500206F75747016
:100D200075742E62696E0000740700200C000020AC
:100D30000000010804000020000000200A0D4A7590
:100D40006D705F546F5F4170706C69636174696F3F
:100D50006E7E0A0D000000000A0D4A756D70206954
:100D600073204F4B212E2E2E2E2E2E2E2E2E2E2E3B
:100D70002E2E2E7E0A0D00000A0D4F70656E206625
:100D80006C6965206973204F6B2E0A0D000000000E
:100D90000A0D556E6C6F636B20666C696520697314
:100DA000204F6B2E0A0D0000100000209809002033
:100DB0000A0D436F707920666C6965206973204F56
:100DC0006B2E0A0D000000000A0D4C6F636B20664D
:100DD0006C6965206973204F6B210A0D00000000CB
:100DE000F0B50A4600210023002400BF3DE00125A4
:100DF00005FA01F3156805EA03049C4234D105683D
:100E00004F000326BE40B543056015794E00B5403E
:100E10000668354305601579012D02D01579022D3C
:100E200016D185684F000326BE40B54385605579CD
:100E30004E00B540866835438560456801268E4082
:100E4000B5434560456896798E40B6B235434560F6
:100E5000C5684F000326BE40B543C560D5794E0036
:100E6000B540C6683543C560491C1029BFD3F0BDE5
:100E7000F0B5002300244D07ED0E02FA05F3CE1065
:100E800000F1200555F826504E07F70E0F26BE40FC
:100E9000B543CF1000F1200646F82750CE1000F1E0
:100EA000200555F8265045EA0304CE1000F1200530
:100EB00045F82640F0BD0246002013690B400BB1F7
:100EC000012000E00020704708B50020009004E0F9
:100ED000684601F05DFC00B100E0F9E700BF9DF855
:100EE000000008BD014600202C4A914203D2B1F116
:100EF000006F00D350E02A4A914204D2274A91421F
:100F000001D3082048E0274A914204D2244A914262
:100F100001D3102040E0244A914204D2214A914258
:100F200001D3182038E0214A914204D21E4A91424E
:100F300001D3202030E01E4A914204D21B4A914244
:100F400001D3282028E01B4A914204D2184A91423A
:100F500001D3302020E0184A914204D2154A914230
:100F600001D3382018E0154A914204D2124A914226
:100F700001D3402010E0124A914204D20F4A91421C
:100F800001D3482008E00F4A914204D20C4A914212
:100F900001D3502000E058207047000000400008B6
:100FA0000080000800C000080000010800000208DE
:100FB00000000408000006080000080800000A08F5
:100FC00000000C0800000E0809A100200BE00A5CDC
:100FD000124B9A8000BF114A128802F04002002A88
:100FE000F9D0421CD0B22A28F1D300BFFEE700009E
:100FF0000D0A456E74657220486172644661756CB5
:10100000745F48616E646C65722C205379737465EB
:101010006D2048616C742E0D0A0000000010014024
:1010200000BFFEE77047000070B5002100230F22CB
:10103000C4781CB3174C246804F4E064C4F5E0647D
:10104000C4F30721C1F10404E3B20A4144789C408F
:10105000E1B28478144021430C07210E0E4C057830
:101060006155047804F01F050124AC4005786D112A
:10107000AD0005F1E025C5F8004109E0047804F071
:101080001F050124AC40054D0678761145F8264031
:1010900070BD00000CED00E000E400E080E100E045
:1010A00002490143024A1160704700000000FA053E
:1010B0000CED00E07047000070B520480468001D8A
:1010C0000568001D066823462A4631461CA001F02B
:1010D000C7FC28A001F0C4FC27A001F0C1FC36A188
:1010E00039A001F0BDFC3DA13EA001F0B9FC42A138
:1010F00044A001F0B5FC00230322012146A001F029
:10110000AFFC53A001F0ACFC53A001F0A9FC58A027
:1011100001F0A6FC5BA001F0A3FC61A001F0A0FC23
:1011200067A001F09DFC14A001F09AFC6EA001F0F4
:1011300097FC79A001F094FC70BD0000107AFF1FAD
:101140000D0A435055203A2053544D333246343023
:1011500037494754362C204C5146503137362C20D5
:10116000554944203D202530385820253038582016
:10117000253038580A0D00002A2A2A2A2A2A2A2A23
:101180002A2A2A2A2A2A2A2A2A2A2A2A2A2A2A2ABF
:101190002A2A2A2A2A2A2A2A2A2A2A2A2A2A2A2AAF
:1011A0002A2A2A2A2A2A2A2A2A2A2A2A2A2A2A2A9F
:1011B0002A2A2A2A2A0A0D0056352D3133365FB4E1
:1011C000AEBFDA49415000002A20C0FDB3CCC3FBBA
:1011D000B3C62020203A2025730D0A0056312E3246
:1011E000000000002A20C0FDB3CCB0E6B1BE202034
:1011F000203A2025730D0A00323031352D30332D41
:10120000303500002A20B7A2B2BCC8D5C6DA2020EB
:10121000203A2025730D0A002A20B9CCBCFEBFE27B
:10122000B0E6B1BE203A205625642E25642E2564F2
:10123000202853544D3332463478785F53746450C9
:1012400065726970685F447269766572290D0A007B
:101250002A200D0A000000002A20515120202020C1
:101260003A2031323935373434363330200D0A00E4
:101270002A20CDFACDFA20203A2061726D666C7971
:101280000D0A00002A20456D61696C203A206172C8
:101290006D666C794071712E636F6D200D0A0000D0
:1012A0002A20CCD4B1A6B5EA3A2061726D666C7979
:1012B0002E74616F62616F2E636F6D0D0A00000006
:1012C0002A20436F70797269676874207777772E68
:1012D00061726D666C792E636F6D20B0B2B8BBC061
:1012E000B3B5E7D7D30D0A00312E20B5E7C4D4BC7F
:1012F000FCC5CCB0B4CFC2CAFDD7D631BDF8D0D072
:10130000D0C2B3CCD0F2B5C462696ECEC4BCFECF3D
:10131000C2D4D80A0D000000322E20B5E7C4D4BCD8
:10132000FCC5CCB0B4CFC2CAFDD7D632CCF8D7AA50
:10133000B5BDD0C2B5C4B3CCD0F2D6B4D0D00A0DAE
:101340000000000029B1064A12680243044B1A60EB
:1013500004E0034A12688243014B1A6070470000A0
:101360003038024029B1064A12680243044B1A6021
:1013700004E0034A12688243014B1A607047000080
:101380004438024029B1064A12680243044B1A60ED
:1013900004E0034A12688243014B1A607047000060
:1013A00024380240F0B50021002200240225002646
:1013B0000223324F3F6807F00C0121B1042905D008
:1013C000082937D105E02E4F076036E02D4F076022
:1013D00033E02A4F3F1F3F68C7F38056274F3F1F18
:1013E0003F6807F03F036EB1264FB7FBF3F7DFF816
:1013F0008CC0ACF1040CDCF800C0CCF3881C07FBFB
:101400000CF40CE01E4FB7FBF3F7DFF870C0ACF143
:10141000040CDCF800C0CCF3881C07FB0CF4174F5D
:101420003F1F3F68C7F301477F1C7D00B4FBF5F702
:10143000076002E0124F076000BF00BF0F4F3F6818
:1014400007F0F0010909104F7A5C0768D740476040
:101450000A4F3F6807F4E051890A0B4F7A5C4768EE
:10146000D7408760054F3F6807F46041490B064F3E
:101470007A5C4768D740C760F0BD0000083802407A
:101480000024F40040787D012C0000207CB5054646
:10149000002400200090019000F0EAF800F00070B5
:1014A00010B10E2420467CBD3D49098888B26946AA
:1014B000FFF7DCFA04460CB12046F4E7012D36D1E3
:1014C000019800F4802000282ED0354800880004C0
:1014D0003449086037204860402088600020C86098
:1014E000A8020861084600F01FF93720FEF7E4FE65
:1014F00004460CB12046D6E702202A49086006209F
:101500004860402088600020C8604FF48060086117
:10151000084600F009F90620FEF7CEFE04460CB19D
:101520002046C0E72046BEE725242046BBE70198B9
:1015300000F4803078B31A48008800041949086024
:1015400037204860402088600020C8604FF48060E9
:101550000861084600F0E8F83720FEF7ADFE0446C3
:101560000CB120469FE700200E4908600620486025
:10157000402088600020C8604FF480600861084601
:1015800000F0D2F80620FEF797FE04460CB1204684
:1015900089E7204687E7FFE72524204683E7000008
:1015A0001800002038120020014908607047000030
:1015B000382C01400149086070470000382C014078
:1015C0000149086070470000A08025420149086079
:1015D000704700008C85254200210B4B02681A6081
:1015E0001B1D42681A601A1D116821F0F701D0E92D
:1015F00002231A4303691A4343691A431143024AF7
:101600000832116070470000242C014010B5012100
:10161000C802FFF7B7FE00214FF40060FFF7B2FEEB
:1016200010BD000001480068C0B27047102C014096
:1016300001460020034A12680A400AB1012000E076
:1016400000207047342C014001460020034A1268F4
:101650000A400AB1012000E000207047342C01400C
:101660000248006800F0030070470000002C0140B1
:1016700008B50146002000900248084400900098F8
:10168000006808BD142C014010B500F01FFD10BD0E
:1016900029B1064A12680243044B1A6004E0034A67
:1016A00012688243014B1A60704700003C2C0140D5
:1016B00000210A4A116847F6FF629143027D836860
:1016C0001A4343681A43C3681A4303681A430369F9
:1016D0001A431143014A116070470000042C014075
:1016E00008B54FF4C060FFF7DBFC31208DF8000037
:1016F00000208DF801008DF8020001208DF8030014
:101700006846FFF791FC3B208DF8000001208DF822
:1017100001006846FFF788FC08BD0000014800682A
:1017200070470000802C01400021094B02681A60BC
:101730001A1D11686FF30A01D0E901231A43C36827
:101740001A4303691A431143014A121D116070477D
:10175000082C01400149086070470000002C01403E
:1017600008B50120009004210448FFF7A4FB08B14C
:10177000002000909DF8000008BD0000001002400D
:1017800070B50446002520480068032802D12725AB
:10179000284670BD1C48006838B11B480068012805
:1017A00003D01948006802282CD1B4F5805F02D11B
:1017B00027252846EDE7B4F5006F13D10120FFF788
:1017C00065FE0546F5B900201049087508604860B7
:1017D00088604FF40060C860002008610846FFF789
:1017E00067FF0FE00020FFF751FE054655B90020C6
:1017F00006490875086048608860C8600861084646
:10180000FFF756FF2846C4E71400002020120020EE
:10181000F0B5014600200022BC4B1B7881F8563001
:10182000BB4B1B88A1F85430BA4B1B681A0E9309A6
:101830000B70C2F383034B7002F003038B70B54B44
:101840001B68C3F30742CA70B24B1B88C3F307225D
:101850000A71B04B1A784A715B681A0E1301CB807B
:10186000AC4B5B68C3F30742CB8843EA1213CB80CF
:1018700002F00F030B72A74B9B88C3F30722D30917
:101880004B72C2F380138B72C2F34013CB72C2F35C
:1018900000130B7300234B739C4B1B681BB19B4BBA
:1018A0001B68012B4FD193071B0D0B61994B1A79C4
:1018B0000B6943EA82030B61964B9B681A0E0B6916
:1018C00043EA92130B61C2F3C2030B7502F00703E4
:1018D0004B75904B9B68C3F3074253098B75C2F35A
:1018E0008203CB7593075B0F0B768A4B1B89C3F37F
:1018F00007220B7E43EAD2130B760B695B1C002494
:10190000C1E912340B7ED1E912649B1C012505FA52
:1019100003F3DF17A6FB035C04FB03C306FB0733DB
:10192000C1E912530C7A0123A3400B650027D1E9CA
:1019300012560B6DA5FB034C06FB03C305FB0733D7
:10194000C1E912432DE0714B1B68022B29D1714B69
:101950001A7993069B0A0B616E4B9B681A0E0B69F2
:1019600043EA02230B616B4B9B68C3F307420B698D
:1019700013430B61674B1B89C3F307220B695B1C85
:101980004FF40074A3FB04344FF480660025A3FBDE
:10199000067C04FB06C403FB0543C1E91273731004
:1019A0000B65C2F3801301F8193F93065B0E4B7071
:1019B000584B1A7A4B7843EAD2134B7002F07F03EC
:1019C0008B70544BDB681A0ED309CB70C2F34113F2
:1019D0000B71C2F382034B7193071B0F8B714D4B3D
:1019E000DB68C3F307428B7943EA92138B71C2F32E
:1019F0004013CB7100230B7202F001034B72454B75
:101A00009B89C3F30722D3098B72C2F38013CB7275
:101A1000C2F340130B73C2F300134B73C2F3810381
:101A20008B7302F00303CB733A4B1A7B53080B748E
:101A300001234B74384B1B681A0ECA741939364B84
:101A40001B68C3F307421402CC85334B1B88C3F3D6
:101A50000722CB8D1343CB852F4B1A7814060C63CA
:101A60005B681A0E0B6B43EA02440C632A4B5B68FB
:101A7000C3F307420B6B43EA02240C63264B9B889B
:101A8000C3F307220B6B13430B63234B1A793423E5
:101A90005A54214B9B681A0E35235A541E4B9B688F
:101AA000C3F3074214068C631B4B1B89C3F3072245
:101AB0008B6B43EA02448C63174B1A7A8B6B43EAB5
:101AC00002248C63144BDB681A0E8B6B13438B63FD
:101AD000114BDB68C3F307423C235B5C43EA1214FF
:101AE0003C235C5413071C0DCC870B4B9B89C3F321
:101AF0000722CB8F1343CB87074B1A7B5408402315
:101B00005C54012441235C54F0BD0000140000200B
:101B10001800002098110020A811002008B500200E
:101B20000090FFF71DFE012809D1684600F022FC55
:101B300008B1FF2008BD0098C0F34320FAE7FF205A
:101B4000F8E710B50424FFF7E9FF0446042C01D19F
:101B5000002010BDFF2C01D10220FAE70120F8E798
:101B600008B500200090FFF7BBFD00F069F9FFF712
:101B70004DFD00F0C7F900909DF8000010B19DF8F0
:101B8000000008BD00F030F800909DF8000010B192
:101B90009DF80000F5E700201149087508604860CD
:101BA0008860C86008610846FFF782FD0D48FFF7AE
:101BB0002FFE00909DF8000030B90A49B1F854108A
:101BC000080400F0BDFB00909DF8000020B94FF420
:101BD0000060FFF7D5FD00909DF80000D1E7000000
:101BE00020120020C811002038B5002401200090E8
:101BF000FFF736FD10B92524204638BD444800685B
:101C0000042828D000204349086002204860C020F2
:101C100088600020C8604FF4806008610846FFF7C4
:101C200083FDFEF7E3FB04460CB12046E5E7002008
:101C3000FFF71EFD384908600420FFF719FD3649FB
:101C400048600820FFF714FD334988600C20FFF737
:101C50000FFD3149C8602E48006858B12C48006813
:101C6000012807D02A480068062803D028480068C1
:101C7000022816D100202749086003204860402030
:101C800088600020C8604FF4806008610846FFF754
:101C90004BFD69460320FEF7EBFB04460CB12046E2
:101CA000ABE71B48006804282ED0BDF800001B4994
:101CB0000860BDF80000000416490860092048606B
:101CC000C02088600020C8604FF48060086108462A
:101CD000FFF72AFDFEF78AFB04460CB120468CE78D
:101CE0000020FFF7C5FC0E4908600420FFF7C0FC88
:101CF0000B4948600820FFF7BBFC094988600C20AD
:101D0000FFF7B6FC0649C8600024204675E70000CE
:101D10001400002038120020A81100201800002014
:101D20009811002030B58FB004460D464FF0FA519F
:101D30001D48FEF715FC00211B48FEF72BFC1A4836
:101D4000FEF734FC4FF000600090184801900294B8
:101D500000200390049005904FF48060069080006E
:101D6000079080000890002009904FF440300A90BE
:101D700004200B9003200C904FF400000D90801075
:101D80000E9069460848FEF7E5FC0122102106483E
:101D9000FEF7C3FC20210448FEF7B4FC01210248F1
:101DA000FEF7F8FB0FB030BD58640240802C0140B4
:101DB00030B58FB004460D464FF0FA511E48FEF77D
:101DC000CFFB00211C48FEF7E5FB1B48FEF7EEFBAE
:101DD0004FF0006000901948019002944020039059
:101DE0000020049005904FF48060069080000790DA
:101DF00080000890002009904FF440300A900420A1
:101E00000B9003200C904FF400000D9080100E906A
:101E100069460948FEF79EFC012210210648FEF79C
:101E20007CFC20210448FEF76DFC01210248FEF7EE
:101E3000B1FB0FB030BD000058640240802C01405F
:101E40001CB501211C20FFF77DFA0C2208212A482D
:101E5000FFF70EF80C2209212748FFF709F80C229A
:101E60000A212548FFF704F80C220B212248FEF72F
:101E7000FFFF0C2211462048FEF7FAFF0C22022138
:101E80001E48FEF7F5FF4FF47060009001208DF8BA
:101E9000050002208DF8040000208DF806000120C6
:101EA0008DF8070069461448FEF79AFF0420009059
:101EB00069461248FEF794FF4FF4805000900020CE
:101EC0008DF8070069460C48FEF78AFF0420009051
:101ED00000208DF8040001208DF8070069460848AD
:101EE000FEF77EFF0121C802FFF73CFA01218805B9
:101EF000FFF728FA1CBD000000080240000C024059
:101F000000100240F8B500200090002500240026B3
:101F1000002776205F4908750020086048608860C7
:101F2000C86008610846FFF7C3FB0320FFF712FCF7
:101F30000120FFF745FB0020574908604860886092
:101F4000C8604FF4806008610846FFF7EDFBFEF7BC
:101F50009CF900909DF8000010B19DF80000F8BDBC
:101F60004FF4D5704C4908600820486040208860D4
:101F70000020C8604FF4806008610846FFF7D4FB7A
:101F8000FEF7C4FA00909DF8000020B901204349F3
:101F90000860870712E000203F490860372048604A
:101FA000402088600020C8604FF4806008610846C7
:101FB000FFF7BAFB3720FEF77FF900900020364983
:101FC000086037204860402088600020C8604FF4D7
:101FD000806008610846FFF7A7FB3720FEF76CF921
:101FE00000909DF80000002851D13BE000202A49D4
:101FF000086037204860402088600020C8604FF4A7
:10200000806008610846FFF78FFB3720FEF754F920
:1020100000909DF8000010B19DF800009FE7204857
:1020200038431D490860292048604020886000200E
:10203000C8604FF4806008610846FFF775FBFEF743
:10204000FBF900909DF8000010B19DF8000086E7B4
:102050000020FFF70DFB0546012080EAD57080F0D7
:102060000106641C1EB94FF6FF708442BED34FF6C2
:10207000FF70844204D31B2000909DF800006EE79F
:1020800005F08040050002D00220044908609DF858
:10209000000064E720120020381200201400002005
:1020A0000000108010B50748006800F0C05040B133
:1020B0000120054908604FF0C25102485830FEF730
:1020C0004FFA10BD006402402800002010B54FF404
:1020D0008070FFF7B9FA50B10020254908704FF41D
:1020E0008070FFF767FA01202249086037E002207C
:1020F000FFF7AAFA30B10220FFF75CFA02201C4970
:1021000008702CE00820FFF79FFA30B10820FFF795
:1021100051FA04201649087021E02020FFF794FAB4
:1021200030B12020FFF746FA06201149087016E06A
:102130001020FFF789FA30B11020FFF73BFA052095
:102140000B4908700BE04FF40070FFF77DFA30B1D7
:102150004FF40070FFF72EFA0720054908700021A0
:102160004CF23A30FFF794FA0148007810BD0000B5
:1021700020000020240000202DE9F04107460D46F4
:102180001446002600202D4908702D4908602D496D
:1021900008602D4908602D480068022801D104021A
:1021A0006D0A2B480460102029494860402088604F
:1021B0000020C8604FF4806008610846FFF7B4FA59
:1021C0001020FEF779F8064616B13046BDE8F081DA
:1021D0004FF0FF301F490860084644609020886037
:1021E0000220C86000200861012048610846FFF70E
:1021F000F3F91748056011201549486040208860B0
:102200000020C8604FF4806008610846FFF78CFA30
:102210001120FEF751F806460EB13046D6E70121EF
:1022200040F22A30FFF734FA0120FFF7CFF92146B8
:102230003846FFF777FD3046C8E700002000002051
:10224000240000201C0000202C2C01401400002041
:10225000381200204C1200202DE9F04180460D4636
:1022600014461E46002700202E4908702E4908609B
:1022700001202E49086000202D4908602D48006883
:10228000022801D104026D0A2B48046010202A495B
:102290004860402088600020C8604FF4806008617A
:1022A0000846FFF741FA1020FEF706F8074617B177
:1022B0003846BDE8F0814FF0FF302049086006FB4A
:1022C00004F04860902088600220C8600020086107
:1022D000012048610846FFF77FF917480560122082
:1022E00015494860402088600020C8604FF4806035
:1022F00008610846FFF718FA1220FDF7DDFF0746D0
:102300000FB13846D5E7012140F22A30FFF7C0F976
:102310000120FFF75BF906FB04F14046FFF702FDE1
:102320003846C6E720000020240000201C000020C2
:102330002C2C014014000020381200204C120020E8
:1023400070B5044600250A48046007200849486023
:10235000402088600020C8604FF480600861084613
:10236000FFF7E2F90720FDF7A7FF0546284670BDF5
:102370003812002070B50446002514B926252846D9
:1023800070BD0F48008800040E4908600D204860A9
:10239000402088600020C8604FF4806008610846D3
:1023A000FFF7C2F90D20FDF787FF05460DB128465E
:1023B000E6E70020FFF75CF920602846E0E7000030
:1023C000180000203812002010B5002400200A490F
:1023D00008600C204860402088600020C8604FF4EE
:1023E000806008610846FFF79FF90C20FDF764FF45
:1023F0000446204610BD00003812002070B50025AC
:102400006C1E00E0641E1848006838B91748006860
:1024100020B91748007808B9002CF3D100201249E0
:102420000860441E00E0641E1248006800F400507A
:1024300008B1002CF7D110480068012805D1FFF73A
:10244000C3FF054600200C4908600CB905B90425F6
:1024500040F2FF50FFF7A8F80548007810B1044893
:10246000007870BD2846FCE72800002024000020EA
:1024700020000020342C01401C0000202DE9F041F8
:1024800007460D461446002600202C4908702C49AA
:1024900008602C4908602C4908602C480068022814
:1024A00001D104026D0A2A480460102028494860BE
:1024B000402088600020C8604FF4806008610846B2
:1024C000FFF732F91020FDF7F7FE064616B1304649
:1024D000BDE8F0811E48056018201D494860402075
:1024E00088600020C8604FF4806008610846FFF7EC
:1024F0001BF91820FDF7E0FE06460EB13046E7E76F
:102500004FF0FF301349086008464460902088600F
:102510000020C8600861012048610846FFF75CF8A8
:10252000012140F22A30FFF7B3F821463846FFF781
:102530003FFC0120FFF74AF83046C9E720000020A1
:10254000240000201C0000202C2C0140140000203E
:10255000381200204C1200202DE9F04180460F4631
:1025600015461E460024002045490870454908606C
:10257000012045490860002044490860444800683B
:10258000022801D105027F0A424805601020414916
:102590004860402088600020C8604FF48060086177
:1025A0000846FFF7C1F81020FDF786FE044614B177
:1025B0002046BDE8F08138480088000435490860AD
:1025C00037204860402088600020C8604FF4806059
:1025D00008610846FFF7A8F83720FDF76DFE0446AE
:1025E0000CB12046E5E72B480660172029494860D2
:1025F000402088600020C8604FF480600861084671
:10260000FFF792F81720FDF757FE04460CB120465D
:10261000CFE72048076019201E49486040208860A5
:102620000020C8604FF4806008610846FFF77CF81E
:102630001920FDF741FE04460CB12046B9E74FF0E2
:10264000FF301649086006FB05F04860902088605E
:102650000020C8600861012048610846FEF7BCFF01
:10266000012140F22A30FFF713F80120FEF7AEFFF8
:1026700006FB05F14046FFF79BFB204699E700006B
:1026800020000020240000201C0000202C2C0140F1
:102690001400002038120020180000204C120020E6
:1026A0002DE9F04104460D4609260E48844214D215
:1026B00010E0204600F068F8401C50B1204600F0C1
:1026C00013F807460221FEF78BF80646092E01D0C3
:1026D00002E0241DAC42ECD300E003263046BDE806
:1026E000F08100000000FF1F01461C48814201D21A
:1026F000002070471A48814201D20820F9E71948A2
:10270000814201D21020F4E71748814201D21820FB
:10271000EFE71648814201D22020EAE714488142BF
:1027200001D22820E5E71348814201D23020E0E7BA
:102730001148814201D23820DBE71048814201D2A2
:102740004020D6E70E48814201D24820D1E70D480B
:10275000814201D25020CCE75820CAE7004000084F
:102760000080000800C00008000001080000020806
:1027700000000408000006080000080800000A081D
:1027800000000C0800000E080146086870477047FA
:1027900010B504462021054800F0E5F820B10348B3
:1027A00080882070012010BD0020FCE7001001404F
:1027B00010B504462146054800F04CF900BF8021C1
:1027C000024800F0D0F80028F9D010BD00100140F8
:1027D00010B5044603E02078FFF7EAFF641C207878
:1027E0000028F8D110BD00000CB500200190009029
:1027F0003448006840F480303249086000BF3148F6
:10280000006800F4003000900198401C019000988E
:1028100018B90198B0F5A04FF1D12A48006800F42A
:10282000003010B10120009001E0002000900098DD
:10283000012846D123484030006840F080502149AB
:10284000403108602048006840F440401E4908605C
:102850001C48083000681B490831086008460068B9
:1028600040F4004008600846006840F4A05008604A
:102870001648091F0860081F006840F08070091F93
:10288000086000BF0F48006800F000700028F9D011
:1028900040F205700E4908600A480830006820F0D0
:1028A00003000849083108600846006840F002004B
:1028B000086000BF03480830006800F00C000828DA
:1028C000F8D10CBD00380240007000401954400798
:1028D000003C024010B51548006840F470001349F0
:1028E00008601348006840F00100114908600020AA
:1028F0000F49083108600E4800680E4908400C492D
:1029000008600D48091D0860081F006820F4802039
:10291000091F0860002006490C310860FFF764FFBA
:102920004FF0006001498039086010BD88ED00E07B
:1029300000380240FFFFF6FE1030002401F4007260
:10294000B2F5007F00D100BFCA430280704721B1B9
:10295000828942F40052828104E082894DF6FF733D
:102960001A408281704702460020B1F5007F00D1F5
:1029700000BF13880B400BB1012000E0002070471E
:102980002DE9FF4705460E460024A14600BFA0469C
:10299000B08900B100BF2C8A24F44054F08804436D
:1029A0002C82AC8941F20C608443B08831890843A1
:1029B000718908430443AC81AC8A24F44074B08923
:1029C0000443AC826846FEF7EDFC2048854202D005
:1029D0001F48854202D1DDF80C9001E0DDF8089037
:1029E000A88900F4004040B109EBC90000EB0910D0
:1029F00031684900B0FBF1F707E009EBC90000EBD3
:102A0000091031688900B0FBF1F76420B7FBF0F0E2
:102A100004012009642101FB1078A88900F400401A
:102A200040B1322000EBC800B0FBF1F000F007002D
:102A3000044308E0322000EB08106421B0FBF1F001
:102A400000F00F0004432C81BDE8FF870010014017
:102A500000140140C1F308028280704700BFFEE706
:102A60000FB4054B10B503A9044A029800F018F8FA
:102A700010BC5DF814FB0000ED3E00084000002093
:102A800002E008C8121F08C1002AFAD17047704737
:102A9000002001E001C1121F002AFBD17047000095
:102AA0002DE9FF4F8DB00F460546002606E025288C
:102AB0000BD0DDE90F1290476D1C761C287800289A
:102AC000F5D111B03046BDE8F08F0024A246A146F2
:102AD0000122EA4900E0044315F8013F203B02FAD5
:102AE00003F00842F7D128782A2810D06FF02F027F
:102AF0002878A0F13001092914D80AEB8A0102EBE9
:102B0000410144F0020400EB010A6D1CF0E701CF23
:102B10005FEA000A03D544F40054CAF1000A44F005
:102B200002046D1C28782E2817D115F8010F44F0E7
:102B300004042A280ED06FF02F022878A0F130016B
:102B400009290AD809EB890102EB410100EB0109CF
:102B50006D1CF2E757F8049B6D1C28786C280FD089
:102B600006DC4C2817D068280DD06A2814D104E060
:102B7000742810D07A280FD10DE044F400140AE034
:102B800044F4801401E044F440146978814202D195
:102B900004F580146D1C6D1C2A786E2A1FD00CDC85
:102BA000632A31D004DC002A8BD0582A11D19FE04F
:102BB000642A68D0692A0CD165E0732A2ED004DC1F
:102BC0006F2A73D0702A04D197E0752A6FD0782AC3
:102BD0006ED01046DDE90F129047761C4CE1C4F32D
:102BE0000250022806D0032809D0042801CF09D0BA
:102BF000066041E101CFF117C0E900613CE101CF7E
:102C0000068039E1067037E117F8040B8DF80000F3
:102C100000208DF80100EB46012003E057F804BBCB
:102C20004FF0FF3061074FF0000102D40DE008F1D2
:102C30000101884649450FDA8045F8DB1BF808108A
:102C40000029F4D108E008F1010188468142FADB4D
:102C50001BF808100029F6D1DDE90F23AAEB0800C4
:102C60008146214600F032F9304400EB080604E0CA
:102C7000DDE90F121BF8010B9047B8F10108F7D2FC
:102C800021464846F3E00A21C4F302534FF0000BFB
:102C90000891022B04D001CFC117032B09D00AE001
:102CA000FF1D27F00707F7E8020108E02EE01DE00E
:102CB0001EE000B2C117042B01D140B2C117002998
:102CC00007DA4FF0000CD0EB0C006CEB01012D2368
:102CD00002E0230504D52B238DF82430012303E0E3
:102CE000E30701D02023F7E7984656E00A210EE0DB
:102CF00010204FF0000B08900CE010214FF0000B5B
:102D000044F004044FF00809089103E008214FF053
:102D1000000B0891C4F30253022B04D001CF002111
:102D2000032B06D006E0FF1D27F00707F7E8020196
:102D300003E080B2042B00D1C0B24FF0000823079B
:102D40002BD5702A07D0DDF820C08CF0100C5CEA7F
:102D50000B0C05D00EE040238DF82430012308E051
:102D600050EA010306D030238DF824308DF8252059
:102D700002239846DDF820C08CF0080C5CEA0B0CAE
:102D80000BD150EA010301D1630706D530238DF83A
:102D900024304FF00108A9F10109582A04D038A2C3
:102DA0000B9208AA0A920BE03AA2F9E75B46089A4E
:102DB000FDF706FA0B9B9B5C0A9A521E0A9213704F
:102DC00050EA0102F2D10A98ADEB000000F1200BAD
:102DD000600702D524F4803401E04FF00109D945A1
:102DE00002DDA9EB0B0000E0002000EB0B014144E9
:102DF0000890AAEB010AE00306D4DDE90F2321467F
:102E0000504600F063F806444FF0000908E009A9B5
:102E100011F80900DDE90F12904709F10109761C4C
:102E2000C145F4DBE0030CD5DDE90F232146504614
:102E300000F04CF8064404E0DDE90F123020904722
:102E4000761C0899481E08900029F5DC08E00A98CD
:102E50000A990078491C0A91DDE90F129047761C07
:102E6000BBF10001ABF1010BF1DC21465046DDE97D
:102E70000F2300F019F806446D1C1FE60928010015
:102E800030313233343536373839616263646566E0
:102E900000000000303132333435363738394142A2
:102EA00043444546000000002DE9F041044600255A
:102EB0001E461746880404D405E039462020B04752
:102EC0006D1C641EF9D52846BDE8F0812DE9F0415E
:102ED000044600251E469046C80301D5302700E071
:102EE0002027880404D505E041463846B0476D1CCC
:102EF000641EF9D52846BDE8F08110B500F002F84F
:102F000010BD000000B587B001210846FEF71AFA8F
:102F100001211020FEF726FA072209211F48FDF79C
:102F2000A7FF07220A211D48FDF7A2FF00208DF808
:102F30001A0001208DF81B0002208DF818000002F5
:102F4000059002208DF8190005A91448FDF748FFE7
:102F500002208DF818004002059005A90F48FDF7E2
:102F60003FFF4FF4E13001900020ADF80800ADF8CC
:102F70000A00ADF80C00ADF810000C20ADF80E0002
:102F800001A90748FFF7FCFC01210548FFF7DFFC1A
:102F900040210348FFF7D2FC07B000BD000002400B
:102FA0000010014070B504460D4600202071401EFF
:102FB000E0622946204601F009F908B1032070BDFE
:102FC00094F82E1294F82F0241EA00204AF6552177
:102FD000884201D00220F2E794F86900010694F8D3
:102FE000680041EA004194F8670041EA002094F843
:102FF0006610084320F07F400D49884201D100202F
:10300000DDE794F88500010694F8840041EA004168
:1030100094F8830041EA002094F88210084320F0DD
:103020007F400349884201D10020C8E70120C6E75C
:1030300046415400024600E0521C107810B110784E
:103040008842F9D1107870470246891E5069801E67
:10305000884201D8002070479378906A01FB0300F2
:10306000F9E72DE9F04704468946B9F1000F06D18A
:10307000E76817B16069B84215D8012713E04946DF
:10308000204600F045FF0646022E02D20120BDE890
:10309000F087701C08B93046F9E76069B04201D981
:1030A0003046F4E74F463D4600BF6D1C6069A842BC
:1030B00004D80225BD4201D90020E8E72946204670
:1030C00000F026FF064606B909E0701C08B1012E83
:1030D00001D13046DBE7BD42E7D10020D7E700BF92
:1030E0006FF070422946204601F08AF88046B8F118
:1030F000000F08D1B9F1000F05D02A4649462046F5
:1031000001F07EF88046B8F1000F0BD1E560206930
:10311000401C78B12069401E2061607940F00100B8
:10312000607107E0B8F1010F02D14FF0FF3000E00D
:10313000012005462846AAE72DE9F35F0198D0F85B
:10314000009001E009F1010999F800002F28F9D059
:1031500099F800005C28F5D0009886690B222021A0
:10316000304601F029F800252F46AB464FF0080AFB
:1031700000BF58460BF1010B19F80040202C03DD6D
:103180002F2C01D05C2C00D153E02E2C01D05745C0
:103190000DD3BAF1080F01D12E2C02D00620BDE8C4
:1031A000FC9F08274FF00B0AA806050EE1E7802CCC
:1031B00001DB45F00305812C20DBFE2C1EDC58468C
:1031C0000BF1010B19F80080B8F1400F02DBB8F1E8
:1031D0007E0F05DDB8F1800F06DBB8F1FE0F03DCD2
:1031E000AAF10100B84201D80620D8E738467F1C72
:1031F000345438467F1C06F8008019E0214620A090
:10320000FFF718FF08B10620C9E7412C04DB5A2C50
:1032100002DC45F0020508E0612C06DB7A2C04DCB8
:1032200045F00105A4F12000C4B238467F1C345497
:103230009FE700BF09EB0B0101980160202C01DC26
:10324000042000E0002004460FB90620A7E73078EC
:10325000E52801D105203070BAF1080F01D1A80688
:10326000050E05F00300012801D144F0100405F01B
:103270000C00042801D144F00804F47200208EE709
:10328000222A2B2C3A3B3C3D3E3F5B5D7C7F00007D
:103290002DE9F04104460E460021204600F0F8F8E2
:1032A0000546EDB9002700BF2169206800F08EFFB8
:1032B000054605B113E060690078E52802D0606931
:1032C000007820B9781C0746B04201D107E00027FA
:1032D0000121204600F038F80546002DE4D000BF5B
:1032E000042D00D107252846BDE8F0812DE9F041E5
:1032F00004460021204600F0CBF8054615B12846CB
:10330000BDE8F08100BF2169206800F05FFF05463D
:1033100005B116E0666937780FB9042511E0F07A37
:1033200000F0080030B90B223046A16900F024FFFC
:1033300000B906E00021204600F006F80546002D01
:10334000E1D000BF2846DBE72DE9F041044688467E
:10335000E088461CB0B208B1206910B90420BDE86D
:10336000F08106F00F0000286BD12069401C20611D
:10337000E06828B920680089B04262D80420EEE7EE
:1033800020688078401E00EA1610002859D1E168B4
:10339000206800F0BDFD0546012D01D80220DEE7C2
:1033A000681C08B90120DAE720684069A84242D8C1
:1033B000B8F1000F01D10420D1E7E1682068FFF7E0
:1033C00050FE05460DB90720C9E7012D01D10220A5
:1033D000C5E7681C08B90120C1E7206801F053F86F
:1033E00008B10120BBE7216801F130004FF4007201
:1033F000002100F0E1FE29462068FFF725FE216844
:10340000C86200270EE0012021680871206801F0E1
:103410003AF808B10120A2E72068C06A401C216880
:10342000C8627F1C20688078B842ECD82068C06AE7
:10343000C01B2168C862E56029462068FFF704FECA
:103440002061E6802068303006F00F0100EB41106B
:103450006061002083E770B5044601212046FFF734
:1034600017FF054695B92169206800F0AFFE0546B3
:1034700065B920220021606900F09EFE0B22D4E98C
:10348000050100F08CFE012021680871284670BDFE
:103490002DE9F04104460E46E680A568012D03D0D3
:1034A00020684069A84202D80220BDE8F0812DB909
:1034B00020680078032801D12068456A45B9206852
:1034C0000089B04201D80220EFE72068476A1EE079
:1034D000206880784FEA001812E02946206800F042
:1034E00017FD0546681C08B90120DEE7022D03D34D
:1034F00020684069A84201D80220D6E7A6EB08065A
:103500004645EAD229462068FFF79EFD0746E5605A
:103510000FB90220C9E707EB161020612068303090
:1035200006F00F0100EB411060610020BDE770B5AF
:103530000446012524B1032C09D0042C09D107E04D
:10354000FEF70EFB08B9002500E0022502E001E0CD
:1035500000E000BF00BF284670BD10B503460C4612
:1035600023B1032B05D0042B05D103E0002108462D
:1035700010BD00E000BF00BF0420F9E72DE9F047CF
:1035800006460F461546984626B1032E2BD0042E2C
:103590002BD129E04FF00009B8F1010F07D16902E2
:1035A0004FF400723846FEF7E7FD814607E06902F6
:1035B00043464FF400723846FEF74EFE8146B9F19D
:1035C000000F01D0012411E0FEF718FF8146B9F188
:1035D000000F01D0012409E000BFFEF7B2FA002875
:1035E000FBD1002402E001E000E000BF00BF204664
:1035F000BDE8F0870146012021B1032904D0042948
:1036000006D103E0002005E0002003E0002001E0F7
:10361000002000BF00BF70472DE9F04706460F4667
:103620001446984626B1032E2ED0042E2ED12CE01F
:103630004FF00009B8F1010F07D161024FF4007299
:103640003846FEF71BFF814607E0610243464FF410
:1036500000723846FEF780FF8146B9F1000F00D0B6
:103660000125FEF7CBFE8146B9F1000F00D0012500
:1036700000BFFEF766FA0028FBD100BFFEF761FA33
:103680000028FBD1002503E002E001E0042500BF93
:1036900000BF2846BDE8F08770B50546284600F013
:1036A000BAF9044634B9284600F016FF04460CB9AE
:1036B00000202860204670BDF7B582B016460398FA
:1036C000019001A800F0A2FC0546002D02DA0B20B3
:1036D00005B0F0BD0E4850F825400CB10020207018
:1036E000029810B10020029908700949029841F827
:1036F0002500029808B1012E01D00020E8E7002241
:1037000003A902A800F0E0F907463846E0E7000008
:10371000641200202DE9F7438AB0054616461DB90C
:1037200009200DB0BDE8F0830020286006F01F06D8
:1037300026F001020BA903A800F0C6F90746002FE6
:103740007ED1CDF824D003A80B9900F087FB074663
:10375000089C0FB904B9062706F01C00002851D0B8
:103760004FB1042F03D103A8FFF775FE074646F0BB
:103770000806089C09E0E07A00F0110008B107276C
:1037800003E006F0040000B10827002F49D106F03D
:103790000800002845D000F035FC804684F80E80F3
:1037A0004FEA1821E1734FEA184121744FEA18617A
:1037B00061740020E072207700216177A177E177C2
:1037C0002146039800F047FC81460021204600F086
:1037D000EEFD012003990871B9F1000F21D0039883
:1037E000D0F82C804946039800F0ABFD0746C7B9D6
:1037F000A9F101000399C8604146039800F0E6FC76
:1038000007460EE06FB9E07A00F0100008B1042717
:1038100007E006F0020020B1E07A00F0010000B1FC
:10382000072747B906F0080008B146F020060398BC
:10383000C06AE8612C621FB9AE710020E87100E037
:1038400017E02146039800F006FC2861E07F01069E
:10385000A07F41EA0041607F41EA0020217F0843C8
:10386000E8600020A860A861039828602868C088E4
:10387000A880384655E72DE9FF4F83B0044615462A
:103880009A46DDF810B00020CAF80000204600F08B
:1038900023FE0290029818B1029807B0BDE8F08F9D
:1038A000E07908B1E079F8E7A07900F0010008B903
:1038B0000720F2E7D4E90210401A009000988542F0
:1038C00000D9009DA2E02089C0F3080000287ED125
:1038D00020688078401EA16800EA512000F0FF09AE
:1038E000B9F1000F17D1A06810B92069019004E068
:1038F0006169206800F00CFB01900198022802D257
:103900000220E071C9E70198401C10B90120E07164
:10391000C3E70198606161692068FFF795FB06467F
:1039200016B90220E071B8E74E444FEA5528B8F1C5
:10393000000F29D009EB080021688978884203D953
:1039400020688078A0EB0908216848784346324611
:103950005946FFF713FE10B10120E0719DE7A079F1
:1039600000F0400068B1A069801B404509D2A16900
:10397000891B0BEB41204FF4007204F1240100F08D
:103980000EFC4FEA482737E0A069B04220D0A0796A
:1039900000F0400078B121684878012304F1240147
:1039A000A269FFF739FE10B10120E07175E7A07937
:1039B00020F04000A071216848780123324604F1CC
:1039C0002401FFF7DBFD18B10120E07165E700E09D
:1039D000A6612089C0F30800C0F50077AF4200D986
:1039E0002F462089C0F3080204F1240011183A463A
:1039F000584600F0D4FB00BFBB44A0683844A06028
:103A0000DAF800003844CAF80000ED1B002D7FF4FE
:103A10005AAF002041E72DE9F0410446204600F06E
:103A20005BFD0746002F4CD1A07900F02000002854
:103A300047D0A07900F0400078B121684878012390
:103A400004F12401A269FFF7E7FD10B10120BDE8F0
:103A5000F081A07920F04000A071E169206800F0B9
:103A6000B5FB0746002F2CD1256AE87A40F02000EC
:103A7000E872207B2877A089010A6977E068010C49
:103A8000A977E068010EE9772846216900F08FFCEC
:103A900000F0B8FA0646AE75310AE975310C2976A0
:103AA000310E69760020A8740021E974A07920F015
:103AB0002000A071012021680871206800F07FFCBF
:103AC00007463846C3E700002DE9F74F8AB00021CA
:103AD0000A9801600B9800F099FA0990099800285B
:103AE00003DA0B200DB0BDE8F08FD849099851F8E2
:103AF00020400CB90C20F5E70A980460207878B1D2
:103B00006078FFF777FD814609F0010040B90C9815
:103B100020B109F0040008B10A20E3E70020E1E742
:103B200000202070099860706078FFF700FD8146E2
:103B300009F0010008B10320D4E70C9820B109F086
:103B4000040008B10A20CDE7002739462046FFF7D8
:103B500029FA0546012D01D09DBB32E000261AE06E
:103B600004F5F77000EB061898F8040070B198F8A7
:103B70000B00010698F80A0041EA004198F8090094
:103B800041EA002098F80810084300E0002002A94C
:103B900041F82600761C042EE2D3002606B1761EDC
:103BA00000BF02A850F8267027B139462046FFF71B
:103BB000F9F900E0022005461DB1701C06460428F4
:103BC000EFD3032D01D101208CE70DB10D2089E742
:103BD0003B20015D94F83C0041EA0020B0F5007FF5
:103BE00001D00D207EE74620015D94F8470041EAB0
:103BF000002ABAF1000F0ED194F85700010694F88C
:103C0000560041EA004194F8550041EA002094F83A
:103C1000541040EA010AC4F818A04020005DE0708A
:103C2000E078012804D0E078022801D00D2059E77F
:103C3000E0780AFB00FA3D20005DA070A07818B182
:103C4000A078411E084008B10D204BE74120015DDE
:103C500094F8420041EA00202081207A00F00F0011
:103C600008B10D203EE74320015D94F8440041EA8D
:103C700000200890089870B994F85300010694F851
:103C8000520041EA004194F8510041EA002094F8C2
:103C90005010084308903E20015D94F83F0041EA2F
:103CA00000200190019808B90D201BE701985044AD
:103CB000218900EB11100790DDE90701814201D253
:103CC0000D200FE7DDE90710401AA178B0FBF1FBEA
:103CD000BBF1000F01D10D2004E7012540F6F6707D
:103CE000834500D302254FF6F670834500D30325A4
:103CF0000BF102006061E761019838442062079887
:103D00003844A062032D16D1208908B10D20E9E6C0
:103D100094F85F00010694F85E0041EA004194F8CF
:103D20005D0041EA002094F85C100843606260691D
:103D30008000069014E0208908B90D20D2E6206AA0
:103D400050446062022D02D16069400007E0207D8E
:103D500000F00100616901EB410100EB51000690A8
:103D6000A169069800F2FF10B1EB502F01D20D208F
:103D7000B8E64FF0FF302061E06080206071032DD5
:103D80005AD194F8601094F8610041EA00200128AB
:103D900052D1791C204600F019FAE8BB002060716E
:103DA00094F82E1294F82F0241EA00204AF6552189
:103DB000884241D13320005D01063220005D41EA96
:103DC00000413120005D41EA002094F830100843A2
:103DD0001F49884230D194F81702010694F8160260
:103DE00041EA004194F8150241EA002094F81412C7
:103DF0000843184988421FD194F81B02010694F821
:103E00001A0241EA004194F8190241EA002094F8AC
:103E100018120843206100E00EE094F81F0201062A
:103E200094F81E0241EA004194F81D0241EA002084
:103E300094F81C120843E060257007480088401C75
:103E400080B205490880E08000204BE66412002023
:103E500052526141727241613C0000202DE9F341F0
:103E60000446019800782F2803D0019800785C2838
:103E700002D10198401C01900020A06001980078B8
:103E8000202807D200212046FFF702FB054600202C
:103E9000606128E000BF01A92046FFF74DF9054603
:103EA00005B11FE02046FFF721FA0546A069C67A52
:103EB0003DB1042D04D100BF06F0040000B9052572
:103EC00010E006F0040000B10CE06769F87A00F039
:103ED000100008B9052505E03946206800F0BBF858
:103EE000A060D8E700BF2846BDE8FC8170B5044655
:103EF0000D46E1B20548FEF7ADFD00BF4021034885
:103F0000FEF731FD0028F9D0204670BD00100140B9
:103F10002DE9F04705460C46022C02D36869A04201
:103F200002D84FF0010969E04FF0FF3928780128E5
:103F300004D002282ED003285CD13FE0274607EBAF
:103F40005707286A00EB5721284600F03FF900B1D7
:103F500053E038467F1CC0F3080105F1300010F82B
:103F60000180286A00EB5721284600F02FF900B1A4
:103F700043E0C7F3080105F13000405C48EA00283F
:103F800004F0010010B14FEA181001E0C8F30B0073
:103F9000814632E0286A00EB1421284600F016F929
:103FA00000B12AE040F2FF1000EA440105F13000C0
:103FB0000E183078717840EA01291EE0286A00EB7B
:103FC000D411284600F002F900B116E040F2FF10CB
:103FD00000EA840105F130000E18F0780006B1788F
:103FE00040EA0140717840EA01203178084320F02E
:103FF000704902E04FF0010900BF00BF4846BDE82C
:10400000F0870000004870470000214270B502466A
:104010004FF0FF301568E5B1116800E0491C0D78DC
:10402000212D02D30D783A2DF8D10D783A2D0FD1EC
:10403000146814F8015BA5F130030A2B07D28C42F7
:1040400005D1032B03D218464D1C2946156070BDBF
:10405000002000BFFBE710B502468C7ECB7E44EA11
:1040600003201378032B05D10C7D4B7D44EA0323F9
:1040700040EA034010BD000000BFFEF73EFFFDF721
:104080001BF8FCF753FCFCF73BFC50B9FCF716FCA3
:10409000012803D114A0FEF7E3FC02E016A0FEF70E
:1040A00097FB1FE0FCF710FF17A0FEF7D9FCFCF709
:1040B000A7FD1BA0FEF7D4FC1D4840681D49086001
:1040C000084600681C4908601949086880F3088898
:1040D00000BF1AA0FEF7C4FC1748006880471EA066
:1040E000FEF7BEFCDEE700000A0DBDE2B1A3BBA4F3
:1040F000B3C9B9A60A0D0000BDE2B1A3BBA4CAA70B
:10410000B0DC0D0A000000000A0D4941502069731F
:1041100020576F726B696E672E2E2E0A0D000000FD
:104120000A0D494150206973204F4B210A0D0000B0
:104130000000010804000020000000200A0D4A755C
:104140006D705F546F5F4170706C69636174696F0B
:104150006E7E0A0D000000000A0D4A756D70206920
:1041600073204F4B212E2E2E2E2E2E2E2E2E2E2E07
:104170002E2E2E7E0A0D0000F0B503461C460D467D
:10418000002000BF1600A2F1010207D014F8017B45
:1041900015F801CBA7EB0C063000F3D0F0BD70B5DD
:1041A00003460C4603E014F8015B03F8015B1500BD
:1041B000A2F10102F7D170BD30B5034601E003F86A
:1041C000011B1400A2F10102F9D130BD70B5044603
:1041D0000D460026E06AA84210D0204600F053F9B0
:1041E00006465EB9607801232A4604F13001FFF7E4
:1041F000C5F910B14FF0FF350126E562304670BDBC
:104200002DE9F04705460E461746022E02D368698F
:10421000B04202D84FF0020890E02878012804D07C
:10422000022844D003287DD159E0B14609EB590951
:10423000286A00EB59212846FFF7C8FF8046B8F1ED
:10424000000F00D079E0484609F10109C0F30801E8
:1042500005F130000C1806F0010020B1F9B2207809
:1042600061F31F1000E03846207001202871286A91
:1042700000EB59212846FFF7A9FF8046B8F1000F4F
:1042800000D05AE0C9F3080105F130000C1806F01F
:10429000010010B1C7F3071005E0207800F0F0002E
:1042A000C7F30321084320700120287145E0286AE4
:1042B00000EB16212846FFF789FF8046B8F1000F72
:1042C00000D03AE040F2FF1000EA460105F130006C
:1042D0000C182770380A6070012028712DE0286AB8
:1042E00000EBD6112846FFF771FF8046B8F1000FAA
:1042F00000D022E040F2FF1000EA860105F1300014
:104300000C18E0780006A17840EA0140617840EAA4
:1043100001202178084300F0704007432770380AD5
:10432000607000E006E0380CA070380EE0700120EC
:10433000287102E04FF0020800BF00BF4046BDE810
:10434000F0872DE9F04104460E46022E02D3606943
:10435000B04201D8022727E0002721E0314620465D
:10436000FFF7D6FD054605B91DE0012D01D1022755
:1043700019E0681C08B9012715E0002231462046E3
:10438000FFF73EFF074607B10DE02069401C30B142
:104390002069401C2061607940F0010060712E4668
:1043A0006069B042DAD800BF3846BDE8F081817656
:1043B0000B0AC3760A0C02750B0E4375704770B575
:1043C0000446204600F05FF80546002D59D12078BC
:1043D00003284FD1607901284CD14202002104F119
:1043E0003000FFF7E9FE552184F82E12AA2184F847
:1043F0002F12522084F830005221312001556121C2
:1044000032200155412133200155722184F81412C4
:1044100084F81512412184F81612612184F81712CC
:10442000217C84F81812208A010A84F81912206964
:10443000010C84F81A122069010E84F81B12217BEA
:1044400084F81C12A089010A84F81D12E068010C8E
:1044500084F81E12E068010E84F81F12E069401C07
:10446000E0626078012304F13001E26AFFF7D4F8DA
:1044700000206071607800221146FFF76EF800B1ED
:104480000125284670BD2DE9F0410446002720791A
:10449000F8B1E56A607801232A4604F13001FFF79C
:1044A000BBF808B1012714E000202071206A281A07
:1044B000A16988420DD2E67809E0A06905446078D8
:1044C00001232A4604F13001FFF7A6F8761E022EDA
:1044D000F3D23846BDE8F08170B505462C464CB1A4
:1044E000206838B12068007820B12068C088A18891
:1044F000884201D0092070BD21684878FFF77AF81A
:1045000000F0010008B10320F5E70020F3E7000008
:10451000304500080000002044000000802A000808
:1045200074450008440000202C520000902A000826
:10453000000000000000000000000000000000007B
:10454000000000000000000000000000000000006B
:10455000000000000000000000000000000000005B
:104560000102030401020304060708090000000019
:044570000000000047
:040000050800018965
:00000001FF
