:020000040800F2
:1050000000000120A56A0008CD590008CF5900080A
:10501000D1590008D3590008D559000800000000F4
:10502000000000000000000000000000D759000848
:10503000D959000800000000DB590008DD590008BC
:10504000ED6A0008ED6A0008ED6A0008ED6A0008E4
:10505000ED6A0008ED6A0008ED6A0008ED6A0008D4
:10506000ED6A0008ED6A0008ED6A0008ED6A0008C4
:10507000ED6A0008ED6A0008ED6A0008ED6A0008B4
:10508000ED6A0008ED6A0008ED6A0008ED6A0008A4
:10509000ED6A0008ED6A0008ED6A0008ED6A000894
:1050A000ED6A0008E1590008ED6A0008ED6A0008A1
:1050B000ED6A0008ED6A0008ED6A0008ED6A000874
:1050C000ED6A0008ED6A0008ED6A0008ED6A000864
:1050D000ED6A0008ED6A0008ED6A0008ED6A000854
:1050E000ED6A0008ED6A0008ED6A0008ED6A000844
:1050F000ED6A0008ED6A0008ED6A0008ED6A000834
:10510000ED6A0008ED6A0008ED6A0008ED6A000823
:10511000ED6A0008ED6A0008ED6A0008ED6A000813
:10512000ED6A0008ED6A0008ED6A0008ED6A000803
:10513000000000000000000000000000000000006F
:10514000000000000000000000000000000000005F
:10515000000000000000000000000000000000004F
:10516000000000000000000000000000000000003F
:10517000000000000000000000000000000000002F
:10518000000000000000000000000000000000001F
:10519000000000000000000000000000000000000F
:1051A00000000000000000000000000000000000FF
:1051B00000000000000000000000000000000000EF
:1051C00000000000000000000000000000000000DF
:1051D00000000000000000000000000000000000CF
:0451E0005FF8E0F1A3
:1051E40010B5054C237833B9044B13B10448AFF31D
:1051F40000800123237010BD6C000020000000001B
:10520400E873000808B5034B1BB103490348AFF327
:10521400008008BD0000000070000020E873000852
:1052240030B591B02822002106A801F083FC0024A7
:1052340001940294039404940594012206924FF479
:10524400803307930A9202250D950E934FF4E013D1
:105254000F9306A800F072FF0F23019302950394A5
:105264004FF4806304930594294601A801F08CF956
:1052740011B030BD08B500F013FFFFF7D1FF00F007
:1052840025F800F0F5F800F02DF900F071FA4FF46C
:105294007A7000F029FF044B19884A1C1A800348CD
:1052A40000F05EFBF3E700BF8800002014740008E0
:1052B40008B50268034B9A4200D008BD00F002FF13
:1052C400FBE700BF002C0140704700002DE9F043CC
:1052D4008BB000240694079408940994454B9A696A
:1052E40042F040029A619A6902F040020192019AE6
:1052F4009A6942F010029A619A6902F010020292CD
:10530400029A9A6942F004029A619A6902F00402CC
:105314000392039A9A6942F008029A619A6902F028
:1053240008020492049A9A6942F020029A619B69E5
:1053340003F020030593059BDFF8C89022464FF441
:105344000051484601F030FBDFF8BC8022462021A2
:10535400404601F029FB284E22460221304601F046
:1053640023FB7D2306930325079506A9304601F008
:105374001DFA43F6FF730693079506A91F4801F02B
:1053840015FA4FF6FF130693079506A91C4801F07A
:105394000DFA4FF6DF730693079506A9404601F010
:1053A40005FA41F24C030693079506A9484601F015
:1053B400FDF94FF4005306930127079708940995C4
:1053C40006A9484601F0F2F92023069307970894AA
:1053D4000225099506A9404601F0E8F906950797C4
:1053E4000894099506A9304601F0E0F90BB0BDE830
:1053F400F08300BF0010024000180140001001407B
:105404000008014000140140000C0140144B1B68CB
:1054140003B1704730B587B00122114B1A60114BAC
:105424005A6942F480725A615B6903F48073019390
:10543400019B4FF680730293022503950324059480
:1054440002A9094801F0B2F94CF6B373029303952B
:10545400059402A9054801F0A9F907B030BD00BFC1
:105464008C0000200010024000180140001401408C
:1054740000B589B017484FF02043036003F58273E9
:10548400436000228260C260026110234361826132
:10549400C261026242624FF480538362C262026359
:1054A40042638263022301930292052303930492CD
:1054B40005920692079201A900F088FB38B9064AC2
:1054C400D36943F48063D36109B05DF804FBFFF74B
:1054D400FBFEF4E7A00000200000014008B5FFF740
:1054E40095FF08BD08B50A480A4B03604FF4E13341
:1054F400436000238360C36003610C2242618361C3
:10550400C36100F09DFD00B908BDFFF7DDFEFBE7B8
:10551400E40000200038014010B586B00023029357
:105524000393049305930268174B9A4201D006B083
:1055340010BD03F558439A6942F480429A619A690E
:1055440002F480420092009A9A6942F004029A613D
:105554009B6903F004030193019B4FF400730293CE
:105564000223039303230593084C02A9204601F068
:105574001DF94FF48063029300230393049302A95B
:10558400204601F013F9D2E7003801400008014039
:1055940080B24FF0C043188089B203F500331980FC
:1055A4007047000080B2014B188070470000026011
:1055B40080B24FF0C0431880704710B5002102201C
:1055C400FFF7E6FF00210320FFF7E2FF002104209C
:1055D400FFF7DEFFEF210520FFF7DAFF00210620A9
:1055E400FFF7D6FF00210720FFF7D2FF0121082093
:1055F400FFF7CEFF3F210920FFF7CAFF0021022059
:10560400FFF7C6FF00210320FFF7C2FF0021062099
:10561400FFF7BEFF1E210720FFF7BAFF2220FFF786
:10562400C7FF002404E04FF6FF70FFF7BBFF01340F
:10563400B4F5963FF7D310BDEA2802D8B1F5997FA7
:1056440000D970472DE9F04116460C460546002165
:105654000220FFF79DFF29460320FFF799FF002151
:105664000420FFF795FF691D0520FFF791FF4FEA1E
:10567400142841460620FFF78BFFE7B2394607207E
:10568400FFF786FF04F10B0109120820FFF780FFE2
:1056940007F10B01C9B20920FFF77AFF00210220AC
:1056A400FFF776FF29460320FFF772FF41460620E5
:1056B400FFF76EFF39460720FFF76AFF2220FFF746
:1056C40077FFA6F12002D7B2002612E04FF6FF7052
:1056D400FFF768FF6D080134E4B2052C07D815F014
:1056E400010FF3D0094B1888FFF75CFFF2E701368E
:1056F400F6B20B2E07D807EB47039A00044B13446A
:105704009D5D0024E9E7BDE8F08100BF9000002022
:105714002874000870B504460E46154606E0314666
:105724002046FFF789FF0634E4B201352A78002ABF
:10573400F5D170BD10B50C4C00220221204601F0B9
:1057440033F90A2000F0D0FC01220221204601F0A6
:105754002BF90A2000F0C8FC01224FF40051034841
:1057640001F022F910BD00BF0018014000140140EF
:1057740010B5FFF7DFFF0021EA20FFF709FF202122
:10578400EB20FFF705FF3C21EC20FFF701FFC421CC
:10579400ED20FFF7FDFE4821E820FFF7F9FE382150
:1057A400E920FFF7F5FE0121F120FFF7F1FE0821C2
:1057B400F220FFF7EDFE01214020FFF7E9FE07216B
:1057C4004120FFF7E5FE09214220FFF7E1FE192100
:1057D4004320FFF7DDFE17214420FFF7D9FE2021E7
:1057E4004520FFF7D5FE18214620FFF7D1FE6121A1
:1057F4004720FFF7CDFE00214820FFF7C9FE102106
:105804004920FFF7C5FE17214A20FFF7C1FE1921E1
:105814004B20FFF7BDFE14214C20FFF7B9FE1F21DA
:105824005020FFF7B5FE28215120FFF7B1FE2621B5
:105834005220FFF7ADFE36215320FFF7A9FE382191
:105844005420FFF7A5FE3E215520FFF7A1FE1E219F
:105854005620FFF79DFE67215720FFF799FE0B2185
:105864005820FFF795FE06215920FFF791FE0821E5
:105874005A20FFF78DFE0F215B20FFF789FE1F21C1
:105884005C20FFF785FECC215D20FFF781FE1B2104
:105894000846FFF77DFE01211A20FFF779FE7021EB
:1058A4002420FFF775FE58212520FFF771FE6E2195
:1058B4002320FFF76DFE36211820FFF769FE012132
:1058C4001920FFF765FE00210120FFF761FED021BA
:1058D4001F20FFF75DFE05211720FFF759FE092160
:1058E4003620FFF755FE3F212820FFF751FE5021B7
:1058F4001620FFF74DFE00210220FFF749FE00218C
:105904000320FFF745FE00210420FFF741FEEF21AD
:105914000520FFF73DFE00210620FFF739FE002198
:105924000720FFF735FE01210820FFF731FE3F2154
:105934000920FFF72DFE22224FF0C0431A800024D5
:1059440004E04FF6FF70FFF72DFE0134B4F5963FE7
:10595400F7D34FF47842014B1A8010BD9000002019
:105964000FB470B58CB010AC54F8046B28252A46DB
:10597400002102A801F0DEF80194234632462946AC
:1059840002A801F00BF90F4B1B88152B13D80D4CF3
:105994002388C3EBC303590089B2023189B202AA36
:1059A4000220FFF7B7FE2388013323800CB0BDE843
:1059B400704004B070470022024B1A80FFF7FDFDCF
:1059C400E5E700BF920000207047FEE7FEE7FEE730
:1059D400FEE77047704770477047000008B50248FB
:1059E40000F02EF908BD00BF2401002082B00E4B48
:1059F4009A6942F001029A619A6902F001020092E6
:105A0400009ADA6942F08052DA61DB6903F080536C
:105A14000193019B054A536823F0E06343F08063DC
:105A2400536002B0704700BF001002400000014004
:105A340000B589B000220146192000F0CDFF1920DD
:105A440000F0FCFF144B9A6942F400629A619B696E
:105A540003F400630193019B02A903A800F088FEEC
:105A640000F076FE0D4BA3FB00239B0C013B0C487E
:105A74000C4A026040F2E732C260436000230361D3
:105A8400836000F0E9F918B1012009B05DF804FB66
:105A9400034800F0C5F8F8E70010024083DE1B431A
:105AA40024010020002C014030B40A6850F8223050
:105AB40023F0010340F822308B68082B20D00C68B7
:105AC40050F824501F4A2A404D682B43CD682B437D
:105AD4000D692B434D692B438D692B43CD692B43B2
:105AE4000D6A2B434D6A2B438D6A2B43CD6A2B439E
:105AF400096B0B43134340F82430002030BC70473B
:105B04000C6850F824500F4A2A404D682B43CD6846
:105B14002B430D692B434D692B438D692B43CD6971
:105B24002B430D6A2B434D6A2B438D6A2B43CD6A5D
:105B34002B43096B0B43134343F0400340F82430D9
:105B4400DBE700BF8100F7FF30B4013250F8224098
:105B540004F040440B684D6843EA05138D6843EA3A
:105B64000523CD6843EA05430D69013D43EA055326
:105B74004D69023D43EA056389690B43234340F8B9
:105B84002230002030BC7047B3F5804F05D06FF051
:105B9400704340F822300020704730B450F822306F
:105BA400094C1C400B684D6843EA05138D6843EAB1
:105BB40005238D692B43C96843EA0143234340F815
:105BC4002230002030BC70470000F0CF28B370B5FD
:105BD400044615460E4690F83D30CBB104F1080159
:105BE4002068FFF761FFA26831462068FFF7ACFF29
:105BF400236BA26829466068FFF7C6FF2268A16884
:105C040052F8213043F0010342F82130002070BDE6
:105C140080F83C30FFF762FCE0E7012070477047F2
:105C24000268D36843F00103D3600268136843F049
:105C34000103136000207047704770477047704736
:105C440010B5044603681A6912F0020F11D0DA681D
:105C540012F0020F0DD06FF002021A6101230377D4
:105C640003689B6913F0030F70D0FFF7E6FF00236E
:105C7400237723681A6912F0040F12D0DA6812F03D
:105C8400040F0ED06FF004021A61022323772368F5
:105C94009B6913F4407F5FD02046FFF7CEFF0023BB
:105CA400237723681A6912F0080F12D0DA6812F009
:105CB400080F0ED06FF008021A61042323772368BB
:105CC400DB6913F0030F4ED02046FFF7B6FF002325
:105CD400237723681A6912F0100F12D0DA6812F0D1
:105CE400100F0ED06FF010021A6108232377236877
:105CF400DB6913F4407F3DD02046FFF79EFF00236D
:105D0400237723681A6912F0010F03D0DA6812F0BE
:105D1400010F36D123681A6912F0800F03D0DA68B4
:105D240012F0800F34D123681A6912F0400F03D0A7
:105D3400DA6812F0400F32D123681A6912F0200F8A
:105D440003D0DA6812F0200F30D110BDFFF774FFD2
:105D54002046FFF773FF8AE72046FFF76DFF2046D2
:105D6400FFF76CFF9BE72046FFF766FF2046FFF72F
:105D740065FFACE72046FFF75FFF2046FFF75EFFB5
:105D8400BDE76FF001021A612046FFF791FAC1E7FF
:105D94006FF080021A61204600F078F8C3E76FF0D4
:105DA40040021A612046FFF74AFFC5E76FF0200260
:105DB4001A61204600F069F8C7E700000368254A25
:105DC400904212D002F5006290420ED0B0F1804FA2
:105DD4000BD0A2F59832904207D002F5806290422F
:105DE40003D002F58062904203D123F070034A6825
:105DF4001343184A904212D002F5006290420ED02A
:105E0400B0F1804F0BD0A2F59832904207D002F542
:105E14008062904203D002F58062904203D123F461
:105E24004073CA68134323F080034A691343036031
:105E34008B68C3620B688362064B984206D003F5F5
:105E44000063984202D00123436170470B690363E6
:105E5400F9E700BF002C0140A8B110B5044690F842
:105E64003D305BB1022384F83D30211D2068FFF7EB
:105E7400A5FF012384F83D30002010BD80F83C309C
:105E8400FFF7CDFEEEE70120704770477047000032
:105E94002DE9F04705460268136923F44053C168AD
:105EA4000B43136183680269134342691343016816
:105EB400CA6822F4B05222F00C021343CB60026889
:105EC400536923F4407381690B435361D0F8008014
:105ED400594B984557D000F02BFC00EB800000EBA9
:105EE40080006C68A400B0FBF4F4544FA7FB0434A6
:105EF4006409260100F01CFC00EB800000EB80002C
:105F04006C68A400B0FBF4FA00F012FC00EB800013
:105F140000EB80006C68A400B0FBF4F4A7FB04342D
:105F240064094FF0640909FB14A424013234A7FB6B
:105F34000434640904F0F004344400F0F9FB00EB89
:105F4400800000EB80006E68B600B0FBF6F600F04F
:105F5400EFFB00EB800000EB80006B689B00B0FB64
:105F6400F3F0A7FB0030400909FB10694FEA091957
:105F740009F13209A7FB0937C7F343172744C8F8C7
:105F84000870BDE8F08700F0E3FB00EB800000EB55
:105F940080006C68A400B0FBF4F4284FA7FB043421
:105FA4006409260100F0D4FB00EB800000EB8000C4
:105FB4006C68A400B0FBF4FA00F0CAFB00EB8000AC
:105FC40000EB80006C68A400B0FBF4F4A7FB04347D
:105FD40064094FF0640909FB14A424013234A7FBBB
:105FE4000434640904F0F004344400F0B1FB00EB21
:105FF400800000EB80006E68B600B0FBF6F600F09F
:10600400A7FB00EB800000EB80006B689B00B0FBFB
:10601400F3F3A7FB03235B0909FB13694FEA09198F
:1060240009F13209A7FB0937C7F343172744C8F816
:106034000870BDE8F08700BF003801401F85EB51B0
:1060440058B310B5044690F839300BB3242384F8C0
:1060540039302268D36823F40053D3602046FFF715
:1060640017FF2268136923F490431361226853696C
:1060740023F02A0353612268D36843F40053D360A6
:106084000020E063202384F8393084F83A3010BDCE
:1060940080F83830FFF740FAD8E701207047000055
:1060A40008B5074A136843F010031360032000F097
:1060B40081FC0020FFF7BCFCFFF798FC002008BD22
:1060C40000200240034A1168034B1B780B44136001
:1060D400704700BF6401002000000020014B1868D5
:1060E400704700BF6401002038B50446FFF7F6FF8F
:1060F4000546B4F1FF3F02D0044B1B781C44FFF764
:10610400EDFF401B8442FAD838BD00BF00000020D8
:1061140082B0084B1B68084AA2FB03235B0A00FBFE
:1061240003F0019000BF019B5A1E0192002BF9D18C
:1061340002B0704704000020D34D621070B582B0E5
:106144000446036813F0010F3DD0AC4B5B6803F0C9
:106154000C03042B2ED0A94B5B6803F00C03082B13
:1061640023D06368B3F5803F51D0002B55D103F1A0
:10617400804303F504331A6822F480321A601A68E3
:1061840022F480221A606368002B60D0FFF7A6FF18
:1061940005469A4B1B6813F4003F14D1FFF79EFF8A
:1061A400401B6428F5D90320AFE1944B5B6813F4DA
:1061B400803FD6D0914B1B6813F4003F03D0636833
:1061C400002B00F09F81236813F0020F65D08B4BE6
:1061D4005B6813F00C0F4ED0884B5B6803F00C0324
:1061E400082B43D02369002B79D00122844B1A60F9
:1061F400FFF774FF0546814B1B6813F0020F65D14E
:10620400FFF76CFF401B0228F5D903207DE17B4A90
:10621400136843F480331360B5E7B3F5A02F09D0B6
:10622400764B1A6822F480321A601A6822F48022AB
:106234001A60A8E703F18043A3F53C331A6842F4DB
:1062440080221A601A6842F480321A609BE7FFF7D2
:1062540045FF0546694B1B6813F4003FB3D0FFF7B5
:106264003DFF401B6428F5D903204EE1634B5B6876
:1062740013F4803FB6D1614B1B6813F0020F04D0B6
:106284002369012B01D001203FE15C4A136823F00C
:10629400F803616943EAC1031360236813F0080F2C
:1062A40032D0A369002B6ED00122564B1A60FFF73F
:1062B40015FF0546514B5B6A13F0020F21D1FFF71E
:1062C4000DFF401B0228F5D903201EE14B4A136839
:1062D40023F0F803616943EAC1031360DDE7002298
:1062E400474B1A60FFF7FAFE0546444B1B6813F050
:1062F400020FD2D0FFF7F2FE401B0228F5D903208B
:1063040003E10120FFF704FF236813F0040F00F0FA
:1063140099803A4BDB6913F0805F46D1374BDA69D9
:1063240042F08052DA61DB6903F080530193019BF0
:106334000125354B1B6813F4807F38D0E368012BAB
:1063440049D0002B4DD103F1804303F504331A6A7D
:1063540022F001021A621A6A22F004021A62E36845
:10636400002B5DD0FFF7BAFE0646244B1B6A13F0E0
:10637400020F66D1FFF7B2FE801B41F288339842C8
:10638400F3D90320C1E000221E4B1A60FFF7A6FEDA
:1063940005461A4B5B6A13F0020FB5D0FFF79EFE59
:1063A400401B0228F5D90320AFE00025C1E7164AB7
:1063B400136843F480731360FFF790FE0646124B94
:1063C4001B6813F4807FB9D1FFF788FE801B642813
:1063D400F5D9032099E0094A136A43F001031362D3
:1063E400BDE7052B12D0054B1A6A22F001021A628E
:1063F4001A6A22F004021A62B1E700BF00100240D8
:10640400000042428004424200700040414B1A6A3C
:1064140042F004021A621A6A42F001021A629EE70A
:10642400FFF75CFE06463B4B1B6A13F0020F08D0D5
:10643400FFF754FE801B41F288339842F3D90320BE
:1064440063E0E5B9E369002B5ED0324A526802F09A
:106454000C02082A5BD0022B17D000222E4B1A60A4
:10646400FFF73CFE04462B4B1B6813F0007F47D01C
:10647400FFF734FE001B0228F5D9032045E0254A26
:10648400D36923F08053D361DCE70022224B1A60E6
:10649400FFF724FE05461F4B1B6813F0007F06D050
:1064A400FFF71CFE401B0228F5D903202DE0236AC8
:1064B400B3F5803F1AD017494B6823F47413226A4A
:1064C400606A024313434B600122134B1A60FFF7C7
:1064D40005FE04460F4B1B6813F0007F0ED1FFF737
:1064E400FDFD001B0228F5D903200EE0094A53687C
:1064F40023F40033A1680B435360DCE7002004E07D
:10650400002002E0012000E0002002B070BD012064
:10651400FBE700BF001002406000424210B586B0A5
:10652400154C94E80F000DF1180E0EE90F00238AA4
:10653400ADF80430114B5B6803F00C02082A18D143
:10654400C3F38342724412F8102C13F4803F03D136
:106554000B4800FB02F00DE0084B5B68C3F34043BB
:10656400734413F8143C074800FB02F0B0FBF3F04B
:1065740000E0044806B010BD00740008001002409A
:1065840000093D0000127A00624B1B6803F0070308
:106594008B420CD25F4A136823F007030B4313604A
:1065A400136803F00703994201D00120704770B5C6
:1065B400036813F0020F17D013F0040F04D0564AE7
:1065C400536843F4E0635360036813F0080F04D086
:1065D400514A536843F4605353604F4A536823F05D
:1065E400F0038468234353600D460446036813F0A4
:1065F400010F52D04368012B23D0022B28D0464AE6
:10660400126812F0020F00F0828043494A6822F0B7
:10661400030213434B60FFF761FD06466368012BD9
:106624001DD0022B2AD03C4B5B6813F00C0F34D0E6
:10663400FFF754FD801B41F288339842F3D90320BD
:1066440070BD354A126812F4003FDED1012070BDDE
:10665400314A126812F0007FD7D1012070BD2E4B51
:106664005B6803F00C03042B17D0FFF737FD801B86
:1066740041F288339842F2D9032070BD264B5B68FF
:1066840003F00C03082B08D0FFF728FD801B41F210
:1066940088339842F2D9032070BD1E4B1B6803F067
:1066A40007039D420CD21B4A136823F007032B43B4
:1066B4001360136803F007039D4201D0012070BDED
:1066C400236813F0040F06D0134A536823F4E063DD
:1066D400E1680B435360236813F0080F07D00E4A98
:1066E400536823F46053216943EAC1035360FFF7FD
:1066F40015FF094B5B68C3F30313084AD35CD84006
:10670400074B18600020FFF793F9002070BD0120AB
:1067140070BD00BF00200240001002409C780008B9
:1067240004000020014B1868704700BF04000020DB
:1067340008B5FFF7F7FF044B5B68C3F30223034A72
:10674400D35CD84008BD00BF00100240AC780008FC
:1067540008B5FFF7E7FF044B5B68C3F3C223034AA2
:10676400D35CD84008BD00BF00100240AC780008DC
:106774000F2303600B4B5A6802F0030242605A680D
:1067840002F0F00282605A6802F4E062C2605B6860
:10679400DB0803F4E0630361034B1B6803F00703A6
:1067A4000B6070470010024000200240F0B583B037
:1067B4000026344679E0002D00F0A980012D00D197
:1067C400CE68FF2B00F2B7808646FF2B00F2B6801E
:1067D400A500DEF800200F27AF4022EA070206FAE0
:1067E40005F52A43CEF800204A6812F0805F5BD09A
:1067F400674A956945F001059561926902F00102C5
:106804000192019AA208971C624D55F8275004F092
:1068140003074FEA870E0F2707FA0EF725EA070545
:106824005D4FB84200F0908007F58067B84200F0F1
:106834008D8007F58067B84200F08A8007F580678D
:10684400B84200F0878007F58067B84200F0848082
:1068540007F58067B84275D0062707FA0EF73D435F
:1068640002324C4F47F822504A6812F4803F75D0E8
:106874004A4D2A681A432A604A6812F4003F73D0CA
:10688400464D6A681A436A604A6812F4801F71D0E0
:10689400424DAA681A43AA604A6812F4001F6FD0D6
:1068A4003E4DEA681343EB6001340F2C6ED801228D
:1068B400A2400B6813409A42F6D14D68122D30D095
:1068C4000BD8022D2AD07FF676AF032D2FD0112DB1
:1068D4007FF477AFCE68043673E7314FBD4216D0EC
:1068E4000CD9304FBD4212D007F58037BD420ED0CF
:1068F400A7F58017BD427FF464AF08E0A7F58017C1
:10690400BD4204D007F58037BD427FF45AAF8D688D
:106914007DB1012D08D04261082652E7CE680836C1
:106924004FE7CE680C364CE70261082649E700269B
:1069340047E7042645E700F1040E46E7A4F10805FD
:10694400AD0046E7052788E7002786E7012784E7A7
:10695400022782E7032780E704277EE70F4D2A6892
:1069640022EA03022A6087E70C4D6A6822EA0302DE
:106974006A6089E7094DAA6822EA0302AA608BE7E4
:10698400064DEA6822EA0303EB608DE703B0F0BD2D
:1069940000100240000001400008014000040140D2
:1069A400000021100000311012B909040161704780
:1069B40001617047074AD36823F4E0631B041B0C8E
:1069C400000200F4E060184340F0BF6040F400307F
:1069D400D060704700ED00E030B4164BDB68C3F3C1
:1069E4000223C3F10704042C28BF04241D1D062D13
:1069F40017D9033B012505FA04F4013C21409940D1
:106A040005FA03F3013B1340194300280BDB09018A
:106A1400C9B200F1604000F5614080F8001330BC59
:106A240070470023E6E700F00F000901C9B2024BEA
:106A34001954F4E700ED00E014ED00E0420900F021
:106A44001F00012303FA00F0014B43F822007047B2
:106A540000E100E00E4B1A6842F001021A60596826
:106A64000C4A0A405A601A6822F0847222F4803276
:106A74001A601A6822F480221A605A6822F4FE020C
:106A84005A604FF41F029A60034A044B9A6070479D
:106A9400001002400000FFF80050000800ED00E084
:106AA400002103E00B4B5B58435004310A480B4B65
:106AB40042189A42F6D30A4A02E0002342F8043B01
:106AC400084B9A42F9D3FFF7C5FF00F00FF8FEF721
:106AD400D1FB7047F0780008000000206C00002013
:106AE4006C0000206C010020FEE7000070B500255A
:106AF4000C4E0D4CA41BA410A54209D100F072FC4D
:106B040000250A4E0A4CA41BA410A54205D170BD51
:106B140056F8253098470135EEE756F82530984762
:106B24000135F2E7E8780008E8780008E87800081A
:106B3400EC78000803460244934200D1704703F8FE
:106B4400011BF9E730B5141E05469BB0184605DA5B
:106B54008B234FF0FF302B601BB030BD4FF402731A
:106B6400ADF80C300CBF234604F1FF3302930593B8
:106B74004FF6FF7300910491ADF80E3002461E9B50
:106B84006946284600F074F8431CBCBF8B232B6075
:106B9400002CE1D00022009B1A70DDE707B50093BA
:106BA40013460A46014603480068FFF7CBFF03B0CB
:106BB4005DF804FB080000202DE9F0478E6882464A
:106BC4009E420C469146984635D88A8912F4906FB5
:106BD40031D00223256809696F1A656905EB4505FB
:106BE40095FBF3F508F101033B449D4238BF1D4674
:106BF400530531D5294600F047FB064650B90C230E
:106C0400CAF80030A3894FF0FF3043F04003A3815A
:106C1400BDE8F0873A46216900F0C4FAA38923F459
:106C2400906343F08003A38126613E442660464678
:106C34006561ED1BA560464528BF46464946324678
:106C4400206800F0BAFAA36800209B1BA3602368A5
:106C54001E442660BDE8F0872A4600F073FB064612
:106C64000028E1D12169504600F0C2FAC7E70000CC
:106C74002DE9F04F9DB003938B8980461C060D4689
:106C840016460FD50B696BB9402100F0FDFA286058
:106C9400286128B90C23C8F800304FF0FF30C4E055
:106CA40040236B610023099320238DF8293030237E
:106CB4004FF0010B8DF82A3037463C4614F8013B5F
:106CC400002B3CD1B7EB060A0BD05346324629467B
:106CD4004046FFF771FF013000F0A280099B534446
:106CE40009933B78002B00F09B8000234FF0FF3288
:106CF40004930793059206938DF853301A93052253
:106D04002178504800F040FA671C049BD8B9D90692
:106D140044BF20228DF853201A0744BF2B228DF83C
:106D2400532022782A2A16D000210A20079A2746BF
:106D34003B780134303B092B50D9C9B111E0252BE4
:106D4400C0D02746B9E73F4A3C46801A0BFA00F008
:106D540018430490D3E7039A111D12680391002A83
:106D640001DB079204E0524243F0020307920493CA
:106D74003B782E2B0DD17B78791C2A2B32D1039BA7
:106D840002371A1D1B680392002BB8BF4FF0FF3364
:106D940005932D4C03223978204600F0F5F938B1DB
:106DA4004023001B03FA00F0049B013703430493C0
:106DB4003978062225487E1C8DF8281000F0E4F965
:106DC400002835D0224BFBB9039B073323F007037C
:106DD40008330393099B4B4409936DE700FB02328C
:106DE4000121A4E700230A24184605930F463A78A4
:106DF4000131303A092A03D9002BCAD00590C8E7DB
:106E040004FB00200123F1E703AB00932A46114B56
:106E140004A94046AFF30080B0F1FF3F8146D9D1C9
:106E2400AB895B063FF539AF09981DB0BDE8F08F1B
:106E340003AB00932A46074B04A9404600F084F8AC
:106E4400EAE700BFB4780008BA780008BE78000802
:106E540000000000BD6B00082DE9F04791461F4675
:106E64008A680B6906469342B8BF1346C9F80030D6
:106E740091F843200C46DDF8208012B10133C9F8A3
:106E840000302368990642BFD9F800300233C9F8AC
:106E94000030256815F0060507D104F1190AE368E6
:106EA400D9F800209B1A9D422ADB94F843302268CB
:106EB400003318BF012392062FD404F1430239464C
:106EC4003046C047013022D02368E56803F006034A
:106ED400042B18BF0025D9F800204FF0000908BF83
:106EE400AD1AA368226908BF25EAE5759342C4BFB9
:106EF4009B1AED181A344D451BD10020BDE8F087CC
:106F04000123524639463046C047013003D14FF081
:106F1400FF30BDE8F0870135C1E73020E11881F882
:106F240043005A1C94F845102244023382F843105B
:106F3400C3E70123224639463046C0470130E6D034
:106F440009F10109D7E700002DE9F04317460A7E4D
:106F540085B06E2A984606460C460C9B01F1430EFA
:106F640000F0BC801AD8632A2ED00AD8002A00F078
:106F7400C880582A00F08A8004F1420584F842202F
:106F84002AE0642A01D0692AF6D121681A6811F02E
:106F9400800F23D0111D1960136827E0732A00F0B5
:106FA400B48008D86F2A2AD0702AE5D10A6842F042
:106FB40020020A6003E0752A21D0782ADCD17822E5
:106FC4006F4984F8452064E01A6801F14205111DF7
:106FD4001960136884F842300123A3E011F0400FD4
:106FE40002F104011960D7D0B2F90030002B03DAA2
:106FF4002D225B4284F8432062490A2217E020686C
:10700400196810F0800F03D0081D18600B6806E0A3
:1070140010F0400F01F104001860F7D00B886F2ABC
:1070240014BF0A2208225749002084F843006568E7
:10703400002DA560C0F29C80206820F00400206030
:10704400002B3FD1002D40F095807546082A0BD1C6
:107054002368DA0708D5236962689A42DEBF3023C1
:1070640005F8013C05F1FF35AEEB05032361CDF8CE
:1070740000803B4603AA21463046FFF7EDFE01306F
:1070840055D14FF0FF3005B0BDE8F08381F84520BD
:107094003C492268186812F0800F00F104051D6055
:1070A40001D0036802E05506FBD50388D00744BF2E
:1070B40042F0200222601BB9226822F020022260E2
:1070C4001022B1E77546B3FBF2F002FB1033CB5C40
:1070D40005F8013D03460028F5D1B7E708681A68AA
:1070E40010F0800F496904D0101D186013681960EE
:1070F40007E010F0400F02F1040018601368F6D0A6
:107104001980002375462361B1E71A68111D1960BF
:10711400156800216268284600F036F808B1401B63
:10712400606063682361002384F843309FE7236928
:107134002A4639463046C0470130A2D023689B070F
:1071440007D5002504F11909E368039A9B1A9D42A7
:1071540005DBE068039B9842B8BF184693E7012318
:107164004A4639463046C04701308AD00135EBE7FC
:10717400002BA7D10B7804F1420584F8423065E76F
:10718400D6780008C578000810B5C9B20244904208
:10719400034601D1002010BD1C7801308C42F6D189
:1071A400184610BD10B5431E0A44914200D110BDCB
:1071B40011F8014B03F8014FF7E7884210B501EBD2
:1071C400020303D8421E99420CD110BD9842F9D251
:1071D4008118D21AD34200D110BD13F8014D01F821
:1071E400014DF7E711F8014B02F8014FEBE70000FE
:1071F40038B50546002943D051F8043C0C1F002B38
:10720400B8BFE41800F0D4F81E4A1368104633B926
:10721400636014602846BDE8384000F0CAB8A34251
:107224000BD921686218934201BF1A685B6852182F
:10723400226063600460EDE713465A680AB1A24213
:10724400FAD919685818A0420BD12068014458187B
:1072540082421960DED110685268014419605A6094
:10726400D8E702D90C232B60D4E7206821188A427E
:1072740001BF116852680918216062605C60C9E747
:1072840038BD00BF9400002070B5CD1C25F0030567
:1072940008350C2D38BF0C25002D064601DBA9420C
:1072A40003D90C233360002070BD00F081F8234A19
:1072B4001468214691B9224C23681BB9304600F06A
:1072C40067F820602946304600F062F8431C26D156
:1072D4000C233046336000F06CF8E4E70B685B1B6A
:1072E4001AD40B2B0FD90B60CC18CD50304600F0BC
:1072F40060F804F10B00231D20F00700C31A1BD013
:107304005A42E25070BD8C420BBF63684B681360F5
:10731400636018BF0C46E9E70C464968CAE7C41C19
:1073240024F00304A04205D0211A304600F030F8BE
:107334000130CDD02560D9E770BD00BF9400002096
:1073440098000020F8B5074614460E4621B91146A8
:10735400BDE8F840FFF798BF22B9FFF749FF25467B
:107364002846F8BD00F026F884420FD92146384655
:10737400FFF78AFF05460028F2D031462246FFF780
:1073840011FF31463846FFF733FFE9E73546E7E7B3
:1073940038B50023054C05460846236000F014F870
:1073A400431C02D1236803B12B6038BD680100205F
:1073B4007047704751F8040C0028A0F10400BCBFCA
:1073C4000B58C01870470000044B0246196809B9ED
:1073D40003491960186802441A6070479C00002031
:1073E40070010020F8B500BFF8BC08BC9E46704789
:0C73F400F8B500BFF8BC08BC9E4670470E
:1074000002030405060708090A0B0C0D0E0F1010E5
:10741000010200004920616D20636F756E74696E12
:1074200067203220256400000000000000000000FA
:107430000000000000000404040404040004000030
:1074400000140A0A000000000000000000001414EC
:107450003F140A3F0A0A000000041E1505060C141A
:10746000150F0400000012150D0A142C2A1200003A
:107470000000040A0A1E1515093600000002020168
:1074800000000000000000000020100808080808A4
:107490000810200000020408080808080804020078
:1074A00000000004150E0E15040000000000040486
:1074B000041F04040400000000000000000000009D
:1074C0000002020100000000001F00000000000098
:1074D000000000000000000000020000001008088A
:1074E000080404020202010000000E111111111122
:1074F000110E00000000040604040404040E000041
:1075000000000E1111080402011F000000000E11FE
:10751000100C1010110E00000000080C0A0A091EC1
:107520000818000000001F01010F1010110E0000CC
:1075300000000E09010F1111110E000000001F09BB
:10754000080404040404000000000E11110E1111BF
:10755000110E000000000E1111111E10120E00007D
:107560000000000004000000000400000000000013
:1075700000040000000404000020100804020408B5
:1075800010200000000000001F00001F000000008D
:1075900000020408102010080402000000000E1170
:1075A000110804040004000000000E111915151D37
:1075B000011E0000000004040C0A0A1E1233000021
:1075C00000000F12120E1212120F000000001E1106
:1075D00001010101110E000000000F12121212121F
:1075E000120F000000001F120A0E0A02121F0000F4
:1075F00000001F120A0E0A020207000000001C12FF
:1076000001013911120C000000003312121E121277
:107610001233000000001F0404040404041F0000CF
:1076200000003E0808080808080907000000371293
:107630000A060A0A123700000000070202020202CC
:10764000223F000000001B1B1B1B15151515000019
:1076500000003B1216161A1A1217000000000E1135
:1076600011111111110E000000000F12120E020272
:107670000207000000000E1111111117190E180059
:1076800000000F12120E0A121237000000001E1125
:1076900001060810110F000000001F150404040467
:1076A000040E00000000331212121212120C00001D
:1076B00000003312120A0A0C040400000000151521
:1076C000150E0A0A0A0A000000001B0A0A04040A2E
:1076D0000A1B000000001B0A0A040404040E000038
:1076E00000001F0908040402121F0000001C04040B
:1076F0000404040404041C00000202020404080838
:1077000008100000000E08080808080808080E0005
:1077100000040A000000000000000000000000005B
:10772000000000000000003F000400000000000016
:107730000000000000000000000C121C123C0000C1
:1077400000000302020E1212120E000000000000E0
:10775000001C1202021C000000001810101C121263
:10776000123C000000000000000C121E021C000071
:1077700000003804041E0404041E00000000000081
:10778000003C120C021E221C00000302020E121208
:10779000123700000000040000060404040E00007C
:1077A00000000800000C0808080808070000030291
:1077B000023A0A0E12370000000007040404040411
:1077C000041F000000000000000F15151515000033
:1077D00000000000000F121212370000000000002D
:1077E000000C1212120C000000000000000F121218
:1077F000120E020700000000001C1212121C1038AA
:1078000000000000001B060202070000000000004C
:10781000001E020C101E000000000004040E0404F0
:107820000418000000000000001B1212123C0000AF
:10783000000000000037120A0C04000000000000E5
:107840000015150E0A0A000000000000001B0A04C3
:107850000A1B0000000000000037120A0C04040399
:1078600000000000001E0804041E000000180808A4
:107870000804080808081800080808080808080884
:1078800008080808000604040408040404040600A8
:1078900002251800000000000000000000000000A9
:1078A00000000000010203040607080900000000B0
:1078B00001020304232D302B2000686C4C00656608
:1078C0006745464700303132333435363738394131
:1078D0004243444546003031323334353637383947
:0878E00061626364656600004B
:0478E8000952000839
:0478EC00E55100085A
:1078F0000100000000A24A040C000020000000006B
:107900000000000000000000000000000000000077
:107910000000000000000000000000000000000067
:107920000000000000000000000000000000000057
:107930000000000000000000000000000000000047
:107940000000000000000000000000000000000037
:0C7950000000000000000000000000002B
:0400000508006AA5E0
:00000001FF
