:0400000085EFC5F0D3
:1000080000C01EF001C01DF002C01CF003C01BF0B0
:1000180004C01AF005C019F008C018F009C017F09C
:100028000AC016F00BC015F0E1CF23F0E2CF24F0A0
:10003800E9CF21F0EACF22F0F3CF1FF0F4CF20F080
:10004800F2A4EDD10301F55323E0010E06014F257B
:10005800006E000E5021016E00C04FF601C050F630
:10006800000E006E5051005C02E14F51640803E23B
:100078000301F56B0CD0000E006E06015051005CB8
:1000880002E14F51320803E2020E0301F56FC1D1BC
:100098000A01516BCAECA2F0010E0A01516FCAECB9
:1000A800A2F00A01516BDEEC9EF0010E0A01516FBD
:1000B800DEEC9EF0010139530DE08D82374B382B71
:1000C800000E385D02E1640E375D04E3396B8D92F2
:1000D800010E256E6A51010A10E16B4B6C2B800EE4
:1000E8006C19006E800E020A005C02E1580E6B5D0E
:1000F80004E36B6B6C6B020E6A6F010E06014225FE
:10010800006E000E4321016E00C042F601C043F6A6
:10011800130E435D02E1880E425DD8A024D18F7290
:10012800426B436B010E04010B6F010E106F00014F
:10013800F95311E0F7C001F0F8C002F0F74BF82BC3
:10014800000E006E0250005C02E101500A0803E252
:10015800F96BF76BF86B0401F7B523D00501535120
:100168007F0A02E1FF0E52191CE046C602F047C69C
:1001780003F0010E06014625006E000E4721016EB0
:1001880000C046F601C047F605015351035C02E181
:100198005251025C06E30601466B476B0401F78582
:1001A800F98F4CC601F006014C51010F006E00C0DA
:1001B8004CF60A0E015C07E34C6B060E0401F611BF
:1001C800006E00C0F6F435C101F036C102F001013D
:1001D800354B362B000E025C02E1240E015C04E371
:1001E800356B366B010E066F7151010A14E142C17D
:1001F80001F043C102F0424B432B800E0218006EFF
:10020800800E005C02E10A0E015C05E3426B436B61
:10021800020E716F8E947251010A14E144C101F00B
:1002280045C102F0444B452B800E0218006E800E2B
:10023800005C02E10A0E015C05E3446B456B020EAB
:10024800726F8E92300E0401F915016E0132019E13
:100258000132019E0132019E0132019E0150010AC4
:1002680021E155C602F056C603F0010E06015525D8
:10027800006E000E5621016E00C055F601C056F6FC
:10028800010E035C02E1400E025C0CE3556B566BF9
:10029800200E0401F919006E300E0016F951001AEB
:1002A80000C0F9F40A01516BD2EC9EF00050010A2B
:1002B80015E10BC101F00CC102F001010B4B0C2B35
:1002C800010E025C02E12C0E015C08E30B6B0C6B67
:1002D800020E0A01516F526B90ECA0F00A01010E58
:1002E800516FD2EC9EF00050010A16E10DC101F0E9
:1002F8000EC102F001010D4B0E2B010E025C02E152
:100308002C0E015C09E30D6B0E6B020E0A01516F96
:10031800010E526F90ECA0F0C7ECA2F00052D8A4E6
:100328008D700A017F0E516F030E526F536B9CEC58
:10033800A0F00801E851010A09E1850E0A01516F90
:10034800030E526F010E536F9CECA0F00801EB51A5
:10035800010A09E18B0E0A01516F030E526F020E5A
:10036800536F9CECA0F00001FF5323E044C602F059
:1003780045C603F0010E06014425006E000E452116
:10038800016E00C044F601C045F6130E035C02E19D
:10039800880E025C0EE30001FF6B0601446B456B9F
:1003A80001019A5303E00401F78503D0010E00010F
:1003B800FE6F0401F7AF19D04AC602F04BC603F02E
:1003C800010E06014A25006E000E4B21016E00C089
:1003D8004AF601C04BF6130E035C02E1880E025C7C
:1003E80004E34A6B4B6B0401F8810301EF5311E0FE
:1003F80064C101F065C102F00101644B652B000E78
:10040800025C02E1960E015C04E3646B656B040117
:10041800F681FE0ED76E840ED66EF2941BD0F2A231
:1004280002D0F29217D09EAA15D001013951000AC4
:1004380002E1010E396FB30E0001FA25E16E010EDB
:10044800FB21E26EAECFE6FFFA4BFB2B0101376BC7
:10045800386B9E9A1FC0F3FF20C0F4FF1EC000F047
:100468001DC001F01CC002F01BC003F01AC004F04C
:1004780019C005F018C008F017C009F016C00AF036
:1004880015C00BF021C0E9FF22C0EAFF23C0E1FF3D
:0604980024C0E2FF110088
:10049E000134083609360450085E0550D8A0053CD4
:1004AE00095E003601360F0E0C6E01340836093621
:1004BE00045000A006D0085E0550D8A0053C095E89
:1004CE0005D008260550D8B0053C09260036013661
:1004DE000C2EEBD700B006D0045008260550D8B02D
:0804EE00053C09260000120084
:1004F6008E8E530E0D6E0D2EFED78E9E530E0D6EE6
:060506000D2EFED71200CD
:10050C00070E016E4ECA00F0015004E00032009E4E
:10051C00FF0FFBD7010E001600B002D08D9E01D04C
:10052C008D8E060E016E4ECA00F0015004E00032B2
:10053C00009EFF0FFBD7010E001600B002D08D9C61
:10054C0001D08D8C050E016E4ECA00F0015004E0F6
:10055C000032009EFF0FFBD7010E001600B002D038
:10056C008D9A01D08D8A4ECA00F00032009E003266
:10057C00009E0032009E0032009E010E001600B05C
:10058C0002D08D9801D08D888E8AAFDF4ECA00F0D4
:10059C000032009E0032009E0032009E010E0016BA
:1005AC0000B002D08D9E01D08D8E4ECA00F000326C
:1005BC00009E0032009E010E001600B002D08D9CF1
:1005CC0001D08D8C4ECA00F00032009E010E001638
:1005DC0000B002D08D9A01D08D8A010E0A014E1501
:1005EC00006E00B002D08D9801D08D887EDF120095
:1005FC000450085E0550D8A0053C095E0650D8A0F2
:10060C00063C0A5E0750D8A0073C0B5E0336070E6B
:10061C000C6E0334083609360A360B36045003A028
:10062C000ED0085E0550D8A0053C095E0650D8A037
:10063C00063C0A5E0750D8A0073C0B5E0DD008267E
:10064C000550D8B0053C09260650D8B0063C0A2601
:10065C000750D8B0073C0B2603360C2EDAD70234E1
:10066C00083609360A360B36045003A00ED0085E45
:10067C000550D8A0053C095E0650D8A0063C0A5E81
:10068C000750D8A0073C0B5E0DD008260550D8B0FB
:10069C00053C09260650D8B0063C0A260750D8B0AF
:1006AC00073C0B260236070E0C6E02340836093650
:1006BC000A360B36045002A00ED0085E0550D8A0A6
:1006CC00053C095E0650D8A0063C0A5E0750D8A02F
:1006DC00073C0B5E0DD008260550D8B0053C09260A
:1006EC000650D8B0063C0A260750D8B0073C0B265B
:1006FC0002360C2EDAD70134083609360A360B3698
:10070C00045002A00ED0085E0550D8A0053C095E2E
:10071C000650D8A0063C0A5E0750D8A0073C0B5EDA
:10072C000DD008260550D8B0053C09260650D8B087
:10073C00063C0A260750D8B0073C0B260136070E9C
:10074C000C6E0134083609360A360B36045001A0FB
:10075C000ED0085E0550D8A0053C095E0650D8A006
:10076C00063C0A5E0750D8A0073C0B5E0DD008264D
:10077C000550D8B0053C09260650D8B0063C0A26D0
:10078C000750D8B0073C0B2601360C2EDAD70034B4
:10079C00083609360A360B36045001A00ED0085E16
:1007AC000550D8A0053C095E0650D8A0063C0A5E50
:1007BC000750D8A0073C0B5E0DD008260550D8B0CA
:1007CC00053C09260650D8B0063C0A260750D8B07E
:1007DC00073C0B260036070E0C6E00340836093623
:1007EC000A360B36045000A00ED0085E0550D8A077
:1007FC00053C095E0650D8A0063C0A5E0750D8A0FE
:10080C00073C0B5E0DD008260550D8B0053C0926D8
:10081C000650D8B0063C0A260750D8B0073C0B2629
:10082C0000360C2EDAD700B00ED004500826055036
:10083C00D8B0053C09260650D8B0063C0A2607500D
:08084C00D8B0073C0B26120096
:0C08540000000000000000000000120086
:0A086000530E0D6E0D2EFED7120090
:10086A00240E0C6EB50E0D6E0D2EFED70C2EFCD777
:06087A0000000000120066
:10088000070E016E4ECA00F0015004E00032009ED7
:10089000FF0FFBD7010E001600B002D08D9E01D0D5
:1008A0008D8E060E016E4ECA00F0015004E000323B
:1008B000009EFF0FFBD7010E001600B002D08D9CEA
:1008C00001D08D8C050E016E4ECA00F0015004E07F
:1008D0000032009EFF0FFBD7010E001600B002D0C1
:1008E0008D9A01D08D8A4ECA00F00032009E0032EF
:1008F000009E0032009E0032009E010E001600B0E5
:1009000002D08D9801D08D888E9AF5DD4ECA00F008
:100910000032009E0032009E0032009E010E001642
:1009200000B002D08D9E01D08D8E4ECA00F00032F4
:10093000009E0032009E010E001600B002D08D9C79
:1009400001D08D8C4ECA00F00032009E010E0016C0
:1009500000B002D08D9A01D08D8A010E0A014E1589
:10096000006E00B002D08D9801D08D88C4DD1200D9
:10097000A6A202D00000FCD7A69C4FCAAAFF4ECA6E
:10098000A9FF50CAA8FFA69EA684F2CF00F0F29E4F
:10099000550EA76EAA0EA76EA68200BE02D0F29ECA
:0809A00001D0F28EA6941200B2
:1009A800220E0C6E086A096A0A6A0B6A0C06D8B429
:1009B8001FD0D8900B320A32093208320332023281
:1009C80001320032D8A0F2D70C06D8B409D00450AE
:1009D80008260550092206500A2207500B22EAD79A
:1009E800045008260550092206500A2207500B22F7
:0209F8001200EB
:1009FA00A69C4FCAAAFF4ECAA9FFA69EA680A8CF48
:040A0A0000F01200E6
:100A0E000B1E0A1E091E081E082AD8B4092AD8B4BD
:080A1E000A2AD8B40B2A1200C9
:100A26000450000A08E10550000A05E1FF0E006EB9
:100A36007F0E016E57D00D6A096A086A01500010D0
:100A4600D8B4000C015005180A6E0ABE0D1E0B6ABA
:100A560005AE05D0041E051E042AD8B4052A01AE2B
:100A660005D0001E011E002AD8B4012A0150051027
:100A76000A6E0ABE10D010DD0BB020D00DAE000CF1
:100A8600001E011E002AD8B4012A081E091E082AC3
:100A9600D8B4092A000C05AE0DD001BE07D001500E
:100AA600096E0050086E016A006AE8D7016A006A9A
:100AB600002A000C011E001E0B2ADDD7082AD8B416
:100AC600092A0450085CD8A4D9D70550095CD8A4D3
:100AD600D5D7096A086A002AD8B4012A01AECED74A
:060AE6000000FF0C1200ED
:100AEC000B6A0A6A096A00500402F4CF09F0F3CFCA
:100AFC0008F001500502F4CF0BF0F3CF0AF00050D0
:100B0C000502F3500926F4500A22E86A0B22015020
:100B1C000402F3500926F4500A22E86A0B2208C09A
:100B2C0000F009C001F00AC002F00BC003F0120083
:100B3C000A01436B446B000E445D02E14051435D7E
:100B4C0016E243514125456F44514221466F4351B2
:100B5C003E254E6F44513F214F6F49DF45CAE1FF9F
:100B6C0046CAE2FF00C0E6FF434B442BE4D7120019
:100B7C000A014B6B000E050184B1010E0A01426F94
:100B8C004151402742530BE01A0E436FF40E476F4E
:100B9C00010E486FCE0E496FFF0E4A6F0AD01B0E26
:100BAC00436FA40E476F030E486FC60E496FFF0EBE
:100BBC004A6F446B100E445D17E2110E006E000E6E
:100BCC00016E40CA04F0000E056E8ADF580E002636
:100BDC00060E012244510024E16E000E0120E26E4B
:100BEC00200EE66E442BE6D73ECAE9FF3FCAEAFF69
:100BFC00EECF01F0EECF02F001C045FA02C046FA8A
:100C0C0002507F0A02E1FF0E01182AE1446B100E1C
:100C1C00445D25E2110E006E000E016E40CA04F018
:100C2C00000E056E5DDF580E0026060E01224451A3
:100C3C000024E16E000E0120E26E3A0E4425F66EA1
:100C4C008F0EF76E000EF722010EF86E000EF822D2
:100C5C000900F5CF00F000C0E6FF442BD8D79AD19D
:100C6C0046517F0A02E1FD0E45192AE1446B100E34
:100C7C00445D25E2110E006E000E016E40CA04F0B8
:100C8C00000E056E2DDF580E0026060E0122445173
:100C9C000024E16E000E0120E26E4B0E4425F66E30
:100CAC008F0EF76E000EF722010EF86E000EF82272
:100CBC000900F5CF00F000C0E6FF442BD8D76AD16D
:100CCC00800E4819006E800E4619005C02E14551F9
:100CDC00475D04E247CA45FA48CA46FA800E4619EF
:100CEC00006E800E4A19005C02E14951455D04E238
:100CFC0049CA45FA4ACA46FA800E4619006E800E59
:100D0C00005C02E1000E455D1CE2110E006E000E4F
:100D1C00016E40CA04F0000E056EE2DE580E00268D
:100D2C00060E01224B510024E16E000E0120E26EF2
:100D3C002D0EE66E4B2B45510008456F4651000EAB
:100D4C004657800E006E800E4619005C02E145513C
:100D5C006308D8B080D0110E006E000E016E40CA30
:100D6C0004F0000E056EBCDE580E0026060E0122A5
:100D7C004B5100244C6F000E01204D6F640E046E1D
:100D8C00000E056E45CA00F046CA01F046DE300E74
:100D9C0000264CCAE1FF4DCAE2FF00C0E6FF0A0183
:100DAC004B2B110E006E000E016E40CA04F0000EAB
:100DBC00056E96DE580E0026060E01224B510024BD
:100DCC004C6F000E01204D6F640E046E000E056E0C
:100DDC0045CA00F046CA01F020DE08C000F009C088
:100DEC0001F00A0E046E000E056E17DE300E0026A2
:100DFC004CCAE1FF4DCAE2FF00C0E6FF0A014B2BD3
:100E0C00110E006E000E016E40CA04F0000E056E4D
:100E1C0067DE580E0026060E01224B5100244C6F43
:100E2C00000E01204D6F0A0E046E000E056E45CAB1
:100E3C0000F046CA01F0F1DD08C000F009C001F075
:100E4C00300E00264CCAE1FF4DCAE2FF00C0E6FF9F
:100E5C000A014B2B73D0800E006E800E4619005C7D
:100E6C0002E14551090851E2110E006E000E016EAF
:100E7C0040CA04F0000E056E33DE580E0026060E36
:100E8C0001224B5100244C6F000E01204D6F0A0EB5
:100E9C00046E000E056E45CA00F046CA01F0BDDDB9
:100EAC00300E00264CCAE1FF4DCAE2FF00C0E6FF3F
:100EBC000A014B2B110E006E000E016E40CA04F09D
:100ECC00000E056E0DDE580E0026060E01224B514B
:100EDC0000244C6F000E01204D6F0A0E046E000EA4
:100EEC00056E45CA00F046CA01F097DD08C000F057
:100EFC0009C001F0300E00264CCAE1FF4DCAE2FFDA
:100F0C0000C0E6FF0A014B2B19D0110E006E000E2B
:100F1C00016E40CA04F0000E056EE2DD580E00268C
:100F2C00060E01224B510024E16E000E0120E26EF0
:100F3C00300E4525006E00C0E6FF4B2B110E006EE7
:100F4C00000E016E40CA04F0000E056EC9DD580E8D
:100F5C000026060E01224B510024E16E000E0120EA
:100F6C00E26E200EE66E4B2B110E006E000E016E23
:100F7C0040CA04F0000E056EB3DD580E0026060EB6
:100F8C0001224B510024E16E000E0120E26E43CA97
:060F9C00E6FF4B2B1200E2
:100FA2000450000A12E10550000A0FE10650000A3F
:100FB2000CE10750000A09E1FF0E006EFF0E016E00
:100FC200FF0E026E7F0E036E98D00C6A07BE0C2ACB
:100FD2000D6A0B6A0A6A096A086A03500210011054
:100FE2000010D8B485D0035007180E6E0EBE0D1E29
:100FF20007AE0BD0041E051E061E071E042AD8B417
:10100200052AD8B4062AD8B4072A03AE0BD0001E8C
:10101200011E021E031E002AD8B4012AD8B4022AD5
:10102200D8B4032A035007100E6E0EBE1DD0FEEC7C
:1010320002F00CBE36D00DAE5BD0001E011E021EA9
:10104200031E002AD8B4012AD8B4022AD8B4032A2B
:10105200081E091E0A1E0B1E082AD8B4092AD8B473
:101062000A2AD8B40B2A44D007AE15D003BE0DD03D
:1010720003500B6E02500A6E0150096E0050086E4A
:10108200036A026A016A006AD6D7036A026A016ABF
:10109200006A002A000C031E021E011E001E0C8E96
:1010A200C6D7082AD8B4092AD8B40A2AD8B40B2A2F
:1010B2000450085CD8A4BFD70550095CD8A4BBD79C
:1010C20006500A5CD8A4B7D707500B5CD8A4B3D794
:1010D2000B6A0A6A096A086A002AD8B4012AD8B4D3
:1010E200022AD8B4032A03AEA6D70E6A0E88FF0CD2
:0C10F2000E6A0CA001D08ADC000F120076
:1010FE00016A026A800E0218006E800E0A01411902
:10110E00005C02E14051015C0BE201503E25E16EB4
:10111E0002503F21E26E200EE66E014A022AEAD705
:02112E001200AD
:101130000A01466B3ECAE9FF3FCAEAFFEECF44FA16
:10114000EECF45FA436B100E435D17E2110E006EB1
:10115000000E016E40CA04F0000E056EC7DC580E8A
:101160000026060E012243510024E16E000E0120EC
:10117000E26E200EE66E432BE6D73ECAE9FF3FCA79
:10118000EAFFEECF01F0EECF02F002507F0A02E15B
:10119000FE0E01182AE1436B100E435D25E2110E8D
:1011A000006E000E016E40CA04F0000E056E9EDC5B
:1011B000580E0026060E012243510024E16E000E57
:1011C0000120E26E5C0E4325F66E8F0EF76E000E68
:1011D000F722010EF86E000EF8220900F5CF00F09C
:1011E00000C0E6FF432BD8D762D23ECAE9FF3FCA10
:1011F000EAFFEECF01F0EECF02F0800E030A006EA0
:10120000800E0218005C02E10150E708D8B0C6D099
:10121000110E006E000E016E40CA04F0000E056E45
:1012200065DC580E0026060E012246510024476F49
:10123000000E0120486F3ECAE9FF3FCAEAFFEECF29
:1012400000F0EECF01F0E80E046E030E056E13EC15
:1012500005F0300E002647CAE1FF48CAE2FF00C091
:10126000E6FF0A01462B110E006E000E016E40CA09
:1012700004F0000E056E3ADC580E0026060E012220
:1012800046510024476F000E0120486F3ECAE9FF17
:101290003FCAEAFFEECF00F0EECF01F0E80E046E99
:1012A000030E056E13EC05F008C000F009C001F054
:1012B000640E046E000E056E13EC05F0300E002671
:1012C00047CAE1FF48CAE2FF00C0E6FF0A01462B19
:1012D000110E006E000E016E40CA04F0000E056E85
:1012E00005DC580E0026060E012246510024476FE9
:1012F000000E0120486F3ECAE9FF3FCAEAFFEECF69
:1013000000F0EECF01F0640E046E000E056E13ECDB
:1013100005F008C000F009C001F00A0E046E000ECE
:10132000056E13EC05F0300E002647CAE1FF48CAEF
:10133000E2FF00C0E6FF0A01462B110E006E000E10
:10134000016E40CA04F0000E056E76EC05F0580EF2
:101350000026060E012246510024476F000E012090
:10136000486F3ECAE9FF3FCAEAFFEECF00F0EECF7A
:1013700001F00A0E046E000E056E13EC05F008C0B5
:1013800000F009C001F0300E002647CAE1FF48CA4C
:10139000E2FF00C0E6FF0A01462B31D13ECAE9FF59
:1013A0003FCAEAFFEECF01F0EECF02F0800E006EF2
:1013B000800E0218005C02E101506308D8B093D09F
:1013C000110E006E000E016E40CA04F0000E056E94
:1013D00076EC05F0580E0026060E01224651002438
:1013E000476F000E0120486F3ECAE9FF3FCAEAFF7F
:1013F000EECF00F0EECF01F0640E046E000E056E2D
:1014000013EC05F0300E002647CAE1FF48CAE2FFA0
:1014100000C0E6FF0A01462B110E006E000E016EA1
:1014200040CA04F0000E056E76EC05F0580E00265A
:10143000060E012246510024476F000E0120486F1E
:101440003ECAE9FF3FCAEAFFEECF00F0EECF01F05F
:10145000640E046E000E056E13EC05F008C000F07B
:1014600009C001F00A0E046E000E056E13EC05F0C3
:10147000300E002647CAE1FF48CAE2FF00C0E6FF7F
:101480000A01462B110E006E000E016E40CA04F0D8
:10149000000E056E76EC05F0580E0026060E0122B1
:1014A00046510024476F000E0120486F3ECAE9FFF5
:1014B0003FCAEAFFEECF00F0EECF01F00A0E046E55
:1014C000000E056E13EC05F008C000F009C001F035
:1014D000300E002647CAE1FF48CAE2FF00C0E6FF1F
:1014E0000A01462B8CD03ECAE9FF3FCAEAFFEECF85
:1014F00001F0EECF02F0800E006E800E0218005C4C
:1015000002E1015009085DE2110E006E000E016E4D
:1015100040CA04F0000E056E76EC05F0580E002669
:10152000060E012246510024476F000E0120486F2D
:101530003ECAE9FF3FCAEAFFEECF00F0EECF01F06E
:101540000A0E046E000E056E13EC05F0300E002638
:1015500047CAE1FF48CAE2FF00C0E6FF0A01462B86
:10156000110E006E000E016E40CA04F0000E056EF2
:1015700076EC05F0580E0026060E01224651002496
:10158000476F000E0120486F3ECAE9FF3FCAEAFFDD
:10159000EECF00F0EECF01F00A0E046E000E056EE5
:1015A00013EC05F008C000F009C001F0300E002671
:1015B00047CAE1FF48CAE2FF00C0E6FF0A01462B26
:1015C0001ED0110E006E000E016E40CA04F0000E17
:1015D000056E76EC05F0580E0026060E01224651E7
:1015E0000024E16E000E0120E26E3ECAE9FF3FCA10
:1015F000EAFF300EEE24006E00C0E6FF462B110E0F
:10160000006E000E016E40CA04F0000E056E76EC0E
:1016100005F0580E0026060E012246510024E16E08
:10162000000E0120E26E200EE66E462B436B425107
:10163000435D3DE2110E006E000E016E40CA04F0E3
:10164000000E056E76EC05F0580E0026060E0122FF
:1016500046510024476F000E0120486F090E006EAE
:10166000000E016E026E036E41CA04F0000E056E9C
:10167000066E076ED4EC04F05A0E0026C30E01224B
:10168000010E022243510024F66E000E0120F76E77
:10169000000E0220F86E0900F5CF00F047CAE1FF06
:1016A00048CAE2FF00C0E6FF462B432BC0D712001A
:1016B0000A01486B436B100E435D18E2110E006E79
:1016C000000E016E40CA04F0000E056E76EC05F0C7
:1016D000580E0026060E012243510024E16E000E32
:1016E0000120E26E200EE66E432BE5D73ECAE9FFED
:1016F0003FCAEAFFEECF01F0EECF02F002507F0AC0
:1017000002E1FE0E01182BE1436B100E435D26E251
:10171000110E006E000E016E40CA04F0000E056E40
:1017200076EC05F0580E0026060E012243510024E7
:10173000E16E000E0120E26E5C0E4325F66E8F0E08
:10174000F76E000EF722010EF86E000EF822090067
:10175000F5CF00F000C0E6FF432BD7D72AD13ECA11
:10176000E9FF3FCAEAFFEECF00F0EECF01F00A0E2C
:10177000046E000E056E13EC05F000C044FA01C0C3
:1017800045FA3ECAE9FF3FCAEAFFEECF00F0EECFCE
:1017900001F00A0E046E000E056E13EC05F008C091
:1017A00000F009C001F000C046FA01C047FA800EFF
:1017B000006E800E0A014519005C02E144510908DF
:1017C00055E2110E006E000E016E40CA04F0000ECC
:1017D000056E76EC05F0580E0026060E01224851E3
:1017E0000024496F000E01204A6F0A0E046E000E9D
:1017F000056E44CA00F045CA01F013EC05F0300E46
:10180000002649CAE1FF4ACAE2FF00C0E6FF0A011A
:10181000482B110E006E000E016E40CA04F0000E3F
:10182000056E76EC05F0580E0026060E0122485192
:101830000024496F000E01204A6F0A0E046E000E4C
:10184000056E44CA00F045CA01F013EC05F008C06B
:1018500000F009C001F0300E002649CAE1FF4ACA73
:10186000E2FF00C0E6FF0A01482B1AD0110E006EFD
:10187000000E016E40CA04F0000E056E76EC05F015
:10188000580E0026060E012248510024E16E000E7B
:101890000120E26E300E4425006E00C0E6FF482BAA
:1018A000110E006E000E016E40CA04F0000E056EAF
:1018B00076EC05F0580E0026060E01224851002451
:1018C000E16E000E0120E26E2E0EE66E482B110E28
:1018D000006E000E016E40CA04F0000E056E76EC3C
:1018E00005F0580E0026060E012248510024E16E34
:1018F000000E0120E26E300E4625006E00C0E6FFAD
:10190000482B110E006E000E016E40CA04F0000E4E
:10191000056E76EC05F0580E0026060E01224851A1
:101920000024E16E000E0120E26E200EE66E482BD0
:10193000436B4251435D3DE2110E006E000E016E9D
:1019400040CA04F0000E056E76EC05F0580E002635
:10195000060E012248510024496F000E01204A6FF3
:10196000090E006E000E016E026E036E41CA04F095
:10197000000E056E066E076ED4EC04F05A0E0026BB
:10198000C30E0122010E022243510024F66E000E06
:101990000120F76E000E0220F86E0900F5CF00F06E
:1019A00049CAE1FF4ACAE2FF00C0E6FF482B432BC9
:0419B000C0D712008A
:0E19B400026A016A006A086A036A000E1200E5
:1019C2000A01436B446B000E445D02E14051435DEA
:1019D20014E243513E254E6F44513F214F6F435114
:1019E2004125E96E44514221EA6EEECF50FAB8EC3D
:0C19F20004F00A01434B442BE6D712001E
:1019FE000B820BAE09EF0DF00368026801680068F8
:081A0E000A360232FF0E12003D
:101A16000A01416B100E415D2EE241513E25426F97
:101A2600000E3F21436F110E006E000E016E026E16
:101A3600036E40CA04F0000E056E066E076ED4EC07
:101A460004F0140E0026930E0122010E02224151CB
:101A56000024F66E000E0120F76E000E0220F86ECE
:101A66000900F5CF00F042CAE1FF43CAE2FF00C019
:081A7600E6FF412BCFD712005F
:101A7E000B840BAE4AEF0DF0010E036E026A016A83
:0A1A8E00006A0A360232FF0E120051
:081A98000AAE029E000E1200CE
:101AA0000B6A0A6A096A086A0E6A03340836045027
:101AB000085E0550D8A0053C095E0650D8A0063C3B
:101AC0000A5E0750D8A0073C0B5EE86AD8A0010E5A
:101AD0000E5E0336070E0C6E0334083609360A36DE
:101AE0000B360E36045003A012D0085E0550D8A065
:101AF000053C095E0650D8A0063C0A5E0750D8A0F7
:101B0000073C0B5EE86AD8A0010E0E5E11D00826D5
:101B10000550D8B0053C09260650D8B0063C0A2628
:101B20000750D8B0073C0B26E86AD8B0010E0E2645
:101B300003360C2ED1D70234083609360A360B3656
:101B40000E36045003A012D0085E0550D8A0053C04
:101B5000095E0650D8A0063C0A5E0750D8A0073C94
:101B60000B5EE86AD8A0010E0E5E11D00826055063
:101B7000D8B0053C09260650D8B0063C0A260750C6
:101B8000D8B0073C0B26E86AD8B0010E0E26023604
:101B9000070E0C6E0234083609360A360B360E363E
:101BA000045002A012D0085E0550D8A0053C095E82
:101BB0000650D8A0063C0A5E0750D8A0073C0B5E32
:101BC000E86AD8A0010E0E5E11D008260550D8B0E4
:101BD000053C09260650D8B0063C0A260750D8B066
:101BE000073C0B26E86AD8B0010E0E2602360C2EF2
:101BF000D1D70134083609360A360B360E36045072
:101C000002A012D0085E0550D8A0053C095E06501F
:101C1000D8A0063C0A5E0750D8A0073C0B5EE86AD5
:101C2000D8A0010E0E5E11D008260550D8B0053C94
:101C300009260650D8B0063C0A260750D8B0073C03
:101C40000B26E86AD8B0010E0E260136070E0C6E80
:101C50000134083609360A360B360E36045001A018
:101C600012D0085E0550D8A0053C095E0650D8A0E9
:101C7000063C0A5E0750D8A0073C0B5EE86AD8A075
:101C8000010E0E5E11D008260550D8B0053C09267D
:101C90000650D8B0063C0A260750D8B0073C0B26A1
:101CA000E86AD8B0010E0E2601360C2ED1D70034CA
:101CB000083609360A360B360E36045001A012D00B
:101CC000085E0550D8A0053C095E0650D8A0063C29
:101CD0000A5E0750D8A0073C0B5EE86AD8A0010E48
:101CE0000E5E11D008260550D8B0053C09260650D6
:101CF000D8B0063C0A260750D8B0073C0B26E86A45
:101D0000D8B0010E0E260036070E0C6E00340836D1
:101D100009360A360B360E36045000A012D0085E83
:101D20000550D8A0053C095E0650D8A0063C0A5EC6
:101D30000750D8A0073C0B5EE86AD8A0010E0E5EE3
:101D400011D008260550D8B0053C09260650D8B059
:101D5000063C0A260750D8B0073C0B26E86AD8B0E4
:101D6000010E0E2600360C2ED1D700B00ED0045036
:101D700008260550D8B0053C09260650D8B0063CC8
:0C1D80000A260750D8B0073C0B261200C2
:101D8C000A013E51010A03E1010E426F05D03E519A
:101D9C00020A02E1C00E426F42CA4EFA40EC04F055
:101DAC000A01416B100E415D0DE241513F25E96E78
:101DBC00000E4021EA6EEECF4EFA86EC02F00A01DC
:061DCC00412BF0D71200CC
:101DD2000A013EBF02D08D9E01D08D8E3EBD02D043
:101DE2008D9C01D08D8C3EBB02D08D9A01D08D8A04
:101DF2003EB902D08D9801D08D880301F4B102D092
:101E02008E8A01D08E9A8E8E2AEC04F08E9E0A0162
:101E12003EB702D08D9E01D08D8E3EB502D08D9CF4
:101E220001D08D8C3EB302D08D9A01D08D8A3EB105
:101E320002D08D9801D08D880301F4B102D08E8A30
:101E420001D08E9A8E8E2AEC04F08E9EF4A103D0DD
:0C1E520035EC04F002D030EC04F012007B
:101E5E000CB071EF0FF00CA217EF10F00E6A000E1F
:101E6E00026488EF0FF0F00E0214D8A453EF0FF0B7
:101E7E00023A01380F0B02260138F00B016E0038C2
:101E8E000F0B01260038F00B006E08380F0B0026E2
:101E9E000838F00B086E0E84D89002BE6CEF0FF06F
:101EAE0008360036013602360E2A02BE6CEF0FF0EF
:101EBE0008360036013602360E2A02BE6CEF0FF0DF
:101ECE0008360036013602360E2A0E5003640DEF28
:101EDE0010F0035E0BBC08AE12EF10F0D880800E2F
:101EEE0008640030000E002201220222D8A012EF58
:101EFE0010F0023201320032034A17EF10F012EFE7
:101F0E0010F001C002F000C001F008C000F0086A35
:101F1E00000E0E860264BFEF0FF0F00E0214D8A46E
:101F2E00A7EF0FF0023A01380F0B02260138F00B23
:101F3E00016E00380F0B01260038F00B006E0E8478
:101F4E00D89002BE6CEF0FF00036013602360E2A24
:101F5E0002BE6CEF0FF00036013602360E2A02BEBC
:101F6E006CEF0FF00036013602360E2A6CEF0FF0D2
:101F7E0001C002F000C001F0006A000E0E960E883D
:101F8E000264ECEF0FF0F00E0214D8A4D7EF0FF0AE
:101F9E00023A01380F0B02260138F00B016E0E8447
:101FAE00D89002BE6CEF0FF0013602360E2A02BE3A
:101FBE006CEF0FF0013602360E2A02BE6CEF0FF0F8
:101FCE00013602360E2A6CEF0FF001C002F0016AE4
:101FDE00000E0E8602641CEF10F0F00E0214D8A450
:101FEE00FBEF0FF0023A0E84D89002BE6CEF0FF0AA
:101FFE0002360E2A02BE6CEF0FF002360E2A02BE19
:10200E006CEF0FF002360E2A6CEF0FF0010E0C6E15
:10201E002FDD1FEF10F0020E0C6E37DD1FEF10F0EC
:10202E00040E0C6EE5DC1FEF10F0080E0C6EBBDC20
:02203E0012008E
:102040000A012EB102D08B9801D08B88530E0D6EF1
:102050000D2EFED78B86530E0D6E0D2EFED78B9652
:0A206000530E0D6E0D2EFED7120078
:10206A00010E0A013E6F2ECA3FFA2FCA40FA89DED4
:10207A00020E3E6F30CA3FFA31CA40FA82DE0401CC
:10208A00F9AD29D00C0E0A013E6F9EDEC00E0A0180
:10209A003E6F9ADE0801ED51010819E20A01326B1E
:1020AA000801ED05016E026A000E025A800E006EEA
:1020BA00800E0218005C03E101500A01325D07E25A
:1020CA000A01140E3E6F80DE0A01322BE9D70A019B
:0820DA000F0E3E6F79DE1200CB
:1020E2009488530E0D6E0D2EFED78B86530E0D6EF9
:1020F2000D2EFED7000E82B8010E006E8B96530E87
:102102000D6E0D2EFED79498530E0D6E0D2EFED72A
:022112001200B9
:102114000A014E6B4F6BFDEC04F000C02EFA2E51F9
:10212400550A02E1006A08D04E6B4F6B550E506F92
:0A213400B8EC04F0010E006E12007A
:10213E000A012E6B020E2E5DD8B0FFEF14F08E0E3C
:10214E00006E000E016E2ECA04F0000E056E76ECC7
:10215E0005F0FA0E0026040E0122360E0026000EA1
:10216E000122020E0024E16E000E0120E26E0A0E24
:10217E00E66E000EE66E8E0E006E000E016E2ECA1C
:10218E0004F0000E056E76EC05F0FA0E0026040E35
:10219E000122360E0024E16E000E0120E26E320E98
:1021AE00E66E000EE66E8E0E006E000E016E2ECAEC
:1021BE0004F0000E056E76EC05F0FA0E0026040E05
:1021CE000122360E0026000E0122040E0026000EFD
:1021DE000122020E0024E16E000E0120E26E050EB9
:1021EE00E66E000EE66E8E0E006E000E016E2ECAAC
:1021FE0004F0000E056E76EC05F0FA0E0026040EC5
:10220E000122360E0026000E0122040E0024E16E7D
:10221E00000E0120E26E290EE66E000EE66E8E0EA8
:10222E00006E000E016E2ECA04F0000E056E76ECE6
:10223E0005F0FA0E0026040E0122360E0026000EC0
:10224E000122080E0026000E0122020E0024E16E6D
:10225E00000E0120E26EFF0EE66E7F0EE66E8E0E13
:10226E00006E000E016E2ECA04F0000E056E76ECA6
:10227E0005F0FA0E0026040E0122360E0026000E80
:10228E000122080E0024E16E000E0120E26EFF0E08
:10229E00E66E7F0EE66E8E0E006E000E016E2ECA7C
:1022AE0004F0000E056E76EC05F0FA0E0026040E14
:1022BE000122360E0026000E01220C0E0026000E04
:1022CE000122020E0024E16E000E0120E26E020ECB
:1022DE00E66E000EE66E8E0E006E000E016E2ECABB
:1022EE0004F0000E056E76EC05F0FA0E0026040ED4
:1022FE000122360E0026000E01220C0E0024E16E85
:10230E00000E0120E26E050EE66E000EE66E8E0EDB
:10231E00006E000E016E2ECA04F0000E056E76ECF5
:10232E0005F0FA0E0026040E0122360E0026000ECF
:10233E000122100E0024E16E000E0120E26EFF0E4F
:10234E00E66E7F0EE66E8E0E006E000E016E2ECACB
:10235E0004F0000E056E76EC05F0FA0E0026040E63
:10236E000122360E0026000E0122120E0024E16E0E
:10237E00000E0120E26EFF0EE66E7F0EE66E8E0EF2
:10238E00006E000E016E2ECA04F0000E056E76EC85
:10239E0005F0FA0E0026040E0122360E0026000E5F
:1023AE000122140E0024E16E000E0120E26E1E0EBC
:1023BE00E66E000EE66E8E0E006E000E016E2ECADA
:1023CE0004F0000E056E76EC05F0FA0E0026040EF3
:1023DE000122360E0026000E0122160E0024E16E9A
:1023EE00000E0120E26E320EE66E000EE66E8E0ECE
:1023FE00006E000E016E2ECA04F0000E056E76EC15
:10240E0005F0FA0E0026040E0122360E0026000EEE
:10241E000122180E0024E16E000E0120E26EFF0E66
:10242E00E66E7F0EE66E8E0E006E000E016E2ECAEA
:10243E0004F0000E056E76EC05F0FA0E0026040E82
:10244E000122360E0026000E01221A0E0024E16E25
:10245E00000E0120E26EFF0EE66E7F0EE66E8E0E11
:10246E00006E000E016E2ECA04F0000E056E76ECA4
:10247E0005F0FA0E0026040E0122360E0026000E7E
:10248E0001221C0E0024E16E000E0120E26EFF0EF2
:10249E00E66E7F0EE66E8E0E006E000E016E2ECA7A
:1024AE0004F0000E056E76EC05F0FA0E0026040E12
:1024BE000122360E0026000E01221E0E0024E16EB1
:1024CE00000E0120E26EFF0EE66E7F0EE66E8E0EA1
:1024DE00006E000E016E2ECA04F0000E056E76EC34
:1024EE0005F0FA0E0026040E0122360E0026000E0E
:1024FE000122200E0024E16E000E0120E26E180E65
:10250E00E66E000EE66E8E0E006E000E016E2ECA88
:10251E0004F0000E056E76EC05F0FA0E0026040EA1
:10252E000122360E0026000E0122220E0024E16E3C
:10253E00000E0120E26E780EE66E000EE66E8E0E36
:10254E00006E000E016E2ECA04F0000E056E76ECC3
:10255E0005F0FA0E0026040E0122360E0026000E9D
:10256E000122240E0024E16E000E0120E26E050E03
:10257E00E66E000EE66E8E0E006E000E016E2ECA18
:10258E0004F0000E056E76EC05F0FA0E0026040E31
:10259E000122360E0026000E0122260E0024E16EC8
:1025AE00000E0120E26E030EE66E000EE66E8E0E3B
:1025BE00006E000E016E2ECA04F0000E056E76EC53
:1025CE0005F0FA0E0026040E0122360E0026000E2D
:1025DE000122280E0024E16E000E0120E26E010E93
:1025EE00E66E000EE66E8E0E006E000E016E2ECAA8
:1025FE0004F0000E056E76EC05F0FA0E0026040EC1
:10260E000122360E0026000E01222A0E0024E16E53
:10261E00000E0120E26E030EE66E000EE66E8E0ECA
:10262E00006E000E016E2ECA04F0000E056E76ECE2
:10263E0005F0FA0E0026040E0122360E0026000EBC
:10264E0001222C0E0024E16E000E0120E26EFC0E23
:10265E00E66E7F0EE66E8E0E006E000E016E2ECAB8
:10266E0004F0000E056E76EC05F0FA0E0026040E50
:10267E000122360E0026000E01222E0E0024E16EDF
:10268E00000E0120E26EFC0EE66E7F0EE66E8E0EE2
:10269E00006E000E016E2ECA04F0000E056E76EC72
:1026AE0005F0FA0E0026040E0122360E0026000E4C
:1026BE000122300E0024E16E000E0120E26E020EA9
:1026CE00E66E000EE66E8E0E006E000E016E2ECAC7
:1026DE0004F0000E056E76EC05F0FA0E00243E6F47
:1026EE00040E01203F6F360E3E27000E3F23320EA2
:1026FE003E27000E3F23100E406F000E416F7FEC01
:10270E0008F08E0E006E000E016E2ECA04F0000E42
:10271E00056E76EC05F0FA0E0026040E0122360E3A
:10272E000026000E0122540E0024E16E000E012040
:10273E00E26EE6828E0E006E000E016E2ECA04F060
:10274E00000E056E76EC05F0FA0E0026040E012240
:10275E00360E0026000E0122540E0024E16E000EED
:10276E000120E26EE6948E0E006E000E016E2ECAF1
:10277E0004F0000E056E76EC05F0FA0E0026040E3F
:10278E000122360E0026000E0122540E0024E16EA8
:10279E00000E0120E26EE6968E0E006E000E016EA9
:1027AE002ECA04F0000E056E76EC05F0FA0E002629
:1027BE00040E0122360E0026000E0122540E0024B5
:1027CE00026E000E0120036E02C0E9FF03C0EAFF95
:1027DE00EECF00F08F0E001602C0E1FF03C0E2FF45
:1027EE0000C0E6FF8E0E006E000E016E2ECA04F0C3
:1027FE00000E056E76EC05F0FA0E0026040E012290
:10280E00360E0026000E0122540E0024E16E000E3C
:10281E000120E26EE69E8E0E006E000E016E2ECA36
:10282E0004F0000E056E76EC05F0FA0E0026040E8E
:10283E000122360E0026000E0122540E0024E16EF7
:10284E00000E0120E26EE6808E0E006E000E016E0E
:10285E002ECA04F0000E056E76EC05F0FA0E002678
:10286E00040E0122360E0026000E0122540E002602
:10287E00000E0122010E0024E16E000E0120E26E18
:10288E00E6828E0E006E000E016E2ECA04F0000E51
:10289E00056E76EC05F0FA0E0026040E0122360EB9
:1028AE000026000E0122540E0026000E0122010EFB
:1028BE000024026E000E0120036E02C0E9FF03C069
:1028CE00EAFFEECF01F0040E0118006E0C0E00169A
:1028DE000150001A02C0E1FF03C0E2FF00C0E6FF94
:1028EE008E0E006E000E016E2ECA04F0000E056EE6
:1028FE0076EC05F0FA0E0026040E0122360E0026A6
:10290E00000E0122540E0026000E0122020E00249B
:10291E00026E000E0120036E02C0E9FF03C0EAFF43
:10292E00EECF01F0020E0118006E030E00160150DC
:10293E00001A02C0E1FF03C0E2FF00C0E6FF8E0EE8
:10294E00006E000E016E2ECA04F0000E056E76ECBF
:10295E0005F0FA0E0026040E0122360E0026000E99
:10296E000122540E0026000E0122010E0024E16EFB
:10297E00000E0120E26EE68E8E0E006E000E016ECF
:10298E002ECA04F0000E056E76EC05F0FA0E002647
:10299E00040E0122360E0026000E0122540E0026D1
:1029AE00000E0122010E0024026E000E0120036EA5
:1029BE0002C0E9FF03C0EAFFEECF01F0300E0118AE
:1029CE00006E700E00160150001A02C0E1FF03C027
:1029DE00E2FF00C0E6FFE50EE16E080EE26E2E513C
:1029EE00E126D8B0E22A3F0EE66E2E2BA1EF10F0B4
:1029FE00720E3E6F050E3F6F100E406F000E416F50
:102A0E007FEC08F0720E3E6F050E3F6F4E0E406F5C
:102A1E000BEC0DF005018581010E0A013E6F000ED3
:102A2E003F6F580E406F300E416F050E426FE1EC56
:102A3E000CF0590E3E6F000E3F6F580E406FBE0EDB
:102A4E00416F050E426FE1EC0CF0B10E3E6F000EC1
:102A5E003F6F1E0E406F120E416F050E426FE1EC7E
:102A6E000CF0CF0E3E6F000E3F6F1E0E406FA00E8D
:102A7E00416F050E426FE1EC0CF0ED0E3E6F000E55
:102A8E003F6F510E406F5F0E416F090E426FE1ECCA
:042A9E000CF0120026
:102AA2000A012F51100F006E016A000E0122110E51
:102AB200046E000E056E76EC05F0580E00243E6F93
:102AC200060E01203F6F2ECA40FA0BEC0DF02E517C
:102AD200010A04E02E51020A01E00BD0850EE16EDC
:102AE200010EE26E2F51E126D8B0E22A010EE66E07
:102AF20010D02E51000A04E02E51030A01E009D041
:102B0200850EE16E010EE26E2F51E126D8B0E22A67
:102B1200E66A01018551000A05E18651000A02E1D7
:082B22008D9601D08D86120092
:102B2A00016A026A800E0218006E800E0A013219CA
:102B3A00005C02E13151015C0BE201502E25E16E8D
:102B4A0002502F21E26E30CAE6FF014A022AEAD772
:022B5A00120067
:102B5C00016A0A013251015C10E201503025E16E2C
:102B6C00000E3121E26E01502E25E96E000E2F2150
:0C2B7C00EA6EEECFE6FF012AECD7120053
:102B88002ECA00F02FCA01F0000E0A012FBFFF0E57
:102B9800026E036E120E046E000E056E066E076E50
:102BA800D4EC04F00A0E046E000E056E066E076E75
:0E2BB800D1EC07F0200E0026000E01221200C4
:102BC600200E0A012E5D006E000E2F59016E000EBA
:102BD60001BEFF0E026E036E0A0E046E000E056E37
:102BE600066E076ED4EC04F0120E046E000E056E2F
:0A2BF600066E076ED1EC07F0120026
:102C0000800E0A012F19006E800E005C02E1000E9A
:102C10002E5D08E22E510008006E2FCA01F0000E52
:0E2C2000015604D02ECA00F02FCA01F0120097
:102C2E00010E0A013E6F000E3F6F580E406F300EC0
:102C3E00416F050E426F9EEC05F0590E3E6F000E71
:102C4E003F6F580E406FBE0E416F050E426F9EECE9
:102C5E0005F0B10E3E6F000E3F6F1E0E406F120E4E
:102C6E00416F050E426F9EEC05F0CF0E3E6F000ECB
:102C7E003F6F1E0E406FA00E416F050E426F9EEC11
:102C8E0005F0ED0E3E6F000E3F6F510E406F5F0E62
:102C9E00416F090E426F9EEC05F0000E050184B1E6
:102CAE00010E0A012E6F8E0E006E000E016E93C184
:102CBE0004F0000E056E76EC05F0FA0E00243E6F61
:102CCE00040E01203F6F180E3E27000E3F232ECA22
:102CDE0000F0000E016E00360090013600503E27C7
:102CEE0001503F230C0E406F93C141FABEEC05F02C
:102CFE008E0E006E000E016E93C104F0000E056E76
:102D0E0076EC05F0FA0E00243E6F040E01203F6FA4
:102D1E00180E3E27000E3F23040E3E27000E3F23C3
:102D2E002ECA00F0000E016E0036009001360050E3
:102D3E003E2701503F230E0E406F93C141FABEEC69
:102D4E0005F08E0E006E000E016E93C104F0000EA3
:102D5E00056E76EC05F0FA0E00243E6F040E01208F
:102D6E003F6F180E3E27000E3F230A0E3E27000E21
:102D7E003F2301019351160F0A01406F050E416F5B
:102D8E00020E426F98EC08F08E0E006E000E016E71
:102D9E0093C104F0000E056E76EC05F0FA0E0024D9
:102DAE003E6F040E01203F6F180E3E27000E3F238C
:102DBE00080E3E27000E3F2301019351140F0A0106
:102DCE00406F040E416F010E426F58EC0BF08E0EE9
:102DDE00006E000E016E93C104F0000E056E76ECCF
:102DEE0005F0FA0E00243E6F040E01203F6F180E00
:102DFE003E27000E3F230C0E3E27000E3F230101FF
:102E0E009351200F0A01406F060E416F010E426F63
:102E1E0098EC08F08E0E006E000E016E93C104F059
:102E2E00000E056E76EC05F0FA0E00243E6F040ED1
:102E3E0001203F6F180E3E27000E3F230E0E3E2739
:102E4E00000E3F2301019351220F0A01406F060E1F
:0C2E5E00416F010E426F98EC08F012006A
:102E6A000A013B6B336B100E335D18E2110E006ED4
:102E7A00000E016E32CA04F0000E056E76EC05F003
:102E8A00580E0026060E012233510024E16E000E70
:102E9A000120E26E200EE66E332BE5D7000E006E9F
:102EAA00311908E10050301905E17F0E2F1902E1AE
:102EBA002E51FE0A0DE031517F0A08E13051FF0A16
:102ECA0005E12F51FF0A02E12E51FF0A01E02BD042
:102EDA00336B100E335D26E2110E006E000E016E8A
:102EEA0032CA04F0000E056E76EC05F0580E002684
:102EFA00060E012233510024E16E000E0120E26E1B
:102F0A005C0E3325F66E8F0EF76E000EF722010E59
:102F1A00F86E000EF8220900F5CF00F000C0E6FFB7
:102F2A00332BD7D756D232511A0A04E032511B0A30
:102F3A0001E003D0640E3A6F02D00A0E3A6F3ACA21
:102F4A0004F0000E056E066E076E2ECA00F02FCA38
:102F5A0001F030CA02F031CA03F050EC0DF000C0A3
:102F6A0034FA01C035FA02C036FA03C037FA3ACA4F
:102F7A0004F0000E056E066E076E2ECA00F02FCA08
:102F8A0001F030CA02F031CA03F050EC0DF008C06B
:102F9A0000F009C001F00AC002F00BC003F000C043
:102FAA0038FA01C039FA32511A0A04E032511B0ABE
:102FBA0001E017D0110E006E000E016E32CA04F045
:102FCA00000E056E76EC05F0580E0026060E01225C
:102FDA003B510024E16E000E0120E26E240EE66EE3
:102FEA003B2B336B080E335DD8B093D033CA00F055
:102FFA00000E016E026E036E003600900136023634
:10300A00033600360090013602360336E80E0024F5
:10301A00F66EC50E0120F76E010E0220F86E090049
:10302A00F5CF04F00900F5CF05F00900F5CF06F059
:10303A000900F5CF07F034CA00F035CA01F036CAE4
:10304A0002F037CA03F050EC0DF0005001100210E4
:10305A00031001E05ED033CA00F0000E016E026E6A
:10306A00036E0036009001360236033600360090B1
:10307A00013602360336E80E0024F66EC50E01202C
:10308A00F76E010E0220F86E0900F5CF04F0090070
:10309A00F5CF05F00900F5CF06F00900F5CF07F0E6
:1030AA0034CA00F035CA01F036CA02F037CA03F052
:1030BA0050EC0DF008C000F009C001F00AC002F09F
:1030CA000BC003F000C034FA01C035FA02C036FA68
:1030DA0003C037FA3351070A1AE1110E006E000EC7
:1030EA00016E32CA04F0000E056E76EC05F0580E39
:1030FA000026060E01223B510024E16E000E01203B
:10310A00E26E300E3425006E00C0E6FF3B2B332BF7
:10311A0069D7080E335DD8B08DD0110E006E000E3F
:10312A00016E32CA04F0000E056E76EC05F0580EF8
:10313A000026060E01223B5100243C6F000E01209E
:10314A003D6F33CA00F0000E016E026E036E003648
:10315A0000900136023603360036009001360236F8
:10316A000336E80E0024F66EC50E0120F76E010E36
:10317A000220F86E0900F5CF04F00900F5CF05F03A
:10318A000900F5CF06F00900F5CF07F034CA00F0C0
:10319A0035CA01F036CA02F037CA03F050EC0DF016
:1031AA00300E00263CCAE1FF3DCAE2FF00C0E6FF3E
:1031BA003B2B33CA00F0000E016E026E036E00361E
:1031CA000090013602360336003600900136023688
:1031DA000336E80E0024F66EC50E0120F76E010EC6
:1031EA000220F86E0900F5CF04F00900F5CF05F0CA
:1031FA000900F5CF06F00900F5CF07F034CA00F050
:10320A0035CA01F036CA02F037CA03F050EC0DF0A5
:10321A0008C000F009C001F00AC002F00BC003F0B8
:10322A0000C034FA01C035FA02C036FA03C037FAD0
:10323A00332B6FD7110E006E000E016E32CA04F0E6
:10324A00000E056E76EC05F0580E0026060E0122D9
:10325A003B510024E16E000E0120E26E2E0EE66E56
:10326A003B2B32511A0A04E032511B0A01E055D0B5
:10327A00110E006E000E016E32CA04F0000E056EC9
:10328A0076EC05F0580E0026060E01223B5100246A
:10329A003C6F000E01203D6F0A0E046E000E056E93
:1032AA0038CA00F039CA01F013EC05F0300E0026D6
:1032BA003CCAE1FF3DCAE2FF00C0E6FF0A013B2B20
:1032CA00110E006E000E016E32CA04F0000E056E79
:1032DA0076EC05F0580E0026060E01223B5100241A
:1032EA003C6F000E01203D6F0A0E046E000E056E43
:1032FA0038CA00F039CA01F013EC05F008C000F032
:10330A0009C001F0300E00263CCAE1FF3DCAE2FFC7
:10331A0000C0E6FF0A013B2B5CD0110E006E000EC6
:10332A00016E32CA04F0000E056E76EC05F0580EF6
:10333A000026060E01223B510024E16E000E0120F8
:10334A00E26E300E3825006E00C0E6FF3B2B110EF0
:10335A00006E000E016E32CA04F0000E056E76ECA5
:10336A0005F0580E0026060E01223B510024E16E9C
:10337A00000E0120E26E200EE66E3B2B336B030E2D
:10338A00335D27E2110E006E000E016E32CA04F0A0
:10339A00000E056E76EC05F0580E0026060E012288
:1033AA003B510024E16E000E0120E26EBD0E332572
:1033BA00F66EC30EF76E000EF722010EF86E000EBF
:1033CA00F8220900F5CF00F000C0E6FF3B2B332BB3
:0433DA00D6D7120030
:1033DE000A01346B336B100E335D18E2110E006E62
:1033EE00000E016E32CA04F0000E056E76EC05F08A
:1033FE00580E0026060E012233510024E16E000EF7
:10340E000120E26E200EE66E332BE5D73151000A15
:10341E0008E13051160A05E12F51E30A02E12E515F
:10342E00600A2BE1336B100E335D26E2110E006E37
:10343E00000E016E32CA04F0000E056E76EC05F039
:10344E00580E0026060E012233510024E16E000EA6
:10345E000120E26E5C0E3325F66E8F0EF76E000EB7
:10346E00F722010EF86E000EF8220900F5CF00F0DB
:10347E0000C0E6FF332BD7D76BD1336B080E335D0D
:10348E00D8B093D033CA00F0000E016E026E036EF8
:10349E0000360090013602360336003600900136B3
:1034AE0002360336E80E0024F66EC50E0120F76EC6
:1034BE00010E0220F86E0900F5CF04F00900F5CFD9
:1034CE0005F00900F5CF06F00900F5CF07F02ECA7A
:1034DE0000F02FCA01F030CA02F031CA03F050ECEE
:1034EE000DF0005001100210031001E05ED033CA3F
:1034FE0000F0000E016E026E036E00360090013673
:10350E000236033600360090013602360336E80ED8
:10351E000024F66EC50E0120F76E010E0220F86E25
:10352E000900F5CF04F00900F5CF05F00900F5CF3D
:10353E0006F00900F5CF07F02ECA00F02FCA01F0F1
:10354E0030CA02F031CA03F050EC0DF008C000F0A2
:10355E0009C001F00AC002F00BC003F000C02EFA41
:10356E0001C02FFA02C030FA03C031FA3351070AF4
:10357E001AE1110E006E000E016E32CA04F0000E3A
:10358E00056E76EC05F0580E0026060E012234511B
:10359E000024E16E000E0120E26E300E2E25006E2C
:1035AE0000C0E6FF342B332B69D7080E335DD8B03D
:1035BE008DD0110E006E000E016E32CA04F0000E98
:1035CE00056E76EC05F0580E0026060E01223451DB
:1035DE000024356F000E0120366F33CA00F0000E46
:1035EE00016E026E036E003600900136023603360F
:1035FE0000360090013602360336E80E0024F66ED1
:10360E00C50E0120F76E010E0220F86E0900F5CFEF
:10361E0004F00900F5CF05F00900F5CF06F009001A
:10362E00F5CF07F02ECA00F02FCA01F030CA02F013
:10363E0031CA03F050EC0DF0300E002635CAE1FF12
:10364E0036CAE2FF00C0E6FF342B33CA00F0000E8C
:10365E00016E026E036E003600900136023603369E
:10366E0000360090013602360336E80E0024F66E60
:10367E00C50E0120F76E010E0220F86E0900F5CF7F
:10368E0004F00900F5CF05F00900F5CF06F00900AA
:10369E00F5CF07F02ECA00F02FCA01F030CA02F0A3
:1036AE0031CA03F050EC0DF008C000F009C001F073
:1036BE000AC002F00BC003F000C02EFA01C02FFAB0
:1036CE0002C030FA03C031FA332B6FD7110E006EE1
:1036DE00000E016E32CA04F0000E056E76EC05F097
:1036EE00580E0026060E012234510024E16E000E03
:1036FE000120E26E200EE66E342B336B050E335D29
:10370E0027E2110E006E000E016E32CA04F0000E9A
:10371E00056E76EC05F0580E0026060E0122345189
:10372E000024E16E000E0120E26EA20E3325F66E2D
:10373E00C30EF76E000EF722010EF86E000EF82281
:10374E000900F5CF00F000C0E6FF342B332BD6D79F
:02375E00120057
:10376000EE0E0A012E6F080E2F6FDF0E306F030E64
:10377000316F100E326FAEEC15F0FE0E2E6F080E8C
:103780002F6FF70E306F030E316F100E326FAEECED
:1037900015F0EE0E3E6F080E3F6F530E406F0BECB0
:1037A0000DF0FE0E3E6F080E3F6F100E406F000EC4
:0E37B000416F7FEC08F0010E0001FF6F120068
:1037BE00086A080E0C6E003408360450085ED8B045
:0E37CE0002D00826D89000360C2EF5D7120037
:1037DC00EE0E0A012E6F080E2F6FFE0E306F080EC4
:0837EC00316F35EC10F0120002
:1037F400000E050184B1010E0A01216F215319E065
:103804001FCA22FA20CA23FA020E1F25E96E000EEF
:103814002021EA6EEECF2EFAEECF2FFAC4EC15F08B
:1038240022CAE1FF23CAE2FF00C0E6FF01C0E6FFAF
:1038340019D0020E0A011F25226F000E2021236FCA
:103844001FCAE9FF20CAEAFFEECF2EFAEECF2FFA05
:10385400E3EC15F022CAE1FF23CAE2FF00C0E6FF51
:0638640001C0E6FF1200A6
:10386A008B86530E0D6E0D2EFED78B88530E0D6E62
:06387A000D2EFED7120026
:103880008B98530E0D6E0D2EFED78B96530E0D6E2C
:063890000D2EFED7120010
:103896008B86530E0D6E0D2EFED7000E82B8010ECE
:1038A600016E8B96530E0D6E0D2EFED701C000F0E5
:0238B6001200FE
:1038B8000A01206B080E205D19E220CA00F01FCA19
:1038C80002F0000E036E005005E002360290033647
:1038D800FF0FFAD702AE03D0010E216F01D0216B82
:1038E80021CA2EFA20EC10F0202BE4D771EC10F04E
:0238F8001200BC
:1038FA009498530E0D6E0D2EFED70A011FB102D0F9
:10390A008B9801D08B88530E0D6E0D2EFED78B86A9
:10391A00530E0D6E0D2EFED78B96530E0D6E0D2E79
:04392A00FED71200B2
:10392E000A01226B100E225D2EE222511F25236FFB
:10393E00000E2021246F140E006E000E016E026E1A
:10394E00036E21CA04F0000E056E066E076ED4ECEF
:10395E0004F0500E0026C20E0122010E0222225148
:10396E000024F66E000E0120F76E000E0220F86E97
:10397E000900F5CF00F023CAE1FF24CAE2FF00C020
:08398E00E6FF222BCFD7120047
:1039960023CA28FA24CA29FA0A01255305E0590E32
:1039A600266F000E276F06D0010E1F25266F000E0C
:1039B6002021276F26CA3EFA27CA3FFA21CA40FAB3
:0E39C60028CA41FA29CA42FAE1EC0CF01200BC
:1039D400020E0A012125E16E000E2221E26E020E82
:1039E4001F25E96E000E2021EA6EEECFE6FFEECF32
:1039F400E6FF21CAE1FF22CAE2FF1FCAE9FF20CA8B
:0C3A0400EAFFEECFE6FFEECFE6FF120077
:103A1000FA0E0A012E6F040E2F6F306B8E0E316F6F
:103A2000000E326F95EC15F0880E2E6F050E2F6F7D
:103A3000306B8E0E316F000E326F95EC15F0160E56
:103A40002E6F040E2F6F306B580E316F000E326FD9
:103A500095EC15F0420E2E6F060E2F6F306B160E82
:103A6000316F000E326F95EC15F00E0E2E6F090EB1
:103A70002F6F306BA20E316F000E326F95EC15F088
:103A8000090E2E6F040E2F6F306B050E316F000E76
:103A9000326F95EC15F0BF0E2E6F030E2F6F306B4B
:103AA0000C0E316F000E326F95EC15F0CB0E2E6FB1
:103AB000030E2F6F306B0C0E316F000E326F95ECD2
:103AC00015F0E70E2E6F080E2F6F306B030E316F5F
:103AD000000E326F95EC15F0EA0E2E6F080E2F6F68
:103AE000306B030E316F000E326F95EC15F0A90E9E
:103AF0002E6F030E2F6F306B0B0E316F000E326F77
:103B000095EC15F0B40E2E6F030E2F6F306B0B0E6D
:103B1000316F000E326F95EC15F0910E2E6F030E83
:103B20002F6F306B050E316F000E326F95EC15F074
:103B30009B0E2E6F030E2F6F306B050E316F000E34
:103B4000326F95EC15F07F0E2E6F030E2F6F306BDA
:103B5000060E316F000E326F95EC15F0850E2E6F4C
:103B6000030E2F6F306B060E316F000E326F95EC27
:103B700015F08B0E2E6F030E2F6F306B060E316F0C
:103B8000000E326F95EC15F0580E3E6F060E3F6F2B
:103B9000860E406F020E416F7FEC08F00301A56BAB
:103BA000A66BDB6BDC6BA76BA86BDD6BDE6B050EAE
:103BB000AA6F050EB56F0401F66BF76BF86BF96B26
:103BC0008AEC10F0005203E09FEC10F002D017ECEA
:103BD00016F0010E0301AB6F010EB66F3F0E080128
:103BE000E56F3F0EE66F050184A507D0030E0A01BD
:103BF0002E6F2F6B51EC15F005D00A012E6B2F6B39
:103C000051EC15F0060112A508D0030E0A012E6F23
:103C1000010E2F6F51EC15F006D00A012E6B010E2C
:103C20002F6F51EC15F0DB0E0A013E6F030E3F6F54
:103C3000120E406F090E416F010E426F98EC08F0B2
:103C4000DB0E3E6F030E3F6F180E406F0B0E416F81
:103C5000030E426F98EC08F0DB0E3E6F030E3F6FD1
:103C6000240E406F090E416F010E426F98EC08F070
:103C7000DD0E3E6F030E3F6F130E406F090E416F56
:103C8000010E426F98EC08F0DD0E3E6F030E3F6FA1
:103C9000190E406F0B0E416F030E426F98EC08F047
:103CA000DD0E3E6F030E3F6F250E406F090E416F14
:103CB000010E426F98EC08F02E6B2F6B306B316B5E
:103CC000326BEFEC19F02E6B2F6B306B316B010EFA
:103CD000326FEFEC19F02E6B2F6B306B316B1A0ECD
:103CE000326F35EC17F02E6B2F6B306B316B1B0E78
:103CF000326F35EC17F00E0E3E6F090E3F6F1C0E43
:103D0000406F0C0E416F070E426F98EC08F00101F6
:103D1000966B976B986B996BAD6BAE6BAF6BB06B33
:103D2000B16B0301F66B010E01012F6FF00E0A015A
:103D30003E6F020E3F6F010E406F2E0E416F010E5F
:103D4000426F9EEC05F0F10E3E6F020E3F6F010ECA
:103D5000406F300E416F010E426F9EEC05F0190E60
:103D60000301F06F8B948B9A010EEF6F030E050128
:103D70008615016E0150010A09E1020E8619006ED6
:103D8000030E00168651001A00C086F5030E0601C8
:103D90001415016E0150010A09E1020E1419006E9A
:0E3DA000030E00161451001A00C014F6120093
:103DAE000A01236B100E235D14E223511F25E96EC9
:103DBE00000E2021EA6E23512125D96E000E2221FC
:103DCE00DA6EEE50DE1802E1232B02D0006A03D029
:083DDE00E9D7010E006E12008E
:103DE600026A5E0E025C1FE2480EE96E040EEA6E7F
:103DF60004016851E926D8B0EA2A400E0224F66E7C
:103E0600C50EF76E000EF722010EF86E000EF822B0
:103E16000900F5CF01F0EE50011803E102C000F0F1
:083E260002D0022ADED71200CF
:063E2E000401F78F1200F1
:103E34000A01286B296B2A6B2B6B23CA3EFA24CA0E
:103E44003FFA100E406F000E416F7FEC08F0130E26
:103E5400006E000E016E026E036E41C604F0000E89
:103E6400056E066E076ED4EC04F0260E0026A90E2D
:103E74000122010E0222100E0024F66E000E012013
:103E8400F76E000E0220F86E0900F5CF01F001C0B4
:103E940026FA01AE23D07F0E2615006E000E016EA9
:103EA400026E036E090E046E000E056E066E076E3A
:103EB400D4EC04F0DC0E0024F66EC20E0120F76E82
:103EC400010E0220F86E0900F5CF00F023CAE1FFCD
:103ED40024CAE2FF00C0E6FF234B242B800E2219E4
:103EE400006E800E005C08E1000E215D05E1000E0D
:103EF400205D02E1000E1F5D08E223CAE1FF24CA2F
:103F0400E2FF2D0EE66E234B242B1FCA2EFA20CA85
:103F14002FFA00EC16F000C01FFA01C020FA000EC0
:103F240001BEFF0E216F226F276B080E275DD8B0EC
:103F340093D12A533BE027CA00F0000E016E026EB3
:103F4400036E0036009001360236033600360090C8
:103F5400013602360336C80E0024F66EC50E012063
:103F6400F76E010E0220F86E0900F5CF04F0090087
:103F7400F5CF05F00900F5CF06F00900F5CF07F0FD
:103F84001FCA00F020CA01F021CA02F022CA03F0BD
:103F9400D1EC07F0300E002623CAE1FF24CAE2FF69
:103FA40000C0E6FF0A01234B242BF8D027CA00F0F7
:103FB400000E016E026E036E00360090013602366A
:103FC400033600360090013602360336C80E00244C
:103FD400F66EC50E0120F76E010E0220F86E090080
:103FE400F5CF04F00900F5CF05F00900F5CF06F090
:103FF4000900F5CF07F01FCA00F020CA01F021CA5A
:1040040002F022CA03F0D1EC07F0005001100210B4
:1040140003103EE0010E0A012A6F27CA00F0000EC9
:10402400016E026E036E00360090013602360336CE
:1040340000360090013602360336C80E0024F66EB0
:10404400C50E0120F76E010E0220F86E0900F5CFAF
:1040540004F00900F5CF05F00900F5CF06F00900DA
:10406400F5CF07F01FCA00F020CA01F021CA02F000
:1040740022CA03F0D1EC07F0300E002623CAE1FF78
:1040840024CAE2FF00C0E6FF0A01234B242B86D09A
:104094000A012B533AE027CA00F0000E016E026EAB
:1040A400036E003600900136023603360036009067
:1040B400013602360336C80E0024F66EC50E012002
:1040C400F76E010E0220F86E0900F5CF04F0090026
:1040D400F5CF05F00900F5CF06F00900F5CF07F09C
:1040E4001FCA00F020CA01F021CA02F022CA03F05C
:1040F400D1EC07F0300E002623CAE1FF24CAE2FF08
:1041040000C0E6FF0A01234B242B27512525016E0D
:10411400000E25BFFF0E026E000E0222000E0218D2
:1041240002E1070E01183AE127CA00F0000E016E01
:10413400026E036E003600900136023603360036F6
:104144000090013602360336C80E0024F66EC50E02
:104154000120F76E010E0220F86E0900F5CF04F07D
:104164000900F5CF05F00900F5CF06F00900F5CFF9
:1041740007F01FCA00F020CA01F021CA02F022CAC7
:1041840003F0D1EC07F0300E002623CAE1FF24CA65
:10419400E2FF00C0E6FF0A01234B242B27CA00F0EC
:1041A400000E016E026E036E003600900136023678
:1041B400033600360090013602360336C80E00245A
:1041C400F66EC50E0120F76E010E0220F86E09008E
:1041D400F5CF04F00900F5CF05F00900F5CF06F09E
:1041E4000900F5CF07F01FCA00F020CA01F021CA68
:1041F40002F022CA03F0D1EC07F008C000F009C0B5
:1042040001F00AC002F00BC003F000C01FFA01C0A5
:1042140020FA02C021FA03C022FA0A0127512525F7
:10422400016E000E25BFFF0E026E000E0222000E6C
:10423400021802E1070E01180DE12551000A0AE0F7
:1042440023CAE1FF24CAE2FF2E0EE66E234B242B81
:10425400010E2B6F272B69D626BF65D0286B2651FC
:10426400020A07E1006A050184B1002A00500A012C
:10427400262723CAE1FF24CAE2FF200EE66E234B61
:10428400242B090E006E000E016E026E036E26CA08
:1042940004F0000E056E066E076ED4EC04F0DC0E1E
:1042A4000026C20E0122010E022228510024F66EBD
:1042B400000E0120F76E000E0220F86E0900F5CF03
:1042C40001F00150200A2FE0295123252C6F000E04
:1042D40024212D6F090E006E000E016E026E036E16
:1042E40026CA04F0000E056E066E076ED4EC04F0C8
:1042F400DC0E0026C20E0122010E022228510024E7
:10430400F66E000E0120F76E000E0220F86E090012
:10431400F5CF00F02CCAE1FF2DCAE2FF00C0E6FF92
:08432400282B292BAED7120053
:10432C00000E050184B1010E056E05524DE0020E22
:10433C000A011F25E96E000E2021EA6EEECF03F074
:10434C00EECF04F003C000F004C001F00036009082
:10435C0001361FCAE1FF20CAE2FF00C0E6FF01C020
:10436C00E6FF1FCAE9FF20CAEAFFEECF01F0EECF4D
:10437C0002F0800E006E800E0218005C02E101500B
:10438C000A0808E21FCAE1FF20CAE2FF0A0EE66E25
:10439C00000EE66E1FCAE9FF20CAEAFFEECF01F05D
:1043AC00EECF02F0800E0218006E800E005C02E16F
:1043BC00010E015C08E21FCAE1FF20CAE2FF010EF8
:1043CC00E66E000EE66E56D00A01020E1F25E16E57
:1043DC00000E2021E26E1FCAE9FF20CAEAFFEECFD1
:1043EC0003F0EECF04F003C000F004C001F0013282
:1043FC000032019E01BC018E00C0E6FF01C0E6FF49
:10440C00020E1F25E96E000E2021EA6EEECF01F0A0
:10441C00EECF02F0800E006E800E0218005C02E1FE
:10442C00015005080AE2020E1F25E16E000E202144
:10443C00E26E050EE66E000EE66E020E1F25E96EAC
:10444C00000E2021EA6EEECF01F0EECF02F0800ECE
:10445C000218006E800E005C02E1010E015C0AE2A3
:10446C00020E1F25E16E000E2021E26E010EE66E9B
:06447C00000EE66E1200C6
:104482008E0E006E000E016E1FCA04F0000E056E45
:1044920076EC05F0FA0E0026040E0122360E0026F6
:1044A200000E0122540E0024E96E000E0120EA6E75
:1044B200EECF00F000B602D0006A02D0010E006E0C
:0244C2001200E6
:1044C4000C6A0E6A0250D8A47BEF22F001C002F0FD
:1044D40000C001F0006A0E860250D8A47BEF22F0DF
:1044E40001C002F0016A0E960E880250D8B48DEF16
:1044F40022F00E50035ED8A4D8A093EF22F0D890F7
:1045040002BE99EF22F0003601360236032E82EF06
:1045140022F093EF22F0010E0C6EDAEC0CF09DEF1A
:1045240022F0020E0C6E3FEC0DF09DEF22F0040E13
:084534000C6E4CEC0DF01200BE
:10453C00025006180E6E086A096A0B6A035007646B
:10454C0091EF23F006500A6E068E028E03500B6E0E
:10455C000750036E000E0B64E1EF22F00B50075E68
:10456C00D8B482EF23F0070E076450EF23F0075EF8
:10457C0000C008F001C000F002C001F0026A074E52
:10458C0082EF23F0076425EF23F0075E00C008F0EC
:10459C0001C000F0016A074E82EF23F0076403EFBD
:1045AC0023F0075E00C008F0006A074E82EF23F08C
:1045BC000764EAEF22F00AC002F005C001F004C063
:1045CC0000F0086AAEEF24F0030E0764F5EF22F05A
:1045DC00075E08380F0B086E074E82EF23F0D89059
:1045EC000832074E82EF23F0D8900832074E82EF44
:1045FC0023F0D890083282EF23F0030E076414EFF7
:10460C0023F0075E08380F0B086E0038F00B0826F5
:10461C0000380F0B006E074E82EF23F0D89000325B
:10462C000832074E82EF23F0D89000320832074E42
:10463C0082EF23F0D8900032083282EF23F0030E81
:10464C0007643CEF23F0075E08380F0B086E003848
:10465C00F00B082600380F0B006E0138F00B00260B
:10466C0001380F0B016E074E82EF23F0D890013208
:10467C0000320832074E82EF23F0D890013200321C
:10468C000832074E82EF23F0D89001320032083204
:10469C0082EF23F0030E07646DEF23F0075E0838FA
:1046AC000F0B086E0038F00B082600380F0B006E4D
:1046BC000138F00B002601380F0B016E0238F00B9D
:1046CC00012602380F0B026E074E82EF23F0D890B2
:1046DC000232013200320832074E82EF23F0D890BA
:1046EC000232013200320832074E82EF23F0D890AA
:1046FC000232013200320832096A000E0EAE76EF39
:10470C0024F0081E001E011E021E082A002201228F
:10471C00022276EF24F00750D8A497EF23F0AEEFE7
:10472C0024F0096A02C00AF0028E068E0750035C60
:10473C00076ED8B469EF24F0070E076437EF24F046
:10474C00075E0450096E0550046E0650056E066A2D
:10475C00074E69EF24F0070E07640CEF24F0075E98
:10476C000450096E0550046E056A074E69EF24F07B
:10477C00070E0764EAEF23F0075E0450096E046A23
:10478C00074E69EF24F0070E0764D1EF23F00AC03F
:10479C0002F0AEEF24F0030E0764DCEF23F0075EAB
:1047AC0009380F0B096E074E69EF24F0D8900932C7
:1047BC00074E69EF24F0D8900932074E69EF24F0C8
:1047CC00D890093269EF24F0030E0764FBEF23F055
:1047DC00075E09380F0B096E0438F00B09260438F4
:1047EC000F0B046E074E69EF24F0D8900432093297
:1047FC00074E69EF24F0D89004320932074E69EF66
:10480C0024F0D8900432093269EF24F0030E0764C7
:10481C0023EF24F0075E09380F0B096E0438F00BF8
:10482C00092604380F0B046E0538F00B04260538E6
:10483C000F0B056E074E69EF24F0D8900532043249
:10484C000932074E69EF24F0D89005320432093250
:10485C00074E69EF24F0D89005320432093269EF23
:10486C0024F0030E076454EF24F0075E09380F0B95
:10487C00096E0438F00B092604380F0B046E05384A
:10488C00F00B042605380F0B056E0638F00B0526C9
:10489C0006380F0B066E074E69EF24F0D8900632DF
:1048AC00053204320932074E69EF24F0D8900632F3
:1048BC00053204320932074E69EF24F0D8900632E3
:1048CC00053204320932086A000E0EAE76EF24F07F
:1048DC00091E041E051E061E092A04220522062294
:1048EC0009500826045000220550012206500222CD
:1048FC000EBE8DEF24F0D8A09CEF24F002320132D2
:10490C0000320832033E9CEF24F0A8EF24F0D8B01C
:10491C00A2EF24F0000E081E001E011E021E082A23
:10492C000022012202220A7EA2EF24F0010E0C6E5C
:10493C002FEC0FF0B0EF24F0020E0C6E2FEC0FF0FA
:10494C00B0EF24F0040E0C6EFFEC0CF0B0EF24F082
:06495C00000E0C6E1200BB
:084962000B6A0B86FF0E120028
:10496A000B800BAEC1EF24F0026A0AAEFF0E026E94
:0C497A00016E006E0A360232FF0E1200C1
:104986000B6A0C6A086A0350D8B447EF25F002C0D8
:104996000AF0028E9E0E035E03AE37EF25F0036C1F
:1049A600080E035CD8A004EF25F0036E083600C09D
:1049B60008F001C000F002C001F0026A080E035CB4
:1049C600D8A004EF25F0036E083600C008F001C039
:1049D60000F0016A080E035CD8A004EF25F0036E10
:1049E600083600C008F0006A080E035CD8A004EF81
:1049F60025F0036E0836086A0350D8A4D89010EF45
:104A060025F00350D8B410EF25F0D89002320132C9
:104A160000320832032E08EF25F00BBC08A021EF68
:104A260025F0D8A021EF25F0082AD8B4002AD8B45A
:104A3600012AD8B4022A02BE4BEF25F00AAE47EF90
:104A460025F0021E011E001E081E082AD8B4002AE0
:104A5600D8B4012AD8B4022A47EF25F0026A016ABF
:104A6600006A086A47EF25F00B800BAE51EF25F080
:104A7600026A0AAE51EF25F0026E016E006E086EF4
:104A86000A36023251EF25F00C6A000E52EF25F07D
:104A9600010E0C6E000E66DF52EF25F0FF0E02507F
:104AA600036E0150026E0050016E0850006E120037
:104AB6000FCA3EFA10CA3FFA100E0A01406F000EE6
:104AC600416F7FEC08F01151090821E20A0E046ECD
:104AD60011CA00F0DFEC1BF00FCAE1FF10CAE2FFBB
:104AE600300E0024E66E0F4B102B0A0E046E11CA10
:104AF60000F0DFEC1BF008C000F00FCAE1FF10CA9F
:104B0600E2FF300E0024E66E0F4B102B09D00FCAC1
:104B1600E1FF10CAE2FF300E1125E66E0F4B102B97
:104B26000FCAE1FF10CAE2FF2F0EE66E0F4B102BE5
:104B36001551010A2DE11251090821E20A0E046EEF
:104B460012CA00F0DFEC1BF00FCAE1FF10CAE2FF49
:104B5600300E0024E66E0F4B102B0A0E046E12CA9E
:104B660000F0DFEC1BF008C000F00FCAE1FF10CA2E
:104B7600E2FF300E0024E66E0F4B102B09D00FCA51
:104B8600E1FF10CAE2FF300E1225E66E0F4B102B26
:104B96000901FF6B0A0114510901FF5D30E2FF5163
:104BA6000A010F25166F000E1021176F090E006EF1
:104BB600000E016E026E036E13CA04F0000E056E3F
:104BC600066E076ED4EC04F05A0E0026C30E0122C0
:104BD600010E02220901FF510024F66E000E01208B
:104BE600F76E000E0220F86E0900F5CF00F016CA27
:104BF600E1FF17CAE2FF00C0E6FFFF2BCBD712008A
:104C06000A011051010AD8A43FD1050185B101D08E
:104C1600D4D101018D51010AD8A41AD18D6B8F51BF
:104C2600000A14E1EE0E0A013E6F080E3F6F540EA5
:104C3600406F0BEC0DF0FE0E3E6F080E3F6F040E3C
:104C4600406F0BEC0DF001018F2B01D18F6B130E12
:104C5600006E000E016E026E036E41C604F0000E79
:104C6600056E066E076ED4EC04F0260E0026A90E1D
:104C76000122010E0222040E0024F66E000E01200F
:104C8600F76E000E0220F86E0900F5CF01F0015014
:104C9600050AD8A499D0120E0A012E6F050E2F6FA1
:104CA600306B1E0E316F000E326F95EC15F0A00EB4
:104CB6002E6F050E2F6F306B1E0E316F000E326F8A
:104CC60095EC15F00A0E0901FF6F140EFF5D1AE24E
:104CD600110E006E000E016EFFC904F0000E056E87
:104CE60076EC05F0580E00240A013E6F060E0120F0
:104CF6003F6F100E406F000E416F7FEC08F0090108
:104D0600FF2BE3D73F0E0801E56F3F0EE66F220E3D
:104D16000A013E6F050E3F6F180E406F0B0E416F76
:104D2600030E426F98EC08F0B00E3E6F050E3F6F13
:104D3600180E406F0B0E416F030E426F98EC08F091
:104D46002C0E3E6F050E3F6F180E406F0B0E416F17
:104D5600030E426F98EC08F0BA0E3E6F050E3F6FD9
:104D6600180E406F0B0E416F030E426F98EC08F061
:104D76002E6B2F6B306B316B1A0E326F35EC17F0D2
:104D86002E6B2F6B306B316B326BEFEC19F02E6B99
:104D96002F6B306B316B1B0E326F35EC17F02E6BB1
:104DA6002F6B306B316B010E326FEFEC19F00E0E7C
:104DB6003E6F090E3F6F1C0E406F0C0E416F070EC3
:104DC600426F98EC08F02BD0130E006E000E016EA9
:104DD600026E036E41C604F0000E056E066E076E87
:104DE600D4EC04F0260E0026A90E0122010E0222A2
:104DF600040E0024F66E000E0120F76E000E02204F
:104E0600F86E0900F5CF01F00150070A08E10A0122
:104E16004E6B4F6B506BB8EC04F008EC1DF0EE0EC9
:104E26000A013E6F080E3F6F550E406F0BEC0DF0FA
:104E3600FE0E3E6F080E3F6F100E406F000E416F64
:104E46007FEC08F0010E0001FF6F01019A6B1BD089
:104E56008F6B8D6BDF0E0A012E6F030E2F6FEE0E1A
:104E6600306F080E316F100E326FAEEC15F0F70E84
:104E76002E6F030E2F6FFE0E306F080E316F100E61
:104E8600326FAEEC15F099D00A011051020A5EE1BC
:104E960001018F6B8D6B0901FF6B100EFF5D34E214
:104EA600EE0E0A01116F080E126F0901FF510A0179
:104EB6001127D8B0122B110E006E000E016E026E75
:104EC600036E41C604F0000E056E066E076ED4EC46
:104ED60004F0B50E0026BA0E0122010E02220901C7
:104EE600FF510024F66E000E0120F76E000E022020
:104EF600F86E0900F5CF00F011CAE1FF12CAE2FF11
:104F060000C0E6FFFF2BC9D7FE0E0A013E6F080E52
:104F16003F6F040E406F0BEC0DF0EE0E2E6F080E79
:104F26002F6FDF0E306F030E316F100E326FAEEC47
:104F360015F0FE0E2E6F080E2F6FF70E306F030E54
:104F4600316F100E326FAEEC15F037D01051040AE7
:104F560034E1050185B101D030D00A010F5307E0D5
:104F660001018D51000A02E1010E8D6F04D001018D
:104F76008D53D8A48D6B8F51010A09E1EE0E0A01FB
:104F86003E6F080E3F6F540E406F0BEC0DF00101A3
:104F96008D530AE0FE0E0A013E6F080E3F6F050EA6
:104FA600406F0BEC0DF009D00A01FE0E3E6F080EA5
:0C4FB6003F6F040E406F0BEC0DF012007A
:104FC2000A011051010AD8A405D1050185B101D009
:104FD20019D201018753D8B4FBD08E51000A16E1D1
:104FE2000401686B696B010E01018E6FEE0E0A01FE
:104FF2001F6F080E206F010E216F97EC1CF0040149
:10500200F787F98D010E0801ED6FCCD001018E51A9
:10501200010A3BE1580E0A011F6F040E206F720E47
:10502200216F050E226FD7EC1EF0005215E004012D
:10503200686B696B020E01018E6FEE0E0A011F6F23
:10504200080E206F020E216F97EC1CF00401F98DFF
:10505200010E0801ED6F18D0EE0E0A011F6F080E47
:10506200206F050E216F97EC1CF001018E6B876B90
:105072000401F797010E0001FF6F0401F99D0C0E68
:105082000A013E6FE9EC0EF08DD001018E51020A49
:105092003EE1030E0401685D19E2EE0E0A011F6F84
:1050A200080E206F050E216F97EC1CF001018E6B2C
:1050B200876B0401F797010E0001FF6F0401F99D50
:1050C2000C0E0A013E6FE9EC0EF020D00401686B71
:1050D200696B030E01018E6F580E0A012E6F040ECA
:1050E2002F6F6E0E306F040E316F100E326FAEECFA
:1050F20015F0EE0E1F6F080E206F8EC121FA97EC8D
:105102001CF00401F98D010E0801ED6F4BD0010175
:105112008E51030A47E16E0E0A011F6F040E206FC3
:10512200580E216F040E226FD7EC1EF0005220E0C1
:10513200040E01018E6F580E0A012E6F040E2F6F9E
:10514200720E306F050E316F100E326FAEEC15F02D
:10515200420E1F6F000E206F100E216F000E226F85
:10516200720E236F050E246F256BCBEC1CF003D05F
:10517200060E01018E6FEE0E0A011F6F080E206FE0
:105182008EC121FA97EC1CF001018E6B876B010E28
:105192000001FF6F0401F99DF7970C0E0A013E6FA3
:1051A200E9EC0EF0FE0E0A013E6F080E3F6F100E84
:1051B200406F000E416F7FEC08F0580E3E6F040EF8
:1051C2003F6F100E406F000E416F7FEC08F001D070
:1051D20019D118D10A011051020A3FE101018E6B67
:1051E200876B0401F797EE0E0A011F6F080E206FFE
:1051F200216B97EC1CF0FE0E3E6F080E3F6F040E03
:10520200406F0BEC0DF0EE0E2E6F080E2F6FDF0EBF
:10521200306F030E316F100E326FAEEC15F0FE0ED2
:105222002E6F080E2F6FF70E306F030E316F100EB8
:10523200326FAEEC15F0580E3E6F040E3F6F100E3B
:10524200406F000E416F7FEC08F00401F99D0C0ED7
:105252000A013E6FE9EC0EF0D5D00A011051030AA3
:1052620043E1050185B101D0CDD0EE0E0A011F6FD9
:10527200080E206F8EC121FA97EC1CF0FE0EE96E2B
:10528200080EEA6E04016851E926D8B0EA2AEE5007
:10529200200A29E0FE0EE16E080EE26E6851E12658
:1052A200D8B0E22A2A0EE66E0A010F51010A14E171
:1052B200100E0401685D10E2580EE96E040EEA6EEB
:1052C2006851E926D8B0EA2AEE50200A05E0685172
:1052D200010F006E00C068F40401696BF98D68511A
:1052E200010F0801ED6F8ED00A011051040AD8A4F3
:1052F20089D0050185B101D085D001018E51000A06
:105302001BE1010E8719006E00C087F100520AE00E
:10531200FE0E0A013E6F080E3F6F050E406F0BEC4A
:105322000DF009D00A01FE0E3E6F080E3F6F040E0B
:10533200406F0BEC0DF066D00A01EE0E1F6F080EE7
:10534200206F8EC121FA97EC1CF00F51010A22E165
:105352003F0E0401695D1EE2580EE16E040EE26E1C
:105362006851E126D8B0E22A6951010F006E00C0EF
:1053720069F4400E6925F66EC50EF76E000EF7222F
:10538200010EF86E000EF8220900F5CF00F000C001
:10539200E6FF24D00A010F51000A20E104016951FD
:1053A20000081CE2580EE16E040EE26E6851E1261E
:1053B200D8B0E22A6905006E00C069F4400E692582
:1053C200F66EC50EF76E000EF722010EF86E000E95
:1053D200F8220900F5CF00F000C0E6FF0401FE0E3E
:1053E200E16E080EE26E6851E126D8B0E22A580E4C
:1053F200E96E040EEA6E6851E926D8B0EA2AEECFC9
:06540200E6FFF98D120027
:105408000050086E0150006E016A026A036A0B6A56
:105418000C6A960E036E0A6A00C001F008C000F01C
:0A542800086A026A62EC22F012002A
:1054320011CA00F0000E016E0036009001360036EF
:105442000090013600500A010F25036E0150102111
:10545200046E125309E003C0E9FF04C0EAFFEECF75
:1054620000F0EECF01F00AD0020E0324E96E000E26
:0E5472000420EA6EEECF00F0EECF01F0120043
:10548000086A096A000E07620364C5EF2AF0025039
:1054900006180A6E075003267E0ED8A056EF2AF093
:1054A000035ED8B0CAEF2AF05AEF2AF0035ED8A004
:1054B000CFEF2AF0028E068E02C00EF001C00BF074
:1054C00000C00DF000500402F4CF0CF001500502B2
:1054D000F4CF00F0F3CF08F00402F3500C26F450A0
:1054E0000822000E00220D500502F3500C26F45045
:1054F0000822000E002202500402F3500826F45045
:10550000002202500502016A000E0122F35000261B
:10551000F45001220D500602F3500826F4500022E8
:10552000026A000E012202220B500602F3500026EE
:10553000F4500122000E02220E500602F350012602
:10554000F450022202BEADEF2AF0083600360136D2
:1055500002360306D8B4CFEF2AF0C0EF2AF0D88085
:10556000800E08640030000E002201220222D8A022
:10557000C0EF2AF0023201320032034ACAEF2AF0A9
:105580000AAE029E000ED2EF2AF0010EDAEC0CF009
:10559000D2EF2AF0020EFFEC0CF0D2EF2AF0040E4C
:0655A0003FEC0DF01200CB
:0855A600067E9EEC22F01200CB
:1055AE000901FF6B0A01006B006B040E005D19E22E
:1055BE00180EE16E060EE26E0901FF51E126D8B01B
:1055CE00E22A790EE96E010EEA6E0A010051E92611
:1055DE00D8B0EA2AEECFE6FF0901FF2B0A01002B15
:1055EE00E4D7100E0901FF270A01006B050E005DBE
:1055FE0019E2180EE16E060EE26E0901FF51E12668
:10560E00D8B0E22A730EE96E010EEA6E0A0100515D
:10561E00E926D8B0EA2AEECFE6FF0901FF2B0A01F0
:10562E00002BE4D7040E0901FF6F0C0E0501851542
:10563E00016E0132019E0132019E0150020A57E1B4
:10564E0033517F0A02E1FF0E321910E1180E0A01E2
:10565E003E6F060E3F6F0901FF510A013E27D8B07B
:10566E003F2B590E406F0BEC0DF013D00A01BE0EFE
:10567E002E6F060E2F6F180E306F060E316F09014A
:10568E00FF510A013027D8B0312B100E326FAEEC1D
:10569E0015F0150E0901FF270501C1517F0A02E120
:1056AE00FF0EC01910E1180E0A013E6F060E3F6F75
:1056BE000901FF510A013E27D8B03F2B590E406F0A
:1056CE000BEC0DF013D00A01CF0E2E6F060E2F6FBE
:1056DE00180E306F060E316F0901FF510A01302787
:1056EE00D8B0312B100E326FAEEC15F035D00C0E4B
:1056FE0005018515016E0132019E0132019E015098
:10570E00010A2AE1680E0A012E6F070E2F6F180E7E
:10571E00306F060E316F0901FF510A013027D8B0E4
:10572E00312B100E326FAEEC15F0150E0901FF2560
:10573E00006E00C0FFF9790E0A012E6F070E2F6F53
:10574E00180E306F060E316F00503027D8B0312B47
:0A575E00100E326FAEEC15F01200D1
:085768000401F79FF891120003
:105770000A011051010A0BE1050185B101D041D0A8
:10578000E4C893F1B0EC1BF0010EF66F3AD00A01B9
:105790001051020A0EE1FE0E3E6F080E3F6F01012E
:1057A0009351600F0A01406F0BEC0DF093C1E4F8C8
:1057B00028D01051040A25E1050185B101D021D07E
:1057C0000A010F5310E00801E451000A0BE1010E39
:1057D000E46FFE0E0A013E6F080E3F6F610E406FD0
:1057E0000BEC0DF00ED00801E451010A0AE1E46B64
:1057F000FE0E0A013E6F080E3F6F600E406F0BEC0D
:045800000DF0120095
:0C580400010E01016A6F6B6B6C6B1200EF
:10581000000E050184B1010E0A01156F166B160EFC
:10582000176F040E186F1551161109E0F40E116F61
:10583000010E126FCE0E136FFF0E146F08D0A40E60
:10584000116F030E126FC60E136FFF0E146F1051FF
:10585000010A38E1050185B101D016D304011951BF
:105860007F0A02E1FF0E18190DE019517F0A02E1CB
:10587000FE0E181907E0160E0A011F6F040E206FA6
:10588000FAEC1BF0160E0A011F6F040E206F8E0E2D
:10589000006E000E016E93C104F0000E056E76ECF2
:1058A00005F0FA0E0024216F040E0120226F360E3F
:1058B0002127000E2223EAEC1CF0B0EC1BF0010EB5
:1058C000F66FDAD20A011051020AD8A47FD08E0EE8
:1058D000006E000E016E93C104F0000E056E76ECB2
:1058E00005F0FA0E00241F6F040E0120206F360E03
:1058F0001F27000E2023160E216F040E226FEAECE4
:105900001CF0040119517F0A02E1FF0E18190AE187
:10591000FE0E0A013E6F080E3F6F490E406F0BEC02
:105920000DF053D0040119517F0A02E1FE0E18193F
:105930000AE1FE0E0A013E6F080E3F6F4B0E406FEC
:105940000BEC0DF042D00A0115CA00F016CA01F0A6
:1059500000360090013600501725E96E01501821DD
:10596000EA6EEECF1FFAEECF20FA000E22BFFF0E36
:10597000216F226F000E20BFFF0E216F226FFE0EDF
:10598000236F080E246F130E006E000E016E026E60
:10599000036E41C604F0000E056E066E076ED4EC71
:1059A00004F0260E0026A90E0122010E0222110E7D
:1059B0000024F66E000E0120F76E000E0220F86E35
:1059C0000900F5CF25FA1AEC1FF056D21051040A3F
:1059D000D8A452D2050185B101D056D217EC1FF0E0
:1059E0000A010F53D8B401D115CA00F016CA01F04C
:1059F00000360090013600501725E96E015018213D
:105A0000EA6EEECF01F0EECF02F002507F0A02E123
:105A1000FE0E011813E1FF0E0401186F7F0E196FBF
:105A2000FF0E166F7F0E176FFE0E0A013E6F080EF7
:105A30003F6F490E406F0BEC0DF0D6D015CA00F049
