:04000000EAEFC6F06D
:1000080000C01EF001C01DF002C01CF003C01BF0B0
:1000180004C01AF005C019F008C018F009C017F09C
:100028000AC016F00BC015F0E1CF23F0E2CF24F0A0
:10003800E9CF21F0EACF22F0F3CF1FF0F4CF20F080
:10004800F2A4EAD104010F5323E0010E07011C2595
:10005800006E000E1D21016E00C01CF701C01DF7C7
:10006800000E006E1D51005C02E11C51640803E2A1
:1000780004010F6B0CD0000E006E07011D51005CCF
:1000880002E11C51320803E2020E04010F6FBED1D7
:100098000A01556BB3ECA3F0010E0A01556FB3ECDE
:1000A800A3F00A01556BA8EC9FF0010E0A01556FE9
:1000B800A8EC9FF0010148530DE08D823E4B3F2B89
:1000C800000E3F5D02E1640E3E5D04E3486B8D92D5
:1000D800010E256E8A51010A10E1884B892B800E8A
:1000E8008919006E800E020A005C02E1580E885DD4
:1000F80004E3886B896B020E8A6F010E07010F25D6
:10010800006E000E1021016E00C00FF701C010F73D
:10011800130E105D02E1880E0F5DD8A021D18F72F9
:100128000F6B106B010E04016C6F010E716F0001F3
:10013800FD5311E0FEC001F0FFC002F0FE4BFF2BA3
:10014800000E006E0250005C02E101500A0803E252
:10015800FD6BFE6BFF6B080165B520D00701A1514F
:100168007F0A02E1FF0EA01919E013C702F014C7B5
:1001780003F0010E1325006E000E1421016E00C05D
:1001880013F701C014F7A151035C02E1A051025C0E
:1001980005E3136B146B08016585678F19C701F0B8
:1001A80007011951010F006E00C019F70A0E015C12
:1001B80007E3196B060E08016411006E00C064F8AD
:1001C8003CC101F03DC102F001013C4B3D2B000E4A
:1001D800025C02E1240E015C04E33C6B3D6B010E02
:1001E800076F6D51010A14E149C101F04AC102F0DB
:1001F800494B4A2B800E0218006E800E005C02E10B
:100208000A0E015C05E3496B4A6B020E6D6F8E9412
:100218006E51010A14E14BC101F04CC102F04B4B85
:100228004C2B800E0218006E800E005C02E10A0E54
:10023800015C05E34B6B4C6B020E6E6F8E92300EB9
:1002480008016715016E0132019E0132019E0132DB
:10025800019E0132019E0150010A21E122C702F0EC
:1002680023C703F0010E07012225006E000E23218B
:10027800016E00C022F701C023F7010E035C02E102
:10028800400E025C0CE3226B236B200E08016719F9
:10029800006E300E00166751001A00C067F80A0198
:1002A800556B9CEC9FF00050010A15E10CC101F060
:1002B8000DC102F001010C4B0D2B010E025C02E195
:1002C8002C0E015C08E30C6B0D6B020E0A01556FD6
:1002D800566B7EECA1F00A01010E556F9CEC9FF065
:1002E8000050010A16E10EC101F00FC102F0010130
:1002F8000E4B0F2B010E025C02E12C0E015C09E390
:100308000E6B0F6B020E0A01556F010E566F7EECD5
:10031800A1F0B0ECA3F00052D8A48D700A01940E9D
:10032800556F030E566F576B8AECA1F00301F1511C
:10033800010A09E1AE0E0A01556F030E566F010E50
:10034800576F8AECA1F00301F451010A09E1B40ED8
:100358000A01556F030E566F020E576F8AECA1F013
:100368000101005323E011C702F012C703F0010E88
:1003780007011125006E000E1221016E00C011F751
:1003880001C012F7130E035C02E1880E025C0EE353
:100398000101006B0701116B126B0101785303E037
:1003A8000801658503D0010E0101016F080165AFE1
:1003B80019D017C702F018C703F0010E0701172557
:1003C800006E000E1821016E00C017F701C018F763
:1003D800130E035C02E1880E025C04E3176B186BD2
:1003E8000801668104010A5311E040C101F041C1CE
:1003F80002F00101404B412B000E025C02E1960E17
:10040800015C04E3406B416B08016481FE0ED76E0A
:10041800840ED66EF29419D0F2A202D0F29215D0C0
:100428009EAA13D001014851000A02E1010E486F4B
:10043800BC0E2624E16E010E2720E26EAECFE6FF49
:10044800264A272A3E6B3F6B9E9A1FC0F3FF20C0A7
:10045800F4FF1EC000F01DC001F01CC002F01BC05C
:1004680003F01AC004F019C005F018C008F017C04E
:1004780009F016C00AF015C00BF021C0E9FF22C030
:0C048800EAFF23C0E1FF24C0E2FF1100E6
:100494000134083609360450085E0550D8A0053CDE
:1004A400095E003601360F0E0C6E0134083609362B
:1004B400045000A006D0085E0550D8A0053C095E93
:1004C40005D008260550D8B0053C0926003601366B
:1004D4000C2EEBD700B006D0045008260550D8B037
:0804E400053C0926000012008E
:1004EC008E8E530E0D6E0D2EFED78E9E530E0D6EF0
:0604FC000D2EFED71200D8
:10050200070E016E52CA00F0015004E00032009E54
:10051200FF0FFBD7010E001600B002D08D9E01D056
:100522008D8E060E016E52CA00F0015004E00032B8
:10053200009EFF0FFBD7010E001600B002D08D9C6B
:1005420001D08D8C050E016E52CA00F0015004E0FC
:100552000032009EFF0FFBD7010E001600B002D042
:100562008D9A01D08D8A52CA00F00032009E00326C
:10057200009E0032009E0032009E010E001600B066
:1005820002D08D9801D08D888E8AAFDF52CA00F0DA
:100592000032009E0032009E0032009E010E0016C4
:1005A20000B002D08D9E01D08D8E52CA00F0003272
:1005B200009E0032009E010E001600B002D08D9CFB
:1005C20001D08D8C52CA00F00032009E010E00163E
:1005D20000B002D08D9A01D08D8A010E0A01521507
:1005E200006E00B002D08D9801D08D887EDF12009F
:1005F2000450085E0550D8A0053C095E0650D8A0FC
:10060200063C0A5E0750D8A0073C0B5E0336070E75
:100612000C6E0334083609360A360B36045003A032
:100622000ED0085E0550D8A0053C095E0650D8A041
:10063200063C0A5E0750D8A0073C0B5E0DD0082688
:100642000550D8B0053C09260650D8B0063C0A260B
:100652000750D8B0073C0B2603360C2EDAD70234EB
:10066200083609360A360B36045003A00ED0085E4F
:100672000550D8A0053C095E0650D8A0063C0A5E8B
:100682000750D8A0073C0B5E0DD008260550D8B005
:10069200053C09260650D8B0063C0A260750D8B0B9
:1006A200073C0B260236070E0C6E0234083609365A
:1006B2000A360B36045002A00ED0085E0550D8A0B0
:1006C200053C095E0650D8A0063C0A5E0750D8A039
:1006D200073C0B5E0DD008260550D8B0053C092614
:1006E2000650D8B0063C0A260750D8B0073C0B2665
:1006F20002360C2EDAD70134083609360A360B36A2
:10070200045002A00ED0085E0550D8A0053C095E38
:100712000650D8A0063C0A5E0750D8A0073C0B5EE4
:100722000DD008260550D8B0053C09260650D8B091
:10073200063C0A260750D8B0073C0B260136070EA6
:100742000C6E0134083609360A360B36045001A005
:100752000ED0085E0550D8A0053C095E0650D8A010
:10076200063C0A5E0750D8A0073C0B5E0DD0082657
:100772000550D8B0053C09260650D8B0063C0A26DA
:100782000750D8B0073C0B2601360C2EDAD70034BE
:10079200083609360A360B36045001A00ED0085E20
:1007A2000550D8A0053C095E0650D8A0063C0A5E5A
:1007B2000750D8A0073C0B5E0DD008260550D8B0D4
:1007C200053C09260650D8B0063C0A260750D8B088
:1007D200073C0B260036070E0C6E0034083609362D
:1007E2000A360B36045000A00ED0085E0550D8A081
:1007F200053C095E0650D8A0063C0A5E0750D8A008
:10080200073C0B5E0DD008260550D8B0053C0926E2
:100812000650D8B0063C0A260750D8B0073C0B2633
:1008220000360C2EDAD700B00ED004500826055040
:10083200D8B0053C09260650D8B0063C0A26075017
:08084200D8B0073C0B261200A0
:0C084A0000000000000000000000120090
:0A085600530E0D6E0D2EFED712009A
:10086000240E0C6EB50E0D6E0D2EFED70C2EFCD781
:0608700000000000120070
:10087600070E016E52CA00F0015004E00032009EDD
:10088600FF0FFBD7010E001600B002D08D9E01D0DF
:100896008D8E060E016E52CA00F0015004E0003241
:1008A600009EFF0FFBD7010E001600B002D08D9CF4
:1008B60001D08D8C050E016E52CA00F0015004E085
:1008C6000032009EFF0FFBD7010E001600B002D0CB
:1008D6008D9A01D08D8A52CA00F00032009E0032F5
:1008E600009E0032009E0032009E010E001600B0EF
:1008F60002D08D9801D08D888E9AF5DD52CA00F00F
:100906000032009E0032009E0032009E010E00164C
:1009160000B002D08D9E01D08D8E52CA00F00032FA
:10092600009E0032009E010E001600B002D08D9C83
:1009360001D08D8C52CA00F00032009E010E0016C6
:1009460000B002D08D9A01D08D8A010E0A0152158F
:10095600006E00B002D08D9801D08D88C4DD1200E3
:10096600A6A202D00000FCD7A69C53CAAAFF52CA70
:10097600A9FF54CAA8FFA69EA684F2CF00F0F29E55
:10098600550EA76EAA0EA76EA68200BE02D0F29ED4
:0809960001D0F28EA6941200BC
:10099E00220E0C6E086A096A0A6A0B6A0C06D8B433
:1009AE001FD0D8900B320A3209320832033202328B
:1009BE0001320032D8A0F2D70C06D8B409D00450B8
:1009CE0008260550092206500A2207500B22EAD7A4
:1009DE00045008260550092206500A2207500B2201
:0209EE001200F5
:1009F000A69C53CAAAFF52CAA9FFA69EA680A8CF4A
:040A000000F01200F0
:100A04000B1E0A1E091E081E082AD8B4092AD8B4C7
:080A14000A2AD8B40B2A1200D3
:100A1C000450000A08E10550000A05E1FF0E006EC3
:100A2C007F0E016E57D00D6A096A086A01500010DA
:100A3C00D8B4000C015005180A6E0ABE0D1E0B6AC4
:100A4C0005AE05D0041E051E042AD8B4052A01AE35
:100A5C0005D0001E011E002AD8B4012A0150051031
:100A6C000A6E0ABE10D010DD0BB020D00DAE000CFB
:100A7C00001E011E002AD8B4012A081E091E082ACD
:100A8C00D8B4092A000C05AE0DD001BE07D0015018
:100A9C00096E0050086E016A006AE8D7016A006AA4
:100AAC00002A000C011E001E0B2ADDD7082AD8B420
:100ABC00092A0450085CD8A4D9D70550095CD8A4DD
:100ACC00D5D7096A086A002AD8B4012A01AECED754
:060ADC000000FF0C1200F7
:100AE2000B6A0A6A096A00500402F4CF09F0F3CFD4
:100AF20008F001500502F4CF0BF0F3CF0AF00050DA
:100B02000502F3500926F4500A22E86A0B2201502A
:100B12000402F3500926F4500A22E86A0B2208C0A4
:100B220000F009C001F00AC002F00BC003F012008D
:100B32000A01476B486B000E485D02E14451475D74
:100B420016E247514525496F485146214A6F4751A0
:100B52004225526F48514321536F49DF49CAE1FF91
:100B62004ACAE2FF00C0E6FF474B482BE4D7120017
:100B72000A014F6B000E0701D2B1010E0A01466F46
:100B82004551442746530BE01A0E476FF40E4B6F44
:100B9200010E4C6FCE0E4D6FFF0E4E6F0AD01B0E24
:100BA200476FA40E4B6F030E4C6FC60E4D6FFF0EB8
:100BB2004E6F486B100E485D17E2110E006E000E6C
:100BC200016E44CA04F0000E056E8ADF890E00260B
:100BD200040E012248510024E16E000E0120E26E53
:100BE200200EE66E482BE6D742CAE9FF43CAEAFF67
:100BF200EECF01F0EECF02F001C049FA02C04AFA8C
:100C020002507F0A02E1FF0E01182AE1486B100E22
:100C1200485D25E2110E006E000E016E44CA04F01A
:100C2200000E056E5DDF890E0026040E012248517A
:100C32000024E16E000E0120E26E040E4825F66EDD
:100C4200920EF76E000EF722010EF86E000EF822D9
:100C52000900F5CF00F000C0E6FF482BD8D79AD1A3
:100C62004A517F0A02E1FD0E49192AE1486B100E32
:100C7200485D25E2110E006E000E016E44CA04F0BA
:100C8200000E056E2DDF890E0026040E012248514A
:100C92000024E16E000E0120E26E150E4825F66E6C
:100CA200920EF76E000EF722010EF86E000EF82279
:100CB2000900F5CF00F000C0E6FF482BD8D76AD173
:100CC200800E4C19006E800E4A19005C02E14951F7
:100CD2004B5D04E24BCA49FA4CCA4AFA800E4A19E1
:100CE200006E800E4E19005C02E14D51495D04E236
:100CF2004DCA49FA4ECA4AFA800E4A19006E800E4F
:100D0200005C02E1000E495D1CE2110E006E000E55
:100D1200016E44CA04F0000E056EE2DE890E002662
:100D2200040E01224F510024E16E000E0120E26EFA
:100D32002D0EE66E4F2B49510008496F4A51000EA5
:100D42004A57800E006E800E4A19005C02E149513A
:100D52006308D8B080D0110E006E000E016E44CA36
:100D620004F0000E056EBCDE890E0026040E012280
:100D72004F510024506F000E0120516F640E046E1B
:100D8200000E056E49CA00F04ACA01F046DE300E76
:100D9200002650CAE1FF51CAE2FF00C0E6FF0A0185
:100DA2004F2B110E006E000E016E44CA04F0000EAD
:100DB200056E96DE890E0026040E01224F51002494
:100DC200506F000E0120516F640E046E000E056E0E
:100DD20049CA00F04ACA01F020DE08C000F009C08A
:100DE20001F00A0E046E000E056E17DE300E0026AC
:100DF20050CAE1FF51CAE2FF00C0E6FF0A014F2BD1
:100E0200110E006E000E016E44CA04F0000E056E53
:100E120067DE890E0026040E01224F510024506F16
:100E2200000E0120516F0A0E046E000E056E49CAB3
:100E320000F04ACA01F0F1DD08C000F009C001F07B
:100E4200300E002650CAE1FF51CAE2FF00C0E6FFA1
:100E52000A014F2B73D0800E006E800E4A19005C7F
:100E620002E14951090851E2110E006E000E016EB5
:100E720044CA04F0000E056E33DE890E0026040E0D
:100E820001224F510024506F000E0120516F0A0EB3
:100E9200046E000E056E49CA00F04ACA01F0BDDDBB
:100EA200300E002650CAE1FF51CAE2FF00C0E6FF41
:100EB2000A014F2B110E006E000E016E44CA04F09F
:100EC200000E056E0DDE890E0026040E01224F5122
:100ED2000024506F000E0120516F0A0E046E000EA6
:100EE200056E49CA00F04ACA01F097DD08C000F059
:100EF20009C001F0300E002650CAE1FF51CAE2FFDC
:100F020000C0E6FF0A014F2B19D0110E006E000E31
:100F1200016E44CA04F0000E056EE2DD890E002661
:100F2200040E01224F510024E16E000E0120E26EF8
:100F3200300E4925006E00C0E6FF4F2B110E006EE9
:100F4200000E016E44CA04F0000E056EC9DD890E62
:100F52000026040E01224F510024E16E000E0120F2
:100F6200E26E200EE66E4F2B110E006E000E016E29
:100F720044CA04F0000E056EB3DD890E0026040E8D
:100F820001224F510024E16E000E0120E26E47CA99
:060F9200E6FF4F2B1200E8
:100F98000450000A12E10550000A0FE10650000A49
:100FA8000CE10750000A09E1FF0E006EFF0E016E0A
:100FB800FF0E026E7F0E036E98D00C6A07BE0C2AD5
:100FC8000D6A0B6A0A6A096A086A0350021001105E
:100FD8000010D8B485D0035007180E6E0EBE0D1E33
:100FE80007AE0BD0041E051E061E071E042AD8B421
:100FF800052AD8B4062AD8B4072A03AE0BD0001E97
:10100800011E021E031E002AD8B4012AD8B4022ADF
:10101800D8B4032A035007100E6E0EBE1DD0F9EC8B
:1010280002F00CBE36D00DAE5BD0001E011E021EB3
:10103800031E002AD8B4012AD8B4022AD8B4032A35
:10104800081E091E0A1E0B1E082AD8B4092AD8B47D
:101058000A2AD8B40B2A44D007AE15D003BE0DD047
:1010680003500B6E02500A6E0150096E0050086E54
:10107800036A026A016A006AD6D7036A026A016AC9
:10108800006A002A000C031E021E011E001E0C8EA0
:10109800C6D7082AD8B4092AD8B40A2AD8B40B2A39
:1010A8000450085CD8A4BFD70550095CD8A4BBD7A6
:1010B80006500A5CD8A4B7D707500B5CD8A4B3D79E
:1010C8000B6A0A6A096A086A002AD8B4012AD8B4DD
:1010D800022AD8B4032A03AEA6D70E6A0E88FF0CDC
:0C10E8000E6A0CA001D08ADC000F120080
:1010F400016A026A800E0218006E800E0A01451908
:10110400005C02E14451015C0BE201504225E16EB6
:1011140002504321E26E200EE66E014A022AEAD70B
:021124001200B7
:101126000A014A6B42CAE9FF43CAEAFFEECF48FA10
:10113600EECF49FA476B100E475D17E2110E006EAF
:10114600000E016E44CA04F0000E056EC7DC890E5F
:101156000026040E012247510024E16E000E0120F4
:10116600E26E200EE66E472BE6D742CAE9FF43CA77
:10117600EAFFEECF01F0EECF02F002507F0A02E165
:10118600FE0E01182AE1476B100E475D25E2110E8F
:10119600006E000E016E44CA04F0000E056E9EDC61
:1011A600890E0026040E012247510024E16E000E2E
:1011B6000120E26E260E4725F66E920EF76E000EA1
:1011C600F722010EF86E000EF8220900F5CF00F0A6
:1011D60000C0E6FF472BD8D762D242CAE9FF43CA0E
:1011E600EAFFEECF01F0EECF02F0800E030A006EAA
:1011F600800E0218005C02E10150E708D8B0C6D0A4
:10120600110E006E000E016E44CA04F0000E056E4B
:1012160065DC890E0026040E01224A5100244B6F1C
:10122600000E01204C6F42CAE9FF43CAEAFFEECF27
:1012360000F0EECF01F0E80E046E030E056E0EEC24
:1012460005F0300E00264BCAE1FF4CCAE2FF00C093
:10125600E6FF0A014A2B110E006E000E016E44CA0B
:1012660004F0000E056E3ADC890E0026040E0122FB
:101276004A5100244B6F000E01204C6F42CAE9FF11
:1012860043CAEAFFEECF00F0EECF01F0E80E046E9F
:10129600030E056E0EEC05F008C000F009C001F063
:1012A600640E046E000E056E0EEC05F0300E002680
:1012B6004BCAE1FF4CCAE2FF00C0E6FF0A014A2B17
:1012C600110E006E000E016E44CA04F0000E056E8B
:1012D60005DC890E0026040E01224A5100244B6FBC
:1012E600000E01204C6F42CAE9FF43CAEAFFEECF67
:1012F60000F0EECF01F0640E046E000E056E0EECEB
:1013060005F008C000F009C001F00A0E046E000ED8
:10131600056E0EEC05F0300E00264BCAE1FF4CCAF6
:10132600E2FF00C0E6FF0A014A2B110E006E000E16
:10133600016E44CA04F0000E056E71EC05F0890ECC
:101346000026040E01224A5100244B6F000E012094
:101356004C6F42CAE9FF43CAEAFFEECF00F0EECF78
:1013660001F00A0E046E000E056E0EEC05F008C0C4
:1013760000F009C001F0300E00264BCAE1FF4CCA4E
:10138600E2FF00C0E6FF0A014A2B31D142CAE9FF5B
:1013960043CAEAFFEECF01F0EECF02F0800E006EF8
:1013A600800E0218005C02E101506308D8B093D0A9
:1013B600110E006E000E016E44CA04F0000E056E9A
:1013C60071EC05F0890E0026040E01224A51002414
:1013D6004B6F000E01204C6F42CAE9FF43CAEAFF79
:1013E600EECF00F0EECF01F0640E046E000E056E37
:1013F6000EEC05F0300E00264BCAE1FF4CCAE2FFA8
:1014060000C0E6FF0A014A2B110E006E000E016EA7
:1014160044CA04F0000E056E71EC05F0890E002634
:10142600040E01224A5100244B6F000E01204C6F1E
:1014360042CAE9FF43CAEAFFEECF00F0EECF01F061
:10144600640E046E000E056E0EEC05F008C000F08A
:1014560009C001F00A0E046E000E056E0EEC05F0D2
:10146600300E00264BCAE1FF4CCAE2FF00C0E6FF81
:101476000A014A2B110E006E000E016E44CA04F0DA
:10148600000E056E71EC05F0890E0026040E012291
:101496004A5100244B6F000E01204C6F42CAE9FFEF
:1014A60043CAEAFFEECF00F0EECF01F00A0E046E5B
:1014B600000E056E0EEC05F008C000F009C001F044
:1014C600300E00264BCAE1FF4CCAE2FF00C0E6FF21
:1014D6000A014A2B8CD042CAE9FF43CAEAFFEECF83
:1014E60001F0EECF02F0800E006E800E0218005C56
:1014F60002E1015009085DE2110E006E000E016E58
:1015060044CA04F0000E056E71EC05F0890E002643
:10151600040E01224A5100244B6F000E01204C6F2D
:1015260042CAE9FF43CAEAFFEECF00F0EECF01F070
:101536000A0E046E000E056E0EEC05F0300E002647
:101546004BCAE1FF4CCAE2FF00C0E6FF0A014A2B84
:10155600110E006E000E016E44CA04F0000E056EF8
:1015660071EC05F0890E0026040E01224A51002472
:101576004B6F000E01204C6F42CAE9FF43CAEAFFD7
:10158600EECF00F0EECF01F00A0E046E000E056EEF
:101596000EEC05F008C000F009C001F0300E002680
:1015A6004BCAE1FF4CCAE2FF00C0E6FF0A014A2B24
:1015B6001ED0110E006E000E016E44CA04F0000E1D
:1015C600056E71EC05F0890E0026040E01224A51C3
:1015D6000024E16E000E0120E26E42CAE9FF43CA12
:1015E600EAFF300EEE24006E00C0E6FF4A2B110E15
:1015F600006E000E016E44CA04F0000E056E71EC1A
:1016060005F0890E0026040E01224A510024E16EDF
:10161600000E0120E26E200EE66E4A2B476B465105
:10162600475D3DE2110E006E000E016E44CA04F0E5
:10163600000E056E71EC05F0890E0026040E0122DF
:101646004A5100244B6F000E01204C6F090E006EAC
:10165600000E016E026E036E45CA04F0000E056EA2
:10166600066E076ECFEC04F02D0E0026C60E012284
:10167600010E022247510024F66E000E0120F76E7D
:10168600000E0220F86E0900F5CF00F04BCAE1FF0C
:101696004CCAE2FF00C0E6FF4A2B472BC0D7120018
:1016A6000A014C6B476B100E475D18E2110E006E77
:1016B600000E016E44CA04F0000E056E71EC05F0D2
:1016C600890E0026040E012247510024E16E000E09
:1016D6000120E26E200EE66E472BE5D742CAE9FFEF
:1016E60043CAEAFFEECF01F0EECF02F002507F0AC6
:1016F60002E1FE0E01182BE1476B100E475D26E254
:10170600110E006E000E016E44CA04F0000E056E46
:1017160071EC05F0890E0026040E012247510024C3
:10172600E16E000E0120E26E260E4725F66E920E41
:10173600F76E000EF722010EF86E000EF822090071
:10174600F5CF00F000C0E6FF472BD7D72AD142CA13
:10175600E9FF43CAEAFFEECF00F0EECF01F00A0E32
:10176600046E000E056E0EEC05F000C048FA01C0CE
:1017760049FA42CAE9FF43CAEAFFEECF00F0EECFCC
:1017860001F00A0E046E000E056E0EEC05F008C0A0
:1017960000F009C001F000C04AFA01C04BFA800E01
:1017A600006E800E0A014919005C02E148510908E1
:1017B60055E2110E006E000E016E44CA04F0000ED2
:1017C600056E71EC05F0890E0026040E01224C51BF
:1017D60000244D6F000E01204E6F0A0E046E000E9F
:1017E600056E48CA00F049CA01F00EEC05F0300E4D
:1017F60000264DCAE1FF4ECAE2FF00C0E6FF0A011D
:101806004C2B110E006E000E016E44CA04F0000E41
:10181600056E71EC05F0890E0026040E01224C516E
:1018260000244D6F000E01204E6F0A0E046E000E4E
:10183600056E48CA00F049CA01F00EEC05F008C072
:1018460000F009C001F0300E00264DCAE1FF4ECA75
:10185600E2FF00C0E6FF0A014C2B1AD0110E006E03
:10186600000E016E44CA04F0000E056E71EC05F020
:10187600890E0026040E01224C510024E16E000E52
:101886000120E26E300E4825006E00C0E6FF4C2BAC
:10189600110E006E000E016E44CA04F0000E056EB5
:1018A60071EC05F0890E0026040E01224C5100242D
:1018B600E16E000E0120E26E2E0EE66E4C2B110E2E
:1018C600006E000E016E44CA04F0000E056E71EC47
:1018D60005F0890E0026040E01224C510024E16E0B
:1018E600000E0120E26E300E4A25006E00C0E6FFB3
:1018F6004C2B110E006E000E016E44CA04F0000E51
:10190600056E71EC05F0890E0026040E01224C517D
:101916000024E16E000E0120E26E200EE66E4C2BD6
:10192600476B4651475D3DE2110E006E000E016E9B
:1019360044CA04F0000E056E71EC05F0890E00260F
:10194600040E01224C5100244D6F000E01204E6FF3
:10195600090E006E000E016E026E036E45CA04F09B
:10196600000E056E066E076ECFEC04F02D0E0026F7
:10197600C60E0122010E022247510024F66E000E09
:101986000120F76E000E0220F86E0900F5CF00F078
:101996004DCAE1FF4ECAE2FF00C0E6FF4C2B472BC3
:0419A600C0D7120094
:0E19AA00026A016A006A086A036A000E1200EF
:1019B8000A01476B486B000E485D02E14451475DE0
:1019C80014E247514225526F48514321536F475102
:1019D8004525E96E48514621EA6EEECF54FAB3EC3C
:0C19E80004F00A01474B482BE6D7120020
:1019F4000B820BAE04EF0DF0036802680168006807
:081A04000A360232FF0E120047
:101A0C000A01456B100E455D2EE245514225466F8D
:101A1C00000E4321476F110E006E000E016E026E18
:101A2C00036E44CA04F0000E056E066E076ECFEC12
:101A3C0004F0DE0E0026950E0122010E0222455105
:101A4C000024F66E000E0120F76E000E0220F86ED8
:101A5C000900F5CF00F046CAE1FF47CAE2FF00C01B
:081A6C00E6FF452BCFD7120065
:101A74000B840BAE45EF0DF0010E036E026A016A92
:0A1A8400006A0A360232FF0E12005B
:081A8E000AAE029E000E1200D8
:101A96000B6A0A6A096A086A0E6A03340836045031
:101AA600085E0550D8A0053C095E0650D8A0063C45
:101AB6000A5E0750D8A0073C0B5EE86AD8A0010E64
:101AC6000E5E0336070E0C6E0334083609360A36E8
:101AD6000B360E36045003A012D0085E0550D8A06F
:101AE600053C095E0650D8A0063C0A5E0750D8A001
:101AF600073C0B5EE86AD8A0010E0E5E11D00826E0
:101B06000550D8B0053C09260650D8B0063C0A2632
:101B16000750D8B0073C0B26E86AD8B0010E0E264F
:101B260003360C2ED1D70234083609360A360B3660
:101B36000E36045003A012D0085E0550D8A0053C0E
:101B4600095E0650D8A0063C0A5E0750D8A0073C9E
:101B56000B5EE86AD8A0010E0E5E11D0082605506D
:101B6600D8B0053C09260650D8B0063C0A260750D0
:101B7600D8B0073C0B26E86AD8B0010E0E2602360E
:101B8600070E0C6E0234083609360A360B360E3648
:101B9600045002A012D0085E0550D8A0053C095E8C
:101BA6000650D8A0063C0A5E0750D8A0073C0B5E3C
:101BB600E86AD8A0010E0E5E11D008260550D8B0EE
:101BC600053C09260650D8B0063C0A260750D8B070
:101BD600073C0B26E86AD8B0010E0E2602360C2EFC
:101BE600D1D70134083609360A360B360E3604507C
:101BF60002A012D0085E0550D8A0053C095E06502A
:101C0600D8A0063C0A5E0750D8A0073C0B5EE86ADF
:101C1600D8A0010E0E5E11D008260550D8B0053C9E
:101C260009260650D8B0063C0A260750D8B0073C0D
:101C36000B26E86AD8B0010E0E260136070E0C6E8A
:101C46000134083609360A360B360E36045001A022
:101C560012D0085E0550D8A0053C095E0650D8A0F3
:101C6600063C0A5E0750D8A0073C0B5EE86AD8A07F
:101C7600010E0E5E11D008260550D8B0053C092687
:101C86000650D8B0063C0A260750D8B0073C0B26AB
:101C9600E86AD8B0010E0E2601360C2ED1D70034D4
:101CA600083609360A360B360E36045001A012D015
:101CB600085E0550D8A0053C095E0650D8A0063C33
:101CC6000A5E0750D8A0073C0B5EE86AD8A0010E52
:101CD6000E5E11D008260550D8B0053C09260650E0
:101CE600D8B0063C0A260750D8B0073C0B26E86A4F
:101CF600D8B0010E0E260036070E0C6E00340836DC
:101D060009360A360B360E36045000A012D0085E8D
:101D16000550D8A0053C095E0650D8A0063C0A5ED0
:101D26000750D8A0073C0B5EE86AD8A0010E0E5EED
:101D360011D008260550D8B0053C09260650D8B063
:101D4600063C0A260750D8B0073C0B26E86AD8B0EE
:101D5600010E0E2600360C2ED1D700B00ED0045040
:101D660008260550D8B0053C09260650D8B0063CD2
:0C1D76000A260750D8B0073C0B261200CC
:101D82000A014251010A03E1010E466F05D0425198
:101D9200020A02E1C00E466F46CA52FA3BEC04F058
:101DA2000A01456B100E455D0DE245514325E96E72
:101DB200000E4421EA6EEECF52FA81EC02F00A01E3
:061DC200452BF0D71200D2
:101DC8000A0142BF02D08D9E01D08D8E42BD02D045
:101DD8008D9C01D08D8C42BB02D08D9A01D08D8A0A
:101DE80042B902D08D9801D08D88040110B102D07B
:101DF8008E8A01D08E9A8E8E25EC04F08E9E0A0172
:101E080042B702D08D9E01D08D8E42B502D08D9CF6
:101E180001D08D8C42B302D08D9A01D08D8A42B107
:101E280002D08D9801D08D88040110B102D08E8A1D
:101E380001D08E9A8E8E25EC04F08E9E10A103D0D0
:0C1E480030EC04F002D02BEC04F012008F
:101E54000CB06CEF0FF00CA212EF10F00E6A000E33
:101E6400026483EF0FF0F00E0214D8A44EEF0FF0CB
:101E7400023A01380F0B02260138F00B016E0038CC
:101E84000F0B01260038F00B006E08380F0B0026EC
:101E94000838F00B086E0E84D89002BE67EF0FF07E
:101EA40008360036013602360E2A02BE67EF0FF0FE
:101EB40008360036013602360E2A02BE67EF0FF0EE
:101EC40008360036013602360E2A0E50036408EF37
:101ED40010F0035E0BBC08AE0DEF10F0D880800E3E
:101EE40008640030000E002201220222D8A00DEF67
:101EF40010F0023201320032034A12EF10F00DEFFB
:101F040010F001C002F000C001F008C000F0086A3F
:101F1400000E0E860264BAEF0FF0F00E0214D8A47D
:101F2400A2EF0FF0023A01380F0B02260138F00B32
:101F3400016E00380F0B01260038F00B006E0E8482
:101F4400D89002BE67EF0FF00036013602360E2A33
:101F540002BE67EF0FF00036013602360E2A02BECB
:101F640067EF0FF00036013602360E2A67EF0FF0E6
:101F740001C002F000C001F0006A000E0E960E8847
:101F84000264E7EF0FF0F00E0214D8A4D2EF0FF0C2
:101F9400023A01380F0B02260138F00B016E0E8451
:101FA400D89002BE67EF0FF0013602360E2A02BE49
:101FB40067EF0FF0013602360E2A02BE67EF0FF00C
:101FC400013602360E2A67EF0FF001C002F0016AF3
:101FD400000E0E86026417EF10F0F00E0214D8A45F
:101FE400F6EF0FF0023A0E84D89002BE67EF0FF0BE
:101FF40002360E2A02BE67EF0FF002360E2A02BE28
:1020040067EF0FF002360E2A67EF0FF0010E0C6E29
:102014002FDD1AEF10F0020E0C6E37DD1AEF10F000
:10202400040E0C6EE5DC1AEF10F0080E0C6EBBDC2F
:02203400120098
:102036000A0132B102D08B9801D08B88530E0D6EF7
:102046000D2EFED78B86530E0D6E0D2EFED78B965C
:0A205600530E0D6E0D2EFED7120082
:10206000010E0A01426F32CA43FA33CA44FA89DECA
:10207000020E426F34CA43FA35CA44FA82DE0801BE
:1020800067AD29D00C0E0A01426F9EDEC00E0A0118
:10209000426F9ADE0901AF51010819E20A01366B5D
:1020A0000901AF05016E026A000E025A800E006E31
:1020B000800E0218005C03E101500A01365D07E260
:1020C0000A01140E426F80DE0A01362BE9D70A019D
:0820D0000F0E426F79DE1200D1
:1020D8009488530E0D6E0D2EFED78B86530E0D6E03
:1020E8000D2EFED7000E82B8010E006E8B96530E91
:1020F8000D6E0D2EFED79498530E0D6E0D2EFED735
:022108001200C3
:10210A000A01526B536BF8EC04F000C032FA3251F8
:10211A00550A02E1006A08D0526B536B550E546F90
:0A212A00B3EC04F0010E006E120089
:102134000A01326B020E325DD8B0FAEF14F08E0E43
:10214400006E000E016E32CA04F0000E056E71ECD2
:1021540005F0480E0026070E0122360E0026000E5A
:102164000122020E0024E16E000E0120E26E0A0E2E
:10217400E66E000EE66E8E0E006E000E016E32CA22
:1021840004F0000E056E71EC05F0480E0026070EF3
:102194000122360E0024E16E000E0120E26E320EA2
:1021A400E66E000EE66E8E0E006E000E016E32CAF2
:1021B40004F0000E056E71EC05F0480E0026070EC3
:1021C4000122360E0026000E0122040E0026000E07
:1021D4000122020E0024E16E000E0120E26E050EC3
:1021E400E66E000EE66E8E0E006E000E016E32CAB2
:1021F40004F0000E056E71EC05F0480E0026070E83
:102204000122360E0026000E0122040E0024E16E87
:10221400000E0120E26E290EE66E000EE66E8E0EB2
:10222400006E000E016E32CA04F0000E056E71ECF1
:1022340005F0480E0026070E0122360E0026000E79
:102244000122080E0026000E0122020E0024E16E77
:10225400000E0120E26EFF0EE66E7F0EE66E8E0E1D
:10226400006E000E016E32CA04F0000E056E71ECB1
:1022740005F0480E0026070E0122360E0026000E39
:102284000122080E0024E16E000E0120E26EFF0E12
:10229400E66E7F0EE66E8E0E006E000E016E32CA82
:1022A40004F0000E056E71EC05F0480E0026070ED2
:1022B4000122360E0026000E01220C0E0026000E0E
:1022C4000122020E0024E16E000E0120E26E020ED5
:1022D400E66E000EE66E8E0E006E000E016E32CAC1
:1022E40004F0000E056E71EC05F0480E0026070E92
:1022F4000122360E0026000E01220C0E0024E16E8F
:10230400000E0120E26E050EE66E000EE66E8E0EE5
:10231400006E000E016E32CA04F0000E056E71EC00
:1023240005F0480E0026070E0122360E0026000E88
:102334000122100E0024E16E000E0120E26EFF0E59
:10234400E66E7F0EE66E8E0E006E000E016E32CAD1
:1023540004F0000E056E71EC05F0480E0026070E21
:102364000122360E0026000E0122120E0024E16E18
:10237400000E0120E26EFF0EE66E7F0EE66E8E0EFC
:10238400006E000E016E32CA04F0000E056E71EC90
:1023940005F0480E0026070E0122360E0026000E18
:1023A4000122140E0024E16E000E0120E26E1E0EC6
:1023B400E66E000EE66E8E0E006E000E016E32CAE0
:1023C40004F0000E056E71EC05F0480E0026070EB1
:1023D4000122360E0026000E0122160E0024E16EA4
:1023E400000E0120E26E320EE66E000EE66E8E0ED8
:1023F400006E000E016E32CA04F0000E056E71EC20
:1024040005F0480E0026070E0122360E0026000EA7
:102414000122180E0024E16E000E0120E26EFF0E70
:10242400E66E7F0EE66E8E0E006E000E016E32CAF0
:1024340004F0000E056E71EC05F0480E0026070E40
:102444000122360E0026000E01221A0E0024E16E2F
:10245400000E0120E26EFF0EE66E7F0EE66E8E0E1B
:10246400006E000E016E32CA04F0000E056E71ECAF
:1024740005F0480E0026070E0122360E0026000E37
:1024840001221C0E0024E16E000E0120E26EFF0EFC
:10249400E66E7F0EE66E8E0E006E000E016E32CA80
:1024A40004F0000E056E71EC05F0480E0026070ED0
:1024B4000122360E0026000E01221E0E0024E16EBB
:1024C400000E0120E26EFF0EE66E7F0EE66E8E0EAB
:1024D400006E000E016E32CA04F0000E056E71EC3F
:1024E40005F0480E0026070E0122360E0026000EC7
:1024F4000122200E0024E16E000E0120E26E180E6F
:10250400E66E000EE66E8E0E006E000E016E32CA8E
:1025140004F0000E056E71EC05F0480E0026070E5F
:102524000122360E0026000E0122220E0024E16E46
:10253400000E0120E26E780EE66E000EE66E8E0E40
:10254400006E000E016E32CA04F0000E056E71ECCE
:1025540005F0480E0026070E0122360E0026000E56
:102564000122240E0024E16E000E0120E26E050E0D
:10257400E66E000EE66E8E0E006E000E016E32CA1E
:1025840004F0000E056E71EC05F0480E0026070EEF
:102594000122360E0026000E0122260E0024E16ED2
:1025A400000E0120E26E030EE66E000EE66E8E0E45
:1025B400006E000E016E32CA04F0000E056E71EC5E
:1025C40005F0480E0026070E0122360E0026000EE6
:1025D4000122280E0024E16E000E0120E26E010E9D
:1025E400E66E000EE66E8E0E006E000E016E32CAAE
:1025F40004F0000E056E71EC05F0480E0026070E7F
:102604000122360E0026000E01222A0E0024E16E5D
:10261400000E0120E26E030EE66E000EE66E8E0ED4
:10262400006E000E016E32CA04F0000E056E71ECED
:1026340005F0480E0026070E0122360E0026000E75
:1026440001222C0E0024E16E000E0120E26EFC0E2D
:10265400E66E7F0EE66E8E0E006E000E016E32CABE
:1026640004F0000E056E71EC05F0480E0026070E0E
:102674000122360E0026000E01222E0E0024E16EE9
:10268400000E0120E26EFC0EE66E7F0EE66E8E0EEC
:10269400006E000E016E32CA04F0000E056E71EC7D
:1026A40005F0480E0026070E0122360E0026000E05
:1026B4000122300E0024E16E000E0120E26E020EB3
:1026C400E66E000EE66E8E0E006E000E016E32CACD
:1026D40004F0000E056E71EC05F0480E0024426F04
:1026E400070E0120436F360E4227000E4323320E9D
:1026F4004227000E4323100E446F000E456F7AEC00
:1027040008F08E0E006E000E016E32CA04F0000E48
:10271400056E71EC05F0480E0026070E0122360EF8
:102724000026000E0122540E0024E16E000E01204A
:10273400E26EE6828E0E006E000E016E32CA04F066
:10274400000E056E71EC05F0480E0026070E0122FE
:10275400360E0026000E0122540E0024E16E000EF7
:102764000120E26EE6948E0E006E000E016E32CAF7
:1027740004F0000E056E71EC05F0480E0026070EFD
:102784000122360E0026000E0122540E0024E16EB2
:10279400000E0120E26EE6968E0E006E000E016EB3
:1027A40032CA04F0000E056E71EC05F0480E0026E6
:1027B400070E0122360E0026000E0122540E0024BC
:1027C400026E000E0120036E02C0E9FF03C0EAFF9F
:1027D400EECF00F08F0E001602C0E1FF03C0E2FF4F
:1027E40000C0E6FF8E0E006E000E016E32CA04F0C9
:1027F400000E056E71EC05F0480E0026070E01224E
:10280400360E0026000E0122540E0024E16E000E46
:102814000120E26EE69E8E0E006E000E016E32CA3C
:1028240004F0000E056E71EC05F0480E0026070E4C
:102834000122360E0026000E0122540E0024E16E01
:10284400000E0120E26EE6808E0E006E000E016E18
:1028540032CA04F0000E056E71EC05F0480E002635
:10286400070E0122360E0026000E0122540E002609
:10287400000E0122010E0024E16E000E0120E26E22
:10288400E6828E0E006E000E016E32CA04F0000E57
:10289400056E71EC05F0480E0026070E0122360E77
:1028A4000026000E0122540E0026000E0122010E05
:1028B4000024026E000E0120036E02C0E9FF03C073
:1028C400EAFFEECF01F0040E0118006E0C0E0016A4
:1028D4000150001A02C0E1FF03C0E2FF00C0E6FF9E
:1028E4008E0E006E000E016E32CA04F0000E056EEC
:1028F40071EC05F0480E0026070E0122360E002664
:10290400000E0122540E0026000E0122020E0024A5
:10291400026E000E0120036E02C0E9FF03C0EAFF4D
:10292400EECF01F0020E0118006E030E00160150E6
:10293400001A02C0E1FF03C0E2FF00C0E6FF8E0EF2
:10294400006E000E016E32CA04F0000E056E71ECCA
:1029540005F0480E0026070E0122360E0026000E52
:102964000122540E0026000E0122010E0024E16E05
:10297400000E0120E26EE68E8E0E006E000E016ED9
:1029840032CA04F0000E056E71EC05F0480E002604
:10299400070E0122360E0026000E0122540E0026D8
:1029A400000E0122010E0024026E000E0120036EAF
:1029B40002C0E9FF03C0EAFFEECF01F0300E0118B8
:1029C400006E700E00160150001A02C0E1FF03C031
:1029D400E2FF00C0E6FFB20EE16E090EE26E325174
:1029E400E126D8B0E22A3F0EE66E322B9CEF10F0BF
:1029F400C00E426F070E436F100E446F000E456FFA
:102A04007AEC08F0C00E426F070E436F4E0E446F0F
:102A140006EC0DF00701D381010E0A01426F000E8E
:102A2400436F580E446F7E0E456F070E466FDCEC05
:102A34000CF0590E426F000E436F580E446F0C0E8B
:102A4400456F080E466FDCEC0CF0B10E426F000EC1
:102A5400436F1E0E446F600E456F070E466FDCEC2D
:102A64000CF0CF0E426F000E436F1E0E446FEE0E3D
:102A7400456F070E466FDCEC0CF0ED0E426F000E56
:102A8400436F510E446F5E0E456F090E466FDCECCA
:042A94000CF0120030
:102A98000A013351100F006E016A000E0122110E57
:102AA800046E000E056E71EC05F0890E0024426F6D
:102AB800040E0120436F32CA44FA06EC0DF032517D
:102AC800010A04E03251020A01E00BD0820EE16EE5
:102AD800010EE26E3351E126D8B0E22A010EE66E0D
:102AE80010D03251000A04E03251030A01E009D043
:102AF800820EE16E010EE26E3351E126D8B0E22A71
:102B0800E66A01018251000A05E18351000A02E1E7
:082B18008D9601D08D8612009C
:102B2000016A026A800E0218006E800E0A013619D0
:102B3000005C02E13551015C0BE201503225E16E8F
:102B400002503321E26E34CAE6FF014A022AEAD774
:022B5000120071
:102B5200016A0A013651015C10E201503425E16E2E
:102B6200000E3521E26E01503225E96E000E33214E
:0C2B7200EA6EEECFE6FF012AECD712005D
:102B7E0032CA00F033CA01F0000E0A0133BFFF0E55
:102B8E00026E036E120E046E000E056E066E076E5A
:102B9E00CFEC04F00A0E046E000E056E066E076E84
:0E2BAE00CCEC07F0200E0026000E01221200D3
:102BBC00200E0A01325D006E000E3359016E000EBC
:102BCC0001BEFF0E026E036E0A0E046E000E056E41
:102BDC00066E076ECFEC04F0120E046E000E056E3E
:0A2BEC00066E076ECCEC07F0120035
:102BF600800E0A013319006E800E005C02E1000EA1
:102C0600325D08E232510008006E33CA01F0000E50
:0E2C1600015604D032CA00F033CA01F0120099
:102C2400010E0A01426F000E436F580E446F7E0E70
:102C3400456F070E466F99EC05F0590E426F000E72
:102C4400436F580E446F0C0E456F080E466F99EC97
:102C540005F0B10E426F000E436F1E0E446F600EFE
:102C6400456F070E466F99EC05F0CF0E426F000ECC
:102C7400436F1E0E446FEE0E456F070E466F99ECC0
:102C840005F0ED0E426F000E436F510E446F5E0E61
:102C9400456F090E466F99EC05F0000E0701D2B19D
:102CA400010E0A01326F8E0E006E000E016EA7C176
:102CB40004F0000E056E71EC05F0480E0024426F1E
:102CC400070E0120436F180E4227000E432332CA19
:102CD40000F0000E016E00360090013600504227CD
:102CE400015043230C0E446FA7C145FAB9EC05F01B
:102CF4008E0E006E000E016EA7C104F0000E056E6C
:102D040071EC05F0480E0024426F070E0120436F5A
:102D1400180E4227000E4323040E4227000E4323BD
:102D240032CA00F0000E016E0036009001360050E9
:102D34004227015043230E0E446FA7C145FAB9EC54
:102D440005F08E0E006E000E016EA7C104F0000E99
:102D5400056E71EC05F0480E0024426F070E012049
:102D6400436F180E4227000E43230A0E4227000E1B
:102D740043230101A751160F0A01446F050E456F45
:102D8400020E466F93EC08F08E0E006E000E016E7C
:102D9400A7C104F0000E056E71EC05F0480E002486
:102DA400426F070E0120436F180E4227000E432383
:102DB400080E4227000E43230101A751140F0A01F4
:102DC400446F040E456F010E466F53EC0BF08E0EEC
:102DD400006E000E016EA7C104F0000E056E71ECCA
:102DE40005F0480E0024426F070E0120436F180EB1
:102DF4004227000E43230C0E4227000E43230101F9
:102E0400A751200F0A01446F060E456F010E466F4D
:102E140093EC08F08E0E006E000E016EA7C104F054
:102E2400000E056E71EC05F0480E0024426F070E8B
:102E34000120436F180E4227000E43230E0E422733
:102E4400000E43230101A751220F0A01446F060E0D
:0C2E5400456F010E466F93EC08F0120071
:102E60000A013F6B376B100E375D18E2110E006ED2
:102E7000000E016E36CA04F0000E056E71EC05F00E
:102E8000890E0026040E012237510024E16E000E47
:102E90000120E26E200EE66E372BE5D7000E006EA5
:102EA000351908E10050341905E17F0E331902E1AC
:102EB0003251FE0A0DE035517F0A08E13451FF0A14
:102EC00005E13351FF0A02E13251FF0A01E02BD044
:102ED000376B100E375D26E2110E006E000E016E8C
:102EE00036CA04F0000E056E71EC05F0890E00265E
:102EF000040E012237510024E16E000E0120E26E23
:102F0000260E3725F66E920EF76E000EF722010E92
:102F1000F86E000EF8220900F5CF00F000C0E6FFC1
:102F2000372BD7D756D236511A0A04E036511B0A2E
:102F300001E003D0640E3E6F02D00A0E3E6F3ECA1F
:102F400004F0000E056E066E076E32CA00F033CA3A
:102F500001F034CA02F035CA03F04BEC0DF000C0AA
:102F600038FA01C039FA02C03AFA03C03BFA3ECA45
:102F700004F0000E056E066E076E32CA00F033CA0A
:102F800001F034CA02F035CA03F04BEC0DF008C072
:102F900000F009C001F00AC002F00BC003F000C04D
:102FA0003CFA01C03DFA36511A0A04E036511B0AB8
:102FB00001E017D0110E006E000E016E36CA04F04B
:102FC000000E056E71EC05F0890E0026040E01223C
:102FD0003F510024E16E000E0120E26E240EE66EE9
:102FE0003F2B376B080E375DD8B093D037CA00F04F
:102FF000000E016E026E036E00360090013602363E
:10300000033600360090013602360336BB0E00242C
:10301000F66EC80E0120F76E010E0220F86E090050
:10302000F5CF04F00900F5CF05F00900F5CF06F063
:103030000900F5CF07F038CA00F039CA01F03ACAE2
:1030400002F03BCA03F04BEC0DF0005001100210EF
:10305000031001E05ED037CA00F0000E016E026E70
:10306000036E0036009001360236033600360090BB
:10307000013602360336BB0E0024F66EC80E012060
:10308000F76E010E0220F86E0900F5CF04F009007A
:10309000F5CF05F00900F5CF06F00900F5CF07F0F0
:1030A00038CA00F039CA01F03ACA02F03BCA03F04C
:1030B0004BEC0DF008C000F009C001F00AC002F0AE
:1030C0000BC003F000C038FA01C039FA02C03AFA66
:1030D00003C03BFA3751070A1AE1110E006E000EC9
:1030E000016E36CA04F0000E056E71EC05F0890E13
:1030F0000026040E01223F510024E16E000E012043
:10310000E26E300E3825006E00C0E6FF3F2B372BF5
:1031100069D7080E375DD8B08DD0110E006E000E45
:10312000016E36CA04F0000E056E71EC05F0890ED2
:103130000026040E01223F510024406F000E0120A2
:10314000416F37CA00F0000E016E026E036E00364A
:103150000090013602360336003600900136023602
:103160000336BB0E0024F66EC80E0120F76E010E6A
:103170000220F86E0900F5CF04F00900F5CF05F044
:103180000900F5CF06F00900F5CF07F038CA00F0C6
:1031900039CA01F03ACA02F03BCA03F04BEC0DF019
:1031A000300E002640CAE1FF41CAE2FF00C0E6FF40
:1031B0003F2B37CA00F0000E016E026E036E003620
:1031C0000090013602360336003600900136023692
:1031D0000336BB0E0024F66EC80E0120F76E010EFA
:1031E0000220F86E0900F5CF04F00900F5CF05F0D4
:1031F0000900F5CF06F00900F5CF07F038CA00F056
:1032000039CA01F03ACA02F03BCA03F04BEC0DF0A8
:1032100008C000F009C001F00AC002F00BC003F0C2
:1032200000C038FA01C039FA02C03AFA03C03BFACA
:10323000372B6FD7110E006E000E016E36CA04F0E8
:10324000000E056E71EC05F0890E0026040E0122B9
:103250003F510024E16E000E0120E26E2E0EE66E5C
:103260003F2B36511A0A04E036511B0A01E055D0B3
:10327000110E006E000E016E36CA04F0000E056ECF
:1032800071EC05F0890E0026040E01223F51002446
:10329000406F000E0120416F0A0E046E000E056E95
:1032A0003CCA00F03DCA01F00EEC05F0300E0026DD
:1032B00040CAE1FF41CAE2FF00C0E6FF0A013F2B1E
:1032C000110E006E000E016E36CA04F0000E056E7F
:1032D00071EC05F0890E0026040E01223F510024F6
:1032E000406F000E0120416F0A0E046E000E056E45
:1032F0003CCA00F03DCA01F00EEC05F008C000F039
:1033000009C001F0300E002640CAE1FF41CAE2FFC9
:1033100000C0E6FF0A013F2B5CD0110E006E000ECC
:10332000016E36CA04F0000E056E71EC05F0890ED0
:103330000026040E01223F510024E16E000E012000
:10334000E26E300E3C25006E00C0E6FF3F2B110EF2
:10335000006E000E016E36CA04F0000E056E71ECB0
:1033600005F0890E0026040E01223F510024E16E73
:10337000000E0120E26E200EE66E3F2B376B030E2F
:10338000375D27E2110E006E000E016E36CA04F0A2
:10339000000E056E71EC05F0890E0026040E012268
:1033A0003F510024E16E000E0120E26E900E3725A1
:1033B000F66EC60EF76E000EF722010EF86E000EC6
:1033C000F8220900F5CF00F000C0E6FF3F2B372BB5
:0433D000D6D712003A
:1033D4000A01386B376B100E375D18E2110E006E60
:1033E400000E016E36CA04F0000E056E71EC05F095
:1033F400890E0026040E012237510024E16E000ECE
:103404000120E26E200EE66E372BE5D73551000A17
:1034140008E13451160A05E13351E30A02E132515D
:10342400600A2BE1376B100E375D26E2110E006E39
:10343400000E016E36CA04F0000E056E71EC05F044
:10344400890E0026040E012237510024E16E000E7D
:103454000120E26E260E3725F66E920EF76E000EF0
:10346400F722010EF86E000EF8220900F5CF00F0E5
:1034740000C0E6FF372BD7D76BD1376B080E375D0B
:10348400D8B093D037CA00F0000E016E026E036EFE
:1034940000360090013602360336003600900136BD
:1034A40002360336BB0E0024F66EC80E0120F76EFA
:1034B400010E0220F86E0900F5CF04F00900F5CFE3
:1034C40005F00900F5CF06F00900F5CF07F032CA80
:1034D40000F033CA01F034CA02F035CA03F04BECF1
:1034E4000DF0005001100210031001E05ED037CA45
:1034F40000F0000E016E026E036E0036009001367D
:103504000236033600360090013602360336BB0E0F
:103514000024F66EC80E0120F76E010E0220F86E2C
:103524000900F5CF04F00900F5CF05F00900F5CF47
:1035340006F00900F5CF07F032CA00F033CA01F0F3
:1035440034CA02F035CA03F04BEC0DF008C000F0A9
:1035540009C001F00AC002F00BC003F000C032FA47
:1035640001C033FA02C034FA03C035FA3751070AEE
:103574001AE1110E006E000E016E36CA04F0000E40
:10358400056E71EC05F0890E0026040E01223851F7
:103594000024E16E000E0120E26E300E3225006E32
:1035A40000C0E6FF382B372B69D7080E375DD8B03B
:1035B4008DD0110E006E000E016E36CA04F0000E9E
:1035C400056E71EC05F0890E0026040E01223851B7
:1035D4000024396F000E01203A6F37CA00F0000E44
:1035E400016E026E036E0036009001360236033619
:1035F40000360090013602360336BB0E0024F66E08
:10360400C80E0120F76E010E0220F86E0900F5CFF6
:1036140004F00900F5CF05F00900F5CF06F0090024
:10362400F5CF07F032CA00F033CA01F034CA02F011
:1036340035CA03F04BEC0DF0300E002639CAE1FF19
:103644003ACAE2FF00C0E6FF382B37CA00F0000E8A
:10365400016E026E036E00360090013602360336A8
:1036640000360090013602360336BB0E0024F66E97
:10367400C80E0120F76E010E0220F86E0900F5CF86
:1036840004F00900F5CF05F00900F5CF06F00900B4
:10369400F5CF07F032CA00F033CA01F034CA02F0A1
:1036A40035CA03F04BEC0DF008C000F009C001F07E
:1036B4000AC002F00BC003F000C032FA01C033FAB2
:1036C40002C034FA03C035FA372B6FD7110E006EDF
:1036D400000E016E36CA04F0000E056E71EC05F0A2
:1036E400890E0026040E012238510024E16E000EDA
:1036F4000120E26E200EE66E382B376B050E375D27
:1037040027E2110E006E000E016E36CA04F0000EA0
:10371400056E71EC05F0890E0026040E0122385165
:103724000024E16E000E0120E26E750E3725F66E60
:10373400C60EF76E000EF722010EF86E000EF82288
:103744000900F5CF00F000C0E6FF382B372BD6D7A1
:02375400120061
:10375600250E0A01326F070E336F050E346F030E06
:10376600356F100E366FA9EC15F0350E326F070E59
:10377600336FFA0E346F030E356F100E366FA9ECE9
:1037860015F0250E426F070E436F530E446F06EC7D
:103796000DF0350E426F070E436F100E446F000E8C
:0E37A600456F7AEC08F0010E0101006F120071
:1037B400086A080E0C6E003408360450085ED8B04F
:0E37C40002D00826D89000360C2EF5D7120041
:1037D200250E0A01326F070E336F350E346F070E56
:0837E200356F30EC10F012000D
:1037EA00000E0701D2B1010E0A01256F255319E017
:1037FA0023CA26FA24CA27FA020E2325E96E000EE6
:10380A002421EA6EEECF32FAEECF33FABFEC15F08E
:10381A0026CAE1FF27CAE2FF00C0E6FF01C0E6FFB1
:10382A0019D0020E0A012325266F000E2421276FC4
:10383A0023CAE9FF24CAEAFFEECF32FAEECF33FAFF
:10384A00DEEC15F026CAE1FF27CAE2FF00C0E6FF58
:06385A0001C0E6FF1200B0
:103860008B86530E0D6E0D2EFED78B88530E0D6E6C
:063870000D2EFED7120030
:103876008B98530E0D6E0D2EFED78B96530E0D6E36
:063886000D2EFED712001A
:10388C008B86530E0D6E0D2EFED7000E82B8010ED8
:10389C00016E8B96530E0D6E0D2EFED701C000F0EF
:0238AC00120008
:1038AE000A01246B080E245D19E224CA00F023CA13
:1038BE0002F0000E036E005005E002360290033651
:1038CE00FF0FFAD702AE03D0010E256F01D0256B84
:1038DE0025CA32FA1BEC10F0242BE4D76CEC10F056
:0238EE001200C6
:1038F0009498530E0D6E0D2EFED70A0123B102D0FF
:103900008B9801D08B88530E0D6E0D2EFED78B86B3
:10391000530E0D6E0D2EFED78B96530E0D6E0D2E83
:04392000FED71200BC
:103924000A01266B100E265D2EE226512325276FF1
:10393400000E2421286F140E006E000E016E026E1C
:10394400036E25CA04F0000E056E066E076ECFECFA
:1039540004F0230E0026C50E0122010E0222265178
:103964000024F66E000E0120F76E000E0220F86EA1
:103974000900F5CF00F027CAE1FF28CAE2FF00C022
:08398400E6FF262BCFD712004D
:10398C0027CA2CFA28CA2DFA0A01295305E0590E28
:10399C002A6F000E2B6F06D0010E23252A6F000E06
:1039AC0024212B6F2ACA42FA2BCA43FA25CA44FA9D
:0E39BC002CCA45FA2DCA46FADCEC0CF01200BB
:1039CA00020E0A012525E16E000E2621E26E020E84
:1039DA002325E96E000E2421EA6EEECFE6FFEECF34
:1039EA00E6FF25CAE1FF26CAE2FF23CAE9FF24CA85
:0C39FA00EAFFEECFE6FFEECFE6FF120082
:103A0600480E0A01326F070E336F346B8E0E356F18
:103A1600000E366F90EC15F0D60E326F070E336F30
:103A2600346B8E0E356F000E366F90EC15F0110E5E
:103A3600326F040E336F346B580E356F000E366FCF
:103A460090EC15F00F0E326F070E336F346B160EB7
:103A5600356F000E366F90EC15F00D0E326F090EB5
:103A6600336F346BA20E356F000E366F90EC15F087
:103A76006A0E326F040E336F346B050E356F000E0F
:103A8600366F90EC15F0D80E326F030E336F346B31
:103A96000C0E356F000E366F90EC15F0E40E326F9B
:103AA600030E336F346B0C0E356F000E366F90ECD1
:103AB60015F0F00E326F030E336F346B030E356F55
:103AC600000E366F90EC15F0F30E326F030E336F67
:103AD600346B030E356F000E366F90EC15F0C20E88
:103AE600326F030E336F346B0B0E356F000E366F6D
:103AF60090EC15F0CD0E326F030E336F346B0B0E58
:103B0600356F000E366F90EC15F0A40E326F030E73
:103B1600336F346B050E356F000E366F90EC15F073
:103B26009A0E326F030E336F346B050E356F000E2F
:103B3600366F90EC15F0940E326F030E336F346BC4
:103B4600060E356F000E366F90EC15F0AE0E326F26
:103B5600030E336F346B060E356F000E366F90EC26
:103B660015F0B40E326F030E336F346B060E356FDD
:103B7600000E366F90EC15F0890E426F040E436FFF
:103B8600860E446F020E456F7AEC08F00301BE6B99
:103B9600BF6BF66BF76BC06BC16BF86BF96B050E01
:103BA600C36F050ECE6F0801646B656B666B676B42
:103BB60085EC10F0005203E09AEC10F002D012EC03
:103BC60016F0010E0301C46F010ECF6F3F0E0901FF
:103BD600B26F3F0EB36F0701D2A507D0030E0A01DD
:103BE600326F336B4CEC15F005D00A01326B336B38
:103BF6004CEC15F0080160A508D0030E0A01326FDF
:103C0600010E336F4CEC15F006D00A01326B010E33
:103C1600336F4CEC15F0F60E0A01426F030E436F3C
:103C2600120E446F090E456F010E466F93EC08F0B5
:103C3600F60E426F030E436F180E446F0B0E456F60
:103C4600030E466F93EC08F0F60E426F030E436FB9
:103C5600240E446F090E456F010E466F93EC08F073
:103C6600F80E426F030E436F130E446F090E456F35
:103C7600010E466F93EC08F0F80E426F030E436F89
:103C8600190E446F0B0E456F030E466F93EC08F04A
:103C9600F80E426F030E436F250E446F090E456FF3
:103CA600010E466F93EC08F0326B336B346B356B59
:103CB600366BEAEC19F0326B336B346B356B010EF5
:103CC600366FEAEC19F0326B336B346B356B1A0EC8
:103CD600366F30EC17F0326B336B346B356B1B0E73
:103CE600366F30EC17F00D0E426F090E436F1C0E47
:103CF600446F0C0E456F070E466F93EC08F00101FA
:103D0600A36BA46BA56BA66B9E6B9F6BA06BA16B45
:103D1600A26B0401696B010E0101626FF00E0A01CC
:103D2600426F020E436F010E446F640E456F010E23
:103D3600466F99EC05F0F10E426F020E436F010ECD
:103D4600446F630E456F010E466F99EC05F0190E30
:103D560004010B6F8B948B9A010E0A6F030E0701F9
:103D6600D415016E0150010A09E1020ED419006E44
:103D7600030E0016D451001A00C0D4F7030E080132
:103D86006215016E0150010A09E1020E6219006E08
:0E3D9600030E00166251001A00C062F81200FF
:103DA4000A01276B100E275D14E227512325E96EC3
:103DB400000E2421EA6E27512525D96E000E2621F6
:103DC400DA6EEE50DE1802E1272B02D0006A03D02F
:083DD400E9D7010E006E120098
:103DDC00026A5E0E025C1FE2430EE96E040EEA6E8E
:103DEC0004016351E926D8B0EA2A130E0224F66EB8
:103DFC00C80EF76E000EF722010EF86E000EF822B8
:103E0C000900F5CF01F0EE50011803E102C000F0FB
:083E1C0002D0022ADED71200D9
:063E24000801658F120089
:103E2A000A012C6B2D6B2E6B2F6B27CA42FA28CAFC
:103E3A0043FA100E446F000E456F7AEC08F0130E29
:103E4A00006E000E016E026E036E45C704F0000E8E
:103E5A00056E066E076ECFEC04F0F00E0026AB0E70
:103E6A000122010E0222100E0024F66E000E01201D
:103E7A00F76E000E0220F86E0900F5CF01F001C0BE
:103E8A002AFA01AE23D07F0E2A15006E000E016EAB
:103E9A00026E036E090E046E000E056E066E076E44
:103EAA00CFEC04F0AF0E0024F66EC50E0120F76EBB
:103EBA00010E0220F86E0900F5CF00F027CAE1FFD3
:103ECA0028CAE2FF00C0E6FF274B282B800E2619DE
:103EDA00006E800E005C08E1000E255D05E1000E13
:103EEA00245D02E1000E235D08E227CAE1FF28CA29
:103EFA00E2FF2D0EE66E274B282B23CA32FA24CA7C
:103F0A0033FAFBEC15F000C023FA01C024FA000EC4
:103F1A0001BEFF0E256F266F2B6B080E2B5DD8B0E6
:103F2A0093D12E533BE02BCA00F0000E016E026EB5
:103F3A00036E0036009001360236033600360090D2
:103F4A000136023603369B0E0024F66EC80E012097
:103F5A00F76E010E0220F86E0900F5CF04F0090091
:103F6A00F5CF05F00900F5CF06F00900F5CF07F007
:103F7A0023CA00F024CA01F025CA02F026CA03F0B7
:103F8A00CCEC07F0300E002627CAE1FF28CAE2FF70
:103F9A0000C0E6FF0A01274B282BF8D02BCA00F0F5
:103FAA00000E016E026E036E003600900136023674
:103FBA000336003600900136023603369B0E002483
:103FCA00F66EC80E0120F76E010E0220F86E090087
:103FDA00F5CF04F00900F5CF05F00900F5CF06F09A
:103FEA000900F5CF07F023CA00F024CA01F025CA58
:103FFA0002F026CA03F0CCEC07F0005001100210C0
:10400A0003103EE0010E0A012E6F2BCA00F0000ECB
:10401A00016E026E036E00360090013602360336D8
:10402A00003600900136023603369B0E0024F66EE7
:10403A00C80E0120F76E010E0220F86E0900F5CFB6
:10404A0004F00900F5CF05F00900F5CF06F00900E4
:10405A00F5CF07F023CA00F024CA01F025CA02F0FE
:10406A0026CA03F0CCEC07F0300E002627CAE1FF7F
:10407A0028CAE2FF00C0E6FF0A01274B282B86D098
:10408A000A012F533AE02BCA00F0000E016E026EAD
:10409A00036E003600900136023603360036009071
:1040AA000136023603369B0E0024F66EC80E012036
:1040BA00F76E010E0220F86E0900F5CF04F0090030
:1040CA00F5CF05F00900F5CF06F00900F5CF07F0A6
:1040DA0023CA00F024CA01F025CA02F026CA03F056
:1040EA00CCEC07F0300E002627CAE1FF28CAE2FF0F
:1040FA0000C0E6FF0A01274B282B2B512925016E08
:10410A00000E29BFFF0E026E000E0222000E0218D8
:10411A0002E1070E01183AE12BCA00F0000E016E07
:10412A00026E036E00360090013602360336003600
:10413A0000900136023603369B0E0024F66EC80E36
:10414A000120F76E010E0220F86E0900F5CF04F087
:10415A000900F5CF05F00900F5CF06F00900F5CF03
:10416A0007F023CA00F024CA01F025CA02F026CAC1
:10417A0003F0CCEC07F0300E002627CAE1FF28CA6C
:10418A00E2FF00C0E6FF0A01274B282B2BCA00F0EA
:10419A00000E016E026E036E003600900136023682
:1041AA000336003600900136023603369B0E002491
:1041BA00F66EC80E0120F76E010E0220F86E090095
:1041CA00F5CF04F00900F5CF05F00900F5CF06F0A8
:1041DA000900F5CF07F023CA00F024CA01F025CA66
:1041EA0002F026CA03F0CCEC07F008C000F009C0C0
:1041FA0001F00AC002F00BC003F000C023FA01C0AC
:10420A0024FA02C025FA03C026FA0A012B512925ED
:10421A00016E000E29BFFF0E026E000E0222000E72
:10422A00021802E1070E01180DE12951000A0AE0FD
:10423A0027CAE1FF28CAE2FF2E0EE66E274B282B7B
:10424A00010E2F6F2B2B69D62ABF65D02C6B2A51F2
:10425A00020A07E1006A0701D2B1002A00500A01E6
:10426A002A2727CAE1FF28CAE2FF200EE66E274B5B
:10427A00282B090E006E000E016E026E036E2ACA0A
:10428A0004F0000E056E066E076ECFEC04F0AF0E5A
:10429A000026C50E0122010E02222C510024F66EC0
:1042AA00000E0120F76E000E0220F86E0900F5CF0D
:1042BA0001F00150200A2FE02D512725306F000E02
:1042CA002821316F090E006E000E016E026E036E18
:1042DA002ACA04F0000E056E066E076ECFEC04F0D3
:1042EA00AF0E0026C50E0122010E02222C51002417
:1042FA00F66E000E0120F76E000E0220F86E09001D
:10430A00F5CF00F030CAE1FF31CAE2FF00C0E6FF94
:08431A002C2B2D2BAED7120055
:10432200000E0701D2B1010E056E05524DE0020EDC
:104332000A012325E96E000E2421EA6EEECF03F076
:10434200EECF04F003C000F004C001F0003600908C
:10435200013623CAE1FF24CAE2FF00C0E6FF01C022
:10436200E6FF23CAE9FF24CAEAFFEECF01F0EECF4F
:1043720002F0800E006E800E0218005C02E1015015
:104382000A0808E223CAE1FF24CAE2FF0A0EE66E27
:10439200000EE66E23CAE9FF24CAEAFFEECF01F05F
:1043A200EECF02F0800E0218006E800E005C02E179
:1043B200010E015C08E223CAE1FF24CAE2FF010EFA
:1043C200E66E000EE66E56D00A01020E2325E16E5D
:1043D200000E2421E26E23CAE9FF24CAEAFFEECFCF
:1043E20003F0EECF04F003C000F004C001F001328C
:1043F2000032019E01BC018E00C0E6FF01C0E6FF53
:10440200020E2325E96E000E2421EA6EEECF01F0A2
:10441200EECF02F0800E006E800E0218005C02E108
:10442200015005080AE2020E2325E16E000E242146
:10443200E26E050EE66E000EE66E020E2325E96EB2
:10444200000E2421EA6EEECF01F0EECF02F0800ED4
:104452000218006E800E005C02E1010E015C0AE2AD
:10446200020E2325E16E000E2421E26E010EE66E9D
:06447200000EE66E1200D0
:104478008E0E006E000E016E23CA04F0000E056E4B
:1044880071EC05F0480E0026070E0122360E0026B4
:10449800000E0122540E0024E96E000E0120EA6E7F
:1044A800EECF00F000B602D0006A02D0010E006E16
:0244B8001200F0
:1044BA000C6A0E6A0250D8A476EF22F001C002F00C
:1044CA0000C001F0006A0E860250D8A476EF22F0EE
:1044DA0001C002F0016A0E960E880250D8B488EF25
:1044EA0022F00E50035ED8A4D8A08EEF22F0D89006
:1044FA0002BE94EF22F0003601360236032E7DEF1B
:10450A0022F08EEF22F0010E0C6ED5EC0CF098EF33
:10451A0022F0020E0C6E3AEC0DF098EF22F0040E27
:08452A000C6E47EC0DF01200CD
:10453200025006180E6E086A096A0B6A0350076475
:104542008CEF23F006500A6E068E028E03500B6E1D
:104552000750036E000E0B64DCEF22F00B50075E77
:10456200D8B47DEF23F0070E07644BEF23F0075E0C
:1045720000C008F001C000F002C001F0026A074E5C
:104582007DEF23F0076420EF23F0075E00C008F000
:1045920001C000F0016A074E7DEF23F00764FEEFD1
:1045A20022F0075E00C008F0006A074E7DEF23F09C
:1045B2000764E5EF22F00AC002F005C001F004C072
:1045C20000F0086AA9EF24F0030E0764F0EF22F06E
:1045D200075E08380F0B086E074E7DEF23F0D89068
:1045E2000832074E7DEF23F0D8900832074E7DEF58
:1045F20023F0D89008327DEF23F0030E07640FEF0B
:1046020023F0075E08380F0B086E0038F00B0826FF
:1046120000380F0B006E074E7DEF23F0D89000326A
:104622000832074E7DEF23F0D89000320832074E51
:104632007DEF23F0D890003208327DEF23F0030E95
:10464200076437EF23F0075E08380F0B086E003857
:10465200F00B082600380F0B006E0138F00B002615
:1046620001380F0B016E074E7DEF23F0D890013217
:1046720000320832074E7DEF23F0D890013200322B
:104682000832074E7DEF23F0D89001320032083213
:104692007DEF23F0030E076468EF23F0075E08380E
:1046A2000F0B086E0038F00B082600380F0B006E57
:1046B2000138F00B002601380F0B016E0238F00BA7
:1046C200012602380F0B026E074E7DEF23F0D890C1
:1046D2000232013200320832074E7DEF23F0D890C9
:1046E2000232013200320832074E7DEF23F0D890B9
:1046F2000232013200320832096A000E0EAE71EF48
:1047020024F0081E001E011E021E082A0022012299
:10471200022271EF24F00750D8A492EF23F0A9EF00
:1047220024F0096A02C00AF0028E068E0750035C6A
:10473200076ED8B464EF24F0070E076432EF24F05A
:10474200075E0450096E0550046E0650056E066A37
:10475200074E64EF24F0070E076407EF24F0075EAC
:104762000450096E0550046E056A074E64EF24F08A
:10477200070E0764E5EF23F0075E0450096E046A32
:10478200074E64EF24F0070E0764CCEF23F00AC053
:1047920002F0A9EF24F0030E0764D7EF23F0075EBF
:1047A20009380F0B096E074E64EF24F0D8900932D6
:1047B200074E64EF24F0D8900932074E64EF24F0DC
:1047C200D890093264EF24F0030E0764F6EF23F069
:1047D200075E09380F0B096E0438F00B09260438FE
:1047E2000F0B046E074E64EF24F0D89004320932A6
:1047F200074E64EF24F0D89004320932074E64EF7A
:1048020024F0D8900432093264EF24F0030E0764D6
:104812001EEF24F0075E09380F0B096E0438F00B07
:10482200092604380F0B046E0538F00B04260538F0
:104832000F0B056E074E64EF24F0D8900532043258
:104842000932074E64EF24F0D8900532043209325F
:10485200074E64EF24F0D89005320432093264EF37
:1048620024F0030E07644FEF24F0075E09380F0BA4
:10487200096E0438F00B092604380F0B046E053854
:10488200F00B042605380F0B056E0638F00B0526D3
:1048920006380F0B066E074E64EF24F0D8900632EE
:1048A200053204320932074E64EF24F0D890063202
:1048B200053204320932074E64EF24F0D8900632F2
:1048C200053204320932086A000E0EAE71EF24F08E
:1048D200091E041E051E061E092A0422052206229E
:1048E20009500826045000220550012206500222D7
:1048F2000EBE88EF24F0D8A097EF24F002320132E6
:1049020000320832033E97EF24F0A3EF24F0D8B030
:104912009DEF24F0000E081E001E011E021E082A32
:104922000022012202220A7E9DEF24F0010E0C6E6B
:104932002AEC0FF0ABEF24F0020E0C6E2AEC0FF013
:10494200ABEF24F0040E0C6EFAEC0CF0ABEF24F09B
:06495200000E0C6E1200C5
:084958000B6A0B86FF0E120032
:104960000B800BAEBCEF24F0026A0AAEFF0E026EA3
:0C497000016E006E0A360232FF0E1200CB
:10497C000B6A0C6A086A0350D8B442EF25F002C0E7
:10498C000AF0028E9E0E035E03AE32EF25F0036C2E
:10499C00080E035CD8A0FFEF24F0036E083600C0AD
:1049AC0008F001C000F002C001F0026A080E035CBE
:1049BC00D8A0FFEF24F0036E083600C008F001C049
:1049CC0000F0016A080E035CD8A0FFEF24F0036E20
:1049DC00083600C008F0006A080E035CD8A0FFEF90
:1049EC0024F0036E0836086A0350D8A4D8900BEF55
:1049FC0025F00350D8B40BEF25F0D89002320132D9
:104A0C0000320832032E03EF25F00BBC08A01CEF7C
:104A1C0025F0D8A01CEF25F0082AD8B4002AD8B469
:104A2C00012AD8B4022A02BE46EF25F00AAE42EFA4
:104A3C0025F0021E011E001E081E082AD8B4002AEA
:104A4C00D8B4012AD8B4022A42EF25F0026A016ACE
:104A5C00006A086A42EF25F00B800BAE4CEF25F094
:104A6C00026A0AAE4CEF25F0026E016E006E086E03
:104A7C000A3602324CEF25F00C6A000E4DEF25F091
:104A8C00010E0C6E000E66DF4DEF25F0FF0E02508E
:104A9C00036E0150026E0050016E0850006E120041
:104AAC0013CA42FA14CA43FA100E0A01446F000EDC
:104ABC00456F7AEC08F01551090821E20A0E046ED4
:104ACC0015CA00F0DAEC1BF013CAE1FF14CAE2FFBE
:104ADC00300E0024E66E134B142B0A0E046E15CA0E
:104AEC0000F0DAEC1BF008C000F013CAE1FF14CAA6
:104AFC00E2FF300E0024E66E134B142B09D013CAC0
:104B0C00E1FF14CAE2FF300E1525E66E134B142B91
:104B1C0013CAE1FF14CAE2FF2F0EE66E134B142BDF
:104B2C001951010A2DE11651090821E20A0E046EF1
:104B3C0016CA00F0DAEC1BF013CAE1FF14CAE2FF4C
:104B4C00300E0024E66E134B142B0A0E046E16CA9C
:104B5C0000F0DAEC1BF008C000F013CAE1FF14CA35
:104B6C00E2FF300E0024E66E134B142B09D013CA4F
:104B7C00E1FF14CAE2FF300E1625E66E134B142B20
:104B8C00006B1851005D2EE2005113251A6F000EB8
:104B9C0014211B6F090E006E000E016E026E036E67
:104BAC0017CA04F0000E056E066E076ECFEC04F00B
:104BBC002D0E0026C60E0122010E022200510024E9
:104BCC00F66E000E0120F76E000E0220F86E090042
:104BDC00F5CF00F01ACAE1FF1BCAE2FF00C0E6FFE6
:064BEC00002BCFD71200E0
:104BF2000A011451010AD8A43BD10701D3B101D053
:104C0200CBD101019C51010AD8A416D19C6B9D51B4
:104C1200000A14E1250E0A01426F070E436F540E7B
:104C2200446F06EC0DF0350E426F070E436F040E13
:104C3200446F06EC0DF001019D2BFDD09D6B130E10
:104C4200006E000E016E026E036E45C704F0000E88
:104C5200056E066E076ECFEC04F0F00E0026AB0E6A
:104C62000122010E0222040E0024F66E000E012023
:104C7200F76E000E0220F86E0900F5CF01F0015028
:104C8200050AD8A496D0600E0A01326F070E336F60
:104C9200346B1E0E356F000E366F90EC15F0EE0E73
:104CA200326F070E336F346B1E0E356F000E366F88
:104CB20090EC15F00A0E006F140E005D18E2110E52
:104CC200006E000E016E00CA04F0000E056E71EC5B
:104CD20005F0890E0024426F040E0120436F100E6E
:104CE200446F000E456F7AEC08F0002BE5D73F0EBB
:104CF2000901B26F3F0EB36F700E0A01426F070EC9
:104D0200436F180E446F0B0E456F030E466F93EC04
:104D120008F0FE0E426F070E436F180E446F0B0E23
:104D2200456F030E466F93EC08F07A0E426F070E42
:104D3200436F180E446F0B0E456F030E466F93ECD4
:104D420008F0080E426F080E436F180E446F0B0EE8
:104D5200456F030E466F93EC08F0326B336B346B86
:104D6200356B1A0E366F30EC17F0326B336B346BD7
:104D7200356B366BEAEC19F0326B336B346B356B97
:104D82001B0E366F30EC17F0326B336B346B356BB6
:104D9200010E366FEAEC19F00D0E426F090E436FE9
:104DA2001C0E446F0C0E456F070E466F93EC08F015
:104DB2002BD0130E006E000E016E026E036E45C7FD
:104DC20004F0000E056E066E076ECFEC04F0F00ED6
:104DD2000026AB0E0122010E0222040E0024F66E02
:104DE200000E0120F76E000E0220F86E0900F5CFCA
:104DF20001F00150070A08E10A01526B536B546B30
:104E0200B3EC04F003EC1DF0250E0A01426F070E0D
:104E1200436F550E446F06EC0DF0350E426F070ED0
:104E2200436F100E446F000E456F7AEC08F0010ECE
:104E32000101006F786B1BD09D6B9C6B050E0A0104
:104E4200326F030E336F250E346F070E356F100E5F
:104E5200366FA9EC15F0FA0E326F030E336F350E72
:104E6200346F070E356F100E366FA9EC15F094D023
:104E72000A011451020A59E101019D6B9C6B0A015E
:104E8200006B100E005D30E2250E156F070E166FD7
:104E920000511527D8B0162B110E006E000E016EB0
:104EA200026E036E45C704F0000E056E066E076EB5
:104EB200CFEC04F07F0E0026BD0E0122010E02226D
:104EC20000510024F66E000E0120F76E000E022043
:104ED200F86E0900F5CF00F015CAE1FF16CAE2FF2D
:104EE20000C0E6FF002BCDD7350E426F070E436F91
:104EF200040E446F06EC0DF0250E326F070E336F71
:104F0200050E346F030E356F100E366FA9EC15F0D7
:104F1200350E326F070E336FFA0E346F030E356F94
:104F2200100E366FA9EC15F037D01451040A34E193
:104F32000701D3B101D030D00A01135307E00101B8
:104F42009C51000A02E1010E9C6F04D001019C53A6
:104F5200D8A49C6B9D51010A09E1250E0A01426FFA
:104F6200070E436F540E446F06EC0DF001019C5383
:104F72000AE0350E0A01426F070E436F050E446FB9
:104F820006EC0DF009D00A01350E426F070E436F91
:0A4F9200040E446F06EC0DF012004F
:104F9C000A011451010AD8A403D10701D3B101D0DD
:104FAC001AD201017953D8B4F9D07751000A16E11D
:104FBC000401636B646B010E0101776F250E0A010E
:104FCC00236F070E246F010E256F92EC1CF0080165
:104FDC006587678D010E0901AF6FCAD0010177514A
:104FEC00010A3BE1530E0A01236F040E246FC00E1D
:104FFC00256F070E266FD2EC1EF0005215E004014F
:10500C00636B646B020E0101776F250E0A01236F2F
:10501C00070E246F020E256F92EC1CF00801678DB1
:10502C00010E0901AF6F18D0250E0A01236F070E70
:10503C00246F050E256F92EC1CF00101776B796BD8
:10504C0008016597010E0101006F0801679D0C0EA8
:10505C000A01426FE4EC0EF08BD001017751020A89
:10506C003DE1030E0401635D19E2250E0A01236F75
:10507C00070E246F050E256F92EC1CF00101776B67
:10508C00796B08016597010E0101006F0801679D9E
:10509C000C0E0A01426FE4EC0EF01FD0636B646BD4
:1050AC00030E0101776F530E0A01326F040E336F3A
:1050BC00770E346F040E356F100E366FA9EC15F0A9
:1050CC00250E236F070E246F77C125FA92EC1CF086
:1050DC000801678D010E0901AF6F4AD001017751AC
:1050EC00030A46E1770E0A01236F040E246F530E58
:1050FC00256F040E266FD2EC1EF0005220E0040E39
:10510C000101776F530E0A01326F040E336FC00E1C
:10511C00346F070E356F100E366FA9EC15F0420E7A
:10512C00236F000E246F100E256F000E266FC00E1D
:10513C00276F070E286F296BC6EC1CF003D0060EE8
:10514C000101776F250E0A01236F070E246F77C1BB
:10515C0025FA92EC1CF00101776B796B010E006F54
:10516C000801679D65970C0E0A01426FE4EC0EF086
:10517C00350E0A01426F070E436F100E446F000E7E
:10518C00456F7AEC08F0530E426F040E436F100E0D
:10519C00446F000E456F7AEC08F001D01CD11BD186
:1051AC000A011451020A3FE10101776B796B080186
:1051BC006597250E0A01236F070E246F256B92EC61
:1051CC001CF0350E426F070E436F040E446F06EC55
:1051DC000DF0250E326F070E336F050E346F030E74
:1051EC00356F100E366FA9EC15F0350E326F070EB9
:1051FC00336FFA0E346F030E356F100E366FA9EC49
:10520C0015F0530E426F040E436F100E446F000ED8
:10521C00456F7AEC08F00801679D0C0E0A01426F8D
:10522C00E4EC0EF0D8D00A011451030A45E1070151
:10523C00D3B101D0D0D0250E0A01236F070E246FF5
:10524C0077C125FA92EC1CF0350EE96E070EEA6E6A
:10525C0004016351E926D8B0EA2AEE50200A2BE06B
:10526C00350EE16E070EE26E6351E126D8B0E22AEC
:10527C002A0EE66E0A011351010A14E1100E040104
:10528C00635D10E2530EE96E040EEA6E6351E9267B
:10529C00D8B0EA2AEE50200A05E06351010F006EE7
:1052AC0000C063F40401646B0801678D0401635151
:1052BC00010F0901AF6F8FD00A011451040AD8A451
:1052CC008AD00701D3B101D086D001017751000AF1
:1052DC001BE1010E7919006E00C079F100520AE051
:1052EC00350E0A01426F070E436F050E446F06EC34
:1052FC000DF009D00A01350E426F070E436F040EF4
:10530C00446F06EC0DF067D00A01250E236F070ED3
:10531C00246F77C125FA92EC1CF01351010A22E19B
:10532C003F0E0401645D1EE2530EE16E040EE26E4C
:10533C006351E126D8B0E22A6451010F006E00C01F
:10534C0064F4130E6425F66EC80EF76E000EF72289
:10535C00010EF86E000EF8220900F5CF00F000C027
:10536C00E6FF24D00A011351000A20E10401645124
:10537C0000081CE2530EE16E040EE26E6351E1264E
:10538C00D8B0E22A6405006E00C064F4130E6425E4
:10539C00F66EC80EF76E000EF722010EF86E000EB8
:1053AC00F8220900F5CF00F000C0E6FF0401350E2D
:1053BC00E16E070EE26E6351E126D8B0E22A530E7D
:1053CC00E96E040EEA6E6351E926D8B0EA2AEECFF4
:0853DC00E6FF0801678D1200D5
:1053E4000050086E0150006E016A026A036A0B6A7B
:1053F4000C6A960E036E0A6A00C001F008C000F041
:0A540400086A026A5DEC22F0120053
:10540E0015CA00F0000E016E00360090013600360F
:10541E000090013600500A011325036E015014212D
:10542E00046E165309E003C0E9FF04C0EAFFEECF95
:10543E0000F0EECF01F00AD0020E0324E96E000E4A
:0E544E000420EA6EEECF00F0EECF01F0120067
:10545C00086A096A000E07620364B3EF2AF002506F
:10546C0006180A6E075003267E0ED8A044EF2AF0C9
:10547C00035ED8B0B8EF2AF048EF2AF0035ED8A04C
:10548C00BDEF2AF0028E068E02C00EF001C00BF0AA
:10549C0000C00DF000500402F4CF0CF001500502D6
:1054AC00F4CF00F0F3CF08F00402F3500C26F450C4
:1054BC000822000E00220D500502F3500C26F45069
:1054CC000822000E002202500402F3500826F45069
:1054DC00002202500502016A000E0122F350002640
:1054EC00F45001220D500602F3500826F45000220D
:1054FC00026A000E012202220B500602F350002613
:10550C00F4500122000E02220E500602F350012626
:10551C00F450022202BE9BEF2AF008360036013608
:10552C0002360306D8B4BDEF2AF0AEEF2AF0D880CD
:10553C00800E08640030000E002201220222D8A046
:10554C00AEEF2AF0023201320032034AB8EF2AF0F1
:10555C000AAE029E000EC0EF2AF0010ED5EC0CF044
:10556C00C0EF2AF0020EFAEC0CF0C0EF2AF0040E99
:06557C003AEC0DF01200F4
:08558200067E99EC22F01200F4
:10558A000A01006B136B136B040E135D15E2680EB0
:10559A00E16E080EE26E0051E126D8B0E22A7B0ED7
:1055AA00E96E010EEA6E1351E926D8B0EA2AEECF67
:1055BA00E6FF002B132BE8D7100E0027136B050EFE
:1055CA00135D15E2680EE16E080EE26E0051E126E7
:1055DA00D8B0E22A710EE96E010EEA6E1351E9267D
:1055EA00D8B0EA2AEECFE6FF002B132BE8D7040E39
:1055FA00006F0C0E0701D315016E0132019E0132B4
:10560A00019E0150020A4EE181517F0A02E1FF0E1A
:10561A0080190EE1680E0A01426F080E436F0051AD
:10562A004227D8B0432B590E446F06EC0DF011D027
:10563A000A01EF0E326F040E336F680E346F080ED4
:10564A00356F00513427D8B0352B100E366FA9ECC0
:10565A0015F0150E002708010F517F0A02E1FF0E0F
:10566A000E190EE1680E0A01426F080E436F0051CF
:10567A004227D8B0432B590E446F06EC0DF011D0D7
:10568A000A01000E326F050E336F680E346F080E72
:10569A00356F00513427D8B0352B100E366FA9EC70
:1056AA0015F031D00C0E0701D315016E0132019E9F
:1056BA000132019E0150010A26E1990E0A01326F58
:1056CA00050E336F680E346F080E356F005134279C
:1056DA00D8B0352B100E366FA9EC15F0150E002533
:1056EA00006E00C000FAAA0E326F050E336F680E04
:1056FA00346F080E356F00503427D8B0352B100E92
:08570A00366FA9EC15F0120046
:085712000801659F6691120079
:10571A000A011451010A07E1B4C9A7F1ABEC1BF065
:10572A00010E026F35D00A011451020A0EE1350E3C
:10573A00426F070E436F0101A751600F0A01446FC0
:10574A0006EC0DF0A7C1B4F923D01451040A20E1E4
:10575A00135310E00901B451000A0BE1010EB46FB2
:10576A00350E0A01426F070E436F610E446F06EC55
:10577A000DF00ED00901B451010A0AE1B46B350EDD
:10578A000A01426F070E436F600E446F06EC0DF07C
:02579A001200FB
:0C579C00010E01018A6F886B896B1200FE
:1057A800000E0701D2B1010E0A01196F1A6B110E12
:1057B8001B6F040E1C6F19511A1109E0F40E156FB6
:1057C800010E166FCE0E176FFF0E186F08D0A40EBD
:1057D800156F030E166FC60E176FFF0E186F145154
:1057E800010A38E10701D3B101D016D304011451DD
:1057F8007F0A02E1FF0E13190DE014517F0A02E13E
:10580800FE0E131907E0110E0A01236F040E246F10
:10581800F5EC1BF0110E0A01236F040E246F8E0E97
:10582800006E000E016EA7C104F0000E056E71EC4B
:1058380005F0480E0024256F070E0120266F360E4E
:105848002527000E2623E5EC1CF0ABEC1BF0010E1F
:10585800026FDAD20A011451020AD8A47FD08E0E40
:10586800006E000E016EA7C104F0000E056E71EC0B
:1058780005F0480E0024236F070E0120246F360E12
:105888002327000E2423110E256F040E266FE5EC46
:105898001CF0040114517F0A02E1FF0E13190AE1FA
:1058A800350E0A01426F070E436F490E446F06EC2E
:1058B8000DF053D0040114517F0A02E1FE0E1319B2
:1058C8000AE1350E0A01426F070E436F4B0E446F13
:1058D80006EC0DF042D00A0119CA00F01ACA01F00C
:1058E80000360090013600501B25E96E01501C213E
:1058F800EA6EEECF23FAEECF24FA000E26BFFF0E93
:10590800256F266F000E24BFFF0E256F266F350EFC
:10591800276F070E286F130E006E000E016E026EC1
:10592800036E45C704F0000E056E066E076ECFECD9
:1059380004F0F00E0026AB0E0122010E0222110E19
:105948000024F66E000E0120F76E000E0220F86E9D
:105958000900F5CF29FA15EC1FF056D21451040AA4
:10596800D8A452D20701D3B101D056D212EC1FF0FD
:105978000A011353D8B401D119CA00F01ACA01F0A8
:1059880000360090013600501B25E96E01501C219D
:10599800EA6EEECF01F0EECF02F002507F0A02E18C
:1059A800FE0E011813E1FF0E0401136F7F0E146F32
:1059B800FF0E116F7F0E126F350E0A01426F070E30
:1059C800436F490E446F06EC0DF0D6D019CA00F0AB
:1059D8001ACA01F000360090013600501B25E96E06
:1059E80001501C21EA6EEECF01F0EECF02F002501A
:1059F800161902E11551011813E1FE0E0401136F87
:105A08007F0E146FFE0E116F7F0E126F350E0A0196
:105A1800426F070E436F4B0E446F06EC0DF0ACD08F
:105A280019CA00F01ACA01F0003600900136005079
:105A38001B25E96E01501C21EA6EEECF01F0EECF76
