:0400000078EF77F02E
:020006001200E6
:1000080000C01EF001C01DF002C01CF003C01BF0B0
:1000180004C01AF005C019F008C018F009C017F09C
:100028000AC016F00BC015F0E1CF23F0E2CF24F0A0
:10003800E9CF21F0EACF22F0F3CF1FF0F4CF20F080
:10004800F2A493D10201D15323E0010E03019825B4
:10005800006E000E9921016E00C098F301C099F35B
:10006800000E006E9951005C02E19851640803E2A9
:100078000201D16B0CD0000E006E03019951005C97
:1000880002E19851320803E2020E0201D16F67D1F2
:1000980081EC67F006EC67F000018A530DE08D8271
:1000A8008B4B8C2B000E8C5D02E1280E8B5D04E3DC
:1000B8008A6B8D92010E2F6E8CC302F08DC303F0F4
:1000C800010E03018C25006E000E8D21016E00C00B
:1000D8008CF301C08DF3130E035C02E1880E025C01
:1000E800D8A0E7D08F728C6B8D6B010E0201436F25
:1000F800600E05014315016E050E006E005004E008
:100108000132019EFF0FFBD70150010A1AE194C387
:1001180002F095C303F0010E03019425006E000E52
:100128009521016E00C094F301C095F35151035C11
:1001380002E15051025C05E3946B956B010E0001DE
:10014800B76F2E5211E036C001F037C002F0364AC0
:10015800372A000E006E0250005C02E101500A08C6
:1001680003E22E6A366A376A050143B520D00301D7
:100178004D517F0A02E1FF0E4C1919E090C302F0BD
:1001880091C303F0010E9025006E000E9121016EBF
:1001980000C090F301C091F34D51035C02E14C5152
:1001A800025C05E3906B916B05014385458F96C30F
:1001B80001F003019651010F006E00C096F30A0E7C
:1001C800015C07E3966B060E05014211006E00C044
:1001D80042F525C001F026C002F0254A262A000E65
:1001E800025C02E1240E015C04E3256A266A010E22
:1001F800426E3E50010A13E14CC001F04DC002F0BE
:100208004C4A4D2A800E0218006E800E005C02E1F6
:100218000A0E015C04E34C6A4D6A020E3E6E05014B
:10022800300E4515016E0132019E0132019E0132E8
:10023800019E0132019E0150010A21E19EC302F094
:100248009FC303F0010E03019E25006E000E9F213F
:10025800016E00C09EF301C09FF30350010802E144
:1002680002502C080CE29E6B9F6B200E050145196D
:10027800006E300E00164551001A00C045F5F6EC28
:1002880068F00052D8A48D700501D10EDA6F000E07
:10029800DB6FDC6BBEEC67F00101BA51010A09E1C2
:1002A800D70E0501DA6F000EDB6F010EDC6FBEECB6
:1002B80067F00001895323E08EC302F08FC303F077
:1002C800010E03018E25006E000E8F21016E00C005
:1002D8008EF301C08FF3130E035C02E1880E025CFB
:1002E8000EE30001896B03018E6B8F6B0001B6531F
:1002F80003E00501438503D0010E00018D6F050160
:1003080043AF19D094C302F095C303F0010E030163
:100318009425006E000E9521016E00C094F301C073
:1003280095F3130E035C02E1880E025C04E3946B00
:10033800956B050144810201465311E09CC001F010
:100348009DC002F000019C4B9D2B000E025C02E157
:10035800960E015C04E39C6B9D6B05014281FC0ECB
:10036800D76ECD0ED66EF29419D0F2A202D0F292C8
:1003780015D09EAA13D000018A51000A02E1010E8D
:100388008A6FE10E3024E16E000E3120E26EAECFAE
:10039800E6FF304A312A8B6B8C6B9E9A1FC0F3FFA5
:1003A80020C0F4FF1EC000F01DC001F01CC002F008
:1003B8001BC003F01AC004F019C005F018C008F0FB
:1003C80017C009F016C00AF015C00BF021C0E9FFEC
:0E03D80022C0EAFF23C0E1FF24C0E2FF1100B3
:1003E6008E8E530E0D6E0D2EFED78E9E530E0D6EF7
:0603F6000D2EFED71200DF
:0C03FC00000000000000000000001200E3
:10040800240E0C6EB50E0D6E0D2EFED70C2EFCD7DD
:06041800000000001200CC
:0A041E00530E0D6E0D2EFED71200D6
:10042800220E0C6E086A096A0A6A0B6A0C06D8B4AE
:100438001FD0D8900B320A32093208320332023206
:1004480001320032D8A0F2D70C06D8B409D0045033
:1004580008260550092206500A2207500B22EAD71F
:10046800045008260550092206500A2207500B227C
:02047800120070
:10047A00A6A202D00000FCD7A69CD8C5AAFFD7C561
:10048A00A9FFD9C5A8FFA69EA684F2CF00F0F29EC6
:10049A00550EA76EAA0EA76EA68200BE02D0F29EC5
:0804AA0001D0F28EA6941200AD
:1004B200A69CD8C5AAFFD7C5A9FFA69EA680A8CF8D
:0404C20000F0120034
:1004C600070E016ED7C500F0015004E00032009E11
:1004D600FF0FFBD7010E001600B002D08D9E01D093
:1004E6008D8E060E016ED7C500F0015004E0003275
:1004F600009EFF0FFBD7010E001600B002D08D9CA8
:1005060001D08D8C050E016ED7C500F0015004E0B8
:100516000032009EFF0FFBD7010E001600B002D07E
:100526008D9A01D08D8AD7C500F00032009E003228
:10053600009E0032009E0032009E010E001600B0A2
:1005460002D08D9801D08D888E8A4ADFD7C500F0FB
:100556000032009E0032009E0032009E010E001600
:1005660000B002D08D9E01D08D8ED7C500F000322E
:10057600009E0032009E010E001600B002D08D9C37
:1005860001D08D8CD7C500F00032009E010E0016FA
:1005960000B002D08D9A01D08D8A010E0501D715C3
:1005A600006E00B002D08D9801D08D8819DF120040
:1005B6000450085E0550D8A0053C095E0650D8A038
:1005C600063C0A5E0750D8A0073C0B5E0336070EB2
:1005D6000C6E0334083609360A360B36045003A06F
:1005E6000ED0085E0550D8A0053C095E0650D8A07E
:1005F600063C0A5E0750D8A0073C0B5E0DD00826C5
:100606000550D8B0053C09260650D8B0063C0A2647
:100616000750D8B0073C0B2603360C2EDAD7023427
:10062600083609360A360B36045003A00ED0085E8B
:100636000550D8A0053C095E0650D8A0063C0A5EC7
:100646000750D8A0073C0B5E0DD008260550D8B041
:10065600053C09260650D8B0063C0A260750D8B0F5
:10066600073C0B260236070E0C6E02340836093696
:100676000A360B36045002A00ED0085E0550D8A0EC
:10068600053C095E0650D8A0063C0A5E0750D8A075
:10069600073C0B5E0DD008260550D8B0053C092650
:1006A6000650D8B0063C0A260750D8B0073C0B26A1
:1006B60002360C2EDAD70134083609360A360B36DE
:1006C600045002A00ED0085E0550D8A0053C095E75
:1006D6000650D8A0063C0A5E0750D8A0073C0B5E21
:1006E6000DD008260550D8B0053C09260650D8B0CE
:1006F600063C0A260750D8B0073C0B260136070EE3
:100706000C6E0134083609360A360B36045001A041
:100716000ED0085E0550D8A0053C095E0650D8A04C
:10072600063C0A5E0750D8A0073C0B5E0DD0082693
:100736000550D8B0053C09260650D8B0063C0A2616
:100746000750D8B0073C0B2601360C2EDAD70034FA
:10075600083609360A360B36045001A00ED0085E5C
:100766000550D8A0053C095E0650D8A0063C0A5E96
:100776000750D8A0073C0B5E0DD008260550D8B010
:10078600053C09260650D8B0063C0A260750D8B0C4
:10079600073C0B260036070E0C6E00340836093669
:1007A6000A360B36045000A00ED0085E0550D8A0BD
:1007B600053C095E0650D8A0063C0A5E0750D8A044
:1007C600073C0B5E0DD008260550D8B0053C09261F
:1007D6000650D8B0063C0A260750D8B0073C0B2670
:1007E60000360C2EDAD700B00ED00450082605507D
:1007F600D8B0053C09260650D8B0063C0A26075054
:08080600D8B0073C0B261200DC
:10080E000134083609360450085E0550D8A0053C60
:10081E00095E003601360F0E0C6E013408360936AD
:10082E00045000A006D0085E0550D8A0053C095E15
:10083E0005D008260550D8B0053C092600360136ED
:10084E000C2EEBD700B006D0045008260550D8B0B9
:08085E00053C09260000120010
:10086600070E016ED7C500F0015004E00032009E6D
:10087600FF0FFBD7010E001600B002D08D9E01D0EF
:100886008D8E060E016ED7C500F0015004E00032D1
:10089600009EFF0FFBD7010E001600B002D08D9C04
:1008A60001D08D8C050E016ED7C500F0015004E015
:1008B6000032009EFF0FFBD7010E001600B002D0DB
:1008C6008D9A01D08D8AD7C500F00032009E003285
:1008D600009E0032009E0032009E010E001600B0FF
:1008E60002D08D9801D08D888E9A7ADDD7C500F01A
:1008F6000032009E0032009E0032009E010E00165D
:1009060000B002D08D9E01D08D8ED7C500F000328A
:10091600009E0032009E010E001600B002D08D9C93
:1009260001D08D8CD7C500F00032009E010E001656
:1009360000B002D08D9A01D08D8A010E0501D7151F
:10094600006E00B002D08D9801D08D8849DD12006E
:100956000B1E0A1E091E081E082AD8B4092AD8B476
:080966000A2AD8B40B2A120082
:10096E000501CE51010A03E1010ED26F05D0CE5121
:10097E00020A02E1C00ED26FD2C5D7F56DDF0501B6
:10098E00D16B100ED15D0CE2D151CF25E96E000E68
:10099E00D021EA6EEECFD7F58FDD0501D12BF1D741
:0209AE00120035
:1009B0000B6A0A6A096A086A0E6A03340836045028
:1009C000085E0550D8A0053C095E0650D8A0063C3C
:1009D0000A5E0750D8A0073C0B5EE86AD8A0010E5B
:1009E0000E5E0336070E0C6E0334083609360A36DF
:1009F0000B360E36045003A012D0085E0550D8A066
:100A0000053C095E0650D8A0063C0A5E0750D8A0F7
:100A1000073C0B5EE86AD8A0010E0E5E11D00826D6
:100A20000550D8B0053C09260650D8B0063C0A2629
:100A30000750D8B0073C0B26E86AD8B0010E0E2646
:100A400003360C2ED1D70234083609360A360B3657
:100A50000E36045003A012D0085E0550D8A0053C05
:100A6000095E0650D8A0063C0A5E0750D8A0073C95
:100A70000B5EE86AD8A0010E0E5E11D00826055064
:100A8000D8B0053C09260650D8B0063C0A260750C7
:100A9000D8B0073C0B26E86AD8B0010E0E26023605
:100AA000070E0C6E0234083609360A360B360E363F
:100AB000045002A012D0085E0550D8A0053C095E83
:100AC0000650D8A0063C0A5E0750D8A0073C0B5E33
:100AD000E86AD8A0010E0E5E11D008260550D8B0E5
:100AE000053C09260650D8B0063C0A260750D8B067
:100AF000073C0B26E86AD8B0010E0E2602360C2EF3
:100B0000D1D70134083609360A360B360E36045072
:100B100002A012D0085E0550D8A0053C095E065020
:100B2000D8A0063C0A5E0750D8A0073C0B5EE86AD6
:100B3000D8A0010E0E5E11D008260550D8B0053C95
:100B400009260650D8B0063C0A260750D8B0073C04
:100B50000B26E86AD8B0010E0E260136070E0C6E81
:100B60000134083609360A360B360E36045001A019
:100B700012D0085E0550D8A0053C095E0650D8A0EA
:100B8000063C0A5E0750D8A0073C0B5EE86AD8A076
:100B9000010E0E5E11D008260550D8B0053C09267E
:100BA0000650D8B0063C0A260750D8B0073C0B26A2
:100BB000E86AD8B0010E0E2601360C2ED1D70034CB
:100BC000083609360A360B360E36045001A012D00C
:100BD000085E0550D8A0053C095E0650D8A0063C2A
:100BE0000A5E0750D8A0073C0B5EE86AD8A0010E49
:100BF0000E5E11D008260550D8B0053C09260650D7
:100C0000D8B0063C0A260750D8B0073C0B26E86A45
:100C1000D8B0010E0E260036070E0C6E00340836D2
:100C200009360A360B360E36045000A012D0085E84
:100C30000550D8A0053C095E0650D8A0063C0A5EC7
:100C40000750D8A0073C0B5EE86AD8A0010E0E5EE4
:100C500011D008260550D8B0053C09260650D8B05A
:100C6000063C0A260750D8B0073C0B26E86AD8B0E5
:100C7000010E0E2600360C2ED1D700B00ED0045037
:100C800008260550D8B0053C09260650D8B0063CC9
:0C0C90000A260750D8B0073C0B261200C3
:100C9C000450000A08E10550000A05E1FF0E006E41
:100CAC007F0E016E12000D6A096A086A015000106D
:100CBC00D8B4000C015005180A6E0ABE0D1E0B6A42
:100CCC0005AE05D0041E051E042AD8B4052A01AEB3
:100CDC0005D0001E011E002AD8B4012A01500510AF
:100CEC000A6E0ABE10D08DDD0BB020D00DAE000CFC
:100CFC00001E011E002AD8B4012A081E091E082A4B
:100D0C00D8B4092A000C05AE0DD001BE07D0015095
:100D1C00096E0050086E016A006AE8D7016A006A21
:100D2C00002A000C011E001E0B2ADDD7082AD8B49D
:100D3C00092A0450085CD8A4D9D70550095CD8A45A
:100D4C00D5D7096A086A002AD8B4012A01AECED7D1
:060D5C000000FF0C120074
:100D62000501D36BD46B000ED45D02E1D051D35D8B
:100D720017E2D351D125D56FD451D221D66FD35199
:100D8200CE25D76FD451CF21D86F59EC02F0D5C5FB
:100D9200E1FFD6C5E2FF00C0E6FFD34BD42BE3D779
:020DA20012003D
:100DA4000450000A12E10550000A0FE10650000A3F
:100DB4000CE10750000A09E1FF0E006EFF0E016E00
:100DC400FF0E026E7F0E036E12000C6A07BE0C2A21
:100DD4000D6A0B6A0A6A096A086A03500210011054
:100DE4000010D8B485D0035007180E6E0EBE0D1E29
:100DF40007AE0BD0041E051E061E071E042AD8B417
:100E0400052AD8B4062AD8B4072A03AE0BD0001E8C
:100E1400011E021E031E002AD8B4012AD8B4022AD5
:100E2400D8B4032A035007100E6E0EBE1DD0DBEC9F
:100E340002F00CBE36D00DAE5BD0001E011E021EA9
:100E4400031E002AD8B4012AD8B4022AD8B4032A2B
:100E5400081E091E0A1E0B1E082AD8B4092AD8B473
:100E64000A2AD8B40B2A44D007AE15D003BE0DD03D
:100E740003500B6E02500A6E0150096E0050086E4A
:100E8400036A026A016A006AD6D7036A026A016ABF
:100E9400006A002A000C031E021E011E001E0C8E96
:100EA400C6D7082AD8B4092AD8B40A2AD8B40B2A2F
:100EB4000450085CD8A4BFD70550095CD8A4BBD79C
:100EC40006500A5CD8A4B7D707500B5CD8A4B3D794
:100ED4000B6A0A6A096A086A002AD8B4012AD8B4D3
:100EE400022AD8B4032A03AEA6D70E6A0E88FF0CD2
:0C0EF4000E6A0CA001D02DDD000F1200D2
:100F00000B840BAE8BEF07F0010E036E026A016AD1
:0A0F1000006A0A360232FF0E1200DA
:080F1A000AAE029E000E120057
:0E0F2200026A016A006A086A036A000E120081
:100F30000B820BAEA2EF07F003680268016800683D
:080F40000A360232FF0E120016
:100F48000501D16B100ED15D2EE2D151CE25D26FA5
:100F5800000ECF21D36FD0C500F0000E016E026ED7
:100F6800036E110E046E000E056E066E076E14EC0D
:100F780002F0AE0E0026F90E0122000E0222D15117
:100F88000024F66E000E0120F76E000E0220F86EA7
:100F98000900F5CF00F0D2C5E1FFD3C5E2FF00C0DC
:080FA800E6FFD12BCFD71200A8
:100FB0000501D36BD46B000ED45D02E1D051D35D3B
:100FC00014E2D351CE25D76FD451CF21D86FD3514E
:100FD000D125E96ED451D221EA6EEECFD9F53DECA0
:0C0FE00002F00501D34BD42BE6D7120021
:100FEC00016A026A800E0218006E800E0501D1198A
:100FFC00005C02E1D051015C0BE20150CE25E16EA8
:10100C000250CF21E26E200EE66E014A022AEAD788
:02101C001200C0
:10101E000501CEBF02D08D9E01D08D8ECEBD02D0E9
:10102E008D9C01D08D8CCEBB02D08D9A01D08D8A35
:10103E00CEB902D08D9801D08D880201D0B102D0E8
:10104E008E8A01D08E9A8E8EFEEC01F08E9E050158
:10105E00CEB702D08D9E01D08D8ECEB502D08D9C96
:10106E0001D08D8CCEB302D08D9A01D08D8ACEB1A7
:10107E0002D08D9801D08D880201D0B102D08E8A17
:10108E0001D08E9A8E8EFEEC01F08E9ED0A103D0F2
:0C109E0004EC02F002D00FEC02F0120093
:1010AA000B6A0A6A096A00500402F4CF09F0F3CF06
:1010BA0008F001500502F4CF0BF0F3CF0AF000500C
:1010CA000502F3500926F4500A22E86A0B2201505D
:1010DA000402F3500926F4500A22E86A0B2208C0D7
:1010EA0000F009C001F00AC002F00BC003F01200C0
:1010FA00010E0501CE6FBEC5CFF5BFC5D0F532DCF6
:10110A00020ECE6FC0C5CFF5C1C5D0F52BDC45ADFB
:10111A0023D00C0ECE6F7EDFC00E0501CE6F7ADFB4
:10112A0005014151010815E2C26B4105016E026ACF
:10113A00000E025A800E006E800E0218005C02E158
:10114A000150C25D06E2140ECE6F64DF0501C22BA8
:0A115A00ECD70F0ECE6F5EDF12001F
:101164000CB0F4EF08F00CA29AEF09F00E6A000E2E
:1011740002640BEF09F0F00E0214D8A4D6EF08F0C5
:10118400023A01380F0B02260138F00B016E0038C9
:101194000F0B01260038F00B006E08380F0B0026E9
:1011A4000838F00B086E0E84D89002BEEFEF08F0FA
:1011B40008360036013602360E2A02BEEFEF08F07A
:1011C40008360036013602360E2A02BEEFEF08F06A
:1011D40008360036013602360E2A0E50036490EFAC
:1011E40009F0035E0BBC08AE95EF09F0D880800EC1
:1011F40008640030000E002201220222D8A095EFDC
:1012040009F0023201320032034A9AEF09F095EFF5
:1012140009F001C002F000C001F008C000F0086A43
:10122400000E0E86026442EF09F0F00E0214D8A4F8
:101234002AEF09F0023A01380F0B02260138F00BAD
:10124400016E00380F0B01260038F00B006E0E847F
:10125400D89002BEEFEF08F00036013602360E2AAF
:1012640002BEEFEF08F00036013602360E2A02BE47
:10127400EFEF08F00036013602360E2AEFEF08F0E1
:1012840001C002F000C001F0006A000E0E960E8844
:1012940002646FEF09F0F00E0214D8A45AEF09F0BB
:1012A400023A01380F0B02260138F00B016E0E844E
:1012B400D89002BEEFEF08F0013602360E2A02BEC5
:1012C400EFEF08F0013602360E2A02BEEFEF08F007
:1012D400013602360E2AEFEF08F001C002F0016A6F
:1012E400000E0E8602649FEF09F0F00E0214D8A4DB
:1012F4007EEF09F0023A0E84D89002BEEFEF08F0B8
:1013040002360E2A02BEEFEF08F002360E2A02BEA3
:10131400EFEF08F002360E2AEFEF08F0010E0C6E24
:10132400EDDDA2EF09F0020E0C6EF5DDA2EF09F07F
:10133400040E0C6EFBDDA2EF09F0080E0C6EEFDD5F
:02134400120095
:10134600016A0501C251015C10E20150C025E16E3F
:10135600000EC121E26E0150BE25E96E000EBF21CE
:0C136600EA6EEECFE6FF012AECD7120081
:10137200800E0501BF19006E800E005C02E1000EB6
:10138200BE5D08E2BE510008006EBFC501F0000E4E
:0E13920001561200BEC500F0BFC501F01200EA
:1013A000BEC502F0BFC503F0C1C500F0C2C501F063
:1013B000010E0501C15F000EC25B0050011009E083
:1013C00002C0E1FF03C0E2FFC0C5E6FF024A032AF4
:0C13D000EBD7BEC500F0BFC501F0120055
:1013DC00200E0501BE5D006E000EBF59016E000EA1
:1013EC0001BEFF0E026E036E0A0E046E000E056E39
:1013FC00066E076E14EC02F0120E046E000E056EF3
:08140C00066E076EC9DC120038
:101414000501BEB102D08B9801D08B88530E0D6E9E
:101424000D2EFED78B86530E0D6E0D2EFED78B968A
:0A143400530E0D6E0D2EFED71200B0
:10143E009488530E0D6E0D2EFED78B86530E0D6EA9
:10144E000D2EFED7000E82B8010E006E8B96530E37
:10145E000D6E0D2EFED79498530E0D6E0D2EFED7DB
:02146E0012006A
:101470000501C66BBEC5E9FFBFC5EAFFEECFC4F5E7
:10148000EECFC5F5C36B100EC35D17E2C0C500F00B
:10149000000E016E110E046E000E056E06DEA10E2A
:1014A0000026030E0122C3510024E16E000E01202C
:1014B000E26E200EE66EC32BE6D7BEC5E9FFBFC5C0
:1014C000EAFFEECF01F0EECF02F002507F0A02E118
:1014D000FE0E01182AE1C36B100EC35D25E2C0C5E4
:1014E00000F0000E016E110E046E000E056EDDDDC3
:1014F000A10E0026030E0122C3510024E16E000E4E
:101500000120E26EB00EC325F66EF70EF76E000EE8
:10151000F722000EF86E000EF8220900F5CF00F059
:1015200000C0E6FFC32BD8D71200BEC5E9FFBFC578
:10153000EAFFEECF01F0EECF02F0800E030A006E5C
:10154000800E0218005C02E10150E708D8B0C5D057
:10155000C0C500F0000E016E110E046E000E056E87
:10156000A4DDA10E0026030E0122C6510024C76F80
:10157000000E0120C86FBEC5E9FFBFC5EAFFEECF70
:1015800000F0EECF01F0E80E046E030E056E4EEC97
:1015900006F0300E0026C7C5E1FFC8C5E2FF00C057
:1015A000E6FF0501C62BC0C500F0000E016E110E4E
:1015B000046E000E056E79DDA10E0026030E0122D9
:1015C000C6510024C76F000E0120C86FBEC5E9FFD9
:1015D000BFC5EAFFEECF00F0EECF01F0E80E046EDB
:1015E000030E056E4EEC06F008C000F009C001F0D5
:1015F000640E046E000E056E4EEC06F0300E0026F2
:10160000C7C5E1FFC8C5E2FF00C0E6FF0501C62B64
:10161000C0C500F0000E016E110E046E000E056EC6
:1016200044DDA10E0026030E0122C6510024C76F1F
:10163000000E0120C86FBEC5E9FFBFC5EAFFEECFAF
:1016400000F0EECF01F0640E046E000E056E4EEC5D
:1016500006F008C000F009C001F00A0E046E000E8A
:10166000056E4EEC06F0300E0026C7C5E1FFC8C57A
:10167000E2FF00C0E6FF0501C62BC0C500F0000E6A
:10168000016E110E046E000E056E0FDDA10E002618
:10169000030E0122C6510024C76F000E0120C86F3F
:1016A000BEC5E9FFBFC5EAFFEECF00F0EECF01F007
:1016B0000A0E046E000E056E4EEC06F008C000F037
:1016C00009C001F0300E0026C7C5E1FFC8C5E2FF22
:1016D00000C0E6FF0501C62B2CD1BEC5E9FFBFC582
:1016E000EAFFEECF01F0EECF02F0800E006E800E2A
:1016F0000218005C02E101506308D8B090D0C0C568
:1017000000F0000E016E110E046E000E056ECDDCB1
:10171000A10E0026030E0122C6510024C76F000E41
:101720000120C86FBEC5E9FFBFC5EAFFEECF00F0DC
:10173000EECF01F0640E046E000E056E4EEC06F066
:10174000300E0026C7C5E1FFC8C5E2FF00C0E6FFB6
:101750000501C62BC0C500F0000E016E110E046E0F
:10176000000E056EA2DCA10E0026030E0122C6515A
:101770000024C76F000E0120C86FBEC5E9FFBFC5BA
:10178000EAFFEECF00F0EECF01F0640E046E000E23
:10179000056E4EEC06F008C000F009C001F00A0E1C
:1017A000046E000E056E4EEC06F0300E0026C7C526
:1017B000E1FFC8C5E2FF00C0E6FF0501C62BC0C5BA
:1017C00000F0000E016E110E046E000E056E6DDC51
:1017D000A10E0026030E0122C6510024C76F000E81
:1017E0000120C86FBEC5E9FFBFC5EAFFEECF00F01C
:1017F000EECF01F00A0E046E000E056E4EEC06F000
:1018000008C000F009C001F0300E0026C7C5E1FF96
:10181000C8C5E2FF00C0E6FF0501C62B8AD0BEC5E1
:10182000E9FFBFC5EAFFEECF01F0EECF02F0800E78
:10183000006E800E0218005C02E1015009085BE2B4
:10184000C0C500F0000E016E110E046E000E056E94
:101850002CDCA10E0026030E0122C6510024C76F06
:10186000000E0120C86FBEC5E9FFBFC5EAFFEECF7D
:1018700000F0EECF01F00A0E046E000E056E4EEC85
:1018800006F0300E0026C7C5E1FFC8C5E2FF00C064
:10189000E6FF0501C62BC0C500F0000E016E110E5B
:1018A000046E000E056E01DCA10E0026030E01225F
:1018B000C6510024C76F000E0120C86FBEC5E9FFE6
:1018C000BFC5EAFFEECF00F0EECF01F00A0E046EC6
:1018D000000E056E4EEC06F008C000F009C001F0E5
:1018E000300E0026C7C5E1FFC8C5E2FF00C0E6FF15
:1018F0000501C62B1ED0C0C500F0000E016E110EF2
:10190000046E000E056E55EC08F0A10E0026030EC5
:101910000122C6510024E16E000E0120E26EBEC518
:10192000E9FFBFC5EAFF300EEE24006E00C0E6FFFF
:10193000C62BC0C500F0000E016E110E046E000E25
:10194000056E55EC08F0A10E0026030E0122C651CB
:101950000024E16E000E0120E26E200EE66EC62B22
:10196000C36BC251C35D3DE2C0C500F0000E016E05
:10197000110E046E000E056E55EC08F0A10E002647
:10198000030E0122C6510024C76F000E0120C86F4C
:10199000C1C500F0000E016E026E036E090E046EEA
:1019A000000E056E066E076E14EC02F00A0E00269D
:1019B0001E0E0122010E0222C3510024F66E000EFB
:1019C0000120F76E000E0220F86E0900F5CF00F03E
:1019D000C7C5E1FFC8C5E2FF00C0E6FFC62BC32BA9
:0419E000C0D712005A
:1019E400290E0501CE6F040ECF6FBEC5D0F5A4EC51
:1019F40007F0BE51010A04E0BE51020A01E002D020
:101A04008D8608D0BE51000A04E0BE51030A01E0ED
:061A140001D08D961200C6
:101A1A000501CB6BC36B100EC35D18E2C2C500F0A3
:101A2A00000E016E110E046E000E056E55EC08F0E4
:101A3A00A10E0026030E0122C3510024E16E000EFE
:101A4A000120E26E200EE66EC32BE5D7000E006E73
:101A5A00C11908E10050C01905E17F0EBF1902E162
:101A6A00BE51FE0A0DE0C1517F0A08E1C051FF0ACA
:101A7A0005E1BF51FF0A02E1BE51FF0A01E02BD086
:101A8A00C36B100EC35D26E2C2C500F0000E016EE4
:101A9A00110E046E000E056E55EC08F0A10E00261C
:101AAA00030E0122C3510024E16E000E0120E26EF2
:101ABA00B00EC325F66EF70EF76E000EF722000E73
:101ACA00F86E000EF8220900F5CF00F000C0E6FF1C
:101ADA00C32BD7D71200C2510D0A03E1640ECA6F95
:101AEA0002D00A0ECA6FCAC504F0000E056E066E51
:101AFA00076EBEC500F0BFC501F0C0C502F0C1C582
:101B0A0003F0D8EC04F000C0C4F501C0C5F502C06A
:101B1A00C6F503C0C7F5CAC504F0000E056E066E09
:101B2A00076EBEC500F0BFC501F0C0C502F0C1C551
:101B3A0003F0D8EC04F008C000F009C001F00AC0B4
:101B4A0002F00BC003F000C0C8F501C0C9F5C251CC
:101B5A000D0A17E1C2C500F0000E016E110E046EE7
:101B6A00000E056E55EC08F0A10E0026030E0122A8
:101B7A00CB510024E16E000E0120E26E240EE66EC7
:101B8A00CB2BC36B080EC35DD8B093D0C3C500F08E
:101B9A00000E016E026E036E0036009001360236A8
:101BAA00033600360090013602360336740E0024DE
:101BBA00F66E200E0120F76E010E0220F86E090063
:101BCA00F5CF04F00900F5CF05F00900F5CF06F0CE
:101BDA000900F5CF07F0C4C500F0C5C501F0C6C5B8
:101BEA0002F0C7C503F0D8EC04F00050011002104F
:101BFA00031001E05ED0C3C500F0000E016E026E54
:101C0A00036E003600900136023603360036009025
:101C1A00013602360336740E0024F66E200E0120B9
:101C2A00F76E010E0220F86E0900F5CF04F00900E4
:101C3A00F5CF05F00900F5CF06F00900F5CF07F05A
:101C4A00C4C500F0C5C501F0C6C502F0C7C503F09A
:101C5A00D8EC04F008C000F009C001F00AC002F094
:101C6A000BC003F000C0C4F501C0C5F502C0C6F53B
:101C7A0003C0C7F5C351070A1AE1C2C500F0000E36
:101C8A00016E110E046E000E056E55EC08F0A10EE1
:101C9A000026030E0122CB510024E16E000E012022
:101CAA00E26E300EC425006E00C0E6FFCB2BC32BBC
:101CBA0069D7080EC35DD8B08DD0C2C500F0000E3A
:101CCA00016E110E046E000E056E55EC08F0A10EA1
:101CDA000026030E0122CB510024CC6F000E0120F6
:101CEA00CD6FC3C500F0000E016E026E036E0036A2
:101CFA00009001360236033600360090013602366D
:101D0A000336740E0024F66E200E0120F76E010EC3
:101D1A000220F86E0900F5CF04F00900F5CF05F0AE
:101D2A000900F5CF06F00900F5CF07F0C4C500F0A9
:101D3A00C5C501F0C6C502F0C7C503F0D8EC04F06A
:101D4A00300E0026CCC5E1FFCDC5E2FF00C0E6FF9C
:101D5A00CB2BC3C500F0000E016E026E036E003677
:101D6A0000900136023603360036009001360236FC
:101D7A000336740E0024F66E200E0120F76E010E53
:101D8A000220F86E0900F5CF04F00900F5CF05F03E
:101D9A000900F5CF06F00900F5CF07F0C4C500F039
:101DAA00C5C501F0C6C502F0C7C503F0D8EC04F0FA
:101DBA0008C000F009C001F00AC002F00BC003F02D
:101DCA0000C0C4F501C0C5F502C0C6F503C0C7F519
:101DDA00C32B6FD7C2C500F0000E016E110E046E40
:101DEA00000E056E55EC08F0A10E0026030E012226
:101DFA00CB510024E16E000E0120E26E2E0EE66E3B
:101E0A00CB2BC2510D0A55E1C2C500F0000E016E7E
:101E1A00110E046E000E056E55EC08F0A10E002698
:101E2A00030E0122CB510024CC6F000E0120CD6F8E
:101E3A000A0E046E000E056EC8C500F0C9C501F091
:101E4A004EEC06F0300E0026CCC5E1FFCDC5E2FF10
:101E5A0000C0E6FF0501CB2BC2C500F0000E016EE3
:101E6A00110E046E000E056E55EC08F0A10E002648
:101E7A00030E0122CB510024CC6F000E0120CD6F3E
:101E8A000A0E046E000E056EC8C500F0C9C501F041
:101E9A004EEC06F008C000F009C001F0300E002632
:101EAA00CCC5E1FFCDC5E2FF00C0E6FF0501CB2BA3
:101EBA005CD0C2C500F0000E016E110E046E000E59
:101ECA00056E55EC08F0A10E0026030E0122CB5137
:101EDA000024E16E000E0120E26E300EC825006E6D
:101EEA0000C0E6FFCB2BC2C500F0000E016E110E3A
:101EFA00046E000E056E55EC08F0A10E0026030EC6
:101F0A000122CB510024E16E000E0120E26E200E68
:101F1A00E66ECB2BC36B030EC35D27E2C2C500F08E
:101F2A00000E016E110E046E000E056E55EC08F0DF
:101F3A00A10E0026030E0122CB510024E16E000EF1
:101F4A000120E26E6D0EC325F66E1E0EF76E000EB0
:101F5A00F722010EF86E000EF8220900F5CF00F004
:0C1F6A0000C0E6FFCB2BC32BD6D7120023
:101F76000501C46BC36B100EC35D18E2C2C500F049
:101F8600000E016E110E046E000E056E55EC08F083
:101F9600A10E0026030E0122C3510024E16E000E9D
:101FA6000120E26E200EE66EC32BE5D7C151000A72
:101FB60008E1C051160A05E1BF51E30A02E1BE512C
:101FC600600A2BE1C36B100EC35D26E2C2C500F0AA
:101FD600000E016E110E046E000E056E55EC08F033
:101FE600A10E0026030E0122C3510024E16E000E4D
:101FF6000120E26EB00EC325F66EF70EF76E000EE8
:10200600F722000EF86E000EF8220900F5CF00F058
:1020160000C0E6FFC32BD7D71200C36B080EC35D03
:10202600D8B093D0C3C500F0000E016E026E036EE9
:10203600003600900136023603360036009001362F
:1020460002360336740E0024F66E200E0120F76E5B
:10205600010E0220F86E0900F5CF04F00900F5CF55
:1020660005F00900F5CF06F00900F5CF07F0BEC56B
:1020760000F0BFC501F0C0C502F0C1C503F0D8EC41
:1020860004F0005001100210031001E05ED0C3C539
:1020960000F0000E016E026E036E003600900136EF
:1020A6000236033600360090013602360336740EC9
:1020B6000024F66E200E0120F76E010E0220F86E47
:1020C6000900F5CF04F00900F5CF05F00900F5CFBA
:1020D60006F00900F5CF07F0BEC500F0BFC501F058
:1020E600C0C502F0C1C503F0D8EC04F008C000F08A
:1020F60009C001F00AC002F00BC003F000C0BEF533
:1021060001C0BFF502C0C0F503C0C1F5C351070A3F
:102116001AE1C2C500F0000E016E110E046E000E2B
:10212600056E55EC08F0A10E0026030E0122C451DF
:102136000024E16E000E0120E26E300EBE25006E18
:1021460000C0E6FFC42BC32B69D7080EC35DD8B009
:102156008DD0C2C500F0000E016E110E046E000E89
:10216600056E55EC08F0A10E0026030E0122C4519F
:102176000024C56F000E0120C66FC3C500F0000E17
:10218600016E026E036E003600900136023603368B
:1021960000360090013602360336740E0024F66EC1
:1021A600200E0120F76E010E0220F86E0900F5CF11
:1021B60004F00900F5CF05F00900F5CF06F0090097
:1021C600F5CF07F0BEC500F0BFC501F0C0C502F0EF
:1021D600C1C503F0D8EC04F0300E0026C5C5E1FFFA
:1021E600C6C5E2FF00C0E6FFC42BC3C500F0000E63
:1021F600016E026E036E003600900136023603361B
:1022060000360090013602360336740E0024F66E50
:10221600200E0120F76E010E0220F86E0900F5CFA0
:1022260004F00900F5CF05F00900F5CF06F0090026
:10223600F5CF07F0BEC500F0BFC501F0C0C502F07E
:10224600C1C503F0D8EC04F008C000F009C001F0E5
:102256000AC002F00BC003F000C0BEF501C0BFF516
:1022660002C0C0F503C0C1F5C32B6FD7C2C500F0CD
:10227600000E016E110E046E000E056E55EC08F090
:10228600A10E0026030E0122C4510024E16E000EA9
:102296000120E26E200EE66EC42BC36B050EC35DF5
:1022A60027E2C2C500F0000E016E110E046E000E8C
:1022B600056E55EC08F0A10E0026030E0122C4514E
:1022C6000024E16E000E0120E26E520EC325F66E6A
:1022D6001E0EF76E000EF722010EF86E000EF822A3
:1022E6000900F5CF00F000C0E6FFC42BC32BD6D7FC
:0222F6001200D4
:1022F8000501D76BD86B59EC02F000C0BEF5BE5192
:10230800550A02E1006A1200D76BD86B550ED96FD7
:0A2318003DEC02F0010E006E120011
:10232200BEC500F0BFC501F0000E0501BFBFFF0E24
:10233200026E036E120E046E000E056E066E076EBE
:1023420014EC02F00A0E046E000E056E066E076EA5
:0E235200D2EC06F0200E0026000E0122120032
:10236000010E0501CE6F000ECF6F580ED06F2A0EF2
:10237000D16F030ED26FB1EC06F0590ECE6F000E86
:10238000CF6F290ED06F180ED16F050ED26FB1EC42
:1023900006F0000ECE6F030ECF6F040ED06FC40E8A
:0C23A000D16F020ED26FB1EC06F01200FB
:1023AC000A0E03012C6F000E2D6F320E2A6F000ED9
:1023BC002B6F050E306F000E316F290E2E6F000E35
:1023CC002F6FFF0E346F7F0E356FFF0E326F7F0E47
:1023DC00336F020E386F000E396F050E366F000E1C
:1023EC00376FFF0E3A6F7F0E3B6FFF0E3C6F7F0E09
:1023FC003D6F1E0E3E6F000E3F6F320E406F000E93
:10240C00416FFF0E426F7F0E436FFF0E446F7F0EC6
:10241C00456FFF0E466F7F0E476FFF0E486F7F0EA6
:10242C00496F180E4A6F000E4B6F780E4C6F000EF2
:10243C004D6F050E4E6F000E4F6F030E506F000E5A
:10244C00516F010E526F000E536F030E546F000E3E
:10245C00556FFC0E566F7F0E576FFC0E586F7F0E2C
:10246C00596F5C0E0501CE6F030ECF6F100ED06F3F
:10247C00000ED16FF6EC07F06C0ECE6F030ECF6F23
:10248C00100ED06F000ED16FF6EC07F06C0ECE6F05
:10249C00030ECF6F400ED06FA4EC07F003017E83C8
:1024AC007E957E978F0E7E15006E00C07EF37E9F0C
:1024BC007F817E817F83F30E7F15006E00C07FF3DA
:1024CC00020E8019006E030E00168051001A00C017
:1024DC0080F37F9F300E7F19006E700E00167F51B7
:1024EC00001A00C07FF3970E0201C46F040EC56F73
:1024FC00CE0EC66F0E0EC76F2C0EC86F040EC96FB2
:10250C00620ECA6F0E0ECB6F0101C86B3F0EB86F17
:10251C00010E0501CE6F000ECF6F580ED06F2A0E34
:10252C00D16F030ED26FD8EC07F0590ECE6F000EA0
:10253C00CF6F290ED06F180ED16F050ED26FD8EC5D
:10254C0007F0000ECE6F030ECF6F040ED06FC40ECB
:0C255C00D16F020ED26FD8EC07F0120015
:102568000C6A0E6A0250D8A4CDEF12F001C002F036
:1025780000C001F0006A0E860250D8A4CDEF12F018
:1025880001C002F0016A0E960E880250D8B4DFEF3F
:1025980012F00E50035ED8A4D8A0E5EF12F0D89040
:1025A80002BEEBEF12F0003601360236032ED4EFEE
:1025B80012F0E5EF12F0010E0C6E91EC07F0EFEF60
:1025C80012F0020E0C6E80EC07F0EFEF12F0040E22
:0825D8000C6E8DEC07F01200FF
:1025E0000B800BAEFCEF12F0026A0AAEFF0E026E19
:0C25F000016E006E0A360232FF0E12006F
:1025FC00000E03017EB1010E056E05524DE0020E78
:10260C000501AF25E96E000EB021EA6EEECF03F0A6
:10261C00EECF04F003C000F004C001F000360090CF
:10262C000136AFC5E1FFB0C5E2FF00C0E6FF01C057
:10263C00E6FFAFC5E9FFB0C5EAFFEECF01F0EECF84
:10264C0002F0800E006E800E0218005C02E1015058
:10265C000A0808E2AFC5E1FFB0C5E2FF0A0EE66E5C
:10266C00000EE66EAFC5E9FFB0C5EAFFEECF01F094
:10267C00EECF02F0800E0218006E800E005C02E1BC
:10268C00010E015C08E2AFC5E1FFB0C5E2FF010E2F
:10269C00E66E000EE66E56D00501020EAF25E16E19
:1026AC00000EB021E26EAFC5E9FFB0C5EAFFEECF78
:1026BC0003F0EECF04F003C000F004C001F00132CF
:1026CC000032019E01BC018E00C0E6FF01C0E6FF96
:1026DC00020EAF25E96E000EB021EA6EEECF01F0CE
:1026EC00EECF02F0800E006E800E0218005C02E14C
:1026FC00015005080AE2020EAF25E16E000EB02172
:10270C00E26E050EE66E000EE66E020EAF25E96E69
:10271C00000EB021EA6EEECF01F0EECF02F0800E8B
:10272C000218006E800E005C02E1010E015C0AE2F0
:10273C00020EAF25E16E000EB021E26E010EE66EC8
:06274C00000EE66E120013
:1027520003017EB702D0006A1200010E006E120061
:10276200025006180E6E086A096A0B6A0350076463
:10277200A4EF14F006500A6E068E028E03500B6E02
:102782000750036E000E0B64F4EF13F00B50075E5C
:10279200D8B495EF14F0070E076463EF14F0075EE8
:1027A20000C008F001C000F002C001F0026A074E4A
:1027B20095EF14F0076438EF14F0075E00C008F0DC
:1027C20001C000F0016A074E95EF14F0076416EF9E
:1027D20014F0075E00C008F0006A074E95EF14F08F
:1027E2000764FDEF13F00AC002F005C001F004C057
:1027F20000F0086AC1EF15F0030E076408EF14F049
:10280200075E08380F0B086E074E95EF14F0D8904C
:102812000832074E95EF14F0D8900832074E95EF24
:1028220014F0D890083295EF14F0030E076427EFE6
:1028320014F0075E08380F0B086E0038F00B0826FC
:1028420000380F0B006E074E95EF14F0D89000324F
:102852000832074E95EF14F0D89000320832074E36
:1028620095EF14F0D8900032083295EF14F0030E71
:1028720007644FEF14F0075E08380F0B086E00383C
:10288200F00B082600380F0B006E0138F00B002603
:1028920001380F0B016E074E95EF14F0D8900132FC
:1028A20000320832074E95EF14F0D8900132003210
:1028B2000832074E95EF14F0D890013200320832F8
:1028C20095EF14F0030E076480EF14F0075E0838EA
:1028D2000F0B086E0038F00B082600380F0B006E45
:1028E2000138F00B002601380F0B016E0238F00B95
:1028F200012602380F0B026E074E95EF14F0D890A6
:102902000232013200320832074E95EF14F0D890AD
:102912000232013200320832074E95EF14F0D8909D
:102922000232013200320832096A000E0EAE89EF1D
:1029320015F0081E001E011E021E082A0022012296
:10294200022289EF15F00750D8A4AAEF14F0C1EFC4
:1029520015F0096A02C00AF0028E068E0750035C67
:10296200076ED8B47CEF15F0070E07644AEF15F036
:10297200075E0450096E0550046E0650056E066A25
:10298200074E7CEF15F0070E07641FEF15F0075E88
:102992000450096E0550046E056A074E7CEF15F06F
:1029A200070E0764FDEF14F0075E0450096E046A17
:1029B200074E7CEF15F0070E0764E4EF14F00AC02F
:1029C20002F0C1EF15F0030E0764EFEF14F0075E9B
:1029D20009380F0B096E074E7CEF15F0D8900932BB
:1029E200074E7CEF15F0D8900932074E7CEF15F0B8
:1029F200D89009327CEF15F0030E07640EEF15F044
:102A0200075E09380F0B096E0438F00B09260438EB
:102A12000F0B046E074E7CEF15F0D890043209328A
:102A2200074E7CEF15F0D89004320932074E7CEF46
:102A320015F0D890043209327CEF15F0030E0764CA
:102A420036EF15F0075E09380F0B096E0438F00BEC
:102A5200092604380F0B046E0538F00B04260538DE
:102A62000F0B056E074E7CEF15F0D890053204323D
:102A72000932074E7CEF15F0D89005320432093244
:102A8200074E7CEF15F0D8900532043209327CEF04
:102A920015F0030E076467EF15F0075E09380F0B98
:102AA200096E0438F00B092604380F0B046E053842
:102AB200F00B042605380F0B056E0638F00B0526C1
:102AC20006380F0B066E074E7CEF15F0D8900632D3
:102AD200053204320932074E7CEF15F0D8900632E7
:102AE200053204320932074E7CEF15F0D8900632D7
:102AF200053204320932086A000E0EAE89EF15F073
:102B0200091E041E051E061E092A0422052206228B
:102B120009500826045000220550012206500222C4
:102B22000EBEA0EF15F0D8A0AFEF15F002320132C1
:102B320000320832033EAFEF15F0BBEF15F0D8B00C
:102B4200B5EF15F0000E081E001E011E021E082A17
:102B52000022012202220A7EB5EF15F0010E0C6E50
:102B6200B2EC08F0C3EF15F0020E0C6EB2EC08F0F6
:102B7200C3EF15F0040E0C6E98EC07F0C3EF15F0DE
:062B8200000E0C6E1200B3
:102B88000501B86BB96BBA6BBB6BB3C5CEF5B4C5F1
:102B9800CFF5100ED06F000ED16FF6EC07F0F5C42C
:102BA80000F0000E016E026E036E110E046E000E30
:102BB800056E066E076E14EC02F0D60E0026160E91
:102BC8000122010E02220E0E0024F66E000E0120D4
:102BD800F76E000E0220F86E0900F5CF01F001C073
:102BE800B6F501AE23D07F0EB615006E000E016E4D
:102BF800026E036E090E046E000E056E066E076EF9
:102C080014EC02F0880E0024F66E1E0E0120F76EFA
:102C1800010E0220F86E0900F5CF00F0B3C5E1FF00
:102C2800B4C5E2FF00C0E6FFB34BB42B800EB21967
:102C3800006E800E005C08E1000EB15D05E1000E3B
:102C4800B05D02E1000EAF5D08E2B3C5E1FFB4C5B7
:102C5800E2FF2D0EE66EB34BB42BAFC5BEF5B0C583
:102C6800BFF5B9EC09F000C0AFF501C0B0F5000E32
:102C780001BEFF0EB16FB26FB76B080EB75DD8B06B
:102C880093D1BA533BE0B7C500F0000E016E026E57
:102C9800036E003600900136023603360036009087
:102CA800013602360336540E0024F66E200E01203B
:102CB800F76E010E0220F86E0900F5CF04F0090046
:102CC800F5CF05F00900F5CF06F00900F5CF07F0BC
:102CD800AFC500F0B0C501F0B1C502F0B2C503F050
:102CE800D2EC06F0300E0026B3C5E1FFB4C5E2FF12
:102CF80000C0E6FF0501B34BB42BF8D0B7C500F010
:102D0800000E016E026E036E003600900136023628
:102D1800033600360090013602360336540E00247E
:102D2800F66E200E0120F76E010E0220F86E0900E3
:102D3800F5CF04F00900F5CF05F00900F5CF06F04E
:102D48000900F5CF07F0AFC500F0B0C501F0B1C577
:102D580002F0B2C503F0D2EC06F0005001100210E8
:102D680003103EE0010E0501BA6FB7C500F0000E72
:102D7800016E026E036E003600900136023603368D
:102D880000360090013602360336540E0024F66EE3
:102D9800200E0120F76E010E0220F86E0900F5CF13
:102DA80004F00900F5CF05F00900F5CF06F0090099
:102DB800F5CF07F0AFC500F0B0C501F0B1C502F01E
:102DC800B2C503F0D2EC06F0300E0026B3C5E1FF21
:102DD800B4C5E2FF00C0E6FF0501B34BB42B86D0B3
:102DE8000501BB533AE0B7C500F0000E016E026E54
:102DF800036E003600900136023603360036009026
:102E0800013602360336540E0024F66E200E0120D9
:102E1800F76E010E0220F86E0900F5CF04F00900E4
:102E2800F5CF05F00900F5CF06F00900F5CF07F05A
:102E3800AFC500F0B0C501F0B1C502F0B2C503F0EE
:102E4800D2EC06F0300E0026B3C5E1FFB4C5E2FFB0
:102E580000C0E6FF0501B34BB42BB751B525016E91
:102E6800000EB5BFFF0E026E000E0222000E021801
:102E780002E1070E01183AE1B7C500F0000E016E35
:102E8800026E036E003600900136023603360036B5
:102E98000090013602360336540E0024F66E200EDA
:102EA8000120F76E010E0220F86E0900F5CF04F03C
:102EB8000900F5CF05F00900F5CF06F00900F5CFB8
:102EC80007F0AFC500F0B0C501F0B1C502F0B2C55A
:102ED80003F0D2EC06F0300E0026B3C5E1FFB4C50E
:102EE800E2FF00C0E6FF0501B34BB42BB7C500F005
:102EF800000E016E026E036E003600900136023637
:102F0800033600360090013602360336540E00248C
:102F1800F66E200E0120F76E010E0220F86E0900F1
:102F2800F5CF04F00900F5CF05F00900F5CF06F05C
:102F38000900F5CF07F0AFC500F0B0C501F0B1C585
:102F480002F0B2C503F0D2EC06F008C000F009C0E8
:102F580001F00AC002F00BC003F000C0AFF501C0D9
:102F6800B0F502C0B1F503C0B2F50501B751B525FA
:102F7800016E000EB5BFFF0E026E000E0222000E9B
:102F8800021802E1070E01180DE1B551000A0AE026
:102F9800B3C5E1FFB4C5E2FF2E0EE66EB34BB42B0A
:102FA800010EBB6FB72B69D6B6BF65D0B86BB651EB
:102FB800020A07E1006A03017EB1002A00500501F8
:102FC800B627B3C5E1FFB4C5E2FF200EE66EB34BEA
:102FD800B42BB6C500F0000E016E026E036E090E2A
:102FE800046E000E056E066E076E14EC02F0880E75
:102FF80000261E0E0122010E0222B8510024F66E90
:10300800000E0120F76E000E0220F86E0900F5CFC1
:1030180001F00150200A2FE0B951B325BC6F000E12
:10302800B421BD6FB6C500F0000E016E026E036ECE
:10303800090E046E000E056E066E076E14EC02F0A3
:10304800880E00261E0E0122010E0222B85100240D
:10305800F66E000E0120F76E000E0220F86E0900D1
:10306800F5CF00F0BCC5E1FFBDC5E2FF00C0E6FF3B
:08307800B82BB92BAED71200F2
:063080000501438F120060
:083086000B6A0B86FF0E12001D
:10308E000501B36B100EB35D14E2B351AF25E96EBB
:10309E00000EB021EA6EB351B125D96E000EB221E9
:1030AE00DA6EEE50DE1802E1B32B02D0006A120087
:0830BE00E9D7010E006E1200BB
:1030C600F40E0501BE6F020EBF6FC06B8E0EC16F90
:1030D600000EC26FD0EC09F0E90EBE6F010EBF6F95
:1030E600C06B580EC16F000EC26FD0EC09F08C0E8B
:1030F600BE6F030EBF6FC06B150EC16F000EC26FA1
:10310600D0EC09F0070EBE6F050EBF6FC06B3A0E0E
:10311600C16F000EC26FD0EC09F0410EBE6F020EF9
:10312600BF6FC06B050EC16F000EC26FD0EC09F009
:10313600C90EBE6F010EBF6FC06B0C0EC16F000EC5
:10314600C26FD0EC09F0B90EBE6F010EBF6FC06B37
:10315600030EC16F000EC26FD0EC09F0A90EBE6F50
:10316600010EBF6FC06B0B0EC16F000EC26FD0ECAD
:1031760009F0C30EBE6F010EBF6FC06B050EC16FA7
:10318600000EC26FD0EC09F0BE0EBE6F010EBF6F0F
:10319600C06B050EC16F000EC26FD0EC09F0D10EE8
:1031A600BE6F000EBF6FC06B060EC16F000EC26F02
:1031B600D0EC09F0D70EBE6F000EBF6FC06B060EC7
:1031C600C16F000EC26FD0EC09F0A10ECE6F030ED8
:1031D600CF6F430ED06F010ED16FF6EC07F00101F1
:1031E600BC6BBD6BB66BB76B050EAA6F0401F56BB6
:1031F6000501426B436B446B456B7CEC11F000524E
:1032060003E0D6EC11F002D0B0EC11F0010E010192
:10321600AB6F3F0EB86F03017EA506D0030E050106
:10322600BE6FF2EC0CF004D00501BE6BF2EC0CF0B4
:10323600B60EBE6F010EBF6F090EC06F090EC16FCD
:10324600010EC26F38EC0AF0B60EBE6F010EBF6FEC
:103256000C0EC06F0B0EC16F030EC26F38EC0AF076
:10326600B60EBE6F010EBF6F120EC06F090EC16F94
:10327600010EC26F38EC0AF0BE6BBF6BC06BC16B40
:10328600C26BBBEC0FF0BE6BBF6BC06BC16B0D0EA0
:10329600C26F0DEC0DF0070EBE6F050EBF6F0E0E62
:1032A600C06F0C0EC16F070EC26F38EC0AF0BE6B12
:1032B600F2EC0CF00001B96BBA6BBB6BBC6BCF6B5D
:1032C600D06B0101C86B970E0201C46F040EC56F67
:1032D600CE0EC66F0E0EC76F2C0EC86F040EC96FCA
:1032E600620ECA6F0E0ECB6F8B94010E466F1200E4
:1032F600E40E0501BE6F040EBF6FF60EC06F040E1E
:08330600C16F7DEC08F012001C
:10330E000501B26B100EB25D2EE2B251AF25B36F56
:10331E00000EB021B46FB1C500F0000E016E026E4A
:10332E00036E140E046E000E056E066E076E14EC20
:10333E0002F07E0E00261D0E0122010E0222B25157
:10334E000024F66E000E0120F76E000E0220F86EBD
:10335E000900F5CF00F0B3C5E1FFB4C5E2FF00C030
:08336E00E6FFB22BCFD71200DD
:10337600026A5E0E025C1FE21B0EE96E020EEA6E28
:1033860002013B51E926D8B0EA2AF60E0224F66E6F
:103396001F0EF76E000EF722010EF86E000EF822D1
:1033A6000900F5CF01F0EE50011803E102C000F06C
:0833B6001200022ADED712000A
:1033BE00B3C5B8F5B4C5B9F50501B55305E0590E59
:1033CE00B66F000EB76F06D0010EAF25B66F000EAA
:1033DE00B021B76FB6C5CEF5B7C5CFF5B1C5D0F52F
:0E33EE00B8C5D1F5B9C5D2F5D8EC07F012007C
:1033FC008B86530E0D6E0D2EFED7000E82B8010E6D
:10340C00016E8B96530E0D6E0D2EFED701C000F083
:02341C0012009C
:10341E008B86530E0D6E0D2EFED78B88530E0D6EB2
:06342E000D2EFED7120076
:10343400086A080E0C6E003408360450085ED8B0D2
:0E34440002D00826D89000360C2EF5D71200C4
:103452000501B06B080EB05D19E2B0C500F0AFC552
:1034620002F0000E036E005005E0023602900336B1
:10347200FF0FFAD702AE03D0010EB16F01D0B16BCC
:10348200B1C5BEF50AEC0AF0B02BE4D71FEC0AF086
:02349200120026
:103494009498530E0D6E0D2EFED70501AFB102D0D8
:1034A4008B9801D08B88530E0D6E0D2EFED78B8614
:1034B400530E0D6E0D2EFED78B96530E0D6E0D2EE4
:0434C400FED712001D
:1034C8008B98530E0D6E0D2EFED78B96530E0D6EE8
:0634D8000D2EFED71200CC
:1034DE00AFC504F0B0C505F004C002F005C003F09E
:1034EE00044A052AB1C500F0B2C501F00501B14B81
:1034FE00B22B00C0E9FF01C0EAFF02C0E1FF03C02A
:10350E00E2FFEECFE6FF02C0E9FF03C0EAFFEE5294
:0E351E0001E0E2D7AFC500F0B0C501F0120029
:10352C00020E0501B125E16E000EB221E26E020E13
:10353C00AF25E96E000EB021EA6EEECFE6FFEECFBE
:10354C00E6FFB1C5E1FFB2C5E2FFAFC5E9FFB0C50B
:0C355C00EAFFEECFE6FFEECFE6FF120024
:10356800000E03017EB1010E0501B16FB15319E0E0
:10357800AFC5B2F5B0C5B3F5020EAF25E96E000EC2
:10358800B021EA6EEECFBEF5EECFBFF591EC11F0AB
:10359800B2C5E1FFB3C5E2FF00C0E6FF01C0E6FF28
:1035A80019D0020E0501AF25B26F000EB021B36F1E
:1035B800AFC5E9FFB0C5EAFFEECFBEF5EECFBFF568
:1035C800EEEC09F0B2C5E1FFB3C5E2FF00C0E6FFCB
:0635D80001C0E6FF120035
:1035DE00E40E0501BE6F040EBF6FD20EC06F020E59
:1035EE00C16F110EC26FA3EC09F0F60EBE6F040E82
:1035FE00BF6FE30EC06F020EC16F110EC26FA3EC50
:10360E0009F0E40ECE6F040ECF6F450ED06FA4EC12
:10361E0007F0F60ECE6F040ECF6F100ED06F000EA9
:0E362E00D16FF6EC07F0010E0001896F12005B
:10363C000A0E0401F55D04E3F5510F0801E33CD0DB
:10364C000001B36BF5C400F0000E016E026E036E48
:10365C00110E046E000E056E066E076E14EC02F071
:10366C00D60E0026160E0122010E0222050E002493
:10367C00F66E000E0120F76E000E0220F86E0900A7
:10368C00F5CF9FF59FC500F0000E016E110E046E74
:10369C00000E056E55EC08F0A10E00240501BE6F5E
:1036AC00030E0120BF6FF60EC06F040EC16F100E1B
:1036BC00C26FA3EC09F0120005019E51020A3DE114
:1036CC000001B36BB46BF5C400F0000E016E026E1A
:1036DC00036E110E046E000E056E066E076E14EC72
:1036EC0002F0D60E0026160E0122010E0222050E45
:1036FC000024F66E000E0120F76E000E0220F86E0C
:10370C000900F5CF9FF59FC500F0000E016E110E5C
:10371C00046E000E056E55EC08F0A10E0024050198
:10372C00BE6F030E0120BF6FF60EC06F040EC16F8B
:10373C00100EC26FA3EC09F07AD170D105019E5125
:10374C00010A1FE10001B32BE40E0501BE6F040E4C
:10375C00BF6FD20EC06F020EC16F100EC26FA3EC02
:10376C0009F0E40ECE6F040ECF6F460ED06FA4ECB2
:10377C0007F0F60ECE6F040ECF6F040ED06FA4ECD4
:10378C0007F055D105019E51010AD8A4E1D00001E2
:10379C00B453D8B4A1D000000A0E0401F55D056E37
:1037AC00066A000E065A05C000F006C001F0000EB5
:1037BC0006BEFF0E026E036E003600900136023616
:1037CC000336AB0E0024046E210E0120056E010E93
:1037DC000220066E04C0F6FF05C0F7FF06C0F8FF16
:1037EC000900F5CF00F0FF0E00140501A16F04C015
:1037FC00F6FF05C0F7FF06C0F8FF0900F5CF03F090
:10380C000900F5CF04F004C000F0016AFF0E0014AB
:10381C00A06FA1510101B813A0C500F0000E016EFC
:10382C00110E046E000E056E55EC08F0A10E00246E
:10383C000501CE6F030E0120CF6F100ED06F000E5E
:10384C00D16FF6EC07F0E40ECE6F040ECF6F470E7F
:10385C00D06FA4EC07F0F60ECE6F040ECF6F100EE7
:10386C00D06F000ED16FF6EC07F03FDD1A0E0B6E29
:10387C005E0E0C6E6E0E0D6E0D2EFED70C2EFCD742
:10388C000B2EFAD70000D20E0501BE6F020EBF6FD1
:10389C00E40EC06F040EC16F100EC26FA3EC09F0E2
:1038AC00A0C500F0000E016E110E046E000E056E28
:1038BC0055EC08F0A10E0024BE6F030E0120BF6F63
:1038CC00F60EC06F040EC16F100EC26FA3EC09F0A0
:1038DC000001B36BB46B3BD0B36BB46BF5C400F0AD
:1038EC00000E016E026E036E110E046E000E056E5C
:1038FC00066E076E14EC02F0D60E0026160E012290
:10390C00010E0222050E0024F66E000E0120F76E49
:10391C00000E0220F86E0900F5CF9FF59FC500F050
:10392C00000E016E110E046E000E056E55EC08F0C3
:10393C00A10E00240501BE6F030E0120BF6FF60E11
:10394C00C06F040EC16F100EC26FA3EC09F065D0EE
:10395C0005019E51040A22E10001B471E40E050137
:10396C00CE6F040ECF6F460ED06FA4EC07F00001A3
:10397C00B4530AE0F60E0501CE6F040ECF6F050EA0
:10398C00D06FA4EC07F009D00501F60ECE6F040E33
:10399C00CF6F040ED06FA4EC07F03FD09E51010AFC
:1039AC003CE10001B36BB46BF5C400F0000E016E8A
:1039BC00026E036E110E046E000E056E066E076E1F
:1039CC0014EC02F0D60E0026160E0122010E022275
:1039DC00050E0024F66E000E0120F76E000E02207C
:1039EC00F86E0900F5CF9FF59FC500F0000E016E33
:1039FC00110E046E000E056E55EC08F0A10E00249D
:103A0C000501BE6F030E0120BF6FF60EC06F040ED2
:103A1C00C16F100EC26FA3EC09F009D00001B351B5
:103A2C00000AD8B48BD6B351010AD8B4ABD6120065
:103A3C0045DD9DC5AFF50501AF37AF9104DD9EC5E2
:103A4C00AFF501DDA26BA151A25D19E2A2519F2538
:103A5C00E96E000EA021EA6EEECFAFF5F4DC060E97
:103A6C000B6E130E0C6EAD0E0D6E0D2EFED70C2EB6
:103A7C00FCD70B2EFAD700000000A22BE4D7C9DC30
:023A8C00120026
:103A8E000501A06B9488290E0D6E0D2EFED7000039
:103A9E009E6B080E9E5D14E2AADC00C09FF59E513F
:103AAE000708006E00C001F09FC500F0015004E051
:103ABE0000360090FF0FFBD70050A0139E2BE9D7C6
:0C3ACE009DC5AFF5E0DCA0C500F01200C3
:103ADA0005019E51010AD8A402D10001A851010A88
:103AEA00D8A4E1D0A86BA751000A15E1E40E05019C
:103AFA00AF6F040EB06F520EB16F000EB26FEADCF8
:103B0A00F60ECE6F040ECF6F040ED06FA4EC07F042
:103B1A000001A72BC7D0A76BF5C400F0000E016EF9
:103B2A00026E036E110E046E000E056E066E076EAF
:103B3A0014EC02F0D60E0026160E0122010E022205
:103B4A00040E0024F66E000E0120F76E000E02200D
:103B5A00F86E0900F5CF01F00150050A61E10C0E7B
:103B6A000501BE6F030EBF6FC06B1E0EC16F000E44
:103B7A00C26FD0EC09F00A0E9F6F140E9F5D18E217
:103B8A009FC500F0000E016E110E046E000E056E48
:103B9A0055EC08F0A10E0024CE6F030E0120CF6F62
:103BAA00100ED06F000ED16FF6EC07F09F2BE5D701
:103BBA003F0E0101B86FB60E0501BE6F010EBF6F51
:103BCA000C0EC06F0B0EC16F030EC26F38EC0AF0F9
:103BDA00B60EBE6F010EBF6F120EC06F090EC16F17
:103BEA00010EC26F38EC0AF0BE6BBF6BC06BC16BC3
:103BFA00C26BBBEC0FF0BE6BBF6BC06BC16B0D0E23
:103C0A00C26F0DEC0DF0070EBE6F050EBF6F0E0EE4
:103C1A00C06F0C0EC16F070EC26F38EC0AF02BD0C2
:103C2A00F5C400F0000E016E026E036E110E046EF2
:103C3A00000E056E066E076E14EC02F0D60E002614
:103C4A00160E0122010E0222040E0024F66E000E48
:103C5A000120F76E000E0220F86E0900F5CF01F080
:103C6A000150070A08E10501D76BD86BD96B3DEC07
:103C7A0002F063EC18F0E40E0501AF6F040EB06FAA
:103C8A00640EB16F000EB26F25DCF60ECE6F040E15
:103C9A00CF6F100ED06F000ED16FF6EC07F0010E49
:103CAA000001896F1BD0A76BA86BD20E0501BE6FEE
:103CBA00020EBF6FE40EC06F040EC16F110EC26F09
:103CCA00A3EC09F0E30EBE6F020EBF6FF60EC06FD3
:103CDA00040EC16F110EC26FA3EC09F091D0050159
:103CEA009E51020A59E10001A76BA86B05019F6B5F
:103CFA00100E9F5D30E2E40EA06F040EA16F9F517B
:103D0A00A027D8B0A12BF5C400F0000E016E026EF8
:103D1A00036E110E046E000E056E066E076E14EC2D
:103D2A0002F0DA0E0026120E0122010E02229F5123
:103D3A000024F66E000E0120F76E000E0220F86EC7
:103D4A000900F5CF00F0A0C5E1FFA1C5E2FF00C060
:103D5A00E6FF9F2BCDD7F60ECE6F040ECF6F040E63
:103D6A00D06FA4EC07F0E40EBE6F040EBF6FD20E44
:103D7A00C06F020EC16F110EC26FA3EC09F0F60EEE
:103D8A00BE6F040EBF6FE30EC06F020EC16F110E3D
:103D9A00C26FA3EC09F034D09E51040A31E19D535D
:103DAA0007E00001A851000A02E1010EA86F04D041
:103DBA000001A853D8A4A86BA751010A0BE1E40E8D
:103DCA000501AF6F040EB06F750EB16F000EB26FC2
:103DDA006FEC1AF00001A8530AE0F60E0501CE6F47
:103DEA00040ECF6F050ED06FA4EC07F009D00501C1
:103DFA00F60ECE6F040ECF6F040ED06FA4EC07F050
:023E0A001200A4
:103E0C0005019E51010AD8A4F3D00001B253D8B4D5
:103E1C00EDD0B151000A14E102013B6B3C6B010E79
:103E2C000001B16FE40E0501AF6F040EB06F010E0F
:103E3C00B16F87EC19F04387458D010E416FC0D0EF
:103E4C000001B151010A37E12B0E0501AF6F020ED3
:103E5C00B06F6C0EB16F030EB26F47EC18F00052DE
:103E6C0013E002013B6B3C6B020E0001B16FE40EE0
:103E7C000501AF6F040EB06F020EB16F87EC19F035
:103E8C00458D010E416F16D0E40EAF6F040EB06F6E
:103E9C00050EB16F87EC19F00001B16BB26B050127
:103EAC004397010E0001896F0501459D0C0ECE6FE5
:103EBC000FEC08F085D00001B151020A38E1030E75
:103ECC0002013B5D18E2E40E0501AF6F040EB06F0A
:103EDC00050EB16F87EC19F00001B16BB26B0501E7
:103EEC004397010E0001896F0501459D0C0ECE6FA5
:103EFC000FEC08F01BD03B6B3C6B030E0001B16F59
:103F0C00D80E0501AF6F010EB06F2B0EB16F020E04
:103F1C00B26F6FEC1AF0E40EAF6F040EB06FB1C05D
:103F2C00B1F587EC19F0458D010E416F49D00001B8
:103F3C00B151030A45E1D80E0501AF6F010EB06F08
:103F4C002B0EB16F020EB26F47EC18F0005220E04E
:103F5C00040E0001B16F2B0E0501BE6F020EBF6F78
:103F6C006C0EC06F030EC16F110EC26FA3EC09F083
:103F7C00420EAF6F000EB06F100EB16F000EB26F2D
:103F8C006C0EB36F030EB46FB56BDFEC19F003D08E
:103F9C00060E0001B16FE40E0501AF6F040EB06F99
:103FAC00B1C0B1F587EC19F00001B16BB26B010E29
:103FBC00896F0501459D43970C0ECE6F0FEC08F0F1
:103FCC00F60E0501CE6F040ECF6F100ED06F000EE3
:103FDC00D16FF6EC07F02B0ECE6F020ECF6F100EDA
:103FEC00D06F000ED16FF6EC07F001D012000ED19D
:103FFC009E51020A3CE10001B16BB26B0501439783
:10400C00E40EAF6F040EB06FB16B87EC19F0F60EC7
:10401C00CE6F040ECF6F040ED06FA4EC07F0E40E3D
:10402C00BE6F040EBF6FD20EC06F020EC16F110EA9
:10403C00C26FA3EC09F0F60EBE6F040EBF6FE30E59
:10404C00C06F020EC16F110EC26FA3EC09F02B0EE4
:10405C00CE6F020ECF6F100ED06F000ED16FF6EC3C
:10406C0007F0459D0C0ECE6F0FEC08F0CFD005017C
:10407C009E51030A40E1E40EAF6F040EB06FB1C065
:10408C00B1F587EC19F0F60EE96E040EEA6E02013A
:10409C003B51E926D8B0EA2AEE50200A2BE0F60E66
:1040AC00E16E040EE26E3B51E126D8B0E22A2A0EF4
:1040BC00E66E05019D51010A14E1100E02013B5DF3
:1040CC0010E22B0EE96E020EEA6E3B51E926D8B0D7
:1040DC00EA2AEE50200A05E03B51010F006E00C0A9
:1040EC003BF202013C6B0501458D02013B51010F76
:1040FC000501416F8BD005019E51040AD8A486D0CE
:10410C000001B151000A1BE1010EB219006E00C092
:10411C00B2F000520AE0F60E0501CE6F040ECF6F1E
:10412C00050ED06FA4EC07F009D00501F60ECE6F8A
:10413C00040ECF6F040ED06FA4EC07F067D005010E
:10414C00E40EAF6F040EB06FB1C0B1F587EC19F08F
:10415C009D51010A22E13F0E02013C5D1EE22B0E35
:10416C00E16E020EE26E3B51E126D8B0E22A3C51E0
:10417C00010F006E00C03CF2F60E3C25F66E1F0ED1
:10418C00F76E000EF722010EF86E000EF8220900F1
:10419C00F5CF00F000C0E6FF24D005019D51000AC8
:1041AC0020E102013C5100081CE22B0EE16E020ED4
:1041BC00E26E3B51E126D8B0E22A3C05006E00C00D
:1041CC003CF2F60E3C25F66E1F0EF76E000EF72233
:1041DC00010EF86E000EF8220900F5CF00F000C0B9
:1041EC00E6FF0201F60EE16E040EE26E3B51E12693
:1041FC00D8B0E22A2B0EE96E020EEA6E3B51E9268C
:0E420C00D8B0EA2AEECFE6FF0501458D12007C
:10421A0005019F6BF5C400F0000E016E026E036E7D
:10422A00110E046E000E056E066E076E14EC02F097
:10423A00D60E0026160E0122010E0222080E0024B6
:10424A00F66E000E0120F76E000E0220F86E0900CD
:10425A00F5CF9FF59E51010AD8A4C2D0F5C400F04B
:10426A00000E016E026E036E110E046E000E056ED4
:10427A00066E076E14EC02F0D60E0024096E160EB6
:10428A0001200A6E010E02200B6E060E0924F66E3C
:10429A00000E0A20F76E000E0B20F86E0900F5CF0B
:1042AA0000F00900F5CF01F09B0E0024F66E210EF6
:1042BA000120F76E010EF86E000E01BEFF0EF82205
:1042CA000900F5CF00F000C004F0FF0E006EFF0EEB
:1042DA00016EFF0E026EFF0E036E045007E00036F9
:1042EA000090013602360336FF0FF8D7FF0E00188A
:1042FA00056EFF0E0118066EFF0E0218076EFF0EFE
:10430A000318086E050E0926000E0A220B2209C0A0
:10431A00F6FF0AC0F7FF0BC0F8FF0900F5CF00F05F
:10432A0000C004F005C000F006C001F007C002F0AA
:10433A0008C003F0045007E0003600900136023648
:10434A000336FF0FF8D7001E011E021E031E0301CB
:10435A007E5100167F5101168051021681510316B3
:10436A0000C07EF301C07FF302C080F303C081F373
:10437A00D5C105F0000E066E076E086E09C0F6FF7D
:10438A000AC0F7FF0BC0F8FF0900F5CF00F000C024
:10439A0004F005C000F006C001F007C002F008C032
:1043AA0003F0045007E00036009001360236033667
:1043BA00FF0FF8D703017E5100127F51011280517D
:1043CA0002128151031200C07EF301C07FF302C0C2
:1043DA0080F303C081F3EFEC1AF0010E876FCBD0A4
:1043EA0005019E51020A6DE1F5C400F0000E016E4E
:1043FA00026E036E110E046E000E056E066E076ED7
:10440A0014EC02F0D60E0024046E160E0120056E7E
:10441A00010E0220066E050E0424F66E000E05201B
:10442A00F76E000E0620F86E0900F5CF00F07EC385
:10443A0007F07FC308F080C309F081C30AF0005077
:10444A0007E00A320932083207320A9EFF0FF8D70C
:10445A00060E0424F66E000E0520F76E000E0620E6
:10446A00F86E0900F5CF00F00900F5CF01F09B0EB8
:10447A000024F66E210E0120F76E010EF86E000E72
:10448A0001BEFF0EF8220900F5CF00F000C001F0CE
:10449A00FF0E006E015004E000360090FF0FFBD7BC
:1044AA000501FF0E001A0750001600C0D5F1F60EDE
:1044BA00CE6F040ECF6F00509F25D06FA4EC07F08B
:1044CA005AD09E51040A57E140EC18F09D51010A56
:1044DA003AE1F5C400F0000E016E026E036E110E91
:1044EA00046E000E056E066E076E14EC02F0D60E10
:1044FA000026160E0122010E0222060E0024F66E76
:10450A00000E0120F76E000E0220F86E0900F5CFAA
:10451A0000F00900F5CF01F0010E005C026E000EFA
:10452A000158036E800E006E800E0318005C03E1D2
:10453A0002500101D55D07E20101D551010F006E5C
:10454A0000C0D5F10CD005019D51000A08E1010116
:10455A00D551000804E2D505006E00C0D5F1F60E6B
:10456A000501CE6F040ECF6F0101D55105019F25BC
:08457A00D06FA4EC07F0120061
:10458200000E03017EB1010E0501A36FA46BE90EBB
:10459200A56F010EA66FA351A41109E0F40E9F6F3F
:1045A200010EA06FCE0EA16FFF0EA26F08D0A40E57
:1045B2009F6F030EA06FC60EA16FFF0EA26F9E51DA
:1045C200010A24E10101EC517F0A02E1FF0EEB191D
:1045D2000DE0EC517F0A02E1FE0EEB1907E0E90E55
:1045E2000501AF6F010EB06FB4EC1AF0E90E0501D0
:1045F200AF6F010EB06F2A0EB16F030EB26F96EC61
:104602001AF0EFEC1AF0010E876FC0D205019E512D
:10461200020A6FE12A0EAF6F030EB06FE90EB16F9F
:10462200010EB26F96EC1AF00101EC517F0A02E121
:10463200FF0EEB190AE1F60E0501CE6F040ECF6FE5
:104642003B0ED06FA4EC07F053D00101EC517F0A6E
:1046520002E1FE0EEB190AE1F60E0501CE6F040E21
:10466200CF6F3D0ED06FA4EC07F042D00501A3C579
:1046720000F0A4C501F00036009001360050A525D7
:10468200E96E0150A621EA6EEECFAFF5EECFB0F59E
:10469200000EB2BFFF0EB16FB26F000EB0BFFF0EC1
:1046A200B16FB26FF60EB36F040EB46FF5C400F0C3
:1046B200000E016E026E036E110E046E000E056E88
:1046C200066E076E14EC02F0D60E0026160E0122BC
:1046D200010E02220F0E0024F66E000E0120F76E6C
:1046E200000E0220F86E0900F5CFB5F5C4EC15F006
:1046F2004DD29E51040AD8A449D240EC18F09D53E1
:10470200D8B4FFD0A3C500F0A4C501F000360090D4
:1047120001360050A525E96E0150A621EA6EEECFC2
:1047220001F0EECF02F002507F0A02E1FE0E011804
:1047320013E1FF0E0101EB6F7F0EEC6FFF0EE96FCD
:104742007F0EEA6FF60E0501CE6F040ECF6F3B0EA1
:10475200D06FA4EC07F0D4D0A3C500F0A4C501F03B
:104762000036009001360050A525E96E0150A621C1
:10477200EA6EEECF01F0EECF02F00250A01902E194
:104782009F51011813E1FE0E0101EB6F7F0EEC6FDA
:10479200FE0EE96F7F0EEA6FF60E0501CE6F040E74
:1047A200CF6F3D0ED06FA4EC07F0AAD0A3C500F0E6
:1047B200A4C501F00036009001360050A525E96E2F
:1047C2000150A621EA6EEECF01F0EECF02F0800E8C
:1047D2000218006E800EA019005C02E19F51015C7C
:1047E200D8B08ED0A3C500F0A4C501F00036009069
:1047F20001360050A525026E0150A621036E02C0AB
:10480200E9FF03C0EAFFEECF00F0EECF01F0275040
:1048120000262850012202C0E1FF03C0E2FF00C0CF
:10482200E6FF01C0E6FFA3C500F0A4C501F0003613
:10483200009001360050A525E96E0150A621EA6ECE
:10484200EECF01F0EECF02F0800EA019006E800EC6
:104852000218005C02E101509F5D11E2A3C500F065
:10486200A4C501F00036009001360050A525E16E86
:104872000150A621E26E9FC5E6FFA0C5E6FFA3C5D3
:1048820000F0A4C501F00036009001360050A525C5
:10489200E96E0150A621EA6EEECFAFF5EECFB0F58C
:1048A200000EB2BFFF0EB16FB26F000EB0BFFF0EAF
:1048B200B16FB26FF60EB36F040EB46FF5C400F0B1
:1048C200000E016E026E036E110E046E000E056E76
:1048D200066E076E14EC02F0D60E0026160E0122AA
:1048E200010E02220F0E0024F66E000E0120F76E5A
:1048F200000E0220F86E0900F5CFB5F5C4EC15F0F4
:1049020045D1A3C500F0A4C501F0003600900136E0
:104912000050A525E96E0150A621EA6EEECF01F006
:10492200EECF02F002507F0A02E1FF0E011813E1FE
:10493200FE0E0101EB6F7F0EEC6FFE0EE96F7F0E34
:10494200EA6FF60E0501CE6F040ECF6F3D0ED06FEB
:10495200A4EC07F01BD1A3C500F0A4C501F00036FA
:10496200009001360050A525E96E0150A621EA6E9D
:10497200EECF01F0EECF02F002507F0A02E1FE0E0E
:1049820001185AE1A3C500F0A4C501F00036009059
:1049920001360050A525E16E0150A621E26E9FC5A9
:1049A200E6FFA0C5E6FFE90EAF6F010EB06FB4ECF3
:1049B2001AF0A3C500F0A4C501F00036009001363C
:1049C20000500501A525E96E0150A621EA6EEECF41
:1049D200AFF5EECFB0F5000EB2BFFF0EB16FB26F02
:1049E200000EB0BFFF0EB16FB26FF60EB36F040EC2
:1049F200B46FF5C400F0000E016E026E036E110E6C
:104A0200046E000E056E066E076E14EC02F0D60EF2
:104A12000026160E0122010E02220F0E0024F66E4F
:104A2200000E0120F76E000E0220F86E0900F5CF8D
:104A3200B5F5C4EC15F0AAD0A3C500F0A4C501F0E9
:104A42000036009001360050A525E96E0150A621DE
:104A5200EA6EEECF01F0EECF02F0800EA219006EE8
:104A6200800E0218005C02E10150A15DD8B08ED028
:104A7200A3C500F0A4C501F0003600900136005035
:104A8200A525026E0150A621036E02C0E9FF03C0F4
:104A9200EAFFEECF00F0EECF01F02750005E285083
:104AA200015A02C0E1FF03C0E2FF00C0E6FF01C0FD
:104AB200E6FFA3C500F0A4C501F000360090013660
:104AC2000050A525E96E0150A621EA6EEECF01F055
:104AD200EECF02F0800E0218006E800EA219005C6A
:104AE20002E1A151015C11E2A3C500F0A4C501F0ED
:104AF2000036009001360050A525E16E0150A62136
:104B0200E26EA1C5E6FFA2C5E6FFA3C500F0A4C5FB
:104B120001F00036009001360050A525E96E0150E3
:104B2200A621EA6EEECFAFF5EECFB0F5000EB2BF22
:104B3200FF0EB16FB26F000EB0BFFF0EB16FB26F5A
:104B4200F60EB36F040EB46FF5C400F0000E016EE2
:104B5200026E036E110E046E000E056E066E076E77
:104B620014EC02F0D60E0026160E0122010E0222CD
:104B72000F0E0024F66E000E0120F76E000E0220CA
:0E4B8200F86E0900F5CFB5F5C4EC15F0120081
:104B900005019F6BA06BA16B000EA15D02E1100EE1
:104BA000A05D4FE29E5322E09DC500F0000E016E15
:104BB000003600900136190E0024E96E050E012022
:104BC000EA6EEECF03F0EECF04F0A0C502F003C012
:104BD00000F004C001F0025005E001320032019EF5
:104BE000FF0FFAD7010E00149F6F21D09DC500F072
:104BF000000E016E003600900136080E0024E96EAA
:104C0000050E0120EA6EEECF03F0EECF04F0A0C552
:104C100002F003C000F004C001F0025005E00132D0
:104C20000032019EFF0FFAD7010E00149F6F9F53B1
:104C300005E0A0C500F0A1C501F01200A04BA12B1A
:044C4000ABD71200DC
:104C440005019F6B100E9F5D4EE2F60EA06F040EE1
:104C5400A16F9F51A027D8B0A12BF5C400F0000E7E
:104C6400016E026E036E110E046E000E056E066E6A
:104C7400076E14EC02F0D60E0026160E0122010E69
:104C84000222050E0024F66E000E0120F76E000EBF
:104C94000220F86E0900F5CF00F0000E016E026EDE
:104CA400036E140E046E000E056E066E076E14EC91
:104CB40002F0060E00261F0E0122010E02229F5151
:104CC4000024F66E000E0120F76E000E0220F86E2E
:104CD4000900F5CF00F0A0C5E1FFA1C5E2FF00C0C7
:0A4CE400E6FF9F2BAFD7000012007F
:104CEE00000E03017EB1010E0501A36FA46B320EFF
:104CFE00AB6F030EAC6F2A0EA56F030EA66F360EAA
:104D0E00A76F030EA86FF10EA96F010EAA6FA3C5B0
:104D1E0000F0A4C501F00036009001360050AB251E
:104D2E00E96E0150AC21EA6EEECFADF5EECFAEF5E9
:104D3E0003012D517F0A02E1FF0E2C1907E02D51C0
:104D4E007F0A02E1FE0E2C1901E02ED031517F0AAE
:104D5E0002E1FF0E30190EE10501A351A41105E089
:104D6E00CF0EA16FFF0EA26F04D0C70EA16FFF0E64
:104D7E00A26F19D00501A351A4110BE0010E03017E
:104D8E0030250501A16F000E030131210501A26F2F
:104D9E000AD0010E03012E250501A16F000E03019D
:104DAE002F210501A26F31D0A9EC13F0005213E0B0
:104DBE00A3C500F0A4C501F00036009001360050E6
:104DCE000501A525E96E0150A621EA6EEECFA1F5EB
:104DDE00EECFA2F51AD00501A3C500F0A4C501F0CF
:104DEE000036009001360050A525E96E0150A6212F
:104DFE00EA6E0050A725D96E0150A821DA6EDE505A
:104E0E00EE24A16FDE50EE20A26FA351A41105E097
:104E1E00F40E9F6F010EA06F04D0A40E9F6F030EB1
:104E2E00A06F9E51010A1EE10101F4517F0A02E1B9
:104E3E00FF0EF31907E0F10E0501AF6F010EB06F13
:104E4E00B4EC1AF0F10E0501AF6F010EB06F320E19
:104E5E00B16F030EB26F96EC1AF0EFEC1AF0010E72
:104E6E00876F2CD205019E51020A5EE1320EAF6FA2
:104E7E00030EB06FF10EB16F010EB26F96EC1AF019
:104E8E000101F4517F0A02E1FF0EF3190AE1F60E59
:104E9E000501CE6F040ECF6F3B0ED06FA4EC07F062
:104EAE0042D00501A3C500F0A4C501F00036009064
:104EBE0001360050A925E96E0150AA21EA6EEECF07
:104ECE00AFF5EECFB0F5000EB2BFFF0EB16FB26F01
:104EDE00000EB0BFFF0EB16FB26FF60EB36F040EC1
:104EEE00B46FF5C400F0000E016E026E036E110E6B
:104EFE00046E000E056E066E076E14EC02F0D60EF2
:104F0E000026160E0122010E02220F0E0024F66E4E
:104F1E00000E0120F76E000E0220F86E0900F5CF8C
:104F2E00B5F5C4EC15F0CAD19E51040AD8A4C6D169
:104F3E0040EC18F09D53D8B4D5D0A3C500F0A4C54D
:104F4E0001F00036009001360050A925E96E01509F
:104F5E00AA21EA6EEECF01F0EECF02F00250A019B8
:104F6E0002E19F51011813E1FF0E0101F36F7F0E55
:104F7E00F46FFF0EF16F7F0EF26FF60E0501CE6F1E
:104F8E00040ECF6F3B0ED06FA4EC07F0AAD0A3C5D2
:104F9E0000F0A4C501F00036009001360050A9259E
:104FAE00E96E0150AA21EA6EEECF01F0EECF02F0CB
:104FBE00800E0218006E800EA019005C02E19F5157
:104FCE00015CD8B08ED0A3C500F0A4C501F00036A8
:104FDE00009001360050A925026E0150AA21036EE1
:104FEE0002C0E9FF03C0EAFFEECF00F0EECF01F002
:104FFE00275000262850012202C0E1FF03C0E2FF25
:10500E0000C0E6FF01C0E6FFA3C500F0A4C501F095
:10501E000036009001360050A925E96E0150AA21F4
:10502E00EA6EEECF01F0EECF02F0800EA019006E08
:10503E00800E0218005C02E101509F5D11E2A3C5D3
:10504E0000F0A4C501F00036009001360050A925ED
:10505E00E16E0150AA21E26E9FC5E6FFA0C5E6FFF4
:10506E00A3C500F0A4C501F0003600900136005033
:10507E00A925E96E0150AA21EA6EEECFAFF5EECF6B
:10508E00B0F5000EB2BFFF0EB16FB26F000EB0BF23
:10509E00FF0EB16FB26FF60EB36F040EB46FF5C4A0
:1050AE0000F0000E016E026E036E110E046E000E05
:1050BE00056E066E076E14EC02F0D60E0026160E66
:1050CE000122010E02220F0E0024F66E000E0120A8
:1050DE00F76E000E0220F86E0900F5CFB5F5C4ECA0
:1050EE0015F0ECD0A3C500F0A4C501F00036009079
:1050FE0001360050A925E96E0150AA21EA6EEECFC5
:10510E0001F0EECF02F002507F0A02E1FF0E01180D
:10511E0018E1A3C500F0A4C501F0003600900136D9
:10512E000050A925E16E0150AA21E26E9FC5E6FF4F
:10513E00A0C5E6FFF10EAF6F010EB06FB4EC1AF022
:10514E007BD0A3C500F0A4C501F000360090013657
:10515E0000500501A925E96E0150AA21EA6EEECF95
:10516E0003F0EECF04F0010EA125016E000EA22178
:10517E00026E800E0218006E800E0418005C02E1B2
:10518E000350015C59E2A3C500F0A4C501F000363E
:10519E00009001360050A925026E0150AA21036E1F
:1051AE0002C0E9FF03C0EAFFEECF00F0EECF01F040
:1051BE002750005E2850015A02C0E1FF03C0E2FFF3
:1051CE0000C0E6FF01C0E6FFA3C500F0A4C501F0D4
:1051DE000036009001360050A925E96E0150AA2133
:1051EE00EA6EEECF03F0EECF04F0010EA125016EB4
:1051FE00000EA221026E800E0418006E800E0218A0
:10520E00005C02E10150035C17E2A3C500F0A4C5E7
:10521E0001F00036009001360050A925E16E0150D4
:10522E00AA21E26E010EA125006E000EA221016ED2
:10523E0000C0E6FF01C0E6FF0501A3C500F0A4C54E
:10524E0001F00036009001360050A925E96E01509C
:10525E00AA21EA6EEECFAFF5EECFB0F5000EB2BFDB
:10526E00FF0EB16FB26F000EB0BFFF0EB16FB26F17
:10527E00F60EB36F040EB46FF5C400F0000E016E9F
:10528E00026E036E110E046E000E056E066E076E34
:10529E0014EC02F0D60E0026160E0122010E02228A
:1052AE000F0E0024F66E000E0120F76E000E022087
:0E52BE00F86E0900F5CFB5F5C4EC15F012003E
:1052CC00000E03017EB1010E0501A36FA46B2E0E1F
:1052DC00AB6F030EAC6F2A0EA56F030EA66F360EC6
:1052EC00A76F030EA86FED0EA96F010EAA6FA3C5D1
:1052FC0000F0A4C501F00036009001360050AB253B
:10530C00E96E0150AC21EA6EEECFADF5EECFAEF505
:10531C0003012D517F0A02E1FF0E2C1907E02D51DC
:10532C007F0A02E1FE0E2C1901E02ED035517F0AC6
:10533C0002E1FF0E34190EE10501A351A41105E0A1
:10534C00F30E9F6F010EA06F04D0A30E9F6F030E80
:10535C00A06F19D00501A351A4110BE0010E03019C
:10536C00345D05019F6F000E030135590501A06FD7
:10537C000AD0010E0301325D05019F6F000E03017F
:10538C0033590501A06F31D0A9EC13F0005213E092
:10539C00A3C500F0A4C501F0003600900136005002
:1053AC000501A525E96E0150A621EA6EEECF9FF509
:1053BC00EECFA0F51AD00501A3C500F0A4C501F0ED
:1053CC000036009001360050A525E96E0150A6214B
:1053DC00EA6E0050A725D96E0150A821DA6EDE5076
:1053EC00EE5C9F6FDE50EE58A06FA351A41105E048
:1053FC00CE0EA16FFF0EA26F04D0C60EA16FFF0ED2
:10540C00A26F9E51010A1EE10101F0517F0A02E1D7
:10541C00FF0EEF1907E0ED0E0501AF6F010EB06F37
:10542C00B4EC1AF0ED0E0501AF6F010EB06F2E0E3D
:10543C00B16F030EB26F96EC1AF0EFEC1AF0010E8E
:10544C00876F8DD205019E51020A5EE12E0EAF6F61
:10545C00030EB06FED0EB16F010EB26F96EC1AF039
:10546C000101F0517F0A02E1FF0EEF190AE1F60E7D
:10547C000501CE6F040ECF6F3B0ED06FA4EC07F07E
:10548C0042D00501A3C500F0A4C501F00036009080
:10549C0001360050A925E96E0150AA21EA6EEECF23
:1054AC00AFF5EECFB0F5000EB2BFFF0EB16FB26F1D
:1054BC00000EB0BFFF0EB16FB26FF60EB36F040EDD
:1054CC00B46FF5C400F0000E016E026E036E110E87
:1054DC00046E000E056E066E076E14EC02F0D60E0E
:1054EC000026160E0122010E02220F0E0024F66E6B
:1054FC00000E0120F76E000E0220F86E0900F5CFA9
:10550C00B5F5C4EC15F02BD29E51040AD8A427D2C1
:10551C0040EC18F09D53D8B414D1A3C500F0A4C529
:10552C0001F00036009001360050A925E96E0150BB
:10553C00AA21EA6EEECF03F0EECF04F0010E9F5DD0
:10554C00016E000EA059026E0450021802E10150C7
:10555C00031813E1FF0E0101EF6F7F0EF06FFF0ECA
:10556C00ED6F7F0EEE6FF60E0501CE6F040ECF6F52
:10557C003B0ED06FA4EC07F0E3D0A3C500F0A4C59C
:10558C0001F00036009001360050A925E96E01505B
:10559C00AA21EA6EEECF03F0EECF04F0010E9F5D70
:1055AC00016E000EA059026E800E0418006E800E63
:1055BC000218005C02E10150035CD8B09BD0A3C57B
:1055CC0000F0A4C501F00036009001360050A9256A
:1055DC00026E0150AA21036E02C0E9FF03C0EAFF6C
:1055EC00EECF00F0EECF01F027500026285001221C
:1055FC0002C0E1FF03C0E2FF00C0E6FF01C0E6FF0E
:10560C00A3C500F0A4C501F000360090013600508F
:10561C00A925E96E0150AA21EA6EEECF03F0EECF78
:10562C0004F0010E9F5D016E000EA059026E800EFB
:10563C000218006E800E0418005C02E10350015C3D
:10564C0017E2A3C500F0A4C501F0003600900136A6
:10565C000050A925E16E0150AA21E26E010E9F5D5A
:10566C00006E000EA059016E00C0E6FF01C0E6FFFF
:10567C00A3C500F0A4C501F000360090013600501F
:10568C00A925E96E0150AA21EA6EEECFAFF5EECF57
:10569C00B0F5000EB2BFFF0EB16FB26F000EB0BF0F
:1056AC00FF0EB16FB26FF60EB36F040EB46FF5C48C
:1056BC0000F0000E016E026E036E110E046E000EF1
:1056CC00056E066E076E14EC02F0D60E0026160E52
:1056DC000122010E02220F0E0024F66E000E012094
:1056EC00F76E000E0220F86E0900F5CFB5F5C4EC8C
:1056FC0015F026D00101F0517F0A02E1FF0EEF19DF
:10570C0018E0A3C500F0A4C501F0003600900136E6
:10571C0000500501A925E16E0150AA21E26E010E8F
:10572C009F5D006E000EA059016E00C0E6FF01C027
:10573C00E6FF0501ED0EAF6F010EB06FB4EC1AF081
:10574C000ED1A3C500F0A4C501F0003600900136BF
:10575C0000500501A925E96E0150AA21EA6EEECF91
:10576C0001F0EECF02F002507F0A02E1FF0E0118A9
:10577C001EE1A3C500F0A4C501F00036009001366F
:10578C000050A925E16E0150AA21E26E010E9F5D29
:10579C00006E000EA059016E00C0E6FF01C0E6FFCE
:1057AC00ED0EAF6F010EB06FB4EC1AF096D0A3C52E
:1057BC0000F0A4C501F00036009001360050050140
:1057CC00A925E96E0150AA21EA6EEECF01F0EECFC9
:1057DC0002F0800EA219006E800E0218005C02E12D
:1057EC000150A15D4EE2A3C500F0A4C501F0003646
:1057FC00009001360050A925026E0150AA21036EBB
:10580C0002C0E9FF03C0EAFFEECF00F0EECF01F0DB
:10581C002750005E2850015A02C0E1FF03C0E2FF8E
:10582C0000C0E6FF01C0E6FFA3C500F0A4C501F06F
:10583C000036009001360050A925E96E0150AA21CE
:10584C00EA6EEECF01F0EECF02F0800E0218006E81
:10585C00800EA219005C02E1A151015C11E2A3C50A
:10586C0000F0A4C501F00036009001360050A925C7
:10587C00E16E0150AA21E26EA1C5E6FFA2C5E6FFCA
:10588C002CD0A3C500F0A4C501F000360090013661
:10589C000050A925E96E0150AA21EA6EEECF01F065
:1058AC00EECF02F0800E0218006E800EA219005C82
:1058BC0002E1A151015C11E2A3C500F0A4C501F005
:1058CC000036009001360050A925E16E0150AA2146
:1058DC00E26EA1C5E6FFA2C5E6FF0501A3C500F077
:1058EC00A4C501F00036009001360050A925E96EE0
:1058FC000150AA21EA6EEECFAFF5EECFB0F5000E57
:10590C00B2BFFF0EB16FB26F000EB0BFFF0EB16F22
:10591C00B26FF60EB36F040EB46FF5C400F0000E48
:10592C00016E026E036E110E046E000E056E066E95
:10593C00076E14EC02F0D60E0026160E0122010E94
:10594C0002220F0E0024F66E000E0120F76E000EE0
:10595C000220F86E0900F5CFB5F5C4EC15F0120075
:10596C009DC5CEF59EC5CFF5100E0501D06F000E6E
:10597C00D16FF6EC07F09F51090821E20A0E046E74
:10598C009FC500F01AEC1AF09DC5E1FF9EC5E2FF21
:10599C00300E0024E66E9D4B9E2B0A0E046E9FC5A6
:1059AC0000F01AEC1AF008C000F09DC5E1FF9EC58E
:1059BC00E2FF300E0024E66E9D4B9E2B09D09DC558
:1059CC00E1FF9EC5E2FF300E9F25E66E9D4B9E2BA0
:1059DC00A351010A35E19DC5E1FF9EC5E2FF2F0EE3
:1059EC00E66E9D4B9E2BA051090821E20A0E046E17
:1059FC00A0C500F01AEC1AF09DC5E1FF9EC5E2FFB0
:105A0C00300E0024E66E9D4B9E2B0A0E046EA0C534
:105A1C0000F01AEC1AF008C000F09DC5E1FF9EC51D
:105A2C00E2FF300E0024E66E9D4B9E2B09D09DC5E7
:105A3C00E1FF9EC5E2FF300EA025E66E9D4B9E2B2E
