:020000040800F2
:1000000028150020DD010008531A00083D170008DC
:10001000511A00086D02000829270008000000009E
:100020000000000000000000000000004501000882
:100030006F02000800000000890100081924000870
:10004000F7010008F7010008F7010008F7010008B0
:10005000F7010008F7010008F7010008F7010008A0
:10006000F7010008F7010008F7010008F701000890
:10007000F7010008F7010008F7010008F701000880
:10008000F7010008F7010008F7010008F701000870
:10009000F7010008F7010008F7010008F701000860
:1000A000F7010008F5240008F7010008F70100082F
:1000B000F7010008F7010008F7010008F701000840
:1000C000F7010008F7010008F7010008F701000830
:1000D000F7010008F7010008F7010008F701000820
:1000E000F7010008F7010008F7010008F701000810
:1000F000F7010008F7010008F7010008F701000800
:10010000F7010008F7010008F7010008F7010008EF
:10011000F7010008F7010008F7010008F7010008DF
:10012000F7010008F7010008F7010008F7010008CF
:10013000DFF80CD000F088F8004800474927000895
:1001400028150020224B19680868B0E8F00F80F3EA
:100150000988BFF36F8F4FF0000080F311884EF0D5
:100160000D0E70470000000006480068006880F32C
:10017000088862B661B6BFF34F8FBFF36F8F00DFA1
:1001800000BF00BF08ED00E0EFF30980BFF36F8F01
:100190000F4B1A6820E9F00F106008B54FF05000BF
:1001A00080F31188BFF34F8FBFF36F8F02F02EFFE4
:1001B0004FF0000080F31188BDE808401968086816
:1001C000B0E8F00F80F30988BFF36F8F704700BF6E
:1001D00054000020EFF30580704700000648804778
:1001E00006480047FEE7FEE7FEE7FEE7FEE7FEE71C
:1001F000FEE7FEE7FEE7FEE7AD2400083101000858
:1002000040EA01039B0703D009E008C9121F08C098
:10021000042AFAD203E011F8013B00F8013B521E18
:10022000F9D27047D2B201E000F8012B491EFBD28F
:1002300070470022F6E710B513460A4604461946F1
:10024000FFF7F0FF204610BD064C074D06E0E068C2
:1002500040F0010394E8070098471034AC42F6D30D
:10026000FFF76AFF2437000844370008FEE77047AD
:1002700070470022AFF3008030B50E4B05460120D9
:100280005C7A012C15D8587A00241C54587A03EB58
:10029000800045605D7A03F108002A54587A421CB8
:1002A0005A72303008703A2048702F208870CC7015
:1002B000002030BD2C02002010B5040002D060796F
:1002C00010B106E0012010BD00202071204600F092
:1002D00005F801206071002010BD000008B500681D
:1002E0000649884208D10648416941F04001416110
:1002F000406900F04000009008BD0000003002405E
:100300000010024070B5044600F00CF90546601C70
:1003100002D004480078044400F004F9401BA042D5
:10032000FAD370BD440000202DE9F84FDFF8B8A1E2
:1003300000220AF1040B144601274FF00F090BF1BC
:10034000040E00BF0B6807FA04F52B40AB4274D1D2
:10035000DFF898C14E68A6EB0C0866452BD00DDC83
:10036000032E34D005DC36B3012E19D0022E2FD146
:100370001BE0112E16D0122E2AD119E0B8F5881FD5
:1003800019D006DCB8F5803F15D0B8F5801F1FD115
:1003900011E0B8F5001F0ED0B8F5041F18D10AE01F
:1003A000CA6815E0CA68121D12E0CA6808320FE078
:1003B000CA680C320CE08A682AB1012A4FF00802A0
:1003C00003D0456104E0042202E0056100E0002260
:1003D000FF2B01D8064601E000F104064FEA840530
:1003E00001D9A5F12005D6F800C009FA05F82CEAD4
:1003F000080C02FA05F54CEA050CC6F800C04D6879
:10040000ED006AD53A4DAE6946F00106AE61AD69C0
:1004100024F0030605F001050095364D06EB050CAA
:10042000DCF80850A6074FEA167809FA08F6B54333
:10043000314EB04202D100261AE04EE02F4EB042BB
:1004400001D1012614E02E4EB04201D102260FE068
:100450002C4EB04201D103260AE02B4EB04201D10E
:10046000042605E0294EB04201D1052600E006260B
:1004700006FA08F62E43CCF808604D68DAF80060FA
:10048000ED03554601D51E4300E09E432E604D68A6
:10049000AD0305D5DBF800601E43CBF8006004E037
:1004A000DBF800509D43CBF800504D68DEF800604B
:1004B000ED02754601D51E4300E09E432E604D6857
:1004C000AD0205D5084D0C352E681E432E6004E0A4
:1004D000054E0C3635689D433560641C102CFFF4C6
:1004E00031AFBDE8F88F000000040140000011109A
:1004F000001002400000014000080140000C0140D3
:10050000001001400014014000180140001C01408F
:10051000C2684A40C26070470AB10161704709046D
:10052000FBE700000148806870470000440000209D
:1005300002488168027811448160704744000020BD
:10054000074810B5016841F010010160032000F078
:1005500091F8002000F006F800F03EF8002010BDF1
:100560000020024000B5014687B00022192000F0AB
:1005700061F8192000F052F81348816941F40061D4
:100580008161806905A900F400600690684600F06A
:100590001FFA00F04DFA0D490D4AB0FBF1F10D487C
:1005A000491E0260416040F2E7320021C0E90321A8
:1005B000816000F071FF10B1012007B000BD054857
:1005C00000F086FFF9E700000010024040420F00F3
:1005D000002C0140EC0100200E4808B5816941F073
:1005E00001018161816901F001010091C16941F05E
:1005F0008051C161C069002200F0805000900F213D
:10060000901E00F017F80448416821F0E061416055
:1006100008BD0000001002400000014000F01F0271
:10062000012191404009800000F1E020C0F8001154
:1006300070470000F0B40E4B1B680C46C3F3022356
:10064000C3F10705042D00D90425191D072901D27E
:10065000002300E0DB1E012606FA05F1491E2140B9
:1006600099409E40761E16403143F0BC01F0F2B92D
:100670000CED00E0064900F0070208684FF6FF03A2
:10068000184040EA0220034A104308607047000007
:100690000CED00E00000FA050149012008627047F6
:1006A00000000E4210B52CA401461DCC86B08DE88A
:1006B0001D002DA02D4C00680490002004292FD08F
:1006C0000BDC01292FD0022928D100F0B1F9616893
:1006D000C1F38131491C49001EE0082920D01029AE
:1006E0001CD161682268D20118D5C1F38342C903C5
:1006F0001DF8020009D5616804AAC1F34041515CAC
:100700001B4AB2FBF1F1484301E01A4948436168D2
:10071000490203D440000321B0FBF1F006B010BD44
:1007200000F096F9FAE7226AC2F30121012903D108
:10073000920701D5C803F1E7022905D1626A920741
:1007400002D549F64040E9E70329E7D1216889034A
:10075000E4D54FF22440E1E7020304050607080947
:100760000A0B0C0D0E0F10100102000000100240C9
:1007700000127A0000093D002DE9F8430546007893
:10078000354CC00754D0E0690026C00008D4E069A9
:1007900040F08050E061E069012600F08050009058
:1007A0002E480168C90512D40168804641F4807161
:1007B0000160FFF7B7FE074605E000BFFFF7B2FE96
:1007C000C01B642823D8D8F80000C005F6D5206ADD
:1007D00010F4407021D0A98801F4407181421CD0EE
:1007E000206A1F49012220F440700A6000220A603A
:1007F0002062C00711D0FFF795FE074641F2883806
:1008000008E000BFFFF78EFEC11B414502D903205F
:10081000BDE8F883206A8007F4D5206A696820F46F
:100820004070084320621EB1E06920F08050E06112
:100830002878800705D56068A96820F440400843FF
:1008400060602878C00605D56068696920F480007A
:10085000084360600020DBE70010024000700040A9
:10086000400442422DE9F047DFF8548105460E4628
:10087000D8F8000000F00700B0420CD2D8F8001001
:1008800021F007013143C8F80010D8F8000000F04B
:100890000700B0426FD128684A4C810712D5400743
:1008A00003D5606840F4E06060602878000703D5F5
:1008B000606840F4605060606068A96820F0F000F3
:1008C000084360602878C00744D06868012816D0C3
:1008D0002168022816D0890700294CDA616821F0C6
:1008E000030101436160FFF71DFE6968074641F29D
:1008F000883001290ED00229814618D026E02168CF
:100900008903E9E78901E7E7FFF70CFEC11B4945C9
:1009100001D918E081466068C0F381000128F3D155
:1009200018E000BFFFF7FEFDC11B49450BD860680A
:10093000C0F381000228F5D10CE000BFFFF7F2FD03
:10094000C11B494502D90320BDE8F087606810F05B
:100950000C0FF3D1D8F80010404601F00701B14266
:100960000BD9016821F0070131430160006800F0F4
:100970000700B04201D00120E6E72878400705D5FE
:100980006068E96820F4E060084360602878000748
:1009900006D56068296920F4605040EAC1006060B3
:1009A00000F056F86168084AC1F30311515CC84071
:1009B000064908600020FFF7D5FD0020C4E70000CD
:1009C0000020024000100240EC36000850000020D9
:1009D0000F2202600C4A536803F00303436053681C
:1009E00003F0F0038360536803F4E063C36052686C
:1009F0004FF4E06303EAD20202610448006800F0A9
:100A0000070008607047000000100240002002400C
:100A10000448054900684968044AC1F30221515C51
:100A2000C84070475000002000100240FC3600080B
:100A30000448054900684968044AC1F3C221515C71
:100A4000C84070475000002000100240FC360008EB
:100A500012A185B00FC98DE80F0014A0144A0068D8
:100A600004905168134801F00C03042B10D0082B9C
:100A70000ED1C1F38343C9031DF803000AD55168A1
:100A800004AAC1F34041515C0A4A5043B0FBF1F063
:100A900005B0704708494843FAE70000020304051F
:100AA000060708090A0B0C0D0E0F101001020000BA
:100AB0000010024000127A0000093D002DE9F84FB5
:100AC00004460078B94DC00748D06868C0F381007B
:100AD000012807D06868C0F38100022809D168683E
:100AE000C00306D52868800338D5606800286FD019
:100AF00034E06068B0F5803F0BD010B1B0F5A02FA6
:100B000011D0286820F480302860286820F48020E4
:100B100002E0286840F480302860606888B1FFF700
:100B200001FD064609E0286840F480202860F0E7CF
:100B3000FFF7F8FC801B642875D828688003F7D578
:100B40000CE0FFF7EFFC064605E000BFFFF7EAFC0C
:100B5000801B6428F0D828688003F7D42078944E4E
:100B600080074FF001094FF000083BD5686810F08E
:100B70000C0F07D06868C0F38100022809D16868AB
:100B8000C00306D42868800714D5206901281FD126
:100B900010E02069B0B1C6F80090FFF7C3FC07462B
:100BA00005E000BFFFF7BEFCC01B0228C4D82868C0
:100BB0008007F7D52868616920F0F80040EAC10095
:100BC00028600FE0C6F80080FFF7ACFC074606E09F
:100BD000E9E000BFFFF7A6FCC01B022823D8286865
:100BE0008007F7D4207800072CD57248A169D9B1C5
:100BF000C0F80090FFF796FC074604E0FFF792FC70
:100C0000C01B02280FD8686A8007F7D56A484FF4DE
:100C1000FA510068B0FBF1F0009000BF0098411E4F
:100C20000091FAD20EE080E0C0F80080FFF77AFC75
:100C3000074604E0FFF776FCC01B022875D8686AF7
:100C40008007F7D42078400760D5E8690027C00006
:100C500008D4E86940F08050E861E869012700F0B5
:100C60008050009055480168C90513D40168834637
:100C700041F480710160FFF755FC824606E000BF39
:100C8000FFF750FCA0EB0A0064284ED8DBF8000008
:100C9000C005F5D5E06801280AD008B1052813D0B1
:100CA000286A20F001002862286A20F0040002E08F
:100CB000286A40F001002862E06841F2883B98B160
:100CC000FFF730FC82460BE0286A40F004002862FF
:100CD000EEE700BFFFF726FCA0EB0A0159455AD802
:100CE000286A8007F6D50CE0FFF71CFC824605E079
:100CF000FFF718FCA0EB0A0159454CD8286A800779
:100D0000F6D41FB1E86920F08050E861E06988B34B
:100D10006968C1F38101022945D00228C6F86080C4
:100D200004D0FFF7FFFB044638E034E0FFF7FAFB9E
:100D3000074604E0FFF7F6FBC01B02282BD8286803
:100D40008001F7D4206AB0F5803F05D16868A168BA
:100D500020F4003008436860D4E90801084369685A
:100D600021F4741108436860C6F86090FFF7DAFB5D
:100D7000044606E015E000BFFFF7D4FB001B022885
:100D800009D828688001F7D50BE000BFFFF7CAFB40
:100D9000001B022802D90320BDE8F88F28688001D3
:100DA000F4D40020F8E70120F6E70000001002402C
:100DB0000000424280044242500000200070004087
:100DC00070B5040003D0607C002610B105E001205E
:100DD00070BD2674204600F043F80220607420465F
:100DE00000F010F9042578BB204600F04CFE58BBFB
:100DF0002068416821F007014160A06820B11748D0
:100E0000016821F0010101601448001F0168A26817
:100E100021F46071114301606068411C04D101201C
:100E2000FFF740FC80B1401E21688A6822F00F0263
:100E300042EA10428A602168CA6860F30F02CA6001
:100E4000204600F03BFE08B16574C0E7E673012060
:100E50006073A0736074002070BD0000306C0040AF
:100E600008B50068084988420DD1FFF715FC07480E
:100E7000C16941F00061C161C069054900F00060CD
:100E800000900120086008BD0028004000100240CA
:100E90003C0442422DE9F0410D4604003BD0C5B36D
:100EA000207C01283AD04FF0010884F810800220FD
:100EB0006074E87872B300F0DDFDE073687800F0EC
:100EC000D9FD6073A87800F0D5FDA073C2B2617B34
:100ED000E07B00F025FE20732870204600F010FE15
:100EE0004FF46161B0FBF1F1002518292DD91822CA
:100EF000B1FBF2F1A1EB011101EB4101C1EB0111D9
:100F000000EBC1163146204600F049FE0427C8B95F
:100F10000BE000E004E00120BDE8F0810220FBE7E7
:100F2000E07368786073A878CFE7204600F0E1FDB1
:100F3000411C0AD0B04208D206490144204600F0C4
:100F40001AFE10B167742574E5E784F811802574E2
:100F50000020E1E7805101002DE9F0410D46040039
:100F600024D01DB3207C012823D04FF0010884F841
:100F70001080022060742878EAB100F07BFD4FF405
:100F8000616100FB01F6687800F074FDC0EB0010B1
:100F900006EB8006A87800F06DFD3518294620463E
:100FA00000F0FDFD0026042710BB0FE00120BDE886
:100FB000F0810220FBE74FF4616148436978C1EB9F
:100FC000011100EB8100A9784518E7E72068416826
:100FD00021F005014160204600F08BFD411C0AD044
:100FE000A84208D206490144204600F0C4FD10B1D1
:100FF00067742674DAE784F8118026740020D6E737
:101000008051010070B504000AD02068416821F0C9
:1010100008014160FFF786FA05464FF47A7608E04A
:10102000012070BDFFF77EFA401BB04201D90320BA
:1010300070BD206840680007F4D5002070BDFEB583
:10104000044603200D4684F83400606C032820D049
:10105000B5F5805F1DD0B5F5006F05D045B1A06B2B
:1010600040F00060A06309E0204601F096F902E03C
:10107000204601F06BF9A16B0143A163A06B01262F
:1010800058B1216840F2FF50886384F83460012031
:10109000FEBDA06B40F08050E4E7211DD4E905704F
:1010A0000EC90095CDE90170206800F0A8FD84F814
:1010B00034600020FEBDF0B5426E120E93090B7035
:1010C000C2F383034B7002F003028A70426E120C6B
:1010D000CA70B0F86420120A0A7190F864204A714C
:1010E000826E4FF6FF73120E03EA0212CA80826EFE
:1010F000CB88C2F3074243EA1213CB8002F00F02FF
:101100000A72B0F86820C2F30722D3094B72C2F307
:1011100080138B72C2F34013CB72C2F300130B73B4
:1011200000264E73446C4FF4007701236CB1012C00
:1011300043D0026840F2FF519163816B41F08051CE
:10114000816380F834300120F0BD9207120D0A61EE
:1011500090F868200C6944EA82020A61C26E0C6948
:10116000120E44EA92140C61C2F3C2040C7502F030
:1011700007024A75C26EC2F3074254098C75C2F366
:101180008204CC759207520F0A76B0F86C20C2F335
:1011900007240A7E42EAD4120A760A69521C426582
:1011A0000D7EAD1CAA4042650D7A03FA05F58565F2
:1011B0006D0A6A43C0E917271CE090F86820920680
:1011C000920A0A61C26E0C69120E44EA02220A6196
:1011D000C26E0C69C2F3074214430C61B0F86C2074
:1011E000C2F307240A69521C4FEA82224265C0E911
:1011F00016720766C4F3801201F8192F4FEA846251
:101200004FEA52624A7010F86C2F4C7844EAD214BC
:101210004C7002F07F028A7042684FEA12624FEA15
:10122000D214CC70C2F341140C71C2F382044C711D
:101230004FEA82724FEA12728A7142688C79C2F365
:10124000074244EA92148C71C2F34014CC710E72BE
:1012500002F001024A728288C2F307224FEAD214D6
:101260008C72C2F38014CC72C2F340140C73C2F3BC
:1012700000144C73C2F381048C7302F00302CA732E
:1012800000794FEA500008744B744FF00000F0BD35
:1012900070B5040004D094F83400002510B105E0C6
:1012A000012070BD2577204600F038F8032084F82F
:1012B0003400204600F008F8A5632563012084F877
:1012C0003400002070BD0000FEB500250446C32098
:1012D0000095CDE901502B462A462946206800F0AA
:1012E0008EFC0D4E46F8A05F206800F09AFC0125A8
:1012F00035600220FFF706F8204600F0D6FF20B93F
:10130000204600F05FFF002805D084F83450A16B20
:101310000143A1630120FEBD0000304230B585B01D
:1013200000210091019102910391006818498842BF
:101330002BD11848416941F480614161416901F450
:1013400080610491816941F010018161816901F03E
:1013500010010491816941F02001816180690224BA
:1013600000F0200004904FF4F850CDE9000403256C
:10137000694603950848FEF7D7FF0420CDE900042D
:10138000694603950548FEF7CFFF05B030BD000064
:101390000080014000100240001001400014014094
:1013A00070B5040005D00025A56294F8510010B175
:1013B00004E0012070BD204600F034F8022084F8DB
:1013C00051002068016821F040010160D4E9010169
:1013D0000843D4E903121143084361690843218B90
:1013E00001F400710843E1690843216A0843A16AD6
:1013F000084321680860A069042101EA1040616A7D
:101400000843216848602168E06A08612068C16972
:1014100021F40061C1616565012084F8510000205C
:1014200070BD000030B585B0002400940194029492
:10143000039400681449884223D11448816941F417
:1014400080518161816901F480510491816941F089
:101450000401816180690E4D00F004000490B02009
:101460000090022001900320039069462846FEF771
:101470005BFF4020CDE90004694628460294FEF750
:1014800053FF05B030BD00000030014000100240A5
:10149000000801407047704710B5040003D094F86D
:1014A0003D0010B107E0012010BD002084F83C0091
:1014B000204600F00CF8022084F83D00211D206831
:1014C00001F01EF8012084F83D00002010BD704797
:1014D0000168CA6842F00102CA600068016841F010
:1014E0000101016000207047704770B50446006834
:1014F00001694FF00005C943890715D4C168C94384
:10150000890711D4E91E01610120207720688069D4
:101510008007204602D0FFF7E7FF04E000F098F8CC
:10152000204600F096F8257720680169C9434907ED
:1015300017D4C168C943490713D46FF0040101618E
:10154000022020772068806910F4407F204602D076
:10155000FFF7CAFF04E000F07BF8204600F079F8BE
:10156000257720680169C943090716D4C168C943B2
:10157000090712D46FF00801016104202077206868
:10158000C0698007204602D0FFF7AEFF04E000F0FC
:101590005FF8204600F05DF8257720680169C943AF
:1015A000C90617D4C168C943C90613D46FF0100126
:1015B0000161082020772068C06910F4407F204630
:1015C00002D0FFF791FF04E000F042F8204600F05F
:1015D00040F8257720680169C943C90708D1C16867
:1015E000C943C90704D1891E0161204600F032F8C1
:1015F00020680169C943090609D4C168C9430906BD
:1016000005D46FF0800101612046FFF743FF206899
:101610000169C943490609D4C168C943490605D4CB
:101620006FF040010161204600F01EF8206801695A
:10163000C94389060BD4C168C943890607D46FF032
:10164000200101612046BDE87040FFF724BF70BD56
:101650007047704700680349884201D1FEF768BFB0
:1016600070470000002C0140704770B5040004D0A2
:1016700094F83900002510B106E0012070BD84F80F
:101680003850204600F022F8242084F839002068E1
:10169000C16821F40051C160204600F077FF206846
:1016A000016921F4904101612068416921F02A011A
:1016B00041612068C16841F40051C160E5632020A8
:1016C00084F8390084F83A00002070BD30B585B048
:1016D0000024009401940294039400681449884201
:1016E00024D11448816941F480418161816901F408
:1016F00080410491816941F00401816180690E4D4E
:1017000000F0040004904FF400700090022001905B
:101710000320039069462846FEF706FE2815CDE90A
:101720000004694628460294FEF7FEFD05B030BD70
:10173000003801400010024000080140FEE70000B0
:10174000074910B5054808600846FEF7B5FD0028B2
:1017500003D0BDE81040FEF78BBD10BD0030024045
:101760000000002010B504490448FEF782FD02493C
:10177000491E087010BD0000290000203000002024
:1017800030B595B0002511A8119501F041F81F4C16
:10179000206112A8129501F03BF8606113A813951F
:1017A00001F036F8A061012114A8149501F033F876
:1017B000E061142216496846FEF722FD00216846C2
:1017C00001F03CF8124920601422143105A8FEF7FC
:1017D00017FD002105A801F031F80D4960601422C1
:1017E00028310AA8FEF70CFD00210AA801F026F80E
:1017F0000749A0600839D1E90001CDE90F010021B6
:101800000FA801F001F8E06015B030BD080000201D
:10181000B036000870B586B00025394800950195AE
:1018200002950395816941F040018161816901F070
:1018300040010491816941F010018161816901F0E9
:1018400010010491816941F004018161816901F015
:1018500004010491816941F008018161816901F00D
:1018600008010491816941F0200181618069254E60
:1018700000F020000490002220213046FEF74CFEAC
:101880004FF6FF700324CDE9000469461E48FEF7B9
:101890004BFD42F2FF00CDE9000469461B48FEF70C
:1018A00043FD41F60F10CDE9000469461848FEF7E4
:1018B0003BFD47F6C770CDE9000469463046FEF7A8
:1018C00033FD4FF40040CDE90005694630460295EE
:1018D000FEF72AFD4FF6FB70CDE9000469460D487E
:1018E000FEF722FD202000900120CDE90105022015
:1018F000039069463046FEF717FD06B070BD000044
:1019000000100240000C014000180140001001408E
:1019100000080140001401401CB500241B4801943C
:10192000194900940160611E41604FF4807181602B
:10193000FFF746FA08B1FEF79BFC14208DF804006F
:1019400023208DF805008DF80640012201A90F48DB
:10195000FFF702FB08B1FEF78BFC06208DF80000B4
:1019600012208DF8010015208DF8020018208DF846
:101970000300012269460548FFF78CFA002801D0D0
:10198000FEF776FC1CBD000000280040BC000020D3
:101990000E4810B50C490160002141608160C160B2
:1019A000016141618161FFF773FC08B1FEF760FCE2
:1019B0004FF400610548FFF742FB002803D0BDE863
:1019C0001040FEF755BC10BD00800140D000002043
:1019D000104810B50E4901604FF48271416000213A
:1019E0008160C1604FF480220161C0E90512382294
:1019F000C0E90721416281620A21C162FFF7D0FC80
:101A0000002803D0BDE81040FEF732BC10BD000036
:101A100000300140540100200C4810B50A49016013
:101A20004FF4E1314160002181600C22C160C0E9C6
:101A300004128161C161FFF718FE002803D0BDE8E0
:101A40001040FEF715BC10BD00380140AC0100206D
:101A5000FEE770470907090E002806DA00F00F00BC
:101A600000F1E02080F8141D704700F1E02080F8BC
:101A700000147047010901EB810100F00F0000EB39
:101A80004100C0B2704770B50446FEF74BFD0546F5
:101A90004FF47A7606E0FEF745FD401BB04201D9CF
:101AA000032070BD206840688006F4D52068416836
:101AB00041F010014160002070BD000070B5044687
:101AC0000068416821F010014160FEF72BFD0546DA
:101AD0004FF47A7607E000BFFEF724FD401BB042CA
:101AE00001D9032070BD206840688006F4D500202D
:101AF00070BD0168086A496A89B241EA00407047CE
:101B0000006881698AB2C1698BB2816989B28A42EF
:101B100003D0C06961F31F40704743EA0240704739
:101B2000F0B56424C1EBC1030927A500072603EB28
:101B300001130329B3FBF7F100F5FA6011440144E6
:101B40000AD2401EB0FBF4F201EB9001B0FBF5F0BD
:101B5000891A0844001D08E0B0FBF4F201EB900183
:101B6000B0FBF5F0891A0844801CB0FBF6F106FBC7
:101B70001100C0B2F0BD70B50D4606460024FFF757
:101B800082FF48B93168280C08623168A8B24862FF
:101B90003046FFF793FF00B10124204670BD70B5B9
:101BA0000D4606460024FFF76EFF48B93168280C41
:101BB00088613168A8B2C8613046FFF77FFF00B185
:101BC0000124204670BD0A6842624A688262D1E9F7
:101BD00002231A43D1E904310B43C16A1A4321F0AD
:101BE000F7011143C16200207047006800F0030054
:101BF000704708B5084414300090006808BD70B5FF
:101C00000DF1100C11439CE8700023431943294344
:101C10004268314347F6FF639A430A43426000201B
:101C200070BD0321016000207047D0F8800070472C
:101C30000A688260D1E901231A43D1E903310B43D9
:101C4000C1681A436FF30B011143C1600020704754
:101C500010B586B004463720CDE900104020029030
:101C6000002003904FF48060049069462046FFF7FF
:101C7000DFFF41F288323721204600F021F906B01B
:101C800010BD000010B504460A4886B00143292063
:101C9000CDE9001040200290002003904FF48060B6
:101CA000049069462046FFF7C3FF204600F0BEF9C6
:101CB00006B010BD0000108010B586B0044610209C
:101CC000CDE9001040200290002003904FF4806086
:101CD000049069462046FFF7ABFF41F2883210219D
:101CE000204600F0EDF806B010BD10B586B00446F1
:101CF0000620CDE9001040200290002003904FF410
:101D00008060049069462046FFF792FF41F28832D6
:101D10000621204600F0D4F806B010BD30B585B0DD
:101D200000240546009401944FF480600294CDE9AC
:101D3000034069462846FFF77BFF0B484FF4FA51F2
:101D40000068B0FBF1F041F288314843401E03D2F5
:101D50004FF0004005B030BD696B0906F6D540F282
:101D6000FF50A8632046F5E75000002070B585B00D
:101D700004464FF4D570009008204026CDE90106B6
:101D80000025C001CDE9035069462046FFF750FF0A
:101D90000F484FF4FA510068B0FBF1F041F288317E
:101DA0004843401E02D24FF000450DE0616B11F038
:101DB000450FF6D0606B400702D5A663042503E00B
:101DC000606B400600D5A66305B0284670BD0000D4
:101DD0005000002010B586B004460720CDE9002051
:101DE00040200290002003904FF4806004906946E8
:101DF0002046FFF71DFF41F288320721204600F000
:101E00005FF806B010BD10B586B004460021022070
:101E1000CDE90010C020CDE902014FF480600490AC
:101E200069462046FFF704FF204600F0D7F806B0C9
:101E300010BD10B586B004460920CDE90010C020C1
:101E40000290002003904FF4806004906946204681
:101E5000FFF7EEFE204600F0C1F806B010BD10B549
:101E600086B0044600213320CDE900104020CDE9A2
:101E700002010001049069462046FFF7D9FE41F2B5
:101E800088323321204600F01BF806B010BD30B573
:101E900085B00C46054600210320CDE90010402006
:101EA000CDE902010001049069462846FFF7C0FE13
:101EB00022460321284600F0D9F805B030BD0000C5
:101EC000444B10B51B684FF4FA54B3FBF4F353437F
:101ED0005B1E02D24FF0004010BD426B12F0450F66
:101EE000F6D0426B520703D504218163084610BD2A
:101EF000426BD20702D00121816303E00269D2B2B2
:101F00008A4201D0012010BD40F2FF5181630021BF
:101F1000FFF76FFE3049084201D1002010BD0028B4
:101F200002DA4FF0007010BD410001D5402010BD15
:101F3000810001D5802010BDC10002D54FF4807012
:101F400010BD010102D54FF4007010BD410102D552
:101F50004FF4806010BDC10102D54FF4006010BD88
:101F6000010202D54FF4805010BD410202D54FF45A
:101F7000005010BD810202D54FF4804010BDC10257
:101F800002D54FF4004010BD410302D54FF400309C
:101F900010BD810302D54FF4802010BDC10302D5CE
:101FA0004FF4002010BD010402D54FF4801010BD85
:101FB000410402D54FF4001010BD810402D54FF446
:101FC000800010BD000702D54FF4000010BD4FF493
:101FD000803010BD5000002008E0FFFD12494FF492
:101FE000FA520968B1FBF2F141F288325143491EBD
:101FF00002D24FF000407047426B12F0450FF6D00E
:10200000416B490703D50421816308467047416B42
:10201000C90703D0012181630846704740F2FF5190
:102020008163002070470000500000200E494FF4EB
:10203000FA520968B1FBF2F141F288325143491E6C
:1020400002D24FF000407047426B12F0450FF6D0BD
:10205000416B490703D5042181630846704740F26C
:10206000FF51816300207047500000201F4B10B5C6
:102070001B684FF4FA54B3FBF4F341F28834634322
:102080005B1E02D24FF0004010BD446B14F0450FB0
:10209000F6D0436B5B0703D504218163084610BD6E
:1020A000436BDB0702D00121816303E00369DBB2EC
:1020B0008B4201D0012010BD40F2FF51816300210D
:1020C000FFF797FD10F4604F04D0410406D54FF49C
:1020D000005010BD000C1080002010BD000402D57F
:1020E0004FF4805010BD4FF4803010BD50000020E0
:1020F0002DE9F04F89B00E460446FEF713FA00258D
:102100008346009501952F4608212068FFF7D4FDEE
:10211000002834D1B4F8500001042068FFF798FD7E
:1021200000282CD1401E4FF00808CDE902083020CD
:102130004FF00209CDE904090120CDE9067002A99A
:102140002068FFF740FD2068FFF789FE002816D1C0
:10215000EA4640F22A472068416B394212D1416B6E
:10216000890204D5FFF761FD4AF825006D1CFEF7D2
:10217000D9F9A0EB0B00401CEDD14FF0004009B0A5
:10218000BDE8F08F416B090703D5C0F838800820FF
:10219000F5E7416B890703D5C0F838900220EEE7D8
:1021A000416B890603D5202181630846E7E740F2A9
:1021B000FF518163009800BA7060019800BA3060E6
:1021C0000020DCE710B590B004460120ADF83800DF
:1021D0002068FFF70AFD002864D0606C032842D015
:1021E0002068FFF710FE00285AD100212068FFF771
:1021F00000FD606704212068FFF7FBFCA067082151
:102200002068FFF7F6FCE0670C212068FFF7F1FC7F
:10221000C4F88000606C032825D00EA92068FFF761
:1022200036FE00283CD1606C03281CD0BDF8380075
:10223000206501042068FFF7FCFD002830D1002153
:102240002068FFF7D6FC606604212068FFF7D1FC08
:10225000A06608212068FFF7CCFCE0660C2120680E
:10226000FFF7C7FC206704212068FFF7C2FC000DC0
:10227000E06403A92046FEF71EFFB4F850000023D7
:1022800002042068FFF7A6FD002809D104F1100020
:1022900007C88DE8070094E80F00FFF7B0FC0020A6
:1022A00010B010BD4FF08060FAE72DE9F84300252B
:1022B000044600950068FFF731FD00281AD1206818
:1022C000FFF754FD4FF080784FF6FF76D8B14FF00E
:1022D0008057A5640098411C0091B0421AD000219B
:1022E0002068FFF7B5FC20B900212068FFF7CAFC81
:1022F00010B13846BDE8F88300212068FFF779FC6B
:10230000C00FE7D01FE00127A7640098411C00918F
:10231000B04201D14046EDE700212068FFF798FC6C
:102320000028E7D14FF080412068FFF7ABFC002880
:10233000E0D100212068FFF75CFCC10FE5D0400030
:1023400001D5676400E065640020D3E71CB504464E
:1023500000200090019000212068FFF74AFC8001D6
:1023600002D54FF400601CBD69462046FFF7C0FE51
:102370000028F8D10198C0030CD5B4F8500001042E
:102380002068FFF765FC0028EDD100212068FFF7E9
:10239000ACFC1CBD4FF080601CBD1CB50446002089
:1023A0000090019000212068FFF723FC800102D5F6
:1023B0004FF400601CBD69462046FFF799FE0028D7
:1023C000F8D1019840030CD5B4F8500001042068FE
:1023D000FFF73EFC0028EDD102212068FFF785FCC5
:1023E0001CBD4FF080601CBDFFF7BCF9054C4FF4DD
:1023F0007A7520212046FEF78BF8284600F0F8F980
:10240000F7E70000000C0140322000F0F1F9FBE793
:10241000322000F0EDF9FBE710B5502080F3118871
:10242000BFF34F8FBFF36F8F00F0F2FF18B1044975
:102430004FF080500860002080F3118810BD00002C
:1024400004ED00E070B596B028216846FDF7F1FE76
:1024500014210AA8FDF7EDFE18210FA8FDF7E9FEEB
:102460000920012500904FF4803000240495069542
:10247000CDE901040226CDE907604FF4E010099090
:102480006846FEF71BFB0F20CDE90A06A802CDE93E
:102490000C4002210AA80E94FEF7E4F96802CDE987
:1024A0000F500FA8FEF768F916B070BD0D4801680F
:1024B00041F00101016041680B4A1140416001682F
:1024C0000A4A11400160016821F4802101604168DD
:1024D00021F4FE0141604FF41F0181600449C003F3
:1024E00008607047001002400000FFF8FFFFF6FE92
:1024F00008ED00E00148FEF7F8BF0000EC01002005
:10250000F0B502681C4B1D4D1D4E1E4F1E4C4FF06A
:10251000804C984209D0A04207D0604505D0A8421F
:1025200003D0B04201D0B84204D122F0700E4A6804
:1025300042EA0E02984209D0A04207D0604505D079
:10254000A84203D0B04201D0B84203D122F4407572
:10255000CA682A4322F080054A692A4302608A68D1
:10256000C2620A688262984201D0A04201D1096920
:10257000016301214161F0BD002C014000040040D5
:1025800000080040000C0040003401402DE9F041FB
:10259000044600680169E26821F440511143016179
:1025A0002169A0680843616908432168CA6841F24B
:1025B0000C639A430243CA6020684169A26921F40E
:1025C0004071114341614C4920686425322688429C
:1025D0003CD1FEF72DFA00EBC00101EB0010616861
:1025E0008900B0FBF1F7FEF723FA00EBC00101EB25
:1025F00000106168B0468900B0FBF1F0B0FBF5F067
:102600006FF01801484307EB800106EB0110B0FBA7
:10261000F5F000F0F006FEF70BFA00EBC00101EB5D
:10262000001061688900B0FBF1F0B0FBF5F006EB3B
:102630000016FEF7FDF900EBC00101EB0010616828
:102640008900B0FBF1F7FEF7F3F93BE0FEF7E0F9A4
:1026500000EBC00101EB001061688900B0FBF1F7ED
:10266000FEF7D6F900EBC00101EB00106168B0463F
:102670008900B0FBF1F0B0FBF5F06FF018014843B2
:1026800007EB800106EB0110B0FBF5F000F0F0065F
:10269000FEF7BEF900EBC00101EB00106168890094
:1026A000B0FBF1F0B0FBF5F006EB0016FEF7B0F969
:1026B00000EBC00101EB001061688900B0FBF1F78D
:1026C000FEF7A6F900EBC00101EB0010616889007C
:1026D000B0FBF1F0B0FBF5F06FF01801484307EBE9
:1026E000800108EB0110B0FBF5F0216800F00F004D
:1026F00030448860BDE8F081003801400248012183
:1027000001700078704700002D0000200120704704
:1027100000207047024801210170007870470000D6
:102720002D00002000207047FEE702E008C8121FBD
:1027300008C1002AFAD170477047002001E001C1AA
:10274000121F002AFBD17047FDF7FAFEFFF77AFE51
:10275000FFF760F8FFF71CF9FFF73AF9FFF75CF9AC
:10276000FEF7EEFFFFF7D8F8012000F00BF8FFF7B7
:1027700007F800F044F8FEE701460020842900D065
:10278000C81C7047F0B50B30154D20F00701002430
:10279000144A0FE003688B420BD38B4205D95E1AB3
:1027A00043184768C3E9006700E04368136002C04C
:1027B00004E0021D10680028ECD12046002802D158
:1027C000286808B10020F0BD064A07481060074A93
:1027D000121A22F00702C0E9002401202860D7E77E
:1027E000B8000020B40000202C0F00202811002089
:1027F00010B500B9012000F077FB002010BD10B526
:1028000000F0C8FB002010BD03C8002200F078BC17
:10281000012000F063BC10B5012901D0002010BDDB
:1028200003220021012000F06BFC040004D00023EF
:102830001A46194600F0CCFC204610BD3EB50446B1
:102840000D46B0F90800FFF797FF02A9CDE9000196
:10285000208A2B4682B2D4E9001000F09FFD0128A7
:1028600001D000203EBD02983EBD00002DE9F041A0
:10287000184C0F460546E6682068001D00F07EFAF9
:1028800038B9206890F82C100120884021698143D4
:102890002161681C07D137B12168BDE8F0410E48BD
:1028A000091D00F0A3BA20683544B542456021688F
:1028B00005D2A06BBDE8F041091D00F07FBA606B46
:1028C000091D00F07BFAA06A854200D2A562BDE82E
:1028D000F081000054000020140300202DE9F04195
:1028E000054600F08FFA2E4CA068401CA0602068BE
:1028F0002C4F10B1606940B32DE02560A06801281D
:1029000029D1002606EB860007EB800000F048FA8C
:10291000761C072EF6D323488C3000F041FA21486C
:10292000A03000F03DFA1F48B43000F039FA1D48DD
:10293000C83000F035FA1B48DC3000F031FA194895
:102940008C3060631430A06305E02068E96AC06AD7
:10295000884200D82560606A401C6062E96A0120F4
:10296000226988401043206101EB810007EB800061
:10297000291D00F03BFA00F065FA606900280CD0D0
:102980002068E96AC06A884207D207494FF0805040
:102990000860BFF34F8FBFF36F8FBDE8F081000079
:1029A000540000203802002004ED00E070B5114E04
:1029B000114C17E000F022FB3068B8B100F012FEB5
:1029C00000F020FAF068C568281D00F0D7F9A0686B
:1029D000401EA0606068401E606000F033FA284628
:1029E00000F042F860680028E4D170BD00F0FAFD04
:1029F000F8E7000000030020540000202DE9F0411A
:102A0000856B174604460026026C82B1C7B1E068A8
:102A1000FDF7F6FBE168206C091AE160226891423B
:102A200002D26168081AE060022F16D017E0206811
:102A3000A8B9606800F050FD0646002060600EE016
:102A4000A068FDF7DDFB216CA0680844A060616808
:102A5000884204D32068A06001E005B16D1E6D1CA2
:102A6000A5633046BDE8F08110B50446006B00F068
:102A7000FDF92046BDE8104000F0F8B910484FF4C9
:102A80004061420706D0C01D0D4920F00700411AE1
:102A9000C1F540610B4A00230144C2E90003083933
:102AA000103A21F0070111604B600B600B1AC0E96E
:102AB000001393604FF000405360D06070470000F7
:102AC00028030020A0000020074C4FF08056074D3F
:102AD000FFF76CFF20680128FAD92E60BFF34F8FF3
:102AE000BFF36F8FF4E700003802002004ED00E030
:102AF0002DE9F0479A46DDE9098481466FF003032A
:102B0000206B03EB82021044089D20F0070670073B
:102B100007D0502080F31188BFF34F8FBFF36F8F22
:102B2000FEE723180A5C83F834200A5C12B1401CCB
:102B30001028F6D3002784F84370072D00D306250C
:102B4000E562C4E91157201D00F035F904F11800C1
:102B500000F031F92461C5F107006462A061E76407
:102B600084F8507052464946304600F0F5F820602F
:102B7000B8F1000F01D0C8F80040BDE8F0870000B0
:102B800030B5114900E011460A688242FBD34B6818
:102B90005C18844203D14068184448600846436882
:102BA0001C18944209D1084C103C2468A24209D058
:102BB00052681A4442600A6812680260814200D07A
:102BC000086030BD0460F9E7A00000200648416BB2
:102BD000096829B1416BC968C96849688162704751
:102BE0004FF0FF31FAE70000540000200848406829
:102BF000401C4FF0500080F3118804D0BFF34F8F7A
:102C0000BFF36F8FFEE7BFF34F8FBFF36F8FFEE70A
:102C1000A80000202DE9F041044600F0F3F894F9F3
:102C2000455004F1240609E0606A48B1304600F0DE
:102C30009FFC08B100F07EF96D1E6DB2002DF3DC33
:102C40004FF0FF3684F8456000F0FCF800F0DAF849
:102C500094F9445004F1100709E0206948B138465E
:102C600000F086FC08B100F065F96D1E6DB2002D14
:102C7000F3DC84F84460BDE8F04100F0E3B8000004
:102C80002DE9F0410546002700F0B8F9314E3068D3
:102C900008B9FFF7F3FEF06805424BD1C5B308351C
:102CA00068070ED005F00700C0F10800054468076A
:102CB00007D0502080F31188BFF34F8FBFF36F8F81
:102CC000FEE72DB37068854234D8224810300146A3
:102CD0000C6801E020460C466168A94202D22168D6
:102CE0000029F7D131688C4224D00768216801603F
:102CF00060680837411B10290FD96019420708D0B6
:102D0000502080F31188BFF34F8FBFF36F8FFEE722
:102D100010E041606560FFF733FF61687068401A3A
:102D20007060B268904200D2B060F0680143002049
:102D3000C4E9000100F056FC780707D0502080F36A
:102D40001188BFF34F8FBFF36F8FFEE73846BDE8A2
:102D5000F08100009000002010B5031F4FF0807438
:102D60001C601B1F21F001011960191F024B0B6031
:102D7000143940380A6010BDED2B0008D0E901324B
:102D800001699A60D0E901235A604A68824201D100
:102D900082684A60002202610868401E086070472D
:102DA00000F108014FF0FF32C0E90112C16001617A
:102DB00000210160704700210161704730B50B6848
:102DC0005A1C02D000F1080202E0026904E0224627
:102DD000546825689D42FAD953684B6099608A60AF
:102DE000516008610168491C016030BD42684A6059
:102DF00093688B6093685960916008610168491C11
:102E000001607047502080F31188BFF34F8FBFF3EC
:102E10006F8F0A494868401C486001280CD1084857
:102E2000006810F0FF0F07D0502080F31188BFF327
:102E30004F8FBFF36F8FFEE770470000A8000020A0
:102E400004ED00E00849486828B1401E486001D1FF
:102E500080F311887047502080F31188BFF34F8FA3
:102E6000BFF36F8FFEE70000A800002070B50028B8
:102E700027D0144DA0F108046168E868014207D129
:102E8000502080F31188BFF34F8FBFF36F8FFEE7A1
:102E900022683AB1502080F31188BFF34F8FBFF3FF
:102EA0006F8FFEE78143616000F0A8F86068696891
:102EB000084468602046FFF763FEBDE8704000F0FC
:102EC00091BB70BD9000002006484FF47A710068F5
:102ED000B0FBF1F14FF0E020491E41610721016193
:102EE000704700005000002010B5020014D00F48B9
:102EF000006B38B1502080F31188BFF34F8FBFF3C0
:102F00006F8FFEE700F07AF800211046FFF7AEFC65
:102F100000F068FB002807D105494FF08050086099
:102F2000BFF34F8FBFF36F8F10BD00005400002020
:102F300004ED00E001490120C86170475400002001
:102F400010B50C4650B1094909681831FFF736FF32
:102F50002046BDE810400121FFF788BC502080F3D7
:102F60001188BFF34F8FBFF36F8FFEE7540000202F
:102F700028B107490A6A0260C96841607047502059
:102F800080F31188BFF34F8FBFF36F8FFEE7000010
:102F9000540000201CB515480024CDE9004023460C
:102FA000802213A1144800F0F9F9012809D0401C2F
:102FB0001AD1502080F31188BFF34F8FBFF36F8F6A
:102FC000FEE7502080F31188BFF34F8FBFF36F8F60
:102FD00006484FF0FF312C38816201214161C46005
:102FE000BDE81C4000F040B81CBD0000800000207F
:102FF00049444C4500000000C92A00080248016B02
:10300000491C016370470000540000201448016B04
:1030100011B10121C16170470021C1610169B1FA9B
:1030200081F1C1F11F0101EB81020E4951F82230FB
:103030006BB101EB820101F108034A6852684A60F2
:103040009A4201D152684A60D168016070475020AD
:1030500080F31188BFF34F8FBFF36F8FFEE700003F
:1030600054000020380200201CB51949087801904E
:10307000FF20087008788DF800009DF80000154AC0
:1030800000F0500010700720906005E09DF80030BF
:103090005B008DF80030401E9DF800301B06F5D413
:1030A000000200F4E0609060019808700A4801682E
:1030B00041F470010160016841F070410160FFF767
:1030C00003FF00205060FDF74FF800201CBD0000FA
:1030D00000E400E0A800002020ED00E010B502466A
:1030E0000021012000F00CF8041E07D000214160EF
:1030F00001600B460A46C16000F06AF8204610BD28
:1031000070B50E46050013D0D6B105FB06F0483069
:10311000FFF7B6FD040009D004F1480120468EB146
:103120000160C0E90F56012100F00EF8204670BD85
:10313000502080F31188BFF34F8FBFF36F8FFEE7EE
:103140000020E4E70060ECE770B50D46040025D0F0
:10315000FFF758FED4E90F20216802FB00116160DF
:103160000021A1632168A1600A46D4E90F01401E35
:1031700000FB0121E16021464FF0FF3001F8440FD0
:10318000487004F110008DB1FFF70AFE04F124002D
:10319000FFF706FEFFF756FE012070BD502080F3BA
:1031A0001188BFF34F8FBFF36F8FFEE721690029AE
:1031B000F0D000F0DDF90028ECD004494FF0805049
:1031C0000860BFF34F8FBFF36F8FE3E704ED00E0BC
:1031D0002DE9FF4782B01D468A464FF000080400E3
:1031E00003D0BAF1000F08D011E0502080F311880D
:1031F000BFF34F8FBFF36F8FFEE7206C38B15020C5
:1032000080F31188BFF34F8FBFF36F8FFEE7022D5E
:103210000AD1E06B012807D0502080F31188BFF35A
:103220004F8FBFF36F8FFEE700F0E4F83F4F4FF092
:1032300000094FF0805648B9049838B1502080F307
:103240001188BFF34F8FBFF36F8FFEE7FFF7DAFDF3
:10325000A06BE16B884207D3022D05D00498D0B152
:10326000B8F1000F1AD01EE02A4651462046FFF75B
:10327000C5FB616A19B104F1240000F079F920B1AD
:103280003E60BFF34F8FBFF36F8FFFF7DBFD012071
:1032900006B0BDE8F087FFF7D5FD22E06846FFF7EE
:1032A00067FE4FF00108FFF7CDFDFFF7A7FEFFF720
:1032B000A9FD94F94400401C01D184F8449094F98C
:1032C0004500401C01D184F84590FFF7BBFD04A9DF
:1032D000684600F02DF830B12046FFF79BFC00F067
:1032E00081F90020D4E7FFF78DFDA06BE16B8842E8
:1032F00013D1FFF7A7FD04F110000499FFF720FE9A
:103300002046FFF787FC00F06DF900289ED13E6053
:10331000BFF34F8FBFF36F8F98E7FFF793FD204602
:10332000FFF778FC00F05EF990E7000004ED00E0A4
:1033300070B50D46040019D005B3FFF763FD164ABA
:10334000D1682868431C0FD02368126A934202D0C8
:1033500062688A421AD96268891A814216D2401A72
:1033600028602046FFF704FE002410E0502080F380
:103370001188BFF34F8FBFF36F8FFEE7502080F3AC
:103380001188BFF34F8FBFF36F8FFEE70124FFF764
:1033900059FD204670BD0000540000202DE9FF5F5C
:1033A0008346DDE90E87994616468A469000FFF768
:1033B00067FC05001AD05420FFF762FC040012D00D
:1033C00025630021CDE90241CDE900874B46324615
:1033D00051465846FFF78CFB2046FFF77FFA012045
:1033E00004B0BDE8F09F2846FFF740FD4FF0FF30E6
:1033F000F6E700000548416919B1006B18B10020DB
:1034000070470120704702207047000054000020E0
:103410002DE9F0412E4C0027206B40B1A069401CE3
:10342000A061E06900B101273846BDE8F081E66897
:10343000761CE66013D1606B006838B1502080F3D1
:103440001188BFF34F8FBFF36F8FFEE7606BA16BE7
:103450006163A063206A401C2062FFF7B7FBA06A8B
:10346000DFF87080864209D3606B006880B1606BC2
:10347000C068C568686886420DD2A0622068C06ACC
:1034800000EB800158F821000128CAD90127C8E7BC
:103490004FF0FF30F1E7281DFFF770FCA86A18B164
:1034A00005F11800FFF76AFCE86A012122698140F2
:1034B0001143216100EB800108EB8100291DFFF71A
:1034C00095FCE86A2168C96A8842CDD30127CBE719
:1034D000540000203802002070B504004FF00001B5
:1034E00040D0214D2868844207D0502080F31188B5
:1034F000BFF34F8FBFF36F8FFEE7A06C38B1401E54
:10350000A064636CE26A9A422CD040B12AE0502059
:1035100080F31188BFF34F8FBFF36F8FFEE7201D3D
:10352000FFF72CFC114A012150B9E06A00EB80033F
:1035300052F8233023B92B6901FA00F083432B6141
:10354000606CE062C0F10700A061E06A2B69814015
:103550001943296100EB800002EB8000211DFFF779
:1035600045FC0121084670BD5400002038020020AF
:103570002DE9F041C068C468ACB104F118000746F9
:10358000FFF7FCFB154D286B0126A0B13946144806
:10359000FFF72CFCE06A2968C96A88421CD901201F
:1035A000EE61BDE8F081502080F31188BFF34F8FAA
:1035B000BFF36F8FFEE7201DFFF7E0FBE16A2A698A
:1035C00006FA01F01043286101EB81000449B43987
:1035D00001EB8000211DDBE70020E2E75400002022
:1035E000EC0200202DE9F0472C4D00242746286BE3
:1035F00038B1FFF707FC286B401E2863286B40B1E9
:1036000046E0502080F31188BFF34F8FBFF36F8FD8
:10361000FEE7A968224E0120D1B3A6F1B409804685
:103620003068E8B1F068C46804F11800FFF7A6FB41
:10363000201DFFF7A3FBE06A2A6908FA00F1114395
:10364000296100EB800109EB8100211DFFF7CEFB12
:10365000E06A2968C96A8842E2D3C5F81C80DFE7BE
:103660000CB1FFF7B3FAAC6944B14646FFF7D0FEA0
:1036700000B1EE61641EF9D10020A861E86938B19B
:103680000849012738070860BFF34F8FBFF36F8FDA
:10369000FFF7D8FB3846BDE8F08700005400002053
:1036A000EC02002004ED00E0100000000200000029
:1036B00004370008E92300080000000000000000B3
:1036C000800000000C37000809240008FDFF0000FE
:1036D00000000000800000001837000811240008D6
:1036E000FDFF00000000000080000000000000005E
:1036F00000000000010203040607080900000000A2
:10370000010203046D795461736B31006D7954616A
:10371000736B3032000000006D795461736B30338D
:10372000000000004437000800000020BC0000003A
:103730002A27000800380008BC0000206C14000094
:103740003A27000800000000000000000000000010
:103750000000000000000000000000000000000069
:103760000000000000000000000000000000000059
:1037700000010000FD260008152700081127000899
:10378000252700080D270008010000001000000098
:103790000000000000A24A04000000000000000039
:1037A0000000000000000000000000000000000019
:1037B0000000000000000000000000000000000009
:1037C00000000000000000000000000000000000F9
:1037D00000000000000000000000000000000000E9
:1037E00000000000000000000000000000000000D9
:1037F000AAAAAAAA00000000000000000000000021
:0400000508000131BD
:00000001FF
